:020000021000EC
:1080000000400020EDE2010035E3010037E301000C
:108010000000000000000000000000000000000060
:1080200000000000000000000000000039E3010033
:1080300000000000000000003BE301003DE3010000
:108040003FE301003FE301002D9E0100DDA00100A0
:108050003FE30100000000003FE30100E9A101004F
:108060003FE30100AD9A0100F59901003FE30100F3
:108070003FE301003FE301003FE301003FE3010074
:108080003FE30100C9C701003FE301003FE30100F6
:10809000A9C8010061A50100B9E201003FE30100A8
:1080A0003FE301003FE3010000000000000000008A
:1080B00000000000000000000000000000000000C0
:1080C00010B5064C2378002B07D1054B002B02D0AE
:1080D000044800E000BF0123237010BDB42000203D
:1080E0000000000084420200084B10B5002B03D0B2
:1080F0000749084800E000BF07480368002B00D18B
:1081000010BD064B002BFBD09847F9E7000000009C
:10811000B820002084420200B420002000000000AB
:10812000164B002B00D1144B9D46402292029A1A06
:10813000924600218B460F461348144A121A00F04B
:1081400067F80F4B002B00D098470E4B002B00D048
:1081500098470020002104000D000D48002802D09F
:108160000C4800E000BF00F02DF82000290000F0CE
:108170007DFA00F011F8C046000008000040002021
:108180000000000000000000B4200020E02B0020D0
:108190000000000000000000084B10B50400002B98
:1081A00002D0002100E000BF054B1868836A002B55
:1081B00000D09847200000F033F8C04600000000CF
:1081C000102F02000E4B70B500251E000D4CE41A56
:1081D000A410A54204D0AB00F35898470135F8E746
:1081E0000AF088FE084B00251E00084CE41AA41073
:1081F000A54204D0AB00F35898470135F8E770BDAD
:10820000AC200020AC200020AC200020B0200020BA
:1082100003008218934202D019700133FAE77047C5
:10822000FEE7C0461D4B1B78012B00D070471C4B4E
:108230001B681B07FAD1F0221A4B1B68134018D198
:10824000194B1B6813421CD0154B1B681B07EDD143
:10825000F022144B1B681340402BE7D1124B1B68D4
:108260001342E3D1C12380220121DB00D205D1508A
:10827000DCE7102B01D0302BEAD10B4B1B681342EB
:10828000E6D10A4A0A4B1A6080220A4B12021A608F
:10829000024B1B78012BD7D0C8E7C046E00F00F097
:1082A000E40F00F0E80F00F0EC0F00F0DFFF07C074
:1082B00004050040186C004082B00190019B002B27
:1082C00014D0019B0A48013B01930138C046C046C7
:1082D000C046C046C046C046C046C046C046C0466E
:1082E000C046C046F1D1019B002BEAD102B07047D5
:1082F000E7030000F0B55F4656464D464446F0B4ED
:10830000734C91B0200001F041FE724D28702000A6
:1083100001F03CFE0700200001F038FE6E4B060025
:10832000DB5D834210D06D4809F0ACFC0D252000C8
:10833000013D01F02BFE002DF9D111B03CBC90465F
:108340009946A246AB46F0BD654B20001F7001F078
:108350001DFE8046200001F019FE0F90200001F064
:1083600015FE604B87B220001F8001F00FFE3B021C
:108370005C4A181883B213805B4A2000138001F016
:1083800005FE5A4B07001880200001F0FFFD3F0258
:10839000564B3F1820001F8001F0F8FD544B07009A
:1083A00099461880200001F0F1FD4B463F023F182E
:1083B00020001F8001F0EAFD4E4B07009A4618800E
:1083C000200001F0E3FD53463F023F1820001F80CC
:1083D00001F0DCFD484B1870200001F0D7FD474B41
:1083E0001870200001F0D2FD454B1870200001F0FC
:1083F000CDFD444B87B29B4620001F8001F0C6FD97
:108400005B463F023F18FF201F8001F0ABFC28783D
:1084100001F0A8FC4346012B4CD043463A4C002BBC
:1084200002D12378012B4ED0384A1378002B38D054
:10843000374B1868374B1F680F9B591E8B41DBB2B7
:10844000137042462270264A297812780C903248DE
:1084500000680A970B9058460996008808902848AB
:10846000007807902548007806902348007805900A
:1084700050460024005F049048460024005F0390AB
:108480001A480024005F029016480088019000936B
:108490002248434609F0F6FB01F05EFB204B1860D2
:1084A0004BE70F9B012BC3D1194B1868194B0700E1
:1084B0001860C1E7144C2378002BB5D1642100204B
:1084C00004F0A0F8B0E76421012004F09BF8ABE7CA
:1084D0007C260020442A00200C300200142F0200C9
:1084E000BA2700209C270020902B00207A2A002009
:1084F000782A00206C2A0020C52B00202826002086
:1085000092270020702600205C2A0020C62B002025
:10851000A8270020F4250020E4280020282F0200AE
:10852000D028002010B5064801F030FD054C207021
:10853000FE2001F017FC207801F014FC10BDC046AD
:108540007C260020442A0020F8B54F4646460020ED
:10855000C0B401F007FC82240023214F214E3B6070
:10856000640005E0002001F0FDFB6420FFF7A4FE9D
:10857000335B002BF6D0300001F008FD0028F1D16C
:10858000FA208000FFF798FE82235B009946164B85
:10859000984603E03B682933FF333B604B46F35A70
:1085A000002B04D0300001F0F1FCFF2814D025226C
:1085B0004146386802F0DEF80028EBD0FA20454644
:1085C0004000FFF779FE444625352078013401F05C
:1085D000C9FBAC42F9D1DDE70CBC90469946F8BD29
:1085E000D02000207C260020982B00200023104A59
:1085F0001370104A1370104A1360104A13605360CE
:108600000F4A136053600F4A13600F4A13600F4AFA
:1086100013600F4A13600F4A13600F4A13600F4A2A
:1086200013600F4A13600F4A13600F4A13607047BC
:108630005C2A0020C62B0020142600201C290020C4
:1086400088270020C02B002084270020582A0020E3
:10865000302A0020C8280020D828002054260020D6
:10866000842B002064260020502A0020F8B55646AE
:108670004D4644465F46F0B401F020FC01F06EF92F
:1086800001F086FA01F0C2FD01F060FD64210120D5
:1086900003F0B8FF01F0B2FE02F0E4F801F068FF69
:1086A000FFF7A4FF0023614A614F1380614A3B70CA
:1086B0001380614A01241380604A1380604B9A46FC
:1086C00000235246137001F047FA002399465D4B90
:1086D0005D4E98465D4D306053461B789B46002B9F
:1086E00036D15A465A4B1A608222434652009A5A51
:1086F000002A08D02B78002B79D0564B1B78FF2B03
:108700005AD0FE2B6BD001F027FA534B01001860B2
:108710003B78002B07D0326850481018814200D9AE
:108720007EE0082B6ED001F027FA00281BD103F061
:1087300059FF0028D0D04A4B1B78002B6AD003F099
:108740000DFF00F007F953461B789B46002BC8D05D
:108750006420FFF7B1FDBFF34F8F424A424BDA600E
:10876000BFF34F8FFEE701F033FD01F06DFD0123F4
:108770004B449B464B461B070AD1A0233B4ADB05D3
:1087800099588022D205114247D1A121C9005A50DF
:10879000374B384A1B88934209D9374A934202D84B
:1087A000364809F06FFA01F0EDF9D946BFE73448D1
:1087B0003C7009F067FAF6E7112AA4D9FFF79AFD91
:1087C00001F0CAF95B462B70224B30601B78FE2B00
:1087D00099D18222434652009B5A002B93D0FFF737
:1087E000A1FE01F0B9F9002330602B708BE7404601
:1087F00001F0CCFB174B18700230C0B2012882D8B0
:108800002C7080E7002001F0ADFA53461C70FFF792
:108810009BFE88E703F096FD93E71A495A50B7E7A5
:10882000194809F02FFA3C707DE7C0466C2A0020F9
:10883000BA270020782A00207A2A00209C270020CE
:10884000C42B00207C260020542A0020D4200020A5
:1088500098270020202600200C260020A025260096
:108860005C2A00200400FA0500ED00E00405000089
:1088700016290020190400004B040000FC2F020000
:10888000E02F02000C050000D42F020030B5214B70
:10889000214800229B5E214A1B041360204A016884
:1088A0000024125F1F4C1204521A22601E4C121236
:1088B0002568AC461D4D6244D31A2B60DD111B02A6
:1088C0001B155B180360521B194B226092131A8010
:1088D000184B194800229B5E184A1B041360184A63
:1088E00001680024125F174C1204521A2260164CC1
:1088F00012122568AC46154D6244D31A2B60DD1167
:108900001B021B155B18521B0360114B2260921354
:108910001A8030BDF8250020C02B0020C828002078
:108920004C2A0020582A0020302A002084270020CA
:1089300090270020CC280020D82800205426002092
:10894000E028002064260020502A0020842B0020EC
:10895000A4270020F0B556465F464D464446F0B485
:10896000B14B85B09A461B78012B00D8E0E1AF4AA5
:108970001278002A07D01A1F012A01D800F040FC03
:10898000052B00D149E20022A9480260A94A1278C9
:10899000002A15D0A84AA94912680968511AA84A9C
:1089A00012885143A74A12888918A74A914200DDCC
:1089B00031E20022002901DB01608AB2A3490A806A
:1089C000022B23D0032B00D154E1042B00D155E21C
:1089D000052B01D100F048FC002B00D084E10022DF
:1089E0009B4B9146DA809A805A801A80002500239A
:1089F0000026984F4A463E807D80BA80FB8005B0B5
:108A00003CBC90469946A246AB46F0BD8F4B1B88B6
:108A10009A46002BE3D0904C0023E05E09F060F80A
:108A20008E4A8F4B08F038FA09F024F803B22380FD
:108A30008C4C99460023E05E09F052F8874A884B37
:108A400008F02AFA09F016F8514603B29846238036
:108A5000854B494400229B5E9B46C91A01D500F014
:108A6000D9FE8022D20592109142FCDB002A01D16E
:108A700000F0D0FE0023981885180024884200DCFE
:108A800004000C1B884200DC2B00D80FC3185810C0
:108A9000030092102100002AEDD100B209F020F865
:108AA0000022724B08F0F8F90022714B07F0A4FA8B
:108AB00008F0E0FF00B2061C002801DA00F0D5FE45
:108AC00036B2534642469D1A5B46614C2080ED18F3
:108AD00001D500F09BFE8022D20592109542FCDB6E
:108AE000002A01D100F092FE002013189F180021E7
:108AF000AB4200DC1900691AAB4200DC3800C30F3E
:108B000018184310180092100D00002AEDD118B269
:108B100008F0E6FF0022554B08F0BEF90022544B46
:108B200007F06AFA08F0A6FF00B2051C002801DA77
:108B300000F098FE2DB253464A466080981A5B4674
:108B4000C71A01D500F05DFE8022D205921097422F
:108B5000FCDB002A01D100F054FE0023A446981843
:108B600084180021B84200DC0100791AB84200DC08
:108B70002300D80FC3185810030092100F00002ACA
:108B8000EDD100B2644608F0ABFF0022374B08F08D
:108B900083F9374B002207F02FFA08F06BFF00B281
:108BA000031C002801DA00F082FE1BB29946A08067
:108BB00050465B464044C71801D500F0DDFD8022D9
:108BC000D20592109742FCDB002A01D100F0D4FDBF
:108BD0000020A44613189C180021BB4200DC190099
:108BE000791ABB4200DC2000C30F1818431018008C
:108BF00092100F00002AEDD1644618B208F070FF01
:108C000000221A4B08F048F9194B002207F0F4F93A
:108C100008F030FF00B2031C002801DA00F00AFE61
:108C20001BB2E0800B4FE5E6BA2700205C2A00204B
:108C3000E4280020C62B0020A8270020F4250020CF
:108C400070260020902B0020FFFF00009C270020B2
:108C5000882B0020642A0020782A00209A9999996C
:108C60009999E93F7A2A00206C2A00200000F83FF9
:108C7000000064406E4C23780133DBB25AB223709B
:108C8000002A01DA00F07CFD6A4A6B4B00215B5E32
:108C900011688C4663441360684A694B00215B5E2F
:108CA00011688C4663441360664A674B00215B5E23
:108CB00011688C4663441360644A654B00215B5E17
:108CC00011688C4663441360624A634B00215B5E0B
:108CD00011688C4663441360604A614B00215B5EFF
:108CE00011688C46634413605E4C23881E1C1BB2C3
:108CF000002B01DA00F092FD638836B21D1C1BB216
:108D0000002B01DA00F093FDA3882DB21A1C1BB2D0
:108D1000002B01DA00F088FD13B2E2889946131C9B
:108D200012B2002A01DA00F07CFD1BB24E4F61E660
:108D300000214E4A1160012B00D046E64C4808F055
:108D4000A1FF0A23484F9946464CB8461CE04146CD
:108D50000A80321C002E50DB41464A802A1C002D1E
:108D600051DB41468A801A1C002B52DBFA20434615
:108D70004000DA80FFF7A0FA01235B429C46E14401
:108D80004B46002B00D1E1E10023E05E08F0A8FE95
:108D9000384B394A08F080F808F06CFE07B227809B
:108DA0000223E05E08F09CFE324B334A08F074F870
:108DB00008F060FE06B266800423E05E08F090FED4
:108DC0002C4B2D4A08F068F808F054FE05B2A58037
:108DD0000623E05E08F084FE274A264B08F05CF884
:108DE00008F048FE03B2E3803A1C002FAFDA0022FD
:108DF00041460A80321C002EAEDA002241464A80EB
:108E00002A1C002DADDA002241468A801A1C002B54
:108E1000ACDA0022AAE70260D0E5FFF737FD53463F
:108E2000002212481B780260012B00D9AEE582E7D0
:108E3000D5200020B42700209027002058260020AD
:108E4000A4270020342A00201026002074260020A9
:108E50004C2A002004260020E0280020382A002088
:108E6000942B0020882B0020642A0020E428002076
:108E70000C310200CCCCEC3FCDCCCCCCCC4B002286
:108E80009B5ECC4A0020105E181A08F029FECA4BDF
:108E900004000020185E0D0008F022FEC74AC84BEF
:108EA00007F0FAFF02000B002000290007F0A4F8E9
:108EB00008F0E0FDC34B04B21C80C34B187808F0E7
:108EC0000FFEC24AC24B07F0E7FF060020000F006A
:108ED00008F006FE0B0002003900300007F0DCFF4E
:108EE00008F0C8FDBB4B984202DCBB4B984200DA4D
:108EF0001800BA4B1B889B460A2B00D86FE5B84B6D
:108F000000229B5E994608F0EBFD0022B54B07F06E
:108F1000C3FF040058460D0048440094019508F032
:108F2000DFFD22002B0008F031FA08F0A3FD002835
:108F300001DA00F0B4FCAC4B984201DD00F0D0FC4B
:108F400001339B109842FCDB002B01D100F0A7FC01
:108F500000220325D118CE180024814200DC0C0029
:108F6000041B814200DC3200D10FD8178A18284038
:108F7000C31851100A009B102000002BEAD108B240
:108F800008F0AEFD0022994B07F086FF0022984BB7
:108F900007F032F808F06EFD00B2061C002801DA76
:108FA00000F072FC36B2934B934C00229B5E208003
:108FB00098465B464246981A08F092FD009A019B3B
:108FC00007F01AF808F056FD002801DA00F063FCFB
:108FD000854B984201DD00F07FFC01339B109842E5
:108FE000FCDB002B01D100F056FCA4460022032735
:108FF00004009918CD180020A14200DC0800201AB6
:10900000A14200DC2A00D50FD917AA183940551003
:10901000CB182A009B100400002BEAD128B264462A
:1090200008F05EFD0022714B07F036FF0022704B06
:1090300006F0E2FF08F01EFD00B2051C002801DA70
:1090400000F01FFC2DB25B464A466080981A08F07B
:1090500047FD009A019B08F099F908F00BFD0028E4
:1090600001DA00F020FC604B984201DD00F03CFC8E
:1090700001339B109842FCDB002B01D100F013FC64
:109080000321A44600228A460400D118CF180020EC
:10909000A14200DC0800201AA14200DC3A0054463C
:1090A000D70FD917BA1821405710CB183A009B1088
:1090B0000400002BE9D138B2644608F011FD00220B
:1090C0004A4B07F0E9FE4A4B002206F095FF08F0F4
:1090D000D1FC00B2031C002800DAD0E31BB2994691
:1090E000A0805846404408F0FBFC009A019B06F023
:1090F00083FF08F0BFFC002800DA3DE33A4B9842BA
:1091000000DDE6E301339B109842FCDB002B00D12D
:1091100032E3032100228C46A0469918CC18002780
:10912000814200DC0F00C71B814200DC2200644644
:10913000D10FD8178A182040C31851100A009B106D
:109140003800002BE9D1444608B257E5FD2000F075
:1091500009FE822653464A46284D1A707600AB5BBC
:109160004746002B05D0280000F010FFAB5B002B1A
:10917000F9D123881E1C1BB2002B00DA9CE3638804
:1091800036B21D1C1BB2002B00DA93E3A3882DB26C
:109190001A1C1BB2002B00DA90E313B2E288994646
:1091A000131C12B2002A00DA62E31BB2FFF722FCA2
:1091B000942B0020182900206C2A002033333333ED
:1091C0003333D33FBE2B0020C52B00206666666676
:1091D0006666E63FFF7F00000080FFFF9C270020BF
:1091E000782A00200000F43FFFFFFF3F0000F83F17
:1091F000000064407A2A0020882B00207C26002072
:109200001548164F0022845E7E68A201610089180D
:109210003A68134DD20189183A68D2008918B20110
:109220008A18710051182A68D6031203961B6A68BF
:109230009203B2186E68F602921B8A1A09499213B9
:109240000A6039683C60796029682A609200696028
:109250000280FFF795FBC046942B00201C290020BC
:109260008827002014260020E64B00229B5EE64A59
:109270000020105E181A08F033FCE44B04000020B4
:10928000185E0D0008F02CFCE14AE24B07F004FEEA
:1092900002000B002000290006F0AEFE08F0EAFBF9
:1092A000DD4B04B21C80DD4B187808F019FCDC4A59
:1092B000DC4B07F0F1FD060020000F0008F010FC69
:1092C0000B0002003900300007F0E6FD08F0D2FB89
:1092D000D54B8046984200DCBDE29846D34A1360E5
:1092E000D34B0020185E08F0FBFBD24AD24B07F0AC
:1092F000D3FDD24B040000229B5ED14A0D0000201A
:10930000105E181A08F0ECFB02000B002000290088
:1093100008F03CF808F0AEFBCA4B05001860CA4BD9
:1093200000241C5FC94B00229B5EE31A99464A4603
:10933000C74B1A60C74B0020185E08F0D1FBBD4A2E
:10934000BD4B07F0A9FDC44B060000229B5EC34A3B
:109350000F000020105E181A08F0C2FB02000B007C
:109360003000390008F012F808F084FBBC4B039081
:109370001860BC4B00229A5EBB4B00215B5ED31A87
:109380009B465A46B94B1A60B94B1E78B94B300010
:109390001B789A4608F0A4FB534673430090019152
:1093A0001800684308F09CFB994AB34B07F074FD22
:1093B0000022B24B04000D000098019907F06CFDEB
:1093C000060048460F0008F08BFB02000B0030003F
:1093D000390007F061FD02000B002000290007F0B2
:1093E000D5FF08F047FB08F07BFBA54B914A07F03F
:1093F00053FD08F03FFBA34B8146984200DB23E27C
:109400009946A14A1360A14AA14B0098019907F01F
:1094100043FD040050460D0008F062FB02000B0003
:109420002000290007F038FD040003980D0008F023
:1094300057FB02000B002000290007F02DFD744AA5
:10944000944B06000F000098019907F025FD0400D9
:1094500058460D0008F044FB02000B0020002900D4
:1094600007F01AFD02000B003000390006F0C4FDC1
:1094700008F000FB08F034FB814B6E4A07F00CFD4E
:1094800008F0F8FA7F4B8346984200DBD5E19B4613
:10949000814A1360814B1B889A460A2B01D8FFF73B
:1094A0009EFA404608F01CFB00227D4B07F0F4FCBE
:1094B000040050460D0048440094019508F010FB4C
:1094C00022002B0007F062FF08F0D4FA002800DA2F
:1094D000D2E1744B984200DD10E201339B109842B8
:1094E000FCDB002B00D1C7E1002203259918CE1820
:1094F0000024814200DC0C00041B814200DC3200AD
:10950000D10FD8178A182840C31851100A009B1091
:109510002000002BEAD108B208F0E2FA0022624BE8
:1095200007F0BAFC0022614B06F066FD08F0A2FAD3
:1095300000B2061C002800DAA9E136B253465A46AA
:109540005B4C2080981A08F0CBFA009A019B06F039
:1095500053FD08F08FFA002800DAB1E1514B984230
:1095600000DDCEE101339B109842FCDB002B00D1E3
:10957000A6E1A446002203270400D118CD1800203C
:10958000A14200DC0800201AA14200DC2A00D50F0D
:10959000D917AA1839405510CB182A009B1004007F
:1095A000002BEAD128B2644608F09AFA00223E4B1A
:1095B00007F072FC00223D4B06F01EFD08F05AFA3F
:1095C00000B2051C002800DA63E12DB253464A467A
:1095D0006080981A08F084FA009A019B07F0D6FE82
:1095E00008F048FA002800DA6DE12E4B984200DDC1
:1095F00081E101339B109842FCDB002B00D162E13A
:1096000058E0C046942B0020182900206C2A002026
:10961000333333333333D33FBE2B0020C52B0020ED
:10962000666666666666E63FFF7F0000B02700203C
:10963000782A00209A9999999999C93FA4270020DE
:10964000922B002078260020A0270020E028002070
:10965000402A00207A2A0020902700209E27002000
:10966000FC250020C82B00204C2A0020DC280020EC
:1096700092270020282600203333C33F0000E03F1C
:109680009999E93F0080FFFF742A00200AD7A37050
:109690003D0AC73F3333E33F6C2600209C27002060
:1096A0000000F43FFFFFFF3F0000F83F0000644070
:1096B000882B00200321A446002289460400991823
:1096C000CF180020A14200DC0800201AA14200DCD3
:1096D0003A004C46D70FD917BA1821405710CB186B
:1096E0003A009B100400002BE9D138B2644608F020
:1096F000F7F90022844B07F0CFFB844B002206F0E1
:109700007BFC08F0B7F900B2031C002800DADEE0A9
:109710001BB29946A0805046584408F0E1F9009ADF
:10972000019B06F069FC08F0A5F9002824DB784BC2
:10973000984200DDDCE001339B109842FCDB002BFB
:109740001AD0032100228C46A0469918CC18002775
:10975000814200DC0F00C71B814200DC220064460E
:10976000D10FD8178A182040C31851100A009B1037
:109770003800002BE9D1E6E4A023A020FFF751FA3E
:10978000802B01D0FFF7B0FA624808F07BFA7F2205
:10979000614B00251B68FC20D9171140CB185F498D
:1097A000DB110B805E4B25701B68D9171140CB185D
:1097B0005C49DB110B805C4B1B68D9171140CB183F
:1097C0005A49DB110B805A4B1B68D9171140CB1833
:1097D0005849DB110B80584B1B68D9171140CB1827
:1097E0005649DB110B80564B1B68D9170A40D3181A
:1097F000544ADB11138000F0B5FA53461D70FFF791
:1098000073FAA023A0209946FFF7D1F9A025A02044
:10981000FFF791F9A026A020FFF753F90026FFF7E4
:109820006BFA0023FFF781FA0022FFF775FA002593
:10983000FFF76AFA0023FFF7F3F9434B984200DD84
:1098400025E6424B186025E63F4B984200DDD7E500
:109850003F4B1860D7E53F4B984200DA3DE53E4B61
:1098600018603DE50025FFF765F90026FFF728F9A8
:1098700000231BB2FFF7BEF8A026A0205EE600235F
:109880002CE40025FFF7DEFB0026FFF78BFB00260C
:1098900053E6002599E6A025A020FFF7D4FBA026DB
:1098A000A020FFF780FBA023A020994618E4002306
:1098B000FFF77BF9002569E4002660E400226CE4F0
:1098C000A025A02082E6A023A020994622E700231D
:1098D0001EE78023DB051CE48023DB05FFF785FB07
:1098E0008023DB05FFF734FB8023DB05FFF7C8FB94
:1098F0008023DB0525E78023DB05DBE68023DB0512
:10990000F2E58023DB0534E60000F83F0000644008
:10991000FFFFFF3F14310200B42700209E270020E4
:1099200058260020922B0020342A0020B82700203F
:1099300074260020C82B002004260020A027002029
:10994000382A002018290020FF7F00006C26002004
:10995000742A00200080FFFFB0270020A222194BAC
:109960001949D20099501949194A8020995019492A
:10997000043299501849194AC0039950A023EB2189
:109980000322DB05C9005A5008315A5010315A5091
:1099900008315A50A121C900585080204004585025
:1099A0008020400558508020C00558500C495A501E
:1099B00004315A5028395A5008395A500021094A5E
:1099C00099507047006000400315130003171300FF
:1099D0001405000003191300031D13001C050000EB
:1099E0004C070000140700000122014B1A70704759
:1099F000D02B0020A622274B52009958002931D0A5
:109A00000021995024490A683932FF320A60012244
:109A10009A64224A1278002A24D1A922D2009A58A4
:109A2000F423FF339A421DD81D4B0422995E1D4A30
:109A3000914218DDFA22FA2092009A800622995E5D
:109A4000184AC00091421BDC0A1C00291DDBFA21C8
:109A500012B289005118DA80A8220E4BD200985019
:109A6000114A995070470A1C002910DBFA2112B2E2
:109A7000890050189A800622995E0A4A9142E3DDD5
:109A8000FA21FA22C9009200E5E70022DFE700226E
:109A9000ECE7C04600A00040CC2B00205D2A00204F
:109AA000642A0020E703000044050000A622254B9D
:109AB0005200995800292DD0002199504C3AFF3A74
:109AC0009A64214A1278002A24D1A922D2009A58F5
:109AD000F423FF339A421DD81C4B0022995E1C4A86
:109AE000914218DDFA22FA2092001A800222995E31
:109AF000174AC00091421BDC0A1C00291DDBFA2119
:109B000012B2890051185A80A8220E4BD2009850E8
:109B1000104A995070470A1C002910DBFA2112B232
:109B2000890050181A800222995E094A9142E3DDA9
:109B3000FA21FA22C9009200E5E70022DFE70022BD
:109B4000ECE7C046009000405D2A0020642A002017
:109B5000E7030000440500000122054B9A64A92296
:109B6000D2009858034BC0081B68C0187047C04605
:109B700000A00040CC2B0020014B18787047C04655
:109B8000D02B00200022014B1A707047D02B0020F0
:109B9000F8B55F4656464D4644460023504AF0B459
:109BA0001360504AA2261370C1239B009A4680235B
:109BB0001B039B46012153465846A8254A4AF600F6
:109BC0009151D0504948E433ED0053519C46135015
:109BD000474B4848802713509946082350465C4617
:109BE000BF00D3519846444BD16099511C506046F8
:109BF0003E4C5851185148463E4C18514046D85199
:109C0000D9601160C022520094468022D200904652
:109C1000196062464146394B043C9950F8395A580C
:109C200091464846364A0240C020000402435A503A
:109C300042461A6062469F505A5894466046314ADE
:109C40000240C020000202435A501F602E4A2F4B90
:109C50002F499A512F4A08365A502F492348995173
:109C60002E4E9A51A4222E4ED2009E502D4A2E4E98
:109C70009A51043699512D4910365A50A6222C4932
:109C8000D20099502B4A2C495A502C4999512C4EAC
:109C90009A512C4A5A512C4A1A50195115490020F0
:109CA0005A50FF21294A99500023294AFA3903F0D2
:109CB00061F8002803D00022002102F029FD254A86
:109CC0000121254803F0C8F800222449244803F064
:109CD000DDF83CBC90469946A246AB46F8BDC0466E
:109CE000CC2B0020D02B002000A000404405000019
:109CF000C40900004C0500000090004000E100E0B5
:109D0000FFFF00FFFF00FFFF4091004000F0014017
:109D100014050000006000404C9100401C0500004C
:109D20004491004004600040240500002C05000020
:109D300040A1004008600040340500004CA10040F4
:109D40003C05000044A100400C60004004050000F8
:109D5000F8200020E9990100383102006606000071
:109D6000D820002010B5802304240A4AD4500A4B7E
:109D70001A78002A08D000221A70084B084AD050DE
:109D80000422044B1A6010BD0100064800F0F0F8F0
:109D9000F6E7C04600E100E0642000201C0500005A
:109DA00000200040C0270020F0B55F4656464D46D3
:109DB0004446F0B483B00192002A24DD8023994602
:109DC0007C3B9246984600230C008A44124E134D69
:109DD00004279B4609E05B46114A3370114B01345E
:109DE000D15043462B6054450DD04B462178EF505F
:109DF0003378002BEFD10C4800F0BAF84346013419
:109E00002B605445F1D1019803B03CBC9046994673
:109E1000A246AB46F0BDC0466420002000E100E051
:109E2000002000401C050000C027002070B58425DC
:109E30001B4C6D006359002B1ED18E23184C5B0008
:109E4000E258002A09D000221648E250183BC35AB3
:109E5000002B1FD10122144B1A709222104B52007A
:109E60009958002907D0002199509022D200995882
:109E70000E4807F007FF70BDFFF76EFE0C4B186031
:109E800000236351A323DB00E1580A48C9B200F064
:109E90006FF8D2E700F07AF8074BE050DDE7C046F4
:109EA00000200040C0270020642000203C31020038
:109EB0003C2A00207C2600201C05000010B51E480E
:109EC00000F04CF81D4800F049F8A023E7220321D8
:109ED000DB05D2009950E82100220E20C9005A501B
:109EE000174B18495850184902305850174818490C
:109EF0005850A0200421C0001950842040001A505E
:109F000014301A5001329A601A60C2221E38FF388B
:109F100092009850A120043A80009850C0230D4A26
:109F20005B00D1507C3014580B4B2340C0242404D8
:109F300023431350116010BD7C260020C027002051
:109F4000002000400C0500001405000000E0D701CF
:109F50002405000000E100E0FFFF00FF8022002355
:109F6000FF215200835202328152023283527047E3
:109F7000812210B5FF245200835A013323408352BB
:109F8000C1540232835A0133835210BD802110B56F
:109F9000FF2402004900435AC05C0133234053525E
:109FA0000431535A013B535210BDC046F0B55746D9
:109FB0004E4645468446E0B489469A460120002A2A
:109FC0003BD0B12300276146244E254D254CDB00B4
:109FD0002F702770F1504946234BF15080218900A2
:109FE0007750B06029780029FCD000212970012A1F
:109FF0002ED080210125194889004550012117489C
:10A0000089460160802189008846FF39A325FF39F0
:10A01000534600268C46ED0021780029FCD026709E
:10A020004159013AD2B21970012A0BD04946016256
:10A03000002A01D00133EFE700201CBC904699466E
:10A04000A246F0BD41466746013347500262E3E74E
:10A0500080210225014889004550CFE700300040AB
:10A06000C0220020C12200201C050000F0B5474698
:10A0700080B407000120002A27D00025B126A84679
:10A08000134CF6002570134DAF5180274646BF0094
:10A09000EE51114EA951A86021780029FCD0002171
:10A0A0000020013A2170D1B201310A4E0A4D5918EF
:10A0B0001A7872512278002AFCD0013320708B422A
:10A0C000F6D101220020034B5A6104BC9046F0BD3A
:10A0D000C0220020003000401C050000F8B5842399
:10A0E000154A5B00D158002904D00021D15001222B
:10A0F000124B1A708E23104A5B00D158002904D0ED
:10A100000021D15001220E4B1A7092250A4C6D008D
:10A110006359002B0FD00B4EA759FFF71DFDB1233C
:10A12000DB000200E3583900074807F0ABFD0323CA
:10A13000A35100236351F8BD00300040C12200202C
:10A14000C0220020C404000050310200A023E221FC
:10A150001A4ADB05C90010B55A5008395A50042173
:10A16000174B053AFF3A9950164A02399950002286
:10A17000CD200731FF315A5014315A501249C004D2
:10A180005850A120C1218000890058500539FF395D
:10A190005A50A022FC39FF39D2009950C023C02464
:10A1A0000A4A03315B00D1507C30135824061B024D
:10A1B0001B0A23431350116010BDC0460C0600005B
:10A1C000003000400C0500002405000000E100E024
:10A1D0008022044BD2009A58002A01D101321A6021
:10A1E0007047C0460070004080220021054B52009D
:10A1F0009950A122D2009A58D3009B1A024A138088
:10A200007047C04600700040162900200A4B0B49D9
:10A210000B4AC0209950A0210122C9005A50FD3993
:10A22000FF395A50074A000653581B021B0A0343C2
:10A2300053508023136070470070004004100000EA
:10A240000405000000E100E0F0B5474680B4604C32
:10A2500082B02578012D32D0002D1CD0022D07D1DF
:10A26000FFF77AFC5B4B1B68C01A5B4B984250D8D7
:10A2700032200138C046C046C046C046C046C0462F
:10A28000C046C046C046C046C046C046F1D102B036
:10A2900004BC9046F0BDB1227721504BD2009950BA
:10A2A00080227539920099504D4A463199500122C9
:10A2B0009A602270FFF750FC464B1860D8E7FFF712
:10A2C0004BFC444E3368C01A434B9842D0D9454F9B
:10A2D00003223B0000217720FFF768FE3B787721BF
:10A2E0001A047B7858201B021343BA7813433E4A62
:10A2F0001360B122394BD200995002228A31FF31CA
:10A300005A50374958509D602270FFF725FC306045
:10A31000AEE7344D03222B0000217720FFF746FEE5
:10A320002B7800211A046B781B021343AA782F4D57
:10A3300013432F4A13606A89288912029B1A984690
:10A340001A00002304F092FF4E06CB110021C2092F
:10A350003243AE88300412184B4100920193002121
:10A36000E8884246002304F081FF0E06020A3243C9
:10A370006E880B12F003002116001F0042463618AB
:10A380004F410023A889002104F070FFFA23DB006D
:10A390009C464902C00D0843164B60441860124B9E
:10A3A0003200186800213B0004F060FFCD02420D2E
:10A3B0004B152A4300980199121A8B4111005B0436
:10A3C000CA0B1A430C4B1A600023237050E7C04697
:10A3D000C6220020DC2200200F27000000300040B1
:10A3E0001C050000D8220020D82B0020C822002005
:10A3F000D42B002094270020A827002070B5A0248B
:10A40000094E0A4D2B00022221007720FFF7CEFDD6
:10A410002B786A781B0202341343E4B2338002368D
:10A42000B02CEFD170BDC046C8220020C42200204D
:10A4300076DF70477ADF70477CDF70477FDF7047D9
:10A44000A9DF704760DF70472EDF704732DF70474B
:10A4500033DF70474CDF70478021A02210B5044BDA
:10A460004904D205D1500022002102F051F910BD5B
:10A470000C050000F8B50E00151E08D00024044F8E
:10A48000315D38000134FFF773FDAC42F8D3F8BDFD
:10A490002829002010B5040003F0CAFC21001F4841
:10A4A00003F022FD2388112B2BD01ED9132B0ED0A5
:10A4B000522B08D11A4B0022188800210023FFF7E5
:10A4C000BFFF00280CD1200003F078FB10BD144B17
:10A4D0000022188885210023FFF7B0FF0028F2D062
:10A4E0000022002102F014F9EDE7102BEBD18021BE
:10A4F000A0220C4BD2054905D150A288084B1A80E6
:10A50000E1E78021A123A022DB00D2054905D1503B
:10A510000122034B52421A80D5E7C046282300206F
:10A520006C2000200C05000010B50378002B00D033
:10A5300010BD8021A022084BC903D205D150074B82
:10A540003B211888FFF774FF0028F1D0002200217A
:10A5500002F0DEF8ECE7C0460C0500006C2000209D
:10A560000123024A11784B40137070475D2A002086
:10A57000F0B57248A9B0FFF7F1FC7148FFF7EEFCA7
:10A58000002348226F49082003F066FE002800D00F
:10A59000CEE01AAC082200212000FDF739FE01228E
:10A5A0002378200093432370FFF74CFF002800D04E
:10A5B000B9E0654803F076FE002803D000220021B0
:10A5C00002F0A6F80022614B15201A70FFF73EFF3B
:10A5D00001211520FFF73CFF1520FFF735FF022171
:10A5E0000320FFF737FF0F21012203AE337820004D
:10A5F0008B43134310220B4013433370D023544A30
:10A600005449D358FF221340534A07F055FB20000A
:10A6100007F074FB210082B23000FFF70DFF002825
:10A6200000D07BE00CAD082200212800FDF7F0FDF2
:10A6300006232B8006336B800023AB809133FF33DE
:10A640002800EB80FFF7F6FE002803D0002200214F
:10A6500002F05EF8002104222000FDF7D9FD3F4BF7
:10A6600021003F481A9303F06FFC002803D000221A
:10A67000002102F04DF8382200212800FDF7C8FD26
:10A68000022300272B703822043300212000EB70B6
:10A69000AF70FDF7BDFD01232382324B2422002140
:10A6A00030006361FDF7B4FD0123337340233200B2
:10A6B0003361210000970023280003F0BFF9002830
:10A6C00003D00022002102F023F81C2200212000E8
:10A6D000FDF79EFD244A00236260F0221203A2606F
:10A6E00005221A93E38101332374204B2000636118
:10A6F0001F4B2273A36103F05FFB002803D00022ED
:10A70000002102F005F8032003F03AFA002803D0F4
:10A710000022002101F0FCFF29B0F0BD0022002141
:10A7200001F0F6FF7EE70022002101F0F1FF40E793
:10A730000022002101F0ECFF2BE7C0462829002071
:10A740007C2A0020E022002095A401005D2A002040
:10A7500000100010943102008831020075A401003D
:10A760002823002068200020CD0C000029A501002E
:10A7700059A40100F0B544465F4656464D46F0B434
:10A7800083B06C4603232370030C6370030AE070EC
:10A79000A37092B20020002901D0002A06D103B094
:10A7A0003CBC90469946A246AB46F0BD284B294C8E
:10A7B000A0272360284CFF05E57AA4460124AC407D
:10A7C000264D7C518424640018511800244B002528
:10A7D0009A4600239846A323DB000700A1469B4628
:10A7E0006B4656465B5D83510359002BFCD04B46AC
:10A7F0004646FE505B46FB5801350193042DEFD1D0
:10A80000174B8424A32698460027013A95B20135B8
:10A810000F484D196400F6004346C75003590C4ACF
:10A82000002BFBD084235B00D75093590B70013170
:10A83000A942F1D16346DA7A0123A0219340A122F3
:10A84000C905D2008B50019B012001330193A6E77B
:10A850000040004050230020442300200C0500004D
:10A860001C050000F0B55F4656464D464446F0B420
:10A8700089B006AD062200212800FDF7C9FC40235F
:10A880006B70353BAB70023BEB7009332B71013BB6
:10A890006B71784B2900981D06229A4607F0E9F95A
:10A8A000AB78032298464146A0230020C131FF31F6
:10A8B000DB058900CA50E97884468946C131FF31F9
:10A8C0008900CA50297944468B46C131FF3189003D
:10A8D000C8506F79A12039004E46C131FF3189003F
:10A8E000CA506549C0000C50644C0E515E46A046EB
:10A8F00004340E5101263400BC401C506F78604C6B
:10A900003F060F512F785F4D64464F518427543DC9
:10A910007F00CC514E51E025ED005A515A4D5A510D
:10A92000802292011E501A505246584D2960D27A08
:10A93000964042469E505022554BCC51CA508422DC
:10A94000C8594D4B52000028F9D0A321C9005958CD
:10A95000A0200191A121C005C900465001990127FD
:10A9600001310191454946500020494998505F50B6
:10A9700058508427995840487F000029F9D0002377
:10A98000C351A323DB00C35802938421C3593A4A1D
:10A990004900002BF9D0A323DB00D358A020029359
:10A9A000A123C005DB00C650029B01330293334B49
:10A9B000C650002306205350354BD050842753589F
:10A9C0002D487F00002BF9D0A323DB00C358A02221
:10A9D0000393A123D205DB00D650039B01330393DD
:10A9E000264BD65000236022C351294BC250224B24
:10A9F000984684235B009946C359002BF7D0A323C4
:10AA00004246DB00D358A0270493A123FF05DB00B7
:10AA1000FE50049B642001330493FDF74DFC434634
:10AA20002B6053460121DB7A42469940134B48463E
:10AA3000F9500023135006224046154BC25043469E
:10AA40004A4698580028FCD0A3230B4ADB00D35871
:10AA5000A0220593A1230120DB00D205D150059B44
:10AA60000133059309B03CBC90469946A246AB46DB
:10AA7000F0BDC04644230020004000400C0500000B
:10AA80002405000054050000340700005023002076
:10AA90001C05000030B5554C83B0A37A002B00D1C3
:10AAA00097E06B46DD1D00232B7023680122597C43
:10AAB000636818782B00FFF7D9FA002800D088E0E7
:10AAC000236801225979636818782B00FFF7CEFAC2
:10AAD000002800D07DE02368012219796368187886
:10AAE0002B00FFF7C3FA002800D072E02423E35CB8
:10AAF000002B36D00C232B70236801221979636850
:10AB000018782B00FFF7B2FA002862D13230FDF737
:10AB1000D3FBC0232B70A37ADB0762D42368012206
:10AB20001979636818782B00FFF7A0FA002850D134
:10AB3000637C002B58D12B7023680122597C6368F9
:10AB400018782B00FFF792FA002842D1236828706A
:10AB500059796368012218782B00FFF787FA404281
:10AB600035E004232B702368012219796368187873
:10AB70002B00FFF77BFA00282BD1A27C4023002A70
:10AB80002AD02B70236801221979636818782B006A
:10AB9000FFF76CFA00281CD13230FDF78DFB637C87
:10ABA0005A1E93412B7023680122597C63681878E0
:10ABB0002B00FFF75BFA00280BD12300226810332B
:10ABC0005179626810780122FFF750FA404203B0D1
:10ABD00030BD01204042FAE7A27AD207D1D5203316
:10ABE000CFE7E0232B7099E70223A4E77020002031
:10ABF00070B5060082B0282800D9BBE02323694C39
:10AC000001ADE35C00282CD1002B18D02870A27C69
:10AC10008023002A02D07E3B2B7080332222A25C4C
:10AC2000002A00D08AE023680122D97D6368187861
:10AC30002B00FFF71BFA002801D12323E054002347
:10AC40002B7007336B7023680222597D6368187874
:10AC50002B00FFF70BFA002800D08BE0207502B024
:10AC600070BD012B19D030232B70A27C8033002AB9
:10AC700002D07E3B2B7080332222A25C002A5BD163
:10AC800023680122D97D636818782B00FFF7EEF95D
:10AC9000002802D101222323E25420232B70012E0D
:10ACA0006BD0052E59D9142E4AD903236B70A37A81
:10ACB000002B6FD004236A46D370E37A042B69D04B
:10ACC000236801229978636818786B460333FFF78D
:10ACD000CDF9002860D16B460722DB78E3726B78F0
:10ACE0009B011343DBB26B7023680222597D6368BA
:10ACF00018782B00FFF7BAF900283BD1082301226E
:10AD0000A372207322751C33E35C002B12D12374D1
:10AD1000637C002B0ED16B46DA702368597C636824
:10AD200018786B460333FFF7A1F9002802D16B4670
:10AD3000DB786374002092E72B70A1E72B7072E739
:10AD400002236B70A37A002B05D005236A46D370CB
:10AD5000E37A052BB4D18723C5E701236B70A37A6F
:10AD6000002B05D006236A46D370E37A062BA7D1C1
:10AD70004723B8E70120404271E700236B70A37AB4
:10AD8000002B05D006236A46D370E37A062B97D1B1
:10AD90000723A8E7C723A6E76B789A010723134385
:10ADA000DBB2A0E77020002010B5114A0100537AF1
:10ADB000012B19D0002B13D0022B0AD0032B0CD15E
:10ADC000102320240370D37C0020002B00D00C70B3
:10ADD00010BD082310240370F5E701204042F7E777
:10ADE000022304240370EEE7042308240370EAE737
:10ADF0007020002070B51C4C82B0A37A002B27D0A5
:10AE00006B46DD1DBB2816D8612817D902232B708D
:10AE1000E27A00269A420BD023680122997863686F
:10AE200018782B00FFF722F9002811D12B78E37254
:10AE3000300002B070BD01232B70E9E7292804D847
:10AE4000132808D904232B70E2E703232B70DFE7D4
:10AE500001267642ECE7092802D905232B70D7E7B3
:10AE600006232B70D4E7C0467020002070B5584CE4
:10AE700082B0A37A0600002B00D196E02423E35C85
:10AE8000002B00D091E0227D002A30D0421E272ADC
:10AE900000D885E02322A25C01AD002A18D02B70D7
:10AEA000A37C8022002B02D0022302322B702223AB
:10AEB000E35C002B00D071E023680122D97D636838
:10AEC00018782B00FFF7D2F8002801D12323E05493
:10AED00000232B7007336B7023680222597D63684F
:10AEE00018782B00FFF7C2F8002800D12075F92050
:10AEF000032E31D86B46D8702368012259786368D5
:10AF000018786B460333FFF7B1F800284DD16B4634
:10AF1000FA20D9788000013104F044F8A37A80B295
:10AF2000E0814008002B14D001ADBB2821D90123BA
:10AF300001222B70E37A93420BD023680122997887
:10AF4000636818782B00FFF791F8002801D12B785F
:10AF5000E372002002B070BDFA23311C9B009E42B8
:10AF60000FD8FA2089B2800004F01CF80138C0B272
:10AF7000C0E761280ED829281AD9032303222B7091
:10AF8000D8E7FA20191C89B2800004F00BF80138C8
:10AF9000C0B2AFE7022302222B70CBE72A708BE707
:10AFA000C0B2FFF725FE0020D4E701204042D1E7E0
:10AFB000132805D8092807D9052305222B70B9E7DE
:10AFC000042304222B70B5E7062306222B70B1E779
:10AFD00070200020F0B54746242380B4304D82B065
:10AFE000EB5C0024002B2BD1AC7A002C54D0013325
:10AFF000984304402F7C2C74041B621E944106006D
:10B000006442002821D12A7D002A30D06A7C002A9F
:10B0100016D107326A4413702B689046597C6B68CE
:10B02000187813000122FFF721F8002808D14346C1
:10B030001B786B74002E03D0FFF72CFD002827D15E
:10B04000200002B004BC9046F0BD6A7C002AF3D117
:10B0500007226A4413702B689046597C6B681878F5
:10B0600013000122FFF702F80028E0D0E4E76B4666
:10B07000DA712B680122597C6B6818786B460733AC
:10B08000FEF7F4FF0028DBD16B46DB796B74D7E762
:10B0900001242F746442D3E701246442D0E7C04600
:10B0A00070200020F0B54F4646467023C0B405001E
:10B0B00083B0034069D06B469E1D01233370484C1A
:10B0C00001222368597D636818783300FEF7CEFFAC
:10B0D000002800D07EE04022337830709343237301
:10B0E0002A4266D03A2084463738814601383823D0
:10B0F000392201213B278046A80604D443463A0062
:10B10000337049466346E80601D4130031702A07BC
:10B1100000D4337023680122997D63681878330066
:10B12000FEF7A4FF002855D108232A009A4320D017
:10B130002323E35C002B1CD06B46D871A37C8022B8
:10B14000002B03D06A460223D37182222223E35CC0
:10B15000002B01D06B46DA7123680122D97D636828
:10B1600018786B460733FEF781FF002801D12323AF
:10B17000E05400233220A5722375FDF79DF80020CE
:10B1800003B00CBC90469946F0BD00281ED16B461A
:10B190004027134C9E1D23683770597D6368012238
:10B1A00018783300FEF762FF002813D13378BB43D1
:10B1B00023733E2004238446373881460138337098
:10B1C0003D22383305213F27804695E76A46961D84
:10B1D000337074E700230120A3724042D0E7C046D9
:10B1E00070200020802370B5774C84B002AD2B70A6
:10B1F00023680122597D636818782B00FEF736FF1B
:10B20000061E00D0C2E06420FDF756F823682E70B9
:10B21000597D6368012218782B00FEF727FF00286C
:10B2200000D0B3E070232B7023680122D97E6368BD
:10B2300018782B00FEF71AFF002800D0B5E023682D
:10B240000622597E636818782B00FEF7AFFE0028AF
:10B2500000D09BE004216B7901269B00194002235A
:10B26000EA78520013406A780B433240134300D10E
:10B2700082E0D9B2012B03D0022900D098E000234C
:10B28000E37400232B7023680122D97E6368187849
:10B290002B00FEF7EBFE051E00D086E00122FF2307
:10B2A0005242A37223726372E372E2812274A37426
:10B2B0002332FE3BA35423732233E0546075207580
:10B2C0002000163A16300021FCF7A2FF2423E55493
:10B2D0000133E554A37AE584002B57D06B46DD1D7E
:10B2E00018232B70237A032B0FD02368012299791E
:10B2F000636818782B00FEF7B9FE002846D12B783A
:10B30000DB082372A37A002B40D000232B70637AD2
:10B31000002B0FD023680122D979636818782B009D
:10B32000FEF7A4FE002831D12B78DB086372A37AE4
:10B33000002B2BD005232B70E37A052B0BD0236831
:10B3400001229978636818782B00FEF78FFE002899
:10B350001CD12B78E372FA208000FFF787FD0028CC
:10B3600014D10020FFF736FE041E0FD10020FFF796
:10B3700099FE200004B070BD23680122D97863686B
:10B3800018782B00FEF712FE002802D00124644238
:10B39000EFE70F222B78134010D0042B00D06EE77C
:10B3A0000A4806F06FFCE6746BE703246442E0E7AA
:10B3B0000124074806F066FC6442DAE701240548E8
:10B3C00006F060FC6442D4E7702000204C3202009A
:10B3D000D4310200FC310200F0B544465F465646C7
:10B3E0004D4698462423F0B4954C91B004900B91AF
:10B3F000E35C002B00D01BE142461370A37A002BC4
:10B4000000D115E1237C002B00D111E15A0600D5B3
:10B41000BCE000220392029206329146043A93461F
:10B42000924606329446043A0A92099206320892EB
:10B4300007920692063A059200220627062608255C
:10B440000820022101929A0610D55A4603925246CC
:10B4500002920A9AE1469346099A2F009246089A68
:10B46000060094460191079D06980599DA0607D5CE
:10B470005A4603925246E1462F000600029201917D
:10B480001B0703D4039B029F9946019E23680DADC1
:10B49000197B6368022218782B00FEF787FD0028CD
:10B4A00000D0C5E02B786A781B021A439246BA4254
:10B4B00000D286E0626853885B089A450ED92368FB
:10B4C0001078D97C01222B00FEF770FD002800D0F7
:10B4D000AEE02B78DB0600D5ADE06268236810781B
:10B4E000597B32002B00FEF761FD8346002800D017
:10B4F0009EE04946504603F055FD1A9B01381870EE
:10B500005A4643461A70002E02D0237C1B076CD487
:10B5100005239A46013B99469B46023B01939C4674
:10B520000326012200210023BB424AD0237C580677
:10B5300014D56B5CAA5C1B021343049A1380434628
:10B540001A784023134342461370BC4539D048460D
:10B550003200DC465646237C01990190980632D48D
:10B56000DB062ED56B5CAA5C1B021343049A0020F9
:10B57000938043461A78102313434246137011B048
:10B580003CBC90469946A246AB46F0BD02220392CF
:10B59000029206329146043A934692460632944607
:10B5A000043A0A9209920632089207920692063AE3
:10B5B0000592043A082708260A250A200421019248
:10B5C00041E70020DBE76B5CAA5C1B021343049A93
:10B5D000538043461A782023134342461370BC45D8
:10B5E000EFD0237C32000199BAE72B786A780B9967
:10B5F0001B0213430B80AB78EA781B0213434B808A
:10B600002B796A791B0213438B8043461A780823EF
:10B610001343424613700B239A46013B99469B46BF
:10B62000023B01939C46092607220621023B7BE749
:10B6300001204042A3E7FFF72DFA022040429EE797
:10B6400070200020F0B54F4646462423C0B4284C55
:10B6500083B0E35C070089469046002B3BD0A37A79
:10B66000002B38D0236801AE197B6368022218785A
:10B670003300FEF79BFC00282DD1357873782D021E
:10B680001D43BD422AD3606843885B089D420CD9A4
:10B6900023680078D97C01223300FEF787FC00285C
:10B6A00019D13378DB061DD460682368FAB2597B60
:10B6B00000784B46FEF77AFC00280CD139002800B0
:10B6C00003F0E6FB434601381870002003B00CBCC1
:10B6D00090469946F0BD01204042F7E74346187076
:10B6E0000138F3E7FFF7D6F902204042EEE7C04603
:10B6F000702000202223024AD05400207047C04608
:10B7000070200020232370B5174C82B0E35C050045
:10B71000834224D000281DD18022822002260021CD
:10B720006B4607331970A17C002901D002001E70FE
:10B730002221615C002900D01A702268D17D6268E4
:10B7400010780122FEF792FC00280AD12323E55449
:10B7500002B070BDB022B22032263021E0E70020D6
:10B76000F6E701204042F3E77020002070B50D009D
:10B7700082B0161E20D0124CA37A002B1CD0020AD5
:10B7800001AB1A70C0B26268587040185189884283
:10B7900012DC21681078C97E0222FEF767FC0028BF
:10B7A0000AD12368EAB2197E636818783300FEF77D
:10B7B0005DFC404202B070BD01204042FAE7C04645
:10B7C00070200020F0B556465F464D464446F0B422
:10B7D0008BB003932523514E01910292F35C824674
:10B7E000002B75D1002973D0002800D194E004000B
:10B7F000102800DD75E0A3B29B46B37A002B67D01A
:10B80000002305AF70683B707B7043899C425FDC0E
:10B81000019B0025984638E033681078D97E0222D3
:10B820003B00FEF723FC002852D133684A46197EBC
:10B830007368187806ABFEF7B9FB002848D12200E0
:10B8400006A9404606F006FA00284CD15D44ADB288
:10B85000AA454BD953465C1B102C00DD1024A3B223
:10B860009B46019B9846A8444346002B30D0B37AB0
:10B87000002B2DD02B0A3B707068EBB222047B703A
:10B88000120CD3184289934222DC33680078D97EA7
:10B8900002223B00FEF7EAFB002819D1E3B29946E9
:10B8A00033684A46197E736818784346FEF7DEFB14
:10B8B00000280DD1B37A002B0AD02B0A3B70726896
:10B8C000EBB27B702404240C51891B198B42A3DD3D
:10B8D000012040420BB03CBC90469946A246AB4684
:10B8E000F0BD102487E702204042F3E7029A130AD2
:10B8F0003B7033687A70597F7368022218783B0076
:10B90000FEF7B4FB0028E3D125230122F2546B4655
:10B910009B890020F384DDE705AFE8E77020002075
:10B92000242330B55A4C83B0E35C834276D00028A0
:10B9300000D17AE02522A25C002A00D19EE0002BF3
:10B9400000D06EE0A27A002A00D19AE06A46D51DA6
:10B950002B7023680122597C636818782B00FEF74E
:10B9600085FB002801D12B786374A37C002B36D093
:10B97000236801221979636818782B00FEF716FBFB
:10B9800000282CD1A37ADB0700D56FE020222B788A
:10B9900093432B70236801221979636818782B0070
:10B9A000FEF764FB00281AD10330FCF785FC222344
:10B9B000E35C3022002B01D0802380322B702323C4
:10B9C000E35C002B00D02A7023680122D97D6368D4
:10B9D00018782B00FEF74AFB002800D1A074E08CF9
:10B9E000FFF744FA6B46002206331A70626823217F
:10B9F00010780122FEF73AFB24230122E254223B75
:10BA00002B702368597C636818782B00FEF72EFB97
:10BA1000002801D12B786374FFF73CF8002003B0B5
:10BA200030BD6B46DD1D002392E7002B22D1A27AA8
:10BA3000002A29D06A46D51D2B7023680122597C23
:10BA4000636818782B00FEF711FB002801D12B78D2
:10BA50006374237C01222B706368232118782B00E8
:10BA6000FEF704FB00222423E254D5E720232A78A2
:10BA700013438EE76B46DD1D2870DEE70120404250
:10BA8000CDE76B46DD1D70E76B46DD1DE1E7C04687
:10BA900070200020802210B5C823D200024903483C
:10BAA000FFF790FE10BDC046E4320200F60B000026
:10BAB000F0B5404C87B002AF050003AE2100032271
:10BAC000380006F0D6F8211D0322300006F0D1F828
:10BAD00021000322083104A806F0CBF8210003223C
:10BAE0000C3105A806F0C5F8032108006A466C462B
:10BAF00028403B5C1370EA080A40BB5CB25C637090
:10BB0000AB090B40F95CF35CA170315C01AC2170B6
:10BB1000627003216A462848A370FFF727FE0028B9
:10BB200045D1220003212548FFF720FE00283ED101
:10BB3000032204A9684606F09CF8032205A9200008
:10BB400006F097F86B0708D56A4601236946127814
:10BB50001A430A70227813432370AB0608D56A464D
:10BB60000123694652781A434A706278134363701E
:10BB7000EB0512D488206A460321C000FFF7F6FDCA
:10BB8000002814D1220003210D48FFF7EFFD002803
:10BB90000DD10C4B1D8107B0F0BD6A4601236946EB
:10BBA00092781A438A70A2781343A370E2E70120C7
:10BBB0004042F0E798320200260400002A04000008
:10BBC000310400005423002010B5144986B004004D
:10BBD0000C22103103A806F04CF8C82C1AD821000A
:10BBE000C82003F0DFF9013880B201AA030A5070BF
:10BBF00002210B481370FFF7B9FD00280AD103AAF0
:10BC00000C210848FFF7B2FD002803D1064B9C81A8
:10BC100006B010BD01204042FAE7C046983202004B
:10BC200016020000C10A000054230020F0B50500F0
:10BC300083B043076BD0C823DB00994267D8080064
:10BC400004F09CF94D4903F0CBFC6B46DC1C071C4F
:10BC50002000FFF7A9F82378042B00D17DE033D929
:10BC6000082B6AD0102B52D18A21381CC90503F049
:10BC700081FE03F027FB424986B2381C03F07AFEAE
:10BC800003F020FB80B201AC330A2370030A667014
:10BC9000A370E070EB0729D4AB073CD400206B07FE
:10BCA00037D5EE20220002214000FFF75FFD00287B
:10BCB0002DD16B462D309A1D0221FF30FFF756FD26
:10BCC000431E9841404224E0022B20D18D21381C94
:10BCD000C90503F04FFE03F0F5FA2A4986B2381C75
:10BCE00003F048FE03F0EEFA80B2CCE7EA2022002F
:10BCF00002214000FFF73AFD002808D16B462530AD
:10BD00009A1D0221FF30FFF731FD0028C4D0012029
:10BD1000404203B0F0BDEC20220002214000FFF7BA
:10BD200025FD0028F3D16B4629309A1D0221FF30F2
:10BD3000FFF71CFD0028B1D0E9E78B21381CC905AD
:10BD400003F018FE03F0BEFA0F4986B2381C03F068
:10BD500011FE03F0B7FA80B295E78C21381CC905B3
:10BD600003F008FE03F0AEFA084986B2381C03F06F
:10BD700001FE03F0A7FA80B285E7C0460000484301
:10BD80000000C04400004046000040450000C0459F
:10BD9000F0B54E4645465746E0B486B0924B03ACEC
:10BDA00006002200042168200393FFF7DFFC4022F5
:10BDB000A32332402370904600D10DE11D33637000
:10BDC0000833A370063BE370C0277F00374000D1E3
:10BDD000FDE0C423237108336371063BA371A323E1
:10BDE00022000A218148E37123726372FFF7BEFCCF
:10BDF0000323334099464A462023002A00D1B83312
:10BE0000220001217A4823706D46FFF7AFFC09221A
:10BE10007849B30600D4D8E01C31280005F029FF8A
:10BE200097202A000921C000FFF7A0FC002F09D0AD
:10BE3000F30500D5D4E0704B0393220004216F4832
:10BE4000FFF794FCF30700D4B6E08B20F823220020
:10BE5000012100012370FFF789FCFA210720FFF779
:10BE6000E5FEA4203F232A00012140002B70FFF7AC
:10BE70007DFC002350209A462A000121FF302B70C0
:10BE8000FFF774FC5346EF202B7014232A00022185
:10BE900040006B70FFF76AFC5346ED202B70642363
:10BEA0002A00022140006B70FFF760FC53462B70A4
:10BEB0008E23AE206B706B33AB702A00693B04217C
:10BEC0004000EB70FFF752FC5346AD202B70082367
:10BED0002A00022140006B70FFF748FC5346AC205B
:10BEE0002B7002232A00022140006B70FFF73EFCFA
:10BEF000B307DB0FD8332200012141482370FFF73D
:10BF000035FC730752D53F4B00932A0004213E486D
:10BF1000FFF72CFCFEF7BEFDF30641D53B4B00932B
:10BF20002A0004213A48FFF721FCFEF7B3FD08235D
:10BF3000384C33436381FEF7ADFD4346002B22D1DD
:10BF40000A20434684460C3082461038A3731422DC
:10BF5000042310211A258046002F04D043462A00CE
:10BF6000A373514663461420304201D01300A173DD
:10BF70004A46002A00D0A373002006B01CBC90469D
:10BF80009946A246F0BD1020062384460C30824616
:10BF90001038A3731A220433162120258046DBE7CC
:10BFA0000422A3212800FCF733F9B9E704228B21EE
:10BFB0002800FCF72DF9A8E78B20D82322000121C7
:10BFC00000012370FFF7D2FB92E7283125E7A32376
:10BFD00023716371A37102E76370A370E370F3E6EA
:10BFE0000D4B039329E7C04602CAE309A70A0000E4
:10BFF000B60A000098320200B080B490A20A000095
:10C000003D070000C0C2C4C6980A0000202830388E
:10C010009E0A000054230020B28BB69BF0B5444624
:10C020005F4656464D460023F0B491B01A9C060078
:10C0300023807C4B0F00987B914608A91B9AFFF741
:10C0400001FB03B298462380181E74D11422754B4D
:10C050005B891A4200D075E00325AC46013DA84635
:10C06000013DA94600250C2100220420AA46079183
:10C070000139069101390591013904910139039182
:10C08000013993460291063201390191009201393A
:10C090005D062DD5524608ADAA5C120292462A00D2
:10C0A0004D46525D554615433D80454608AA525DB2
:10C0B00065461202904608AA525D4546154308AAF5
:10C0C000515C105C009A00029346079A0843009264
:10C0D000049A08219446039A7D809046029AB8807B
:10C0E0009146019A2088924601432180059806993D
:10C0F000C0277F003B421BD0554608AA575D4D46DE
:10C10000525D45463F02174308AA3780575D654692
:10C11000525D3F02174308AA105C515C00020143C4
:10C12000B180009A70219346778020880143218056
:10C130009B0752D1002011B03CBC90469946A246C4
:10C14000AB46F0BD089A11BA4A461160099A091423
:10C1500010BA4A4650600A9A8C4612BA92464A462B
:10C16000554695604D460B9A514612BAEA606546AF
:10C170006D43AC4600140914404312144943524322
:10C18000604440188018F1221206944680226044D0
:10C19000920490423FD88021228849000A4322809D
:10C1A000102293460632009206320792013A069216
:10C1B000013A0592013A0492013A0392013A02923D
:10C1C000013A0192033A9446013A9046013A914667
:10C1D000013AEB39142092465AE708AB9C465C467C
:10C1E00064446378E678DA070BD50E4A1268002AB1
:10C1F00007D007200100F308314018400131904773
:10C2000063781B0796D5074B5B68002B92D0B0096B
:10C21000984700208FE7FEF73DFC4346012023802E
:10C22000404288E7542300200023F0B5C356002B7A
:10C2300036DD3022002320240821282610259446AC
:10C24000382703228256002A18DD06214156002293
:10C25000002902DD134398B2F0BD00293AD107212D
:10C26000415640320029F5DC51D108214156403277
:10C270000029EFDC59D1E0225200EBE7002A27D158
:10C28000042282560B00002ADFDC3ED105228256B2
:10C290002B00002AD9DC3B00002AD6D06346D4E725
:10C2A000002B0CD10123C356002B16DD31220123B4
:10C2B000212409212926112594463927C1E7342252
:10C2C000042324240C212C26142594463C27B8E76B
:10C2D0002300BAE780225200BCE7002B0CD10223D6
:10C2E000C356002B16DD3222022322240A212A26DD
:10C2F000122594463A27A4E73522052325240D214B
:10C300002D26152594463D279BE733009DE7A02267
:10C3100052009FE7002B0BD13722072327240F2140
:10C320002F26172594463F278BE70132FF3291E7EE
:10C330003622062326240E212E26162594463E2735
:10C340007FE7C046F0B55F4656464D464446F0B4DA
:10C35000764B91B004AA944601930E236344009354
:10C360000AA900230CAA08A8FFF758FE41B2002929
:10C3700000D0D7E00C9803F0B9FDC221890503F085
:10C38000F9FA041C0D9803F0B1FDC221890503F0F0
:10C39000F1FA80460E9803F0A9FDC221890503F049
:10C3A000E9FA81460F9803F0A1FDC221890503F047
:10C3B000E1FA211C051C201C03F0DCFA4146071C95
:10C3C000404603F0D7FA49468246484603F0D2FA7F
:10C3D000291C0290281C03F0CDFA5146061C381C7B
:10C3E00003F0DCFB029903F0D9FB311C039602F049
:10C3F00081FF05F0B7FB04900591291C484603F026
:10C40000B9FA41468346201C03F0B4FA011C584691
:10C4100002F070FF05F0A6FB02000B0003F0ECFD3C
:10C42000049A059B01F0F2FF0022414B04F034FD19
:10C4300005F020FB3F4B291C1880404603F09AFA78
:10C4400049468346201C03F095FA011C584603F028
:10C45000A5FB05F087FBC02300221B0604F01CFD92
:10C4600001F072FF80268B4636065E440022304B78
:10C47000310004F011FD05F0FDFA2F4B51461880F4
:10C48000381C02F037FF029903F088FB039903F090
:10C4900085FB05F067FB06000F004046494603F0A8
:10C4A00069FA291C8046201C03F064FA011C4046EE
:10C4B00002F020FF05F056FB02000B0003F09CFD8C
:10C4C00032003B0001F0A2FF0022194B04F0E4FC13
:10C4D00005F0D0FA7022194B188004ABDB891A42A0
:10C4E0000BD004AA118A164A118004AA518A154A4F
:10C4F000118004AA918A144A11801B070BD504AB42
:10C500001A8B124B1A8004AB5A8B114B1A8004AB56
:10C510009A8B104B1A8011B03CBC90469946A246AB
:10C52000AB46F0BD0C4805F0ADFBF4E71826002043
:10C53000005FC44090270020A42700201026002080
:10C540004C2A0020E0280020942B0020CC2800203A
:10C55000F825002060260020DC3E020000B5194BC3
:10C5600089B000930F2306A96B44002204A8FEF7AC
:10C5700033FF41B2002920D16B467022DB7B1A4287
:10C580000BD06A46118A104A11806A46518A0F4AB6
:10C5900011806A46918A0E4A11801B070BD56B46A3
:10C5A0001A8B0C4B1A806B465A8B0B4B1A806B46BE
:10C5B0009A8B0A4B1A8009B000BD094805F062FB4E
:10C5C000F9E7C046182600204C2A0020E028002069
:10C5D000942B0020CC280020F82500206026002085
:10C5E000FC3E0200A223A022DB00D205D35801208A
:10C5F0009B0604D4024B1878431E9841C0B2704782
:10C600001826002070B5050082B000200E00FEF74D
:10C61000E9FD0100324805F035FB7820FEF742FDC8
:10C620000100304805F02EFB7820FEF7D3FC010016
:10C630002D4805F027FB0020FFF75CF80120FFF7ED
:10C6400061F8002D1FD16B46DC1D0122DD711A211E
:10C6500023006820FDF70AFD0100244805F012FBC5
:10C66000FA203100400102F09DFC013820701921B0
:10C67000230001226820FDF7F9FC01001C4805F0A9
:10C6800001FB02B070BDFFF705FA0100194805F083
:10C69000F9FA1948FFF7C8FDFFF70AFA0100174831
:10C6A00005F0F0FA7220FF30FFF772FB010014482A
:10C6B00005F0E8FA6420FFF787FA0100114805F059
:10C6C000E1FA0120FFF72CF901000F4805F0DAFA32
:10C6D0000A20FEF78FFB01000C4805F0D3FAD0E7E3
:10C6E000203F0200383F0200503F0200F83F0200A6
:10C6F00010400200683F02009C200020803F0200A2
:10C70000983F0200B03F0200C83F0200E03F020035
:10C7100010B50B0001000B4805F0B4FA8021A123ED
:10C72000A022FA20C900DB00D205D150C000FBF7DF
:10C73000C3FDBFF34F8F044A044BDA60BFF34F8F42
:10C74000FEE7C046284002000400FA0500ED00E0C4
:10C7500080218023184A8902D1508022D221174B90
:10C76000520289005A5040395A5001222F205A60F3
:10C770000138C046C046C046C046C046C046C04656
:10C78000C046C046C046C046C046F1D19A600023AC
:10C790000B4A2F2013600138C046C046C046C04631
:10C7A000C046C046C046C046C046C046C046C04659
:10C7B000F1D1044A1370704700E100E0001001401D
:10C7C0006423002084230020A021F0B500234746E5
:10C7D0002C4A490080B45350043153500431535013
:10C7E000043153504C39535004315350264B1B687D
:10C7F000002B37D02549002652582549254F0C6873
:10C80000141B00222402240A904602E0002D1AD0B4
:10C810002B001A68A24216D8A41AB6181A7CDD6931
:10C82000002AF3D0424699691A745A693B68002B72
:10C830001BD0100098470028E8D000220021FFF705
:10C8400067FF002DE4D1144B14491A780B789A42F3
:10C850000ED0134A9B009E5080218023114A490329
:10C860005B00D15004BC9046F0BD08009047CDE776
:10C870000132D3B2022B01D00B70EAE700230B7018
:10C88000E7E7C046001001406823002004050000CF
:10C89000642300206C2300207823002079230020CB
:10C8A0007C23002000E100E0F0B55F4656464D468F
:10C8B0004446F0B4C54BC64A1B68C6498BB00593C5
:10C8C00009781378994200D157E10133DBB2022B8A
:10C8D00000D100231370C04A9B009B58BB4A9A4664
:10C8E000059B53441B021B0A136001230193BB4B9E
:10C8F00000241B689B46BA4B5A461B789146190088
:10C900000393B84B88461B6847460493AF4B013FDF
:10C910001B680793B44B1B78099300239C4606932E
:10C920000893FBB266469846FF2B32D04346D800A8
:10C93000049B9C46130060440178457800961A00D9
:10C94000A9421FD046684A00B44652188678013181
:10C95000D200C9B262448E4200D1EDE01678022EB8
:10C9600000D1C7E0032EEAD1002BE8D01C74DB69AC
:10C97000002BFBD1013345780093002399461A0020
:10C98000A942DFD14746013FFBB2009E9846FF2BEC
:10C99000CCD1089BC8460292B446002B00D0F0E0F0
:10C9A000069B002B02D0894B079A1A606346002B26
:10C9B00002D04246894B1A60019B002B00D02DE12A
:10C9C0005B46029A00259B1A5A1E9341DBB20593DF
:10C9D0007E4B00271B6802999C46804B1B689B4638
:10C9E000814B1B78069300230193804B99460123CA
:10C9F0000093039B013BDBB20393FF2B00D1F9E0D3
:10CA0000049ADB0092460E009A44002D28D06A68F2
:10CA1000A9682C00ED696346D31A1B021B0A4B451B
:10CA200052D86A4612785B1823606760A760227448
:10CA3000E761002E58D031683000994205D3B9E043
:10CA40001168994200D3A3E01000C2695B1A002A62
:10CA5000F6D1E26132002360C4611600002DD6D108
:10CA600053461A785B7831009342C2D051464968E8
:10CA70005300884651469B180132D2B20A70897819
:10CA8000DB004344914200D19DE019783200012936
:10CA9000E3D15C68227C9046414632000029DCD11B
:10CAA0009A686260D968A1601869E0605B69A361F7
:10CAB000069B002BAFD04346002263606346D31A27
:10CAC0001B021B0A4B45ACD963469A1A1202120A82
:10CAD0008A4264D28B1A6A46127823606760A76024
:10CAE0002274E761002EA6D122000123A346019300
:10CAF0001600B3E75668002B30D09E421ED0009A35
:10CB00001F00944602E0964206D01700FA69002AF8
:10CB1000F9D16246009212E765460095BA420FD0FD
:10CB20001568D269FA61002A16D013689C466544DC
:10CB3000156045784B4602E700210FE71A001F00F9
:10CB4000DE69002E0CD0012500951568D269B1462A
:10CB50003300FA61002AE8D14578F0E60023EEE6DA
:10CB60000125234B9D600095069500250023079520
:10CB70000135994608950995D2E700239A46019315
:10CB8000B5E66A4624215218174B12781A7007E747
:10CB9000C91A1160E26123603200C4615DE76B462F
:10CBA0001B7827606760A7602374E761002E9BD025
:10CBB00000233168CB1A336022000123E661A346CB
:10CBC000019316004AE7524615705EE76423002081
:10CBD00078230020792300207C2300206823002074
:10CBE00070230020742300207A230020FEFF7F00A2
:10CBF00000100140019B002B00D09DE0029B994258
:10CC000036D1059B002B33D10023534A13700BB050
:10CC10003CBC90469946A246AB46F0BD4F4B002423
:10CC200018680025029B00210026574615E01A6867
:10CC3000BA4200D984E0D868BF1A89181E60DC693E
:10CC4000002807D0DD611D00059A98605218120275
:10CC5000120A5A6023002000019C002BE7D1002C0F
:10CC600001D03E4B18600023029301330593AFE6D9
:10CC7000002900D15DE00B6839489846394B3A4DA0
:10CC8000C4583A4B2E781B68E11A0902090A03318D
:10CC9000002E2DD042468A4200D20A00A820D21887
:10CCA00012022F49130AC0002E4D0B504A591B1B6C
:10CCB000121B1202120A1B0203321B0A9A42A3D948
:10CCC0004B590B502F200138C046C046C046C046C5
:10CCD000C046C046C046C046C046C046C046C04624
:10CCE000F1D180218023224A89025B00D1508BE759
:10CCF0008026D1277602BF00C651403FC651C022D0
:10CD000080271B4EBF025200B750376001260660D5
:10CD10002F200138C046C046C046C046C046C04667
:10CD2000C046C046C046C046C046C046F1D12E707F
:10CD3000B0E7FFF70DFD67E75A46084B1A605DE75D
:10CD4000BA46002C01D0054908605146521A1A60B3
:10CD50000293012305933BE67A23002068230020F9
:10CD600000100140040500008423002064230020FB
:10CD700000E100E0F8B54F464646C0B40326350052
:10CD800080460F001400994615400720002D03D05F
:10CD90000CBC90469946F8BD002A44D0FFF7D8FC59
:10CDA0004A46224B80201A602200214B18321E7006
:10CDB000204B62601C607B00DB19DB00D218E26054
:10CDC000D318C022636125706570A77025726572E3
:10CDD000A77225746574A774C524FF21164B400300
:10CDE0001D60164B52001D70154BA4001D70154B95
:10CDF00098501A598A433F390A431A51A1221860A0
:10CE000040461149D2008850C42080001C580F4A67
:10CE10002240C024240222431A500D4B0020CA583D
:10CE20000C4B1A60B4E7034B1A60B1E76C23002087
:10CE30007023002074230020682300207823002022
:10CE40007923002000E100E000100140FF00FFFF17
:10CE5000040500006423002010B50B4B1B68002B59
:10CE60000BD0002A07D0002805D0036808201C7CBE
:10CE7000002C04D010BD0720FCE70820FAE7597405
:10CE80005A610020F6E7C04674230020F0B5344B09
:10CE90001C68002C06D0002804D00723042903D8DE
:10CEA0001800F0BD0823FBE74369002BFAD0437C50
:10CEB000012B44D000262B4B10255B68DB05DB0DD6
:10CEC00025D164196378A5785F1CFFB2BD423AD0C2
:10CED0002578BD4235D05D00ED186368ED009C46B5
:10CEE00065440423002DDBD0033B2B7068601E4B90
:10CEF0001E48C358E960AB60802180236A611C4AE8
:10CF00005B0049032E616770D1500023C8E7103BD6
:10CF10005DB2002D19DBAD08C035154FAD00ED59E0
:10CF200003273B40DB00DD40AB093B40DBB2002583
:10CF3000012BC6D00835032BC3D00835C1E70E003E
:10CF4000B9E70423ACE70027C2E70F25094FDBB29E
:10CF5000BC461D40083DAD08AD0065446D68DFE787
:10CF60007423002000ED00E00405000000100140E3
:10CF700000E100E018ED00E010B52C4A0300116854
:10CF8000082000292AD0002B28D05A69002A25D051
:10CF900000221A74264A08305268D205D20D1ED1DA
:10CFA00009184A788878541CE4B2A04231D0087835
:10CFB000A0422CD0500082184868D20084466244B7
:10CFC0000420002A0AD00238107053604C7080236D
:10CFD00080210020174A49035B00D15010BD103A50
:10CFE00050B2002817DB8008C030124C8000005976
:10CFF00003242240D200D04082092240D2B2002035
:10D00000012ACDD00830032ACAD00830C8E704204E
:10D01000E4E70024CBE70F20074CD2B2A44610402F
:10D0200008388008800060444068E1E774230020ED
:10D0300000ED00E000E100E018ED00E0074B1A68A9
:10D040000823520701D418007047002804D0044B6D
:10D050005B7803600023F6E70E23F4E754240020F6
:10D060008823002071DF704772DF704779DF7047D7
:10D070007DDF704765DF7047F0B55F4656464D4629
:10D080004446F0B485B09A460EAB80CB06001B88B0
:10D0900000919B463B8801930388002B63D00023BB
:10D0A000994602ABDD1C3B0000241700984603E0C4
:10D0B00033880134A3422CDD7368A1009C4604220E
:10D0C000614403A804F0D5FD0022290003A8FFF75E
:10D0D000D1FF002829D12B78BB42E9D14B46002B48
:10D0E0002AD043461A88D3195B453EDC52442900B6
:10D0F00003A8FFF7BFFF002817D143462A781B88F3
:10D100000134D31842461380012399463388A34241
:10D11000D2DC4B464746002B25D03B88019A013B89
:10D120009B1A9BB20C20FF2B1AD905B03CBC904631
:10D130009946A246AB46F0BD43461B88DA19023237
:10D140005A4512DC4246013369469BB2138052466F
:10D150000978D15443461A88013292B21A80C5E741
:10D160001100524653540020DFE70C20DDE7C04693
:10D17000F0B55F4656464D4644460023F0B4178846
:10D180001380436B87B006000D001400002B00D104
:10D190009CE1022F00D891E11A7802230B70112133
:10D1A000238801339BB22380E954238801339BB247
:10D1B0002380EA54238801339BB22380326B002AF8
:10D1C00000D170E019001231B94200D976E1112185
:10D1D000E9542388013901339BB22380E954238821
:10D1E00001339BB22380D17BE954238801339BB266
:10D1F0002380917BE954238801339BB22380517BA8
:10D20000E954238801339BB22380117BE95423889E
:10D2100001339BB22380D17AE954238801339BB236
:10D220002380917AE954238801339BB22380517A79
:10D23000E954238801339BB22380117AE95423886F
:10D2400001339BB22380D179E954238801339BB207
:10D2500023809179E954238801339BB2238051794B
:10D26000E954238801339BB223801179E954238840
:10D2700001339BB22380D178E954238801339BB2D8
:10D2800023809178E954238801339BB2238051781D
:10D29000E954238801339BB223801278EA5423880F
:10D2A00001339BB223802E22B25C002A00D00FE112
:10D2B0002D22B25C002A00D02CE1B278002A00D0E6
:10D2C00055E1F278002A14D0D91CB94200D9F5E012
:10D2D0000221E9542388013901339BB22380E954A8
:10D2E000238801339BB22380EA54238801339BB205
:10D2F00023807268002A15D0D91CB94200D9DDE01C
:10D3000002211278E9542388083101339BB223802B
:10D31000E954238852B201339BB22380EA54238814
:10D32000013323803389002B00D09BE1338A002B0B
:10D3300000D0B1E1338B002B00D0C7E1336A002B62
:10D340004BD022880C20911D9346B94200D9B6E0FB
:10D35000198805388A46052900D8B0E0BB496A46D5
:10D360008C46D4446146D181D1898C46B8498846DF
:10D370008C4500D8A3E059888C46052900D89EE04A
:10D38000B2496144D18189B2414500D897E0B149A1
:10D390008A4504D08C4502D0E24500D98FE00521B2
:10D3A0005A46A95422880D31013292B22280A954E2
:10D3B0002288013292B222801988AA181170090AB3
:10D3C00051702288023292B222805988AB181970AB
:10D3D000090A5970238802332380736A9846002B08
:10D3E00030D09A882188131D5B180C20BB4266D868
:10D3F000931CFE2B63D803326A54FF222388013327
:10D400009BB22380EA544246238801339BB2238097
:10D410001288EB181A70120A5A7042462388023397
:10D420009BB223809288002A0CD041468968053837
:10D43000002944D0E81804F01CFC434622889B884D
:10D44000D31823802C23F35C002B00D0B0E033787A
:10D450000020002B33D032880720012A2FD02288C9
:10D46000901CB8422AD8012B04D1737802339B1840
:10D470009F4223D3023FBA1A04AF93B2281839004F
:10D4800098463B80FFF7F4FD002818D13378022B33
:10D4900000D141E1012B00D1DEE043460821FE2B03
:10D4A0000CD822885E1CAE542288013292B22280AF
:10D4B000A954228801329B18238000E00C2007B079
:10D4C0003CBC90469946A246AB46F0BD002375E6AB
:10D4D000D91C0C20B942F2D80221E954238810301B
:10D4E00001339BB22380E854238801339BB223800D
:10D4F000022A00D10BE100D804E1032A00D109E19E
:10D50000042A00D0FCE00322EA54238801339BB2B2
:10D510002380CDE609330C20BB42D0D804A8FFF706
:10D52000A1FD0028CBD1082223880921EA542388B1
:10D53000133201339BB22380EA5402AB9C4620880D
:10D54000153A013080B220806144281804F091FB24
:10D55000238802AA0633127A9BB22380002A00D0C5
:10D560000122EA54238801339BB22380A5E60433C9
:10D570000C20BB42A3D804A8FFF778FD00289ED159
:10D5800003222388EA542388163201339BB2238076
:10D59000EA54238802AA01339BB212892380EB1834
:10D5A0001A70120A5A70238802339BB2238088E6CD
:10D5B000B36A9846002B00D1A2E09B880233FE2B71
:10D5C00000D97BE700229146163292461632208817
:10D5D00093460CE04B46B26A5B0090464B449B007E
:10D5E000984443469B880233FE2B00D966E7524697
:10D5F00001332B54238801339BB22380EA544246E3
:10D60000238801339BB223801288EB181A70120A08
:10D610005A7043462088023080B220809A88002ABF
:10D620000BD0996800296BD0281804F022FB4346E0
:10D6300020889B88C01880B220804B460133DBB223
:10D6400099465B46F35C4B45C4D800E77FF3FFFF88
:10D650007DF30000FFFF00007378984500D31DE7BD
:10D6600043461BE708239846B044019700942B00DB
:10D67000022202214046FFF7FFFC002800D01EE7EF
:10D68000019700942B00102206214046FFF7F4FC7E
:10D69000002800D013E749E610239846B0440197CC
:10D6A00000942B00022203214046FFF7E5FC0028EE
:10D6B00000D004E7019700942B0010220721404678
:10D6C000FFF7DAFC002800D0F9E633E61823984685
:10D6D000B044019700942B00022214214046FFF72A
:10D6E000CBFC002800D0EAE6019700942B00102222
:10D6F00015214046FFF7C0FC002800D0DFE61DE6FC
:10D700000720DCE6012AFBD10022EA54FDE60122D3
:10D71000EA54FAE6E954F8E63B880921984500D333
:10D72000BDE64346BAE6C04630B593B01F236A460D
:10D730000C009380D380002822D0C3785B071CD5CF
:10D7400001AA02A9FFF714FD02AD002816D1002C92
:10D7500019D0E378002B10D16B460AA99A1D20003E
:10D76000FFF706FD002809D16B469B790AAA694696
:10D7700028000979FFF778FC00E0072013B030BDDE
:10D7800090800025E3E76B460022DC800023EEE773
:10D7900073DF704770B59F4E86B0072200213000BE
:10D7A000FAF736FD9C4C6378002B6ED09B4D2B789E
:10D7B000012B05D0A278002A00D1EFE0022B0FD177
:10D7C000974A1268002A00D1FDE00121954B0820FC
:10D7D000197090472B78012B00D1F7E0022B5FD016
:10D7E000227B002A01D1032B7AD0227E002A02D18B
:10D7F000042B00D107E18A4A1268002A02D0033BB9
:10D80000012B77D90022884B1A7018220021684614
:10D81000FAF7FEFC00236A46137013722A7801930C
:10D820000393022A00D18BE072D9032A00D194E03D
:10D83000042A22D16B46A28B1A82228C5A827B4BFD
:10D840001A79002A00D1B6E02278002A00D1B6E089
:10D85000774A1278002A00D0B1E069460393042386
:10D86000023274480A720021C370FFF75DFF00287E
:10D8700064D10622704B1A702A78002A51D1684B65
:10D880001B68002B56D1002058E0A378634D002B75
:10D89000A0D02B78022B93D0012BA1D102232B7087
:10D8A000A378002B17D07378002B00D0B0E0B378AA
:10D8B000002B00D0ACE0F378002B00D0A8E0337947
:10D8C000002B00D0A4E07379002B00D0A0E0B37946
:10D8D000002B00D09CE003232B70237B002B61D115
:10D8E00004232B70237E002B00D18CE04C4B1A6854
:10D8F000002A87D02378002B84D04D4B1B78002B37
:10D9000000D07FE70121484B0720197090477CE742
:10D91000012AB2D169464B820B82474B01960A70AD
:10D920001A706846FFF734FF002807D13C4B1B688C
:10D93000002BA8D0404A10789847002006B070BD50
:10D94000012369460B706B4621890196598269460D
:10D9500063680B82384B1A70E3E76B46A28A5A82DF
:10D96000228A1A82314B1A79002A1DD02278002A85
:10D970001DD02F4A1278002A19D169460393042337
:10D9800002322C480A720021C370FFF7CDFE002836
:10D99000D4D10522284B1A702A786EE7022B00D0CA
:10D9A0001EE798E7032326E71A7B002ADED103222D
:10D9B000214B1A70B5E71A7B002A00D044E70422F5
:10D9C0001D4B1A70ADE717490A7004E76278002A08
:10D9D00000D163E77278002A00D00CE7B278002A01
:10D9E00000D008E7F278002A00D004E73279002A54
:10D9F00000D000E77279002A00D0FCE6B279002A54
:10DA000000D14BE7F7E600230B4A2B701370F9E6C1
:10DA10000223F0E6C8240020D0240020682500203E
:10DA20009C2400206925002047250020182500207F
:10DA3000C3240020582400207C250020F8B50400D1
:10DA40000E000E20002C00D17BE0002A79D00020AF
:10DA50003C4908703C490B6006993C4B19603C49B5
:10DA60000B0023CA23C323CA23C323CA23C3072209
:10DA700000213848FAF7CCFB374B384A384D1A604A
:10DA8000384A00219A6028003822FAF7C1FB23782F
:10DA900022002B70A3781032AB70E378EB706378C0
:10DAA0006B702B00103303CA03C32B00103A0833EA
:10DAB00003CA03C32B000832183303CA03C3636AC3
:10DAC000002B11D0284B294F6B62616A9F600A8836
:10DAD0001A8088889880002806D000238A68D25C43
