:020000021000EC
:108000000040002051D0010099D001009BD0010018
:108010000000000000000000000000000000000060
:108020000000000000000000000000009DD00100E2
:1080300000000000000000009FD00100A1D001005E
:10804000A3D00100A3D0010075970100D59B0100CA
:10805000A3D0010000000000A3D00100E19C0100BA
:10806000A3D00100F59301003D930100A3D00100CE
:10807000A3D00100A3D00100A3D00100A3D0010030
:10808000A3D001002DB50100A3D00100A3D00100B1
:108090000DB6010059A001001DD00100A3D00100C0
:1080A000A3D00100A3D001000000000000000000E8
:1080B00000000000000000000000000000000000C0
:1080C00010B5064C2378002B07D1054B002B02D0AE
:1080D000044800E000BF0123237010BDA820002049
:1080E00000000000DCF60100084B10B5002B03D0A7
:1080F0000749084800E000BF07480368002B00D18B
:1081000010BD064B002BFBD09847F9E7000000009C
:10811000AC200020DCF60100A820002000000000B8
:10812000164B002B00D1144B9D46402292029A1A06
:10813000924600218B460F461348144A121A00F04B
:1081400067F80F4B002B00D098470E4B002B00D048
:1081500098470020002104000D000D48002802D09F
:108160000C4800E000BF00F02DF82000290000F0CE
:10817000D1F900F011F8C0460000080000400020CE
:108180000000000000000000A8200020DC2D0020DE
:108190000000000000000000084B10B50400002B98
:1081A00002D0002100E000BF054B1868836A002B55
:1081B00000D09847200000F033F8C04600000000CF
:1081C00000F301000E4B70B500251E000D4CE41AA3
:1081D000A410A54204D0AB00F35898470135F8E746
:1081E00007F080F8084B00251E00084CE41AA41084
:1081F000A54204D0AB00F35898470135F8E770BDAD
:10820000A0200020A0200020A0200020A4200020EA
:1082100003008218934202D019700133FAE77047C5
:10822000FEE7C0461D4B1B78012B00D070471C4B4E
:108230001B681B07FAD1F0221A4B1B68134018D198
:10824000194B1B6813421CD0154B1B681B07EDD143
:10825000F022144B1B681340402BE7D1124B1B68D4
:108260001342E3D1C12380220121DB00D205D1508A
:10827000DCE7102B01D0302BEAD10B4B1B681342EB
:10828000E6D10A4A0A4B1A6080220A4B12021A608F
:10829000024B1B78012BD7D0C8E7C046E00F00F097
:1082A000E40F00F0E80F00F0EC0F00F0DFFF07C074
:1082B00004050040186C004082B00190019B002B27
:1082C00014D0019B0A48013B01930138C046C046C7
:1082D000C046C046C046C046C046C046C046C0466E
:1082E000C046C046F1D1019B002BEAD102B07047D5
:1082F000E7030000F0B54E4657464546E0B48CB063
:1083000001F0CEF8534C544A206054485449062694
:10831000855F544B91461B681288884609780A95F8
:108320000426855F9C4609950226855F4E4F089579
:108330000025405F4D4E07904D4882460025405F26
:1083400006900025785F05900025705F494D0490E8
:108350000023E85E039048480023C05E029047482F
:108360000023C05E63460190454800680090454880
:1083700005F080FE2368444C1A0E22701A0C6270BD
:10838000E3701A0A4B461B88A27023713F4B1B886F
:1083900063713F4B1B88A3713E4B1B88E3714346BF
:1083A0001B782372534600229B5E1A126272A372DC
:1083B0000022BB5E1A122373374BE27200229B5ECF
:1083C0001A126273A3730022B35E1A12E27323744B
:1083D0000022AB5E314D1A12A374314B627400223D
:1083E0009B5E286823751A122E4BE27400215A5E98
:1083F00011126175A27502215A5E1112E175227681
:1084000004215A5E11126176A27606229B5E21003B
:108410001A122377244BE2761B681A0E62771A0C25
:10842000A2771A0AE2772022A354013201F01EFF3C
:10843000002804D121222100286001F017FF2B68B9
:108440000933FF332B600CB01CBC90469946A24602
:10845000F0BDC046F425002054270020682D0020E0
:108460006A270020502C00205A270020302C0020A2
:1084700046270020842800204827002004260020CA
:108480003826002004F30100A82D0020562C0020DF
:10849000542C0020482C0020F8250020CC2000205F
:1084A000722D0020402C00203C2C0020F0B54746C7
:1084B0000023154E80B47F20336001F0F7F8306858
:1084C000124B984219D8124F98463D00213521226F
:1084D000390001F0EFFF002809D03C00207801347A
:1084E00001F0E4F8AC42F9D16420FFF7E5FE306812
:1084F0000930FF3030604045E9D97F2001F0D6F8DF
:1085000004BC9046F0BDC046C8200020FFFF00001C
:10851000742D0020F0B55F46444656464D46F0B4F3
:1085200000247A4B7A4A1C607A4B8BB01C605C60EA
:10853000794B1C605C60794B1C60794B1C6001239B
:108540001360784A1360784A136001F0E7F900F08D
:10855000A9FE00F0C1FF01F0D5FB01F073FB64211F
:10856000002002F03DFF01F0C5FC02F01BF801F015
:108570007BFD6E4B6E4A1C709B466E4B1C806E4B97
:108580001C806E4B1C806E4B1C800023137000F00F
:1085900087FF674B6B4F1B783860002B00D0A4E03F
:1085A0009946694B05AC9846684B694E9A4679E006
:1085B0006849200001F05CFA637861490093042265
:1085C000A35E099A9C46039262880623E55E0A80B0
:1085D00062465A490823E05E0A8057496A460D8080
:1085E00054491278088059460A706A46A37A5A4953
:1085F00001939288E37A0A806A4602931289574966
:10860000237B0A8056490B80FFF774FE00F048FF79
:108610005346039A1860534B801A18600123524A3C
:108620003060137000F03CFF38605B461B78072B0E
:1086300057D000F045FF002819D04B46142148467A
:108640005D1C04F0B5FD00290AD1A023474ADB05D3
:1086500099588022D205114255D1A121C9005A5002
:1086600001F032FBA94601F06BFB00F02FFF02F096
:10867000A7FE002830D10A21484604F099FD0029C0
:1086800027D000F00DFF534632681B68D31A181824
:1086900043461B683060C01A354B1860244B1B786A
:1086A000002B22D1434600221A60A122294B9200BE
:1086B0009B5A002B00D07BE72B4A137000F0F0FE92
:1086C0003B68C01A2B4B9842AFD901235A4613700E
:1086D000AFE7FFF70FFED4E702F02EFE00F054F8EC
:1086E000C9E7FFF707FEFFF7E1FE234805F0C2FCEC
:1086F0006420FFF7E1FDBFF34F8F204A204BDA6083
:10870000BFF34F8FFEE71F495A50A9E7702700209B
:10871000FC250020602D00207C2800200026002061
:108720002C2C0020E8250020602700206A2700204C
:10873000982D0020482C0020542C0020562C00207E
:1087400054270020342C0020502700206C270020C4
:10875000F0250020882800209A2D002004260020E3
:108760004827002034260020C420002004050000F3
:108770003C2C002080841E007CF301000400FA05DC
:1087800000ED00E00C050000F0B556465F464D4692
:108790004446F0B4BF4B83B09A461B78022B1BD0E3
:1087A000012B00D10CE1032B00D1B9E1042B00D146
:1087B000A0E3052B00D10DE2002B00D0E9E1B64A81
:1087C0000026D38093805380138000220192B34A05
:1087D00000230027904695E1B14B1B889A46B14B88
:1087E000514600255D5F6B009B46AF4B594400220C
:1087F0009B5E9846C91A00D579E38023DB059B1060
:108800009942FCDB002B00D171E300201E18F71801
:1088100000228E4200DC32008C1A8E4200DC3800CE
:10882000C20F1018421010009B102100002BEDD138
:1088300010B205F0B5FB9D4A9D4B05F001F90022F1
:108840009C4B04F0D1FD05F075FB00B2071C00281D
:1088500001DA00F093FC3FB2974B8F4C00229B5EF5
:1088600020805B00994653464A46991A4346C918E8
:1088700001D500F031FC8023DB059B109942FCDB25
:10888000002B01D100F028FC0020C218D5180026CA
:108890008A4200DC16008E1B8A4200DC2800C20FD0
:1088A0001018421010009B103100002BEDD110B2B7
:1088B00005F076FB7D4A7E4B05F0C2F800227D4B29
:1088C00004F092FD05F036FB00B2061C002801DA28
:1088D00000F051FC36B253465A469D1A434660801A
:1088E000ED1A01D500F0FCFB8023DB059B109D42B7
:1088F000FCDB002B01D100F0F3FB00201A18D1188B
:108900008C460021AA4200DC1100691AAA4200DC50
:108910006046C20F1018421010009B100D00002B73
:10892000ECD110B205F03CFB604A614B05F088F8D1
:108930000022604B04F058FD05F0FCFA00B2051C63
:10894000002801DA00F03FFC2BB201935146434668
:108950004944A080C91800D5C6E38023DB059B10DD
:108960009942FCDB002B00D1BEE30020C218D518D1
:10897000A84600258A4200DC15004D1B8A4200DC17
:108980004046C20F1018421010009B102900002B07
:10899000ECD110B205F004FB444A454B05F050F809
:1089A0000022444B04F020FD05F0C4FA00B2031C81
:1089B000002800DA31E21BB2384AE0809046A1E09C
:1089C00009339946354B344C98461BE041460A80A2
:1089D000321C002E4FDB41464A802A1C002D50DB02
:1089E00041468A801A1C002B51DBFA204346400086
:1089F000DA80FFF761FC01235B429C46E1444B4671
:108A0000002B5FD00023E05E05F0CAFA2B4B2C4A06
:108A100005F016F805F08EFA07B227800223E05E13
:108A200005F0BEFA254B264A05F00AF805F082FA51
:108A300006B266800423E05E05F0B2FA1F4B204ABE
:108A400004F0FEFF05F076FA05B2A5800623E05E8D
:108A500005F0A6FA1A4A194B04F0F2FF05F06AFA7B
:108A600003B2E3803A1C002FB0DA002241460A80AC
:108A7000321C002EAFDA002241464A802A1C002D0B
:108A8000AEDA002241468A801A1C002BADDA0022A1
:108A9000ABE7C0466A270020682D0020402C00204C
:108AA00054270020542C0020482C0020666666665F
:108AB0006666E63F00005E40562C0020CCCCEC3FC2
:108AC000CDCCCCCC53464A461A7023881F1C1BB20F
:108AD000002B00DA47E363883FB21E1C1BB2002B59
:108AE00000DA42E3A38836B21D1C1BB2002B00DA69
:108AF0003DE32BB20193E288131C12B2002A00DA84
:108B000037E31BB2694642468988178056809180B8
:108B1000D38003B03CBC90469946A246AB46F0BD1C
:108B2000BF4C23780133DBB25AB22370002A00DA3B
:108B3000DDE2BC4ABC4B00215B5E11688C4663449D
:108B40001360BA4ABA4B00215B5E11688C466344DD
:108B50001360B84AB84B00215B5E11688C466344D1
:108B60001360B64AB64B00215B5E11688C466344C5
:108B70001360B44AB44B00215B5E11688C466344B9
:108B80001360B24AB24B00215B5E11688C466344AD
:108B90001360B04C23881F1C1BB2002B00DA0CE3BF
:108BA00063883FB21E1C1BB2002B00DA03E3A388CC
:108BB00036B21D1C1BB2002B00DA02E32BB201936C
:108BC000E288131C12B2002A00DAF8E2A24A1BB2B1
:108BD000904697E7A14B94491A88A14B1B88D3185C
:108BE000934A12889B1A9F4A9BB210889E4A1CB2D5
:108BF00012886433821808889BB2121A10B2C82BEC
:108C000000D943E10300643300DA3FE1642800DD6A
:108C10003CE1964B964C1B685B009846954B25684B
:108C20001B889A466B001A000193934B00215B5EF0
:108C30009946130053441C004B46E41A00D514E334
:108C40008E4B9C4200DD24E301339B109C42FCDBF5
:108C5000002B00D109E300220327D118C8180026F1
:108C6000A14200DC0E00A61BA14200DC0200D10FD5
:108C7000DC178A183C40E31851100A009B1034009E
:108C8000002BEAD108B205F08BF97D4A7D4B04F048
:108C9000D7FE00227C4B04F0A7FB05F04BF900B295
:108CA000071C002800DA7EE23FB2534642469A1A79
:108CB0004B46684C2080D21800D5DDE26F4B9A42BB
:108CC00000DDE9E201339B109A42FCDB002B00D16E
:108CD000D2E200260325F018C1188B4600219042ED
:108CE00000DC0100511A904200DC5E46F00FDA17FA
:108CF00086192A40D318701006009B100A00002B1A
:108D0000E9D100B205F04CF95D4A5E4B04F098FEE3
:108D100000225D4B04F068FB05F00CF900B2061C64
:108D2000002800DA41E236B25346019A60809D1A6B
:108D30004B46ED1A00D59BE2504B9D4200DDA5E26B
:108D400001339B109D42FCDB002B00D190E20322FB
:108D5000002194465818C21893460022A84200DC0D
:108D60000200AA1A0192A84200DC59466246C80FC6
:108D7000DD1741181540EB18481001009B10019DAC
:108D8000E8D100B205F00CF93D4A3E4B04F058FE24
:108D900000223D4B04F028FB05F0CCF800B2051C86
:108DA000002800DA6DE22BB20193A08050464B46BA
:108DB0004044C01800D5FAE1304B984200DD62E231
:108DC00001339B109842FCDB002B00D1EFE1032123
:108DD00000228B46D118CD18A8460025AC4681420A
:108DE00000DC8C466546451BAC46814200DC4246B1
:108DF0005D46D10FD8178A182840C31851100A00B1
:108E00009B106046E6D108B205F0CAF81C4A1D4B1B
:108E100004F016FE00221C4BC4E50023CBE5C0463F
:108E2000D020002064270020462700202C26002088
:108E30005A270020202C0020F82500203C26002066
:108E4000302C0020EC25002084280020242C002039
:108E5000722D0020682D0020402C0020702D002055
:108E6000542C002056270020562C002038260020A5
:108E7000502C002054270020482C0020FFFFFF3FEB
:108E8000666666666666E63F00006440D34B002671
:108E90009E5FD34B0021595ED24B0A0000255D5FD7
:108EA000D14B72430021595E54436D1A7543CF4B29
:108EB000424300201B5ECE48611B0025405FCD4C25
:108EC0001B1A7343CC48D31ACC4A216013608142E9
:108ED00000DB56E12060C8498B4200DA56E1C84900
:108EE0008B4200DCDBE1C74B1160984696E67827A1
:108EF0007820B1E4C44BC5491A88C54B1B88D318E8
:108F0000C44A12889B1A9BB21AB20A8000216433A9
:108F10009BB28846C82B09D9BF4B00215B5E5A43E0
:108F2000B74B90469A4200DC34E19846BB4B1B8815
:108F30009A46BB4B544600255D5F6B009B464346FB
:108F40005C44E41A00D541E18023DB059B109C4280
:108F5000FCDB002B00D139E100229F18F81800211A
:108F6000A74200DC3900661AA74200DC0200D10FDC
:108F70008A1851100A009B103400002BEDD108B262
:108F800005F00EF8A74AA84B04F05AFD0022A74BA3
:108F900004F02AFA04F0CEFF00B2071C002800DA21
:108FA000FFE03FB2A24BA34C00229B5E20805B00FF
:108FB000994653464A469E1A4346F61800D551E153
:108FC0008023DB059B109E42FCDB002B00D149E196
:108FD0000022D118CD180020B14200DC0800301A60
:108FE000B14200DC2A00D10F8A1851100A009B10F0
:108FF0000600002BEDD108B204F0D2FF894A8A4B5B
:1090000004F01EFD0022894B04F0EEF904F092FFFB
:1090100000B2061C002800DAC1E036B253465A46B8
:109020009D1A43466080ED1A00D5D2E08023DB050F
:109030009B109D42FCDB002B00D1CAE00022991856
:10904000C81884460020A94200DC0800281AA9425A
:1090500000DC6246D10F8A1851100A009B100500EF
:10906000002BECD108B204F09BFF6E4A6E4B04F06B
:10907000E7FC00226D4B04F0B7F904F05BFF00B28F
:10908000051C002800DAFAE02BB20193A0805046BC
:1090900043464844C01800D589E08023DB059B1077
:1090A0009842FCDB002B00D181E00022D118CD18C2
:1090B000A8460025AC46814200DC8C466546451B2F
:1090C000AC46814200DC4246D10F8A1851100A009A
:1090D0009B106046EAD196E678267820FFF7FBFBE6
:1090E00078237820019331E47823782064E4802B7E
:1090F00000D04EE5504804F0BDFF7F224F4B1B6867
:10910000D9171140CB184E49DB110B804D4B1B6812
:10911000D9171140CB184C49DB110B804B4B1B6806
:10912000D9171140CB184A49DB110B80494B1B68FA
:10913000D9171140CB182C49DB110B80464B1B680B
:10914000D9171140CB182A49DB110B80434B1B6800
:10915000D9170A40D3182C4ADB111380002352463A
:109160002370137015E50027B5E40026BAE4002546
:10917000BFE40023C5E40026FFF7ACFB0027FFF7A0
:109180006AFB1F48814200DDA4E6A4E6344B11606F
:10919000984643E5184B9A4200DAC6E6C6E6002632
:1091A0003BE70027FDE600277EE50026BBE5A02380
:1091B000A020FFF701FC0026F9E40027F0E40023DB
:1091C00004E50025FAE40025FFF7BEFBA027A02058
:1091D000E8E6A023A020019358E7C04648270020D6
:1091E00004260020302C00209C2D00208428002004
:1091F00058270020502C00200080FFFF3826002038
:10920000FF7F0000FEFF0000162B0020962D00209F
:10921000482C0020722D00209A2D00205427002079
:10922000542C0020666666666666E63F0000644071
:10923000562C0020682D00208CF3010064270020AC
:10924000562700202C260020702D0020202C0020E6
:10925000682700203C260020EC250020242C00203C
:109260000000FFFFA026A020D8E6A027A0201CE534
:10927000A023A020019398E5A026A02054E5002576
:1092800002E700258FE58023DB05A0E58023DB05D1
:109290005DE58023DB05DEE48023DB0519E55B006B
:1092A0009846BBE4A222194B1949D200995019499A
:1092B000194A802099501949043299501849194A7D
:1092C000C0039950A023EB210322DB05C9005A50AB
:1092D00008315A5010315A5008315A50A121C90052
:1092E000585080204004585080204005585080201D
:1092F000C00558500C495A5004315A5028395A5018
:1093000008395A500021094A9950704700600040BE
:1093100003151300031713001405000003191300AD
:10932000031D13001C0500004C070000140700007B
:109330000122014B1A707047A42D0020A622274B52
:1093400052009958002931D00021995024490A68C7
:109350003932FF320A6001229A64224A1278002AC6
:1093600024D1A922D2009A58F423FF339A421DD85F
:109370001D4B0422995E1D4A914218DDFA22FA2003
:1093800092009A800622995E184AC00091421BDC26
:109390000A1C00291DDBFA2112B289005118DA805B
:1093A000A8220E4BD2009850114A995070470A1CBF
:1093B000002910DBFA2112B2890050189A80062287
:1093C000995E0A4A9142E3DDFA21FA22C90092002D
:1093D000E5E70022DFE70022ECE7C04600A00040FE
:1093E000A02D0020382C0020402C0020E703000096
:1093F00044050000A622254B5200995800292DD083
:10940000002199504C3AFF3A9A64214A1278002A76
:1094100024D1A922D2009A58F423FF339A421DD8AE
:109420001C4B0022995E1C4A914218DDFA22FA2058
:1094300092001A800222995E174AC00091421BDCFA
:109440000A1C00291DDBFA2112B2890051185A802A
:10945000A8220E4BD2009850104A995070470A1C0F
:10946000002910DBFA2112B2890050181A8002225A
:10947000995E094A9142E3DDFA21FA22C90092007D
:10948000E5E70022DFE70022ECE7C046009000405D
:10949000382C0020402C0020E70300004405000089
:1094A0000122054B9A64A922D2009858034BC008A8
:1094B0001B68C0187047C04600A00040A02D0020C7
:1094C000014B18787047C046A42D00200022014BA4
:1094D0001A707047A42D0020F8B55F4656464D46D9
:1094E00044460023504AF0B41360504AA226137039
:1094F000C1239B009A4680231B039B4601215346B0
:109500005846A8254A4AF6009151D0504948E433BC
:10951000ED0053519C461350474B48488027135049
:109520009946082350465C46BF00D3519846444BA9
:10953000D16099511C5060463E4C585118514846D4
:109540003E4C18514046D851D9601160C02252009B
:1095500094468022D2009046196062464146394BBB
:10956000043C9950F8395A5891464846364A0240C8
:10957000C020000402435A5042461A6062469F507F
:109580005A5894466046314A0240C02000020243C5
:109590005A501F602E4A2F4B2F499A512F4A083696
:1095A0005A502F49234899512E4E9A51A4222E4E9B
:1095B000D2009E502D4A2E4E9A51043699512D4973
:1095C00010365A50A6222C49D20099502B4A2C49C9
:1095D0005A502C4999512C4E9A512C4A5A512C4A86
:1095E0001A501951154900205A50FF21294A995003
:1095F0000023294AFA3902F06FFA002803D000222A
:10960000002101F037FF254A0121254802F0D6FA52
:1096100000222449244802F0EBFA3CBC90469946CB
:10962000A246AB46F8BDC046A02D0020A42D0020C8
:1096300000A0004044050000C40900004C050000E3
:109640000090004000E100E0FFFF00FFFF00FFFF8F
:109650004091004000F0014014050000006000400F
:109660004C9100401C050000449100400460004003
:10967000240500002C05000040A1004008600040C7
:10968000340500004CA100403C05000044A100400E
:109690000C60004004050000D4200020319301003C
:1096A000B0F30100660600009C22002010B5802364
:1096B00004240A4AD4500A4B1A78002A08D00022FF
:1096C0001A70084B084AD0500422044B1A6010BD8F
:1096D0000100064800F08EF9F6E7C04600E100E020
:1096E000642000201C05000000200040742700209A
:1096F000F0B55F4656464D464446F0B483B00192FD
:10970000002A24DD802399467C3B9246984600231C
:109710000C008A44124E134D04279B4609E05B4619
:10972000114A3370114B0134D15043462B605445DC
:109730000DD04B462178EF503378002BEFD10C48F9
:1097400000F058F9434601342B605445F1D101989B
:1097500003B03CBC90469946A246AB46F0BDC0461D
:109760006420002000E100E0002000401C05000013
:1097700074270020F0B54F464646C0B489B0FFF7C5
:109780008FFE8423584D594C28605B00E258002A14
:109790000DD00022E250A323DB00E358544F914642
:1097A000DAB23B78002B30D1FF2A00D18EE08E2335
:1097B0004E4C5B00E258002A0AD000224D48E2508D
:1097C000183BC35A002B00D07BE001224A4B1A7091
:1097D0009222464B52009958002907D000219950F7
:1097E0009022D2009958454804F044FCFFF758FEF7
:1097F000434B444A186011682B68CB1A1818106044
:1098000009B00CBC90469946F0BD3F498C4666466F
:10981000591E01334900DBB28A533B700E2BC6D16F
:1098200033787288984603AB5A70B288F188120276
:1098300052185A8032897189120252189A80B2895C
:10984000F18912025218DA80328A718A1202521891
:109850001A81B28A69469A72F28ADA72328B07905A
:109860001A7342461A7006AA41CA41C12748039991
:10987000049A059B00F0DCF84B46254A3B701388A0
:109880000421013313808023224A1B4FD1503B789F
:10989000002B1ED04B46FF223B701F4BE250042290
:1098A00080211C4B1A605A503B78002B16D00023A5
:1098B00041463B700D4A184BD1500422154B1A609B
:1098C00075E700F0A5F8144BE05081E701333B70D9
:1098D0006DE7FF21074800F08DF8E0E741460548B5
:1098E00000F088F8E9E7C046282C0020002000405E
:1098F000BE2200207427002064200020B4F3010061
:10990000102B002050270020A82D002088280020A0
:10991000BC22002000E100E01C05000010B520483A
:1099200000F052F81F4800F059F81F4800F04CF8BA
:10993000A023E7220321DB05D2009950E821002271
:109940000E20C9005A50194B194958501949023074
:109950005850194819495850A0200421C0001950E6
:10996000842040001A5014301A5001329A601A6054
:10997000C2221E38FF3892009850A120043A80007D
:109980009850C0230E4A5B00D1507C3014580D4BC8
:109990002340C024240423431350116010BDC0464B
:1099A0004026002088280020742700200020004046
:1099B0000C0500001405000000E0D701240500009C
:1099C00000E100E0FFFF00FF80220023FF215200A2
:1099D000835202328152023283527047A022002306
:1099E0001F2192008352024A8152023283527047F1
:1099F00082020000812210B5FF245200835A0133F5
:109A000023408352C1540232835A0133835210BD22
:109A1000802110B5FF2402004900435AC05C013385
:109A2000234053520431535A013B535210BDC04698
:109A300084B030B504911F2105920C4A0693835AD5
:109A400004AC01330B4083529A00D3189B00C31817
:109A500026CC26C306CC06C3A1229200835A01332A
:109A6000835230BC08BC04B01847C04682020000D4
:109A7000A023F0B504009B00CA5A9C4693009B1893
:109A80009B00CB18E0CBE0C460CB60C41F23013245
:109A90001A406346CA52A12292008B5A013B8B5254
:109AA000F0BDC046F0B557464E4645468446E0B444
:109AB00089469A460120002A3BD0B12300276146FF
:109AC000244E254D254CDB002F702770F150494660
:109AD000234BF150802189007750B060297800290C
:109AE000FCD000212970012A2ED08021012519489F
:109AF000890045500121174889460160802189006D
:109B00008846FF39A325FF39534600268C46ED00D1
:109B100021780029FCD026704159013AD2B219703F
:109B2000012A0BD049460162002A01D00133EFE738
:109B300000201CBC90469946A246F0BD41466746AF
:109B4000013347500262E3E7802102250148890082
:109B50004550CFE700300040BF220020C022002047
:109B60001C050000F0B5474680B407000120002A1C
:109B700027D00025B126A846134CF6002570134DBA
:109B8000AF5180274646BF00EE51114EA951A86043
:109B900021780029FCD000210020013A2170D1B2A7
:109BA00001310A4E0A4D59181A7872512278002A4A
:109BB000FCD0013320708B42F6D101220020034BF0
:109BC0005A6104BC9046F0BDBF2200200030004026
:109BD0001C050000F8B58423154A5B00D158002904
:109BE00004D00021D1500122124B1A708E23104A4A
:109BF0005B00D158002904D00021D15001220E4B26
:109C00001A7092250A4C6D006359002B0FD00B4E31
:109C1000A759FFF745FCB123DB000200E3583900E8
:109C2000074804F027FA0323A35100236351F8BD2A
:109C300000300040C0220020BF220020C4040000E9
:109C4000C8F30100A023E2211A4ADB05C90010B5C0
:109C50005A5008395A500421174B053AFF3A995087
:109C6000164A023999500022CD200731FF315A504F
:109C700014315A501249C0045850A120C12180000B
:109C8000890058500539FF395A50A022FC39FF3954
:109C9000D2009950C023C0240A4A03315B00D1503E
:109CA0007C30135824061B021B0A234313501160F7
:109CB00010BDC0460C060000003000400C0500003E
:109CC0002405000000E100E08022044BD2009A58F5
:109CD000002A01D101321A607047C046007000406E
:109CE00080220021054B52009950A122D2009A589F
:109CF000D3009B1A024A13807047C0460070004090
:109D0000142B00200A4B0B490B4AC0209950A0216C
:109D10000122C9005A50FD39FF395A50074A00063E
:109D200053581B021B0A0343535080231360704790
:109D300000700040041000000405000000E100E095
:109D4000F0B5474680B4604C82B02578012D32D002
:109D5000002D1CD0022D07D1FFF7A2FB5B4B1B6827
:109D6000C01A5B4B984250D832200138C046C046DA
:109D7000C046C046C046C046C046C046C046C046B3
:109D8000C046C046F1D102B004BC9046F0BDB1223D
:109D90007721504BD200995080227539920099500A
:109DA0004D4A4631995001229A602270FFF778FBA4
:109DB000464B1860D8E7FFF773FB444E3368C01A70
:109DC000434B9842D0D9454F03223B0000217720D6
:109DD000FFF768FE3B7877211A047B7858201B0236
:109DE0001343BA7813433E4A1360B122394BD20071
:109DF000995002228A31FF315A50374958509D609C
:109E00002270FFF74DFB3060AEE7344D03222B008C
:109E100000217720FFF746FE2B7800211A046B788B
:109E20001B021343AA782F4D13432F4A13606A89EC
:109E3000288912029B1A98461A00002303F0A8FAF8
:109E40004E06CB110021C2093243AE8830041218ED
:109E50004B41009201930021E8884246002303F021
:109E600097FA0E06020A32436E880B12F0030021A5
:109E700016001F00424636184F410023A8890021D2
:109E800003F086FAFA23DB009C464902C00D084322
:109E9000164B60441860124B3200186800213B00DA
:109EA00003F076FACD02420D4B152A430098019932
:109EB000121A8B4111005B04CA0B1A430C4B1A6037
:109EC0000023237050E7C046C6220020DC22002079
:109ED0000F270000003000401C050000D8220020A1
:109EE000D42D0020C8220020D02D00204C27002097
:109EF0005C27002070B5A024094E0A4D2B000222D9
:109F000021007720FFF7CEFD2B786A781B02023400
:109F10001343E4B233800236B02CEFD170BDC0469B
:109F2000C8220020C422002076DF70477ADF704705
:109F30007CDF70477FDF7047A9DF704760DF7047C5
:109F40002EDF704732DF704733DF70474CDF7047DA
:109F50008021A02210B5044B4904D205D150002223
:109F6000002101F087FA10BD0C050000F8B50E00C5
:109F7000151E08D00024044F315D38000134FFF76E
:109F800039FDAC42F8D3F8BD182B002010B5040001
:109F900002F000FE21001F4802F058FE2388112B1A
:109FA0002BD01ED9132B0ED0522B08D11A4B0022C6
:109FB000188800210023FFF7BFFF00280CD12000E4
:109FC00002F0AEFC10BD144B00221888852100233E
:109FD000FFF7B0FF0028F2D00022002101F04AFA7A
:109FE000EDE7102BEBD18021A0220C4BD2054905C7
:109FF000D150A288084B1A80E1E78021A123A0223A
:10A00000DB00D2054905D1500122034B52421A8090
:10A01000D5E7C046282300206C2000200C05000056
:10A0200010B50378002B00D010BD8021A022084B72
:10A03000C903D205D150074B3B211888FFF774FFA5
:10A040000028F1D00022002101F014FAECE7C0460C
:10A050000C0500006C2000200123024A11784B40BF
:10A0600013707047382C0020F0B57248A9B0FFF784
:10A07000ABFC7148FFF7A8FC002348226F49082079
:10A0800002F09CFF002800D0CEE01AAC082200218C
:10A090002000FEF7BDF801222378200093432370AF
:10A0A000FFF74CFF002800D0B9E0654802F0ACFF94
:10A0B000002803D00022002101F0DCF90022614BCE
:10A0C00015201A70FFF73EFF01211520FFF73CFF16
:10A0D0001520FFF735FF02210320FFF737FF0F217F
:10A0E000012203AE337820008B43134310220B4030
:10A0F00013433370D023544A5449D358FF2213409A
:10A10000534A03F0D1FF200003F0F0FF210082B298
:10A110003000FFF70DFF002800D07BE00CAD0822D7
:10A1200000212800FEF774F806232B8006336B808D
:10A130000023AB809133FF332800EB80FFF7F6FE5E
:10A14000002803D00022002101F094F9002104220C
:10A150002000FEF75DF83F4B21003F481A9302F0C4
:10A16000A5FD002803D00022002101F083F9382248
:10A1700000212800FEF74CF8022300272B7038221C
:10A18000043300212000EB70AF70FEF741F801238B
:10A190002382324B2422002130006361FEF738F81D
:10A1A00001233373402332003361210000970023E1
:10A1B000280002F0F5FA002803D00022002101F067
:10A1C00059F91C2200212000FEF722F8244A00231E
:10A1D0006260F0221203A26005221A93E381013328
:10A1E0002374204B200063611F4B2273A36102F094
:10A1F00095FC002803D00022002101F03BF9032048
:10A2000002F070FB002803D00022002101F032F997
:10A2100029B0F0BD0022002101F02CF97EE70022D8
:10A22000002101F027F940E70022002101F022F986
:10A230002BE7C046182B0020582C0020E0220020DD
:10A240008D9F0100382C0020001000100CF401003C
:10A2500000F401006D9F01002823002068200020E9
:10A26000CD0C000021A00100519F0100F0B5564621
:10A2700044465F464D4684460120F0B4874B884CE7
:10A2800092461C60874BA022DB7AD2059840864B11
:10A290008426D050002306227600A351834B87B03A
:10A2A000E250842252009346A2597D4B002AF8D0F6
:10A2B000A324E4001A59A1260492A022AF27F60095
:10A2C000D2059051049E0136049603AE377067465E
:10A2D0003F0CB846777067463F0AB946B770674685
:10A2E000F770002900D19EE057466D462F802F88D9
:10A2F0000197002F00D196E06B4F5D46D0510022B0
:10A3000092465A5100940C005A4651469B46A2462A
:10A31000745C664D5C519C58002CFCD084275C46D4
:10A3200000257F00E551009D013164590594042901
:10A33000EED151464B1C5A4C9A460A785B4B25008D
:10A34000E2503C0084222B59554E5200002BF9D08C
:10A350000023B350A323DB00F358A0250593A123CA
:10A36000ED05DB00E8504B46FF201B0200020340D6
:10A370006446FF2020401818FF26434636041B047D
:10A3800033401B1801985446013880B2013084468E
:10A390000120824644488C448146AF20C943804610
:10A3A000CB18424E0093644545D00F200138C0467B
:10A3B000C046C046C046C046C046C046C046C0466D
:10A3C000C046C046C046F1D15146364B4046DB7AC6
:10A3D00099404B46E950314B1B68985198580028DA
:10A3E000FCD0002083465F460930FF301F50A32079
:10A3F000C000185805902078985198580028FCD033
:10A40000002083465F460930FF301F50A320C00064
:10A410001B5801340593A123DB00E950009B191957
:10A42000234B9942BFD9002007B03CBC90469946C7
:10A43000A246AB46F0BD14200138C046C046C04617
:10A44000C046C046C046C046C046C046C046C046DC
:10A45000C046F1D10120134BA022DB7A04219840A1
:10A46000114BD205D0500D4B1A68104BD15005310D
:10A47000FF315358002BFCD0842300215B00D150C6
:10A48000A323DB00D358A0220593A123D205DB0030
:10A49000D050059B012001330593C5E750230020D0
:10A4A00000400040442300200C0500001C05000073
:10A4B000FEFF0100F0B544465F4656464D46F0B4F7
:10A4C00083B06C4603232370030C6370030AE070AF
:10A4D000A37092B20020002901D0002A06D103B057
:10A4E0003CBC90469946A246AB46F0BD284B294C51
:10A4F000A0272360284CFF05E57AA4460124AC4040
:10A50000264D7C518424640018511800244B0025EA
:10A510009A4600239846A323DB000700A1469B46EA
:10A520006B4656465B5D83510359002BFCD04B466E
:10A530004646FE505B46FB5801350193042DEFD192
:10A54000174B8424A32698460027013A95B201357B
:10A550000F484D196400F6004346C75003590C4A92
:10A56000002BFBD084235B00D75093590B70013133
:10A57000A942F1D16346DA7A0123A0219340A122B6
:10A58000C905D2008B50019B012001330193A6E73E
:10A590000040004050230020442300200C05000010
:10A5A0001C050000F0B55F4656464D464446F0B4E3
:10A5B00089B006AD062200212800FDF729FE4023C0
:10A5C0006B70353BAB70023BEB7009332B71013B79
:10A5D0006B71784B2900981D06229A4603F040FDC6
:10A5E000AB78032298464146A0230020C131FF31B9
:10A5F000DB058900CA50E97884468946C131FF31BC
:10A600008900CA50297944468B46C131FF318900FF
:10A61000C8506F79A12039004E46C131FF31890001
:10A62000CA506549C0000C50644C0E515E46A046AD
:10A6300004340E5101263400BC401C506F78604C2D
:10A640003F060F512F785F4D64464F518427543D8C
:10A650007F00CC514E51E025ED005A515A4D5A51D0
:10A66000802292011E501A505246584D2960D27ACB
:10A67000964042469E505022554BCC51CA5084229F
:10A68000C8594D4B52000028F9D0A321C900595890
:10A69000A0200191A121C005C900465001990127C0
:10A6A00001310191454946500020494998505F5079
:10A6B00058508427995840487F000029F9D000233A
:10A6C000C351A323DB00C35802938421C3593A4AE0
:10A6D0004900002BF9D0A323DB00D358A02002931C
:10A6E000A123C005DB00C650029B01330293334B0C
:10A6F000C650002306205350354BD0508427535862
:10A700002D487F00002BF9D0A323DB00C358A022E3
:10A710000393A123D205DB00D650039B013303939F
:10A72000264BD65000236022C351294BC250224BE6
:10A73000984684235B009946C359002BF7D0A32386
:10A740004246DB00D358A0270493A123FF05DB007A
:10A75000FE50049B642001330493FDF7ADFD434696
:10A760002B6053460121DB7A42469940134B484601
:10A77000F9500023135006224046154BC250434661
:10A780004A4698580028FCD0A3230B4ADB00D35834
:10A79000A0220593A1230120DB00D205D150059B07
:10A7A0000133059309B03CBC90469946A246AB469E
:10A7B000F0BDC04644230020004000400C050000CE
:10A7C0002405000054050000340700005023002039
:10A7D0001C05000030B5554C83B0A37A002B00D186
:10A7E00097E06B46DD1D00232B7023680122597C06
:10A7F000636818782B00FFF7B5F9002800D088E0CF
:10A80000236801225979636818782B00FFF7AAF9A9
:10A81000002800D07DE02368012219796368187848
:10A820002B00FFF79FF9002800D072E02423E35C9F
:10A83000002B36D00C232B70236801221979636812
:10A8400018782B00FFF78EF9002862D13230FDF71F
:10A8500033FDC0232B70A37ADB0762D42368012267
:10A860001979636818782B00FFF77CF9002850D11C
:10A87000637C002B58D12B7023680122597C6368BC
:10A8800018782B00FFF76EF9002842D12368287052
:10A8900059796368012218782B00FFF763F9404269
:10A8A00035E004232B702368012219796368187836
:10A8B0002B00FFF757F900282BD1A27C4023002A58
:10A8C0002AD02B70236801221979636818782B002D
:10A8D000FFF748F900281CD13230FDF7EDFC637C0E
:10A8E0005A1E93412B7023680122597C63681878A3
:10A8F0002B00FFF737F900280BD123002268103313
:10A900005179626810780122FFF72CF9404203B0B8
:10A9100030BD01204042FAE7A27AD207D1D52033D8
:10A92000CFE7E0232B7099E70223A4E770200020F3
:10A9300070B5060082B0282800D9BBE02323694CFB
:10A9400001ADE35C00282CD1002B18D02870A27C2C
:10A950008023002A02D07E3B2B7080332222A25C0F
:10A96000002A00D08AE023680122D97D6368187824
:10A970002B00FFF7F7F8002801D12323E054002330
:10A980002B7007336B7023680222597D6368187837
:10A990002B00FFF7E7F8002800D08BE0207502B00D
:10A9A00070BD012B19D030232B70A27C8033002A7C
:10A9B00002D07E3B2B7080332222A25C002A5BD126
:10A9C00023680122D97D636818782B00FFF7CAF845
:10A9D000002802D101222323E25420232B70012ED0
:10A9E0006BD0052E59D9142E4AD903236B70A37A44
:10A9F000002B6FD004236A46D370E37A042B69D00E
:10AA0000236801229978636818786B460333FFF74F
:10AA1000A9F8002860D16B460722DB78E3726B78D7
:10AA20009B011343DBB26B7023680222597D63687C
:10AA300018782B00FFF796F800283BD10823012255
:10AA4000A372207322751C33E35C002B12D1237494
:10AA5000637C002B0ED16B46DA702368597C6368E7
:10AA600018786B460333FFF77DF8002802D16B4658
:10AA7000DB786374002092E72B70A1E72B7072E7FC
:10AA800002236B70A37A002B05D005236A46D3708E
:10AA9000E37A052BB4D18723C5E701236B70A37A32
:10AAA000002B05D006236A46D370E37A062BA7D184
:10AAB0004723B8E70120404271E700236B70A37A77
:10AAC000002B05D006236A46D370E37A062B97D174
:10AAD0000723A8E7C723A6E76B789A010723134348
:10AAE000DBB2A0E77020002070B5584C82B0A37A8A
:10AAF0000600002B00D196E02423E35C002B00D05D
:10AB000091E0227D002A30D0421E272A00D885E01D
:10AB10002322A25C01AD002A18D02B70A37C8022D6
:10AB2000002B02D0022302322B702223E35C002B85
:10AB300000D071E023680122D97D636818782B006A
:10AB4000FFF710F8002801D12323E05400232B70D5
:10AB500007336B7023680222597D636818782B00D5
:10AB6000FFF700F8002800D12075F920032E31D816
:10AB70006B46D870236801225978636818786B4651
:10AB80000333FEF7EFFF00284DD16B46FA20D9784A
:10AB90008000013102F010FBA37A80B2E08140080E
:10ABA000002B14D001ADBB2821D9012301222B7029
:10ABB000E37A93420BD0236801229978636818786E
:10ABC0002B00FEF7CFFF002801D12B78E372002085
:10ABD00002B070BDFA23311C9B009E420FD8FA20B0
:10ABE00089B2800002F0E8FA0138C0B2C0E76128FB
:10ABF0000ED829281AD9032303222B70D8E7FA206C
:10AC0000191C89B2800002F0D7FA0138C0B2AFE750
:10AC1000022302222B70CBE72A708BE7C0B2FFF72A
:10AC200087FE0020D4E701204042D1E7132805D851
:10AC3000092807D9052305222B70B9E7042304222C
:10AC40002B70B5E7062306222B70B1E77020002099
:10AC5000F0B54746242380B4304D82B0EB5C00242D
:10AC6000002B2BD1AC7A002C54D0013398430440F4
:10AC70002F7C2C74041B621E944106006442002841
:10AC800021D12A7D002A30D06A7C002A16D10732D1
:10AC90006A4413702B689046597C6B6818781300CF
:10ACA0000122FEF75FFF002808D143461B786B7432
:10ACB000002E03D0FFF78EFD002827D1200002B020
:10ACC00004BC9046F0BD6A7C002AF3D107226A4496
:10ACD00013702B689046597C6B681878130001221A
:10ACE000FEF740FF0028E0D0E4E76B46DA712B68FE
:10ACF0000122597C6B6818786B460733FEF732FFE8
:10AD00000028DBD16B46DB796B74D7E701242F7405
:10AD10006442D3E701246442D0E7C046702000209B
:10AD2000F0B54F4646467023C0B4050083B00340DB
:10AD300069D06B469E1D01233370484C0122236865
:10AD4000597D636818783300FEF70CFF002800D0A7
:10AD50007EE0402233783070934323732A4266D0DA
:10AD60003A20844637388146013838233922012178
:10AD70003B278046A80604D443463A003370494630
:10AD80006346E80601D4130031702A0700D43370FB
:10AD900023680122997D636818783300FEF7E2FE8C
:10ADA000002855D108232A009A4320D02323E35CAE
:10ADB000002B1CD06B46D871A37C8022002B03D0C3
:10ADC0006A460223D37182222223E35C002B01D046
:10ADD0006B46DA7123680122D97D636818786B4667
:10ADE0000733FEF7BFFE002801D12323E0540023E0
:10ADF0003220A5722375FDF75FFA002003B00CBC6A
:10AE000090469946F0BD00281ED16B464027134C52
:10AE10009E1D23683770597D6368012218783300BE
:10AE2000FEF7A0FE002813D13378BB4323733E20E6
:10AE30000423844637388146013833703D22383345
:10AE400005213F27804695E76A46961D337074E7D3
:10AE500000230120A3724042D0E7C04670200020AA
:10AE6000802370B5774C84B002AD2B70236801222B
:10AE7000597D636818782B00FEF774FE061E00D01B
:10AE8000C2E06420FDF718FA23682E70597D6368CC
:10AE9000012218782B00FEF765FE002800D0B3E0F1
:10AEA00070232B7023680122D97E636818782B00E9
:10AEB000FEF758FE002800D0B5E023680622597E30
:10AEC000636818782B00FEF7EDFD002800D09BE0AA
:10AED00004216B7901269B0019400223EA78520075
:10AEE00013406A780B433240134300D182E0D9B259
:10AEF000012B03D0022900D098E00023E374002343
:10AF00002B7023680122D97E636818782B00FEF726
:10AF100029FE051E00D086E00122FF235242A372C3
:10AF200023726372E372E2812274A3742332FE3BC4
:10AF3000A35423732233E054607520752000163A21
:10AF400016300021FDF764F92423E5540133E5545C
:10AF5000A37AE584002B57D06B46DD1D18232B7098
:10AF6000237A032B0FD0236801229979636818781C
:10AF70002B00FEF7F7FD002846D12B78DB08237263
:10AF8000A37A002B40D000232B70637A002B0FD0C4
:10AF900023680122D979636818782B00FEF7E2FD57
:10AFA000002831D12B78DB086372A37A002B2BD0D9
:10AFB00005232B70E37A052B0BD0236801229978A7
:10AFC000636818782B00FEF7CDFD00281CD12B7884
:10AFD000E372FA208000FFF787FD002814D10020DB
:10AFE000FFF736FE041E0FD10020FFF799FE200068
:10AFF00004B070BD23680122D978636818782B00EB
:10B00000FEF750FD002802D001246442EFE70F2232
:10B010002B78134010D0042B00D06EE70A4803F0C1
:10B0200029F8E6746BE703246442E0E7012407484B
:10B0300003F020F86442DAE70124054803F01AF827
:10B040006442D4E770200020C4F401004CF40100F5
:10B0500074F40100F0B544465F4656464D469846A6
:10B060002423F0B4954C91B004900B91E35C002B39
:10B0700000D01BE142461370A37A002B00D115E1EA
:10B08000237C002B00D111E15A0600D5BCE0002240
:10B090000392029206329146043A93469246063251
:10B0A0009446043A0A92099206320892079206924E
:10B0B000063A0592002206270626082508200221C6
:10B0C00001929A0610D55A460392524602920A9A63
:10B0D000E1469346099A2F009246089A0600944644
:10B0E0000191079D06980599DA0607D55A460392FD
:10B0F0005246E1462F000600029201911B0703D43D
:10B10000039B029F9946019E23680DAD197B6368DE
:10B11000022218782B00FEF7C5FC002800D0C5E0FD
:10B120002B786A781B021A439246BA4200D286E014
:10B13000626853885B089A450ED923681078D97CD9
:10B1400001222B00FEF7AEFC002800D0AEE02B78E9
:10B15000DB0600D5ADE0626823681078597B3200C9
:10B160002B00FEF79FFC8346002800D09EE0494656
:10B17000504602F021F81A9B013818705A4643468F
:10B180001A70002E02D0237C1B076CD405239A462C
:10B19000013B99469B46023B01939C4603260122B4
:10B1A00000210023BB424AD0237C580614D56B5C97
:10B1B000AA5C1B021343049A138043461A78402367
:10B1C000134342461370BC4539D048463200DC4632
:10B1D0005646237C01990190980632D4DB062ED581
:10B1E0006B5CAA5C1B021343049A002093804346C5
:10B1F0001A78102313434246137011B03CBC90469A
:10B200009946A246AB46F0BD022203920292063254
:10B210009146043A9346924606329446043A0A927C
:10B2200009920632089207920692063A0592043A6B
:10B23000082708260A250A200421019241E7002058
:10B24000DBE76B5CAA5C1B021343049A5380434602
:10B250001A782023134342461370BC45EFD0237C59
:10B2600032000199BAE72B786A780B991B021343D5
:10B270000B80AB78EA781B0213434B802B796A79F9
:10B280001B0213438B8043461A780823134342461C
:10B2900013700B239A46013B99469B46023B019350
:10B2A0009C46092607220621023B7BE701204042FB
:10B2B000A3E7FFF78FFA022040429EE770200020AC
:10B2C0002223024AD05400207047C046702000203C
:10B2D000232370B5174C82B0E35C0500834224D071
:10B2E00000281DD180228220022600216B460733D0
:10B2F0001970A17C002901D002001E702221615C1E
:10B30000002900D01A702268D17D6268107801226D
:10B31000FEF728FC00280AD12323E55402B070BDB3
:10B32000B022B22032263021E0E70020F6E70120EB
:10B330004042F3E77020002000B5194B89B000931C
:10B340000F2306A96B44002204A8FFF783FE41B235
:10B35000002920D16B467022DB7B1A420BD06A4653
:10B36000118A104A11806A46518A0F4A11806A4632
:10B37000918A0E4A11801B070BD56B461A8B0C4B1A
:10B380001A806B465A8B0B4B1A806B469A8B0A4B72
:10B390001A8009B000BD094802F06CFEF9E7C0460A
:10B3A000FA250020302C002084280020722D002057
:10B3B0007A280020E42500203026002030F5010006
:10B3C000A223A022DB00D205D35801209B0604D47F
:10B3D000024B1878431E9841C0B27047FA250020EE
:10B3E00030B5002083B00D00FFF73AFD01001C4886
:10B3F00002F040FE7820FFF793FC0100194802F0AC
:10B4000039FE7820FFF724FC0100174802F032FED5
:10B410000020FFF755FF0120FFF75AFF6B46DC1DA8
:10B420000023012223701A2123006820FEF79AFBD3
:10B4300001000E4802F01EFEFA202900400101F032
:10B44000BBFE013820702300012219216820FEF77D
:10B4500089FB0100064802F00DFE03B030BDC04676
:10B4600054F501006CF5010084F501009CF5010024
:10B47000B4F5010010B50B0001000B4802F0FAFD15
:10B480008021A123A022FA20C900DB00D205D150DF
:10B49000C000FCF711FFBFF34F8F044A044BDA6082
:10B4A000BFF34F8FFEE7C046CCF501000400FA055C
:10B4B00000ED00E080218023184A8902D1508022CB
:10B4C000D221174B520289005A5040395A5001225A
:10B4D0002F205A600138C046C046C046C046C0460C
:10B4E000C046C046C046C046C046C046C046F1D170
:10B4F0009A6000230B4A2F2013600138C046C046D3
:10B50000C046C046C046C046C046C046C046C0460B
:10B51000C046C046F1D1044A1370704700E100E014
:10B52000001001405423002074230020A021F0B516
:10B53000002347462C4A490080B4535004315350ED
:10B5400004315350043153504C395350043153504B
:10B55000264B1B68002B37D0254900265258254919
:10B56000254F0C68141B00222402240A904602E096
:10B57000002D1AD02B001A68A24216D8A41AB618A9
:10B580001A7CDD69002AF3D0424699691A745A6917
:10B590003B68002B1BD0100098470028E8D0002201
:10B5A0000021FFF767FF002DE4D1144B14491A78EE
:10B5B0000B789A420ED0134A9B009E508021802324
:10B5C000114A49035B00D15004BC9046F0BD08000D
:10B5D0009047CDE70132D3B2022B01D00B70EAE7DE
:10B5E00000230B70E7E7C0460010014058230020FD
:10B5F00004050000542300205C2300206823002061
:10B60000692300206C23002000E100E0F0B55F46D4
:10B6100056464D464446F0B4C54BC64A1B68C6491B
:10B620008BB0059309781378994200D157E1013323
:10B63000DBB2022B00D100231370C04A9B009B5841
:10B64000BB4A9A46059B53441B021B0A1360012305
:10B650000193BB4B00241B689B46BA4B5A461B7890
:10B66000914619000393B84B88461B6847460493DC
:10B67000AF4B013F1B680793B44B1B780993002322
:10B680009C4606930893FBB266469846FF2B32D041
:10B690004346D800049B9C461300604401784578DB
:10B6A00000961A00A9421FD046684A00B4465218B4
:10B6B00086780131D200C9B262448E4200D1EDE0F9
:10B6C0001678022E00D1C7E0032EEAD1002BE8D075
:10B6D0001C74DB69002BFBD10133457800930023F8
:10B6E00099461A00A942DFD14746013FFBB2009EAE
:10B6F0009846FF2BCCD1089BC8460292B446002B3B
:10B7000000D0F0E0069B002B02D0894B079A1A600C
:10B710006346002B02D04246894B1A60019B002BE6
:10B7200000D02DE15B46029A00259B1A5A1E9341D8
:10B73000DBB205937E4B00271B6802999C46804B29
:10B740001B689B46814B1B78069300230193804B1B
:10B75000994601230093039B013BDBB20393FF2B2C
:10B7600000D1F9E0049ADB0092460E009A44002DC5
:10B7700028D06A68A9682C00ED696346D31A1B02B9
:10B780001B0A4B4552D86A4612785B1823606760E3
:10B79000A7602274E761002E58D0316830009942CA
:10B7A00005D3B9E01168994200D3A3E01000C26943
:10B7B0005B1A002AF6D1E26132002360C4611600F0
:10B7C000002DD6D153461A785B7831009342C2D00F
:10B7D000514649685300884651469B180132D2B2FF
:10B7E0000A708978DB004344914200D19DE01978CA
:10B7F00032000129E3D15C68227C90464146320048
:10B800000029DCD19A686260D968A1601869E0609B
:10B810005B69A361069B002BAFD0434600226360A7
:10B820006346D31A1B021B0A4B45ACD963469A1ACE
:10B830001202120A8A4264D28B1A6A461278236074
:10B840006760A7602274E761002EA6D12200012361
:10B85000A34601931600B3E75668002B30D09E42F2
:10B860001ED0009A1F00944602E0964206D01700B0
:10B87000FA69002AF9D16246009212E765460095FE
:10B88000BA420FD01568D269FA61002A16D013683F
:10B890009C466544156045784B4602E700210FE75A
:10B8A0001A001F00DE69002E0CD0012500951568D6
:10B8B000D269B1463300FA61002AE8D14578F0E652
:10B8C0000023EEE60125234B9D600095069500259B
:10B8D000002307950135994608950995D2E700237D
:10B8E0009A460193B5E66A4624215218174B1278FE
:10B8F0001A7007E7C91A1160E26123603200C4615F
:10B900005DE76B461B7827606760A7602374E7617B
:10B91000002E9BD000233168CB1A33602200012314
:10B92000E661A346019316004AE7524615705EE7AA
:10B930005423002068230020692300206C2300206A
:10B940005823002060230020642300206A23002065
:10B95000FEFF7F0000100140019B002B00D09DE006
:10B96000029B994236D1059B002B33D10023534AC9
:10B9700013700BB03CBC90469946A246AB46F0BD56
:10B980004F4B002418680025029B002100265746D3
:10B9900015E01A68BA4200D984E0D868BF1A89183D
:10B9A0001E60DC69002807D0DD611D00059A9860E3
:10B9B00052181202120A5A6023002000019C002B28
:10B9C000E7D1002C01D03E4B1860002302930133D5
:10B9D0000593AFE6002900D15DE00B683948984631
:10B9E000394B3A4DC4583A4B2E781B68E11A09027C
:10B9F000090A0331002E2DD042468A4200D20A00A5
:10BA0000A820D21812022F49130AC0002E4D0B5045
:10BA10004A591B1B121B1202120A1B0203321B0A79
:10BA20009A42A3D94B590B502F200138C046C0462B
:10BA3000C046C046C046C046C046C046C046C046D6
:10BA4000C046C046F1D180218023224A89025B0092
:10BA5000D1508BE78026D1277602BF00C651403FE8
:10BA6000C651C02280271B4EBF025200B75037601C
:10BA7000012606602F200138C046C046C046C04699
:10BA8000C046C046C046C046C046C046C046C04686
:10BA9000F1D12E70B0E7FFF70DFD67E75A46084B6E
:10BAA0001A605DE7BA46002C01D00549086051468E
:10BAB000521A1A600293012305933BE66A23002081
:10BAC00058230020001001400405000074230020CA
:10BAD0005423002000E100E0F8B54F464646C0B4CC
:10BAE0000326350080460F001400994615400720B4
:10BAF000002D03D00CBC90469946F8BD002A44D0D6
:10BB0000FFF7D8FC4A46224B80201A602200214BC6
:10BB100018321E70204B62601C607B00DB19DB005A
:10BB2000D218E260D318C022636125706570A770D7
:10BB300025726572A77225746574A774C524FF21E8
:10BB4000164B40031D60164B52001D70154BA40090
:10BB50001D70154B98501A598A433F390A431A51A0
:10BB6000A122186040461149D2008850C4208000AC
:10BB70001C580F4A2240C024240222431A500D4B65
:10BB80000020CA580C4B1A60B4E7034B1A60B1E7A7
:10BB90005C23002060230020642300205823002021
:10BBA000682300206923002000E100E0001001402C
:10BBB000FF00FFFF040500005423002010B50B4BCD
:10BBC0001B68002B0BD0002A07D0002805D0036883
:10BBD00008201C7C002C04D010BD0720FCE70820A6
:10BBE000FAE759745A610020F6E7C0466423002042
:10BBF000F0B5344B1C68002C06D0002804D0072375
:10BC0000042903D81800F0BD0823FBE74369002B83
:10BC1000FAD0437C012B44D000262B4B10255B68C7
:10BC2000DB05DB0D25D164196378A5785F1CFFB2B5
:10BC3000BD423AD02578BD4235D05D00ED1863682D
:10BC4000ED009C4665440423002DDBD0033B2B70A4
:10BC500068601E4B1E48C358E960AB60802180239A
:10BC60006A611C4A5B0049032E616770D150002352
:10BC7000C8E7103B5DB2002D19DBAD08C035154F8C
:10BC8000AD00ED5903273B40DB00DD40AB093B40F5
:10BC9000DBB20025012BC6D00835032BC3D00835F5
:10BCA000C1E70E00B9E70423ACE70027C2E70F2580
:10BCB000094FDBB2BC461D40083DAD08AD006544F0
:10BCC0006D68DFE76423002000ED00E0040500005C
:10BCD0000010014000E100E018ED00E010B52C4A32
:10BCE00003001168082000292AD0002B28D05A69A7
:10BCF000002A25D000221A74264A08305268D2053C
:10BD0000D20D1ED109184A788878541CE4B2A0429A
:10BD100031D00878A0422CD0500082184868D20058
:10BD2000844662440420002A0AD00238107053600E
:10BD30004C70802380210020174A49035B00D150BA
:10BD400010BD103A50B2002817DB8008C030124CEA
:10BD50008000005903242240D200D04082092240B2
:10BD6000D2B20020012ACDD00830032ACAD0083030
:10BD7000C8E70420E4E70024CBE70F20074CD2B249
:10BD8000A446104008388008800060444068E1E71D
:10BD90006423002000ED00E000E100E018ED00E089
:10BDA000074B1A680823520701D41800704700286F
:10BDB00004D0044B5B7803600023F6E70E23F4E71E
:10BDC000442400207823002071DF704772DF704721
:10BDD00079DF70477DDF704765DF7047F0B55F46FC
:10BDE00056464D464446F0B485B09A460EAB80CBDD
:10BDF00006001B8800919B463B8801930388002B1B
:10BE000063D00023994602ABDD1C3B0000241700E1
:10BE1000984603E033880134A3422CDD7368A10007
:10BE20009C460422614403A802F01AF9002229006A
:10BE300003A8FFF7D1FF002829D12B78BB42E9D115
:10BE40004B46002B2AD043461A88D3195B453EDC6B
:10BE50005244290003A8FFF7BFFF002817D143462B
:10BE60002A781B880134D31842461380012399464F
:10BE70003388A342D2DC4B464746002B25D03B8873
:10BE8000019A013B9B1A9BB20C20FF2B1AD905B0DB
:10BE90003CBC90469946A246AB46F0BD43461B8843
:10BEA000DA1902325A4512DC4246013369469BB226
:10BEB000138052460978D15443461A88013292B20F
:10BEC0001A80C5E71100524653540020DFE70C20CA
:10BED000DDE7C046F0B55F4656464D464446002372
:10BEE000F0B417881380436B87B006000D00140070
:10BEF000002B00D19CE1022F00D891E11A78022397
:10BF00000B701121238801339BB22380E9542388CD
:10BF100001339BB22380EA54238801339BB22380F0
:10BF2000326B002A00D170E019001231B94200D9F9
:10BF300076E11121E9542388013901339BB2238032
:10BF4000E954238801339BB22380D17BE9542388B1
:10BF500001339BB22380917BE954238801339BB248
:10BF60002380517BE954238801339BB22380117BCA
:10BF7000E954238801339BB22380D17AE954238882
:10BF800001339BB22380917AE954238801339BB219
:10BF90002380517AE954238801339BB22380117A9C
:10BFA000E954238801339BB22380D179E954238853
:10BFB00001339BB223809179E954238801339BB2EA
:10BFC00023805179E954238801339BB2238011796E
:10BFD000E954238801339BB22380D178E954238824
:10BFE00001339BB223809178E954238801339BB2BB
:10BFF00023805178E954238801339BB2238012783F
:10C00000EA54238801339BB223802E22B25C002A9B
:10C0100000D00FE12D22B25C002A00D02CE1B278D2
:10C02000002A00D055E1F278002A14D0D91CB94278
:10C0300000D9F5E00221E9542388013901339BB28C
:10C040002380E954238801339BB22380EA54238858
:10C0500001339BB223807268002A15D0D91CB942E3
:10C0600000D9DDE002211278E95423880831013338
:10C070009BB22380E954238852B201339BB22380C0
:10C08000EA542388013323803389002B00D09BE1BD
:10C09000338A002B00D0B1E1338B002B00D0C7E1F5
:10C0A000336A002B4BD022880C20911D9346B94255
:10C0B00000D9B6E0198805388A46052900D8B0E0CD
:10C0C000BB496A468C46D4446146D181D1898C46AD
:10C0D000B84988468C4500D8A3E059888C46052984
:10C0E00000D89EE0B2496144D18189B2414500D86F
:10C0F00097E0B1498A4504D08C4502D0E24500D989
:10C100008FE005215A46A95422880D31013292B29E
:10C110002280A9542288013292B222801988AA185A
:10C120001170090A51702288023292B22280598815
:10C13000AB181970090A5970238802332380736A77
:10C140009846002B30D09A882188131D5B180C204C
:10C15000BB4266D8931CFE2B63D803326A54FF227D
:10C16000238801339BB22380EA544246238801335B
:10C170009BB223801288EB181A70120A5A7042463A
:10C18000238802339BB223809288002A0CD0414638
:10C1900089680538002944D0E81801F061FF43465A
:10C1A00022889B88D31823802C23F35C002B00D09B
:10C1B000B0E033780020002B33D032880720012AEA
:10C1C0002FD02288901CB8422AD8012B04D1737832
:10C1D00002339B189F4223D3023FBA1A04AF93B293
:10C1E0002818390098463B80FFF7F4FD002818D145
:10C1F0003378022B00D141E1012B00D1DEE0434630
:10C200000821FE2B0CD822885E1CAE5422880132F5
:10C2100092B22280A954228801329B18238000E028
:10C220000C2007B03CBC90469946A246AB46F0BDF8
:10C23000002375E6D91C0C20B942F2D80221E9543A
:10C240002388103001339BB22380E85423880133C4
:10C250009BB22380022A00D10BE100D804E1032A1B
:10C2600000D109E1042A00D0FCE00322EA5423882B
:10C2700001339BB22380CDE609330C20BB42D0D8DA
:10C2800004A8FFF7A1FD0028CBD1082223880921AB
:10C29000EA542388133201339BB22380EA5402AB61
:10C2A0009C462088153A013080B2208061442818CD
:10C2B00001F0D6FE238802AA0633127A9BB22380AD
:10C2C000002A00D00122EA54238801339BB2238044
:10C2D000A5E604330C20BB42A3D804A8FFF778FDE1
:10C2E00000289ED103222388EA5423881632013382
:10C2F0009BB22380EA54238802AA01339BB212899D
:10C300002380EB181A70120A5A70238802339BB2EA
:10C31000238088E6B36A9846002B00D1A2E09B8870
:10C320000233FE2B00D97BE700229146163292465B
:10C330001632208893460CE04B46B26A5B0090466A
:10C340004B449B00984443469B880233FE2B00D904
:10C3500066E7524601332B54238801339BB2238076
:10C36000EA544246238801339BB223801288EB189B
:10C370001A70120A5A7043462088023080B2208018
:10C380009A88002A0BD0996800296BD0281801F0F0
:10C3900067FE434620889B88C01880B220804B46A9
:10C3A0000133DBB299465B46F35C4B45C4D800E7EA
:10C3B0007FF3FFFF7DF30000FFFF000073789845D7
:10C3C00000D31DE743461BE708239846B044019776
:10C3D00000942B00022202214046FFF7FFFC0028B8
:10C3E00000D01EE7019700942B0010220621404642
:10C3F000FFF7F4FC002800D013E749E61023984625
:10C40000B044019700942B00022203214046FFF71D
:10C41000E5FC002800D004E7019700942B001022CF
:10C4200007214046FFF7DAFC002800D0F9E633E6A2
:10C4300018239846B044019700942B00022214213F
:10C440004046FFF7CBFC002800D0EAE601970094B5
:10C450002B00102215214046FFF7C0FC002800D019
:10C46000DFE61DE60720DCE6012AFBD10022EA54C4
:10C47000FDE60122EA54FAE6E954F8E63B88092190
:10C48000984500D3BDE64346BAE6C04630B593B002
:10C490001F236A460C009380D380002822D0C378E3
:10C4A0005B071CD501AA02A9FFF714FD02AD002805
:10C4B00016D1002C19D0E378002B10D16B460AA9B5
:10C4C0009A1D2000FFF706FD002809D16B469B79D5
:10C4D0000AAA694628000979FFF778FC00E00720DE
:10C4E00013B030BD90800025E3E76B460022DC806E
:10C4F0000023EEE773DF704770B59F4E86B00722CA
:10C5000000213000FBF784FE9C4C6378002B6ED03A
:10C510009B4D2B78012B05D0A278002A00D1EFE0AB
:10C52000022B0FD1974A1268002A00D1FDE00121A9
:10C53000954B0820197090472B78012B00D1F7E01C
:10C54000022B5FD0227B002A01D1032B7AD0227EDE
:10C55000002A02D1042B00D107E18A4A1268002A7E
:10C5600002D0033B012B77D90022884B1A70182286
:10C5700000216846FBF74CFE00236A4613701372D5
:10C580002A7801930393022A00D18BE072D9032AFF
:10C5900000D194E0042A22D16B46A28B1A82228C0D
:10C5A0005A827B4B1A79002A00D1B6E02278002A01
:10C5B00000D1B6E0774A1278002A00D0B1E069468F
:10C5C00003930423023274480A720021C370FFF7F8
:10C5D0005DFF002864D10622704B1A702A78002A69
:10C5E00051D1684B1B68002B56D1002058E0A3782E
:10C5F000634D002BA0D02B78022B93D0012BA1D11F
:10C6000002232B70A378002B17D07378002B00D057
:10C61000B0E0B378002B00D0ACE0F378002B00D072
:10C62000A8E03379002B00D0A4E07379002B00D070
:10C63000A0E0B379002B00D09CE003232B70237B78
:10C64000002B61D104232B70237E002B00D18CE0C2
:10C650004C4B1A68002A87D02378002B84D04D4B8E
:10C660001B78002B00D07FE70121484B0720197071
:10C6700090477CE7012AB2D169464B820B82474B37
:10C6800001960A701A706846FFF734FF002807D138
:10C690003C4B1B68002BA8D0404A107898470020DC
:10C6A00006B070BD012369460B706B462189019667
:10C6B0005982694663680B82384B1A70E3E76B4610
:10C6C000A28A5A82228A1A82314B1A79002A1DD0F4
:10C6D0002278002A1DD02F4A1278002A19D16946E3
:10C6E0000393042302322C480A720021C370FFF71F
:10C6F000CDFE0028D4D10522284B1A702A786EE787
:10C70000022B00D01EE798E7032326E71A7B002AB6
:10C71000DED10322214B1A70B5E71A7B002A00D024
:10C7200044E704221D4B1A70ADE717490A7004E76D
:10C730006278002A00D163E77278002A00D00CE703
:10C74000B278002A00D008E7F278002A00D004E787
:10C750003279002A00D000E77279002A00D0FCE686
:10C76000B279002A00D14BE7F7E600230B4A2B7081
:10C770001370F9E60223F0E6B8240020C02400205C
:10C78000582500208C240020592500203725002022
:10C7900008250020B3240020482400206C25002018
:10C7A000F8B504000E000E20002C00D17BE0002A1A
:10C7B00079D000203C4908703C490B6006993C4BFD
:10C7C00019603C490B0023CA23C323CA23C323CACD
:10C7D00023C3072200213848FBF71AFD374B384A9C
:10C7E000384D1A60384A00219A6028003822FBF739
:10C7F0000FFD237822002B70A3781032AB70E37802
:10C80000EB7063786B702B00103303CA03C32B00EB
:10C81000103A083303CA03C32B000832183303CA83
:10C8200003C3636A002B11D0284B294F6B62616AE6
:10C830009F600A881A8088889880002806D0002384
:10C840008A68D25CFA5401338342F9D1A36A002B7F
:10C8500014D0204B204FAB62A06A9F6081889980E2
:10C8600002881A800023002905D08268D25CFA541D
:10C8700001338B42F9D12C23E25CEA54236A002B6A
:10C8800006D0164B2B62226A5188598012881A8072
:10C890006368002B03D0124B6B6063686B603100E0
:10C8A0002800FFF7F3FDF8BD582500208C24002058
:10C8B000B4240020C0240020B82400200825002033
:10C8C000E424002048240020382500208024002073
:10C8D0009424002060250020182500205C250020DD
:10C8E0000425002010B500240B4B82B0187001A85D
:10C8F0000194FFF755FA082809D0002805D1019BBB
:10C90000002B05D00122054B1A7002B010BD019416
:10C91000FFF7F2FDF9E7C0465825002090240020DB
:10C9200030B5038883B0112B1ED0192B07D0102BE4
:10C9300001D003B030BD82882D4B1A80F9E784798D
:10C94000002CF6D12B4B1D78022D4ED038D9032D5B
:10C9500023D0042DEDD1284B1C70284B1B68002BD5
:10C96000E7D000209847E4E70024254B1C70204BBB
:10C9700082881B889A42DCD101251E4B01A81D70BC
:10C980000194FFF70DFA082824D0002827D1019B35
:10C99000002B20D01B4B1D70CBE7174A15700422CB
:10C9A00001A81A700194FFF7FBF9082812D000289B
:10C9B00015D1019B002B0ED00122124B1A70B8E743
:10C9C000012DB6D1022201A81A700194FFF7E8F9EF
:10C9D0000828DAD10194FFF78FFD0028A9D00A4B6F
:10C9E0001B68002BA5D09847A3E70322D8E7C046D1
:10C9F0009C200020582500206C2500208C2400203D
:10CA0000B324002090240020B424002075DF704758
:10CA100076DF70477ADF70477BDF704710B5184BC1
:10CA200082B01888174B984214D0174A174C1378C5
:10CA30000133DBB21370217B99420DD200231370B6
:10CA4000237C002B12D16369002B03D0002201A8A4
:10CA50000270984702B010BD0D49FFF7D7FF0028BC
:10CA6000F8D0A369002BF5D09847F3E73B21FFF7F7
:10CA7000CFFF0028E7D0A369002BE4D09847E2E776
:10CA8000B8250020FFFF0000782500207C2500202D
:10CA9000BC25002030B51B4B1B4A5B88118883B036
:10CAA00099420FD852889A420CD3184B5B69002BDD
:10CAB00003D0012201A802709847154C002323706F
:10CAC00003B030BD124C2378002B08D00F4B5B69AC
:10CAD000002BF3D0002201A802709847EEE70D4B1F
:10CAE0000A4D1B78002B0BD0A96800220A48FFF7DB
:10CAF0007FF80028E2D0AB69002BDFD09847DDE754
:10CB00006968F2E770250020BC2500207C25002004
:10CB10006D25002078250020982500201649020068
:10CB20000B0070B532CA32C332CA32C312681A60FF
:10CB30000022124B01681A70002916D0104C0832DE
:10CB4000200001F08DFA2000FFF764FF00280BD1D0
:10CB500001220C4B52421A8000220B4B00211A700A
:10CB60000A480B4AFFF72AF870BD0548FFF754FF43
:10CB70000028EDD0F8E7C0467C2500206D25002078
:10CB8000BC250020B825002078250020F4F5010000
:10CB90001DCA010010B50388112B35D021D9122BE5
:10CBA00017D0502B1CD1214CC288E3899A4217D14F
:10CBB000C38B022B14D11E33C35CDB070ED41C487D
:10CBC000FFF78CF800280BD0A369002B08D09847FA
:10CBD00006E0811D0822174801F042FAFFF75AFFCC
:10CBE00010BD102BFCD101008288134B16311A8026
:10CBF0001048082201F034FA0022104B1A700B4B37
:10CC0000DB89002BECD1E9E701220B4B52421A8061
:10CC100000220A4B06481A70FFF760F80028DFD0A0
:10CC2000024B9B69002BDBD09847D9E77C2500207D
:10CC30009825002070250020B825002078250020A8
:10CC4000A0DF7047A2DF704763DF704710B5002890
:10CC500008D0002906D00B88112B15D0502B02D0FC
:10CC6000102B0ED010BDCB88028A9A4210D0828839
:10CC70009A42F7D18369002BF4D0CA8B20319847B0
:10CC8000F0E78B888382EDE701235B428382E9E74B
:10CC9000CA8B022AEBD12023CA5C1F3B134002D06F
:10CCA00001238375DEE78375DCE7C046F0B54D46AA
:10CCB0005F46444656461023F0B495B004000D007C
:10CCC00010227B4904A899460E2701F0C9F9002CCF
:10CCD0000ED0002D0CD001235B42A3822B682100D3
:10CCE000A361002304A8A375FFF7AEFF071E07D0BA
:10CCF000380015B03CBC90469946A246AB46F0BD04
:10CD0000237802A98B700123A21C01200B80FFF75E
:10CD100097FF071EECD1032200216846FBF778FA43
:10CD20006B460F221B7892469343012293465A4644
:10CD300013435246134010229046424613436A461C
:10CD400013705378524693435A4613435246134046
:10CD5000424613436A465370937806229343043A3B
:10CD600013436A460DAD937000211C222800FBF787
:10CD70004FFA42462B7801AE13432B706B466A463E
:10CD80006B61237800219373032330009381032286
:10CD90006F60EF602F61AF61FBF73AFA524633786C
:10CDA000002193435A4613435246134042461343CD
:10CDB00052463370737808A893435A461343524639
:10CDC00013404246134306227370B3789343043AE8
:10CDD0001343DBB2063293434A4693435A46134306
:10CDE0001422B370FBF714FA03AB089301226B46CD
:10CDF0001A8514225F859A85230060880C3308AA5F
:10CE000029000996FFF71EFF071E00D070E71C22BD
:10CE100000212800FBF7FCF908232A78002113439E
:10CE2000042213436A462B70237830009373022345
:10CE3000938103226F60EF602F616F61AF61FBF739
:10CE4000E7F952463378002193435A46134352463A
:10CE500013404246134352463370737808A89343F5
:10CE60005A461343524613404246134306227370F8
:10CE7000B3789343043A1343DBB2063293434A46F2
:10CE800093435A4613431422B370FBF7C1F903AB23
:10CE9000089301226B461A8514225F859A85608863
:10CEA000231D08AA29000996FFF7CCFE07001FE7FB
:10CEB000F8F501002EDF704751DF704710DF704733
:10CEC00061DF704710B50800110000E000BF10BD21
:10CED000F0B557464E464546E0B4344B344E1D68D7
:10CEE00099466B425D41334BEDB21C6898466342F4
:10CEF0005C4182B0E4B2304FB246002D13D0002C1A
:10CF000040D13C68338801A920000B80FFF7D8FF8F
:10CF1000052837D000282AD000220021FEF7AAFADF
:10CF20000024002DEBD101A8FFF7C6FF05280DD086
:10CF3000002822D000220021FEF79CFA002C27D0E6
:10CF4000012401A8FFF7B8FF0528F1D1002C19D161
:10CF500053466A461B8801A99380174B1C68200022
:10CF6000FFF7AEFF05280DD001250028D4D1434698
:10CF700020001B6898470024D3E74B4601981B68A4
:10CF80009847DBE702B01CBC90469946A246F0BD2C
:10CF90006A46074B01A91B889380074B1C68200039
:10CFA000FFF78EFF0528B5D10124CAE7CC25002064
:10CFB000C6250020D0250020C825002070B504001B
:10CFC0000720002901D08D0700D070BD09480160FD
:10CFD000094920000A80094A09491360FFF76EFFDA
:10CFE0000028F2D10122074B16301A70FFF762FFBA
:10CFF000EBE7C046C8250020C6250020D425002028
:10D00000C5CE0100C4250020002803D0024B1860C3
:10D01000002070470E20FCE7D025002010B50A4BF9
:10D020001B68002B08D09847002800D110BD0022B3
:10D030000021FEF71FFAF9E7044B1B78002BF5D00F
:10D04000FFF746FFF2E7C046D4250020C4250020A4
:10D0500003210A4802680A430260094802680A4339
:10D0600002600849084A094B9B1A03DD043BC85873
:10D07000D050FBDC064880470648004724050040A6
:10D0800054050040E4F6010000200020A820002004
:10D090002582010021810100FEE7FEE7FEE7FEE7B1
:10D0A000FEE7FEE7002243088B4274D303098B425C
:10D0B0005FD3030A8B4244D3030B8B4228D3030C68
:10D0C0008B420DD3FF22090212BA030C8B4202D30A
:10D0D0001212090265D0030B8B4219D300E0090A32
:10D0E000C30B8B4201D3CB03C01A5241830B8B423B
:10D0F00001D38B03C01A5241430B8B4201D34B0324
:10D10000C01A5241030B8B4201D30B03C01A524188
:10D11000C30A8B4201D3CB02C01A5241830A8B420D
:10D1200001D38B02C01A5241430A8B4201D34B02F6
:10D13000C01A5241030A8B4201D30B02C01A52415A
:10D14000CDD2C3098B4201D3CB01C01A524183090E
:10D150008B4201D38B01C01A524143098B4201D348
:10D160004B01C01A524103098B4201D30B01C01A73
:10D170005241C3088B4201D3CB00C01A52418308ED
:10D180008B4201D38B00C01A524143088B4201D31A
:10D190004B00C01A5241411A00D20146524110467A
:10D1A0007047FFE701B5002000F0F0F802BDC0466F
:10D1B0000029F7D076E7704703460B437FD400225F
:10D1C00043088B4274D303098B425FD3030A8B421B
:10D1D00044D3030B8B4228D3030C8B420DD3FF2285
:10D1E000090212BA030C8B4202D31212090265D053
:10D1F000030B8B4219D300E0090AC30B8B4201D306
:10D20000CB03C01A5241830B8B4201D38B03C01A4C
:10D210005241430B8B4201D34B03C01A5241030BC3
:10D220008B4201D30B03C01A5241C30A8B4201D374
:10D23000CB02C01A5241830A8B4201D38B02C01A1F
:10D240005241430A8B4201D34B02C01A5241030A96
:10D250008B4201D30B02C01A5241CDD2C3098B427B
:10D2600001D3CB01C01A524183098B4201D38B01F8
:10D27000C01A524143098B4201D34B01C01A52419B
:10D2800003098B4201D30B01C01A5241C3088B42E0
:10D2900001D3CB00C01A524183088B4201D38B00CB
:10D2A000C01A524143088B4201D34B00C01A52416D
:10D2B000411A00D201465241104670475DE0CA0F44
:10D2C00000D04942031000D34042534000229C4604
:10D2D00003098B422DD3030A8B4212D3FC2289010E
:10D2E00012BA030A8B420CD3890192118B4208D3E4
:10D2F000890192118B4204D389013AD0921100E046
:10D300008909C3098B4201D3CB01C01A5241830959
:10D310008B4201D38B01C01A524143098B4201D386
:10D320004B01C01A524103098B4201D30B01C01AB1
:10D330005241C3088B4201D3CB00C01A524183082B
:10D340008B4201D38B00C01A5241D9D243088B4281
:10D3500001D34B00C01A5241411A00D20146634624
:10D3600052415B10104601D34042002B00D5494288
:10D37000704763465B1000D3404201B5002000F0C7
:10D3800005F802BD0029F8D016E770477047C0467F
:10D39000F0B54F464646C0B41604360C99463300E5
:10D3A00005042C0C070C150C63437E436F43654347
:10D3B0001C0CAD1964199C46A64203D980235B025C
:10D3C000984647446346250CEF191D044B464A43D3
:10D3D00043432D0C240464199918C91920000CBC6E
:10D3E00090469946F0BDC046F8B556465F464D4654
:10D3F0004446F0B40F00FD0FAA4609037C002E003E
:10D400005F00450F490A7F0D2943C5001803BC463C
:10D41000400A570F640DDB0F3843D2009A4500D104
:10D42000AAE06646A61B002E00DCFFE06346002B48
:10D4300039D10300134300D0D9E06B0709D00F2383
:10D440002B40042B05D02B1DAB42AD416D42491939
:10D450001D000B0200D482E0CA4B01349C4200D173
:10D46000FEE00A005646C84BED081A405007640516
:10D4700052020543120B640D002112030B0D1B0514
:10D480006405120B1A436308C04CF60714401C4392
:10D49000640064083443280021003CBC904699464F
:10D4A000A246AB46F8BDB74B9C42C6D080231B04B6
:10D4B0001843382E00DDEBE01F2E00DD1EE1202397
:10D4C0009B1B9C4603006746BB409846130047469B
:10D4D000F3403B436746BA40571EBA41134302002C
:10D4E000F240EB1A9D42B6411D008A1A7642911B0A
:10D4F0000B0231D54A02560A002E00D1B4E03000AA
:10D5000000F090FD0300083B1F2B00DDB5E020225A
:10D510002900D21AD1409E400A009D4032439C42CD
:10D5200000DDB1E01C1B631C1F2B00DDD5E02021BA
:10D5300014002800C91A8C40D8408D400443DA40BA
:10D54000681E854111002543002476E7414631439A
:10D5500000D134E2310045466B0700D06FE75646F4
:10D560004807ED08C9080543864B9C4235D00A039D
:10D570006405120B640D7FE76346E31A9B46002B9C
:10D5800000DC8BE06746002F3CD07E4FBC4200D1D0
:10D5900053E780273F0438435B46382B00DCF7E035
:10D5A0000243501E82410020D2B253194218AB42AE
:10D5B00089411D00494289180B02CDD5714B0134B8
:10D5C0009C4200D13DE101206F4A6B080A4028408F
:10D5D0001843D507054351082FE72B000B4300D113
:10D5E000CBE180231B030B431A03120B44E7013EDC
:10D5F000002E6DD1AE1AB5429B41091A5B42C91A81
:10D60000350075E70700174300D116E701235B4299
:10D610009C46E3445B46002B00D0E0E0AA18AA42F7
:10D620009B4109185B4259181500C5E7002E75D1BA
:10D63000661C7605760D012E00DCF3E0AE1AB046CE
:10D640004545BF410E1A7F42F61B370200D48FE0DA
:10D65000551BAA42B641411A76428E1B9A464BE7A9
:10D6600056460022002507E7280000F0DBFC2030AA
:10D670000300083B1F2B00DC49E72A0028388240C2
:10D6800000259C4200DC4DE73F49E41A1140D4E6F6
:10D690000243501E8241D3B2002222E7002B00D069
:10D6A000F3E0631C9C465B055B0D012B00DC9FE0F7
:10D6B000344B9C4500D1C3E0AA180918AA42804106
:10D6C00040424118CD075208154349086446B4E664
:10D6D0002C4B9C4200D0ECE6AFE611001F3CE14031
:10D6E0000C00202B00D17FE04021CB1A9A4015433B
:10D6F0006A1E95410021254300242DE733000700D1
:10D70000203BDF403B00202E70D04027BE1BB040A6
:10D710000243501E824113430022E2E6002C4FD008
:10D72000184CA44500D1ABE0802424047642214368
:10D73000382E00DDDFE01F2E00DD43E12027BC1B7B
:10D74000A1460C004F46BC40A0462C004746F44082
:10D750003C434F46BD406F1EBD41F1402C43151B5D
:10D76000AA429241411A5242891A64469A46BFE639
:10D7700041464546314300D0BEE600260024002540
:10D78000F2E6C046FF070000FFFF7FFFFFFF0F80AC
:10D790001F2B59DC2027FF1ABC46070063469F4019
:10D7A0005B46B9461700DF40B8464F4643461F4325
:10D7B00063469A40531E9A415B463A43D840F4E68A
:10D7C0000C002C435CD0F643002E55D1551BAA42C9
:10D7D000A441411A6442091B9A46644688E6964F62
:10D7E000BC4200D0D8E628E6002280E700208FE780
:10D7F0000B002B43002C00D0C2E0002B00D101E134
:10D800000300134300D118E6AB18AB42B641091828
:10D81000764271180A0200D409E1884A1D001140BD
:10D8200064460AE6002C5BD10E002E4300D08AE04D
:10D830000100114300D1C2E0010015009A46FCE549
:10D840006446002100258FE620235B429C46DC4491
:10D8500063460700DF405B46BC46202B00D1ACE0AE
:10D8600040235F46DB1B98400243501E82416346C3
:10D8700013431A00002098E66F4CA44500D057E7E8
:10D880000100150064469A46D7E5002C39D10C00FA
:10D890002C436ED0DB43002B1AD0674CA44568D0D4
:10D8A000382B00DDA4E01F2B00DDAEE020240F00AC
:10D8B000E41AA740B9462F00DF40B846A3464F46BA
:10D8C000444627435C46A5406C1EA541D9403D43D4
:10D8D000AD1895429B4109185B42591864466BE6A6
:10D8E0000C002C4315D1010011437BD00100150021
:10D8F0009A46514CA1E50D43691E8D410021ECB2C1
:10D900002DE74D4CA44534D0802424045B422143B0
:10D91000C6E7040014434ED0ED084C072C43802585
:10D92000C9082D03294208D0C6082E4205D1D208C5
:10D93000410711430C009A463100620FC900E5000F
:10D9400011433D4C79E50600164300D175E5AE1A4A
:10D95000B0464545BF410E1A7F42F61B370200D440
:10D96000F4E5551BAA42B641411A7642891B9A46F4
:10D9700063E50100150064465FE5002200257BE5B4
:10D98000002B3BD00300134315D0ED084B072B436E
:10D990008025C9082D03294207D0C4082C4204D190
:10D9A00041070B002100D2081343C9005A0F11434D
:10D9B000DD00214C41E5204C3FE5002054E70026E6
:10D9C0000025D1E534000F00203CE7403C00202E2C
:10D9D0002BD04027BE1BB1400D43691E8D41002155
:10D9E0002C43BCE6802100260903134C0025BBE52F
:10D9F0000D43691E8D410021EDB269E7010015005C
:10DA00000D4C1AE50100150017E51C000F00203C25
:10DA1000E7403C00202B0CD04027FB1A99400D43D7
:10DA2000691E8D410021254352E70021D4E71D00E6
:10DA300092E50021F3E7C046FF070000FFFF7FFFEC
:10DA4000F0B55F4656464D464446F0B40D03994640
:10DA50004E002B0B87B00700924680469B46760D02
:10DA6000CC0F002E69D06D4B9E4235D05B46802294
:10DA7000DD001204430F13432B439B46C30098461B
:10DA8000674B00279C460023664401934A461503D2
:10DA90005000D20F53462D0B400D914600D176E039
:10DAA0005E4A90426CD080225B0F120413435C4AA2
:10DAB000ED0094461D4353460022DB006044494676
:10DAC0003618701C6140029017430F2F00D9AFE049
:10DAD0005448BF00C759BF465B461F4300D088E08B
