:020000021000EC
:108000000040002065E50100ADE50100AFE501009D
:108010000000000000000000000000000000000060
:10802000000000000000000000000000B1E50100B9
:108030000000000000000000B3E50100B5E501000C
:10804000B7E50100B7E501005D9E01000DA101004B
:10805000B7E5010000000000B7E5010019A201002A
:10806000B7E50100DD9A0100259A0100B7E501009E
:10807000B7E50100B7E50100B7E50100B7E501008C
:10808000B7E5010041CA0100B7E50100B7E501000D
:1080900021CB010091A5010031E50100B7E5010008
:1080A000B7E50100B7E50100000000000000000096
:1080B00000000000000000000000000000000000C0
:1080C00010B5064C2378002B07D1054B002B02D0AE
:1080D000044800E000BF0123237010BDB42000203D
:1080E00000000000CC440200084B10B5002B03D068
:1080F0000749084800E000BF07480368002B00D18B
:1081000010BD064B002BFBD09847F9E7000000009C
:10811000B8200020CC440200B42000200000000061
:10812000164B002B00D1144B9D46402292029A1A06
:10813000924600218B460F461348144A121A00F04B
:1081400067F80F4B002B00D098470E4B002B00D048
:1081500098470020002104000D000D48002802D09F
:108160000C4800E000BF00F02DF82000290000F0CE
:1081700059FB00F011F8C046000008000040002044
:108180000000000000000000B4200020E82B0020C8
:108190000000000000000000084B10B50400002B98
:1081A00002D0002100E000BF054B1868836A002B55
:1081B00000D09847200000F033F8C04600000000CF
:1081C000883102000E4B70B500251E000D4CE41ADC
:1081D000A410A54204D0AB00F35898470135F8E746
:1081E0000AF0C4FF084B00251E00084CE41AA41036
:1081F000A54204D0AB00F35898470135F8E770BDAD
:10820000AC200020AC200020AC200020B0200020BA
:1082100003008218934202D019700133FAE77047C5
:10822000FEE7C0461D4B1B78012B00D070471C4B4E
:108230001B681B07FAD1F0221A4B1B68134018D198
:10824000194B1B6813421CD0154B1B681B07EDD143
:10825000F022144B1B681340402BE7D1124B1B68D4
:108260001342E3D1C12380220121DB00D205D1508A
:10827000DCE7102B01D0302BEAD10B4B1B681342EB
:10828000E6D10A4A0A4B1A6080220A4B12021A608F
:10829000024B1B78012BD7D0C8E7C046E00F00F097
:1082A000E40F00F0E80F00F0EC0F00F0DFFF07C074
:1082B00004050040186C004082B00190019B002B27
:1082C00014D0019B0A48013B01930138C046C046C7
:1082D000C046C046C046C046C046C046C046C0466E
:1082E000C046C046F1D1019B002BEAD102B07047D5
:1082F000E703000070B501F047FC534B534C186086
:10830000030E2370030C6370030AA370504BE070DC
:108310001B8823714F4B1B8863714F4B1B88A371C4
:108320004E4B1B88E3714E4B1B7823724D4B002242
:108330009B5E1A12A3724C4B627200229B5E1A1251
:1083400023734A4BE27200229B5E1A126273A3737C
:10835000474B00229B5E474A12689B1A1A122374ED
:10836000454BE27300229B5E444A12689B1A1A1224
:10837000A374434B627400229B5E424A12689B1AAC
:108380001A122375404BE27400229B5E1A12A375E9
:108390003E4B627500229B5E1A1223763C4BE275BF
:1083A00000229B5E1A12A3763A4B627600215A5E37
:1083B000394D1112E176227702215A5E2868111296
:1083C0006177A27704215A5E1112E177202162546D
:1083D00006229B5E21221912A1540132A3542F4B75
:1083E00001321B68190EA154190C0132A1541B0A49
:1083F0000132A3542A4B01321B68190EA154190CE7
:108400000232A154190A0132A1540132A354254B5E
:1084100001321B68190EA15419140132A15419120A
:108420000132A1540132A3542100013202F0BAF901
:10843000002804D12F222100286002F0B3F92B6814
:108440007933FF332B6070BD10260020EC2800200C
:10845000A42700207A2A0020782A00206C2A0020F5
:10846000BE27002098270020AC27002014260020DB
:108470004C2A002080260020E0280020082600202A
:10848000922B00203C2A0020D0280020002600202B
:108490006C260020642A0020D8200020D828002044
:1084A000E828002018260020F0B55F4656464D46C5
:1084B0004446F0B4764C8FB0200001F07FFD754D3E
:1084C0002870200001F07AFD0700200001F076FD01
:1084D000714B0600DB5D83420DD00D252000013D70
:1084E00001F06CFD002DF9D10FB03CBC90469946CF
:1084F000A246AB46F0BD694B20001F7001F05EFD47
:108500008146200001F05AFD0700200001F056FDD1
:1085100083B298464246624B20001A8001F04EFD1D
:1085200043465F4A1B021B182000138001F046FDE2
:1085300080465C4B1880200001F040FD4346594ABC
:108540001B021B182000138001F038FD8046564B9B
:108550001880200001F032FD4346534A1B021B18CD
:108560002000138001F02AFD504B80469A46188067
:10857000200001F023FD434652461B021B18200039
:10858000138001F01BFD4A4B1870200001F016FD0E
:10859000484B1870200001F011FD474B1870200067
:1085A00001F00CFD83B29846444B42469B462000A6
:1085B0001A8001F003FD43465A461B021B18FF2098
:1085C000138001F0E7FB287801F0E4FB4B46012B18
:1085D0004AD04B463A4C002B02D12378012B52D083
:1085E000384A1378002B01D1012F46D0364B37493A
:1085F0001B680868791E8F41FFB217704A462270C7
:10860000264A297812780C93314B1B880A900B93D9
:108610005B4609961B880893274B1B780793254BCD
:108620001B780693224B1B780593534600201B5E54
:1086300004931D4B00201B5E03931A4B00201B5E0E
:108640000293174B1B8801934B460097214809F072
:1086500055FC124B1B78082B01D0FFF74BFE01F0A5
:1086600093FA1D4B18603FE7154C2378002BB7D1C8
:108670006421002004F002F9B2E7134B13491B6890
:108680000B601800B6E76421012004F0F7F8A7E7B3
:1086900084260020442A002054320200BE270020F5
:1086A000A42700207A2A0020782A00206C2A0020A3
:1086B000CD2B00202C2600209A2700207C2600208D
:1086C0005C2A0020CE2B0020B0270020FC250020B3
:1086D000E22800208C310200D428002010B5074881
:1086E00001F06CFC064C2070FFF704FEFE2001F048
:1086F00051FB207801F04EFB10BDC04684260020BF
:10870000442A0020F8B54F4646460020C0B401F088
:1087100041FB82240023204F204E3B60640004E094
:10872000300001F04BFC002802D0335B002BF7D166
:10873000002001F02FFBFA208000FFF7BDFD82230F
:108740005B009946164B984603E03B687933FF334C
:108750003B604B46F35A002B04D0300001F02EFC56
:10876000FF2814D02F224146386802F03FF9002834
:10877000EBD0FA2045464000FFF79EFD44462F35DA
:108780002078013401F006FBAC42F9D1DDE70CBCE6
:1087900090469946F8BDC046D0200020842600208F
:1087A000942B00200023104A1370104A1370104AB3
:1087B0001360104A136053600F4A136053600F4AEE
:1087C00013600F4A13600F4A13600F4A13600F4A79
:1087D00013600F4A13600F4A13600F4A13600F4A69
:1087E00013600F4A136070475C2A0020CE2B0020D4
:1087F000182600202029002090270020C82B0020C8
:108800008C270020582A0020342A0020CC28002061
:10881000DC28002060260020842B00207026002009
:10882000502A0020F0B55F464D4644465646F0B407
:1088300083B001F05BFB01F0A9F801F0C1F901F090
:10884000FDFC01F09BFC6421012004F017F801F00D
:10885000EDFD02F043F901F0A3FEFFF7A3FF0023B3
:10886000714A724E1380724A33701380714A002726
:108870001380714A1380714B994600234A46137046
:1088800001F082F96E4B6F4D9846186000230193FA
:108890006D4B6E4C9B4628604B461B789A46002BCE
:1088A00048D152466A4B1A6082226A4B52009A5A49
:1088B000002A0BD02378002B00D1A8E0664B1B7850
:1088C000FF2B00D184E0FE2B00D198E001F05CF991
:1088D000624B010018603378002B07D02A68801A99
:1088E00084465F4884456ED8082B64D001F05CF95B
:1088F00000282DD103F0B2FF002845D101F044F942
:10890000584B594A186043461B68C31A13604346C4
:108910001860002FC0D05B46544A1B68126893420F
:10892000BAD99B1A524A002713604B461B789A46C5
:10893000002BB6D04F4809F0E1FA6420FFF7BCFCE9
:10894000BFF34F8F4C4A4D4BDA60BFF34F8FFEE7BA
:1089500001F056FC01F090FC019B5A1C9246DB068C
:108960000AD1A023464ADB0599588022D20511423C
:108970001BD1A121C9005A5001F01CF953460193A3
:1089800003F06CFF0028B9D001F0FEF83D4B1860F1
:108990003D4B1B78002B0BD003F01CFF00F0DEF8E2
:1089A00001F0F2F85B461860A8E738495A50E3E74F
:1089B00003F004FEF2E74B4601221A70FFF7A2FE15
:1089C0000023337092E7324809F098FA33788BE746
:1089D000112A00D87AE7FFF767FD01F0D5F8534672
:1089E00023701D4B28601B780127FE2B00D06DE7FC
:1089F0008222184B52009B5A002B00D166E7FFF7EA
:108A00006DFE01F0C1F80023286023705EE7114875
:108A100001F0D4FA104B18700230C0B2012800D90E
:108A200054E70123237051E76C2A0020BE27002061
:108A3000782A00207A2A0020A4270020CC2B0020AE
:108A4000602A0020542A002068260020D42000201C
:108A5000A0270020842600202426002010260020A5
:108A600080841E000C260020D8280020D428002056
:108A7000E8280020443202000400FA0500ED00E07E
:108A800004050000742600205C2A00200C0500006C
:108A90003832020030B5214B214800229B5E214A2A
:108AA0001B041360204A01680024125F1F4C12044B
:108AB000521A22601E4C12122568AC461D4D6244AB
:108AC000D31A2B60DD111B021B155B180360521BB0
:108AD000194B226012141A80184B194800229B5E11
:108AE000184A1B041360184A01680024125F174CCF
:108AF0001204521A2260164C12122568AC46154D0B
:108B00006244D31A2B60DD111B021B155B18521B2C
:108B10000360114B226012141A8030BD0026002021
:108B2000C82B0020CC2800204C2A0020582A0020E6
:108B3000342A00208C27002098270020D0280020ED
:108B4000DC28002060260020E0280020702600207D
:108B5000502A0020842B0020AC270020F0B55F466F
:108B600056464D464446F0B4B04B83B01B78002BBC
:108B700000D023E1AE4B9A461A780023AD490B8012
:108B8000AD4B18780023002809D0AC4BAC4C1B68C7
:108B900024681B1BAB4C248863439BB20B80022AC6
:108BA00000D16BE1012A01D100F0F2FB032A00D1D0
:108BB00052E2042A00D1F9E2052A01D100F0A2FC18
:108BC000002800D1B3E2A04A1288904698449F4BF7
:108BD000444600255D5F6B009B469D4B5C44002234
:108BE0009B5E9946E41A01D500F09DFE8023DB05CB
:108BF0009B109C42FCDB002B01D100F094FE002274
:108C00009F18F8180021A74200DC3900661AA74215
:108C100000DC0200D10F8A1851100A009B103400AA
:108C2000002BEDD108B209F097F88A4A8A4B08F078
:108C30006FFA0022894B07F01BFB09F057F800B2CE
:108C4000071C002801DA00F04EFE3FB2844B854C31
:108C500000229B5E20805B009A46434652469E1A45
:108C60004B46F61801D500F067FE8023DB059B100C
:108C70009E42FCDB002B01D100F05EFE0022991821
:108C8000CD180020B14200DC0800301AB14200DCEF
:108C90002A00D10F8A1851100A009B100600002BE1
:108CA000EDD108B209F058F86A4A6B4B08F030FA77
:108CB00000226A4B07F0DCFA09F018F800B2061C33
:108CC000002801DA00F00CFE36B243465A469D1ADF
:108CD0004B466080ED1A01D500F029FE8023DB05AC
:108CE0009B109D42FCDB002B01D100F020FE0022F6
:108CF000D118C81884460020A94200DC0800281AB0
:108D0000A94200DC6246D10F8A1851100A009B105C
:108D10000500002BECD108B209F01EF84D4A4E4B6D
:108D200008F0F6F900224D4B07F0A2FA08F0DEFF3A
:108D300000B2051C002801DA00F014FE2BB20193EA
:108D4000A08040464B465044C01801D500F020FD9D
:108D50008023DB059B109842FCDB002B01D100F047
:108D600017FD00229918CD18A8460025AC4681426F
:108D700000DC8C466546451BAC46814200DC424621
:108D8000D10F8A1851100A009B106046EAD108B230
:108D900008F0E2FF2F4A304B08F0BAF92F4B0022BF
:108DA00007F066FA08F0A2FF00B2031C002800DA00
:108DB00050E11BB22C4AE0809046AAE11C4B1A7885
:108DC0009A46131F012B00D9D7E62848284F0023C5
:108DD000C45E7E68A3016100C9183B68254DDB01B4
:108DE000C9183B68DB00C918B301CB1871005918CA
:108DF0002B68DE031B039E1B6B689B03F3186E68D6
:108E0000F6029B1BCB1A1C499B130B60396803802D
:108E1000796029683C6069602B60052A01D000F008
:108E2000BFFCFFF737FE53461A78A6E65C2A0020FF
:108E3000BE270020E2280020CE2B0020B0270020F3
:108E4000FC2500207C260020A4270020782A002072
:108E50006C2A0020666666666666E63F000064402F
:108E60007A2A0020882B0020642A0020922B0020E0
:108E7000202900209027002018260020B54B1B88B1
:108E80009A46B54B514600255D5F6B009B46B34B40
:108E9000594400229B5E9846C91A00D556E18023AA
:108EA000DB059B109942FCDB002B00D14EE100203A
:108EB000C618F71800228E4200DC32008C1A8E424F
:108EC00000DC3800C20F1018421010009B10210067
:108ED000002BEDD110B208F03FFFA14AA14B08F0E2
:108EE00017F90022A04B07F0C3F908F0FFFE00B20B
:108EF000071C002801DA00F09DFC3FB29B4B9C4C04
:108F000000229B5E20805B00994653464A46991A90
:108F10004346C91800D5CEE28023DB059B10994259
:108F2000FCDB002B00D1C6E200201A18D518002661
:108F30008A4200DC16008E1B8A4200DC2800C20F29
:108F40001018421010009B103100002BEDD110B210
:108F500008F002FF824A834B08F0DAF80022824BC5
:108F600007F086F908F0C2FE00B2061C002801DAFC
:108F700000F063FC36B253465A469D1A4346608061
:108F8000ED1A00D593E28023DB059B109D42FCDBAC
:108F9000002B00D18BE20020C218D1188C46002192
:108FA000AA4200DC1100691AAA4200DC6046C20F26
:108FB0001018421010009B100D00002BECD110B2C5
:108FC00008F0CAFE664A674B08F0A2F80022664B1A
:108FD00007F04EF908F08AFE00B2051C002801DAFD
:108FE00000F09EFC2BB20193514643464944A080B9
:108FF000C91801D500F0D0FB8023DB059B109942F6
:10900000FCDB002B00D1C7E300201A18D518A846B6
:1090100000258A4200DC15004D1B8A4200DC4046D8
:10902000C20F1018421010009B102900002BECD129
:1090300010B208F091FE4A4A4A4B08F069F84A4BD0
:10904000002207F015F908F051FE00B2031C0028B9
:1090500000DBAEE60023ACE6464C23780133DBB2FE
:109060005AB22370002A00DA9DE3434A434B0021A1
:109070005B5E11688C4663441360414A414B00219A
:109080005B5E11688C46634413603F4A3F4B00218E
:109090005B5E11688C46634413603D4A3D4B002182
:1090A0005B5E11688C46634413603B4A3B4B002176
:1090B0005B5E11688C4663441360394A394B00216A
:1090C0005B5E11688C4663441360294C23881F1C27
:1090D0001BB2002B01DA00F013FC63883FB21E1CA8
:1090E0001BB2002B01DA00F008FCA38836B21D1C6D
:1090F0001BB2002B01DA00F0FDFB2BB20193E288DA
:10910000131C12B2002A01DA00F0FDFB264A1BB242
:109110009046694642468988178056809180D38060
:1091200003B03CBC90469946A246AB46F0BD002A2F
:10913000CBD10F4B0026DA809A805A801A80002209
:109140000192194A002300279046E2E77827782009
:10915000D4E6C046A4270020782A00206C2A0020EC
:10916000666666666666E63F00005E407A2A002014
:10917000882B0020DC200020B82700209827002022
:1091800064260020AC270020382A00201426002066
:10919000802600204C2A002008260020E0280020FD
:1091A0003C2A0020922B0020642A0020C34AC44895
:1091B0001188C44A12888A18C3490988521A92B27F
:1091C00011B201800020643292B28146C82A08D9C7
:1091D000BE4A12785143BE4A8946914200DC2FE3D1
:1091E0009146BC4A128890469844BB4B44460025A1
:1091F0005D5F6B009B464B465C44E41A00D585E3FB
:109200008023DB059B109C42FCDB002B00D17DE31F
:1092100000229F18F8180021A74200DC3900661AC6
:10922000A74200DC0200D10F8A1851100A009B10DF
:109230003400002BEDD108B208F08EFDA74AA84BF0
:1092400007F066FF0022A74B07F012F808F04EFD6A
:1092500000B2071C002800DAFAE23FB2A24BA34C8E
:1092600000229B5E20805B009A46434652469E1A2F
:109270004B46F61800D54CE38023DB059B109E423D
:10928000FCDB002B00D144E300229918CD1800200C
:10929000B14200DC0800301AB14200DC2A00D10FD4
:1092A0008A1851100A009B100600002BEDD108B25D
:1092B00008F052FD894A8A4B07F02AFF0022894BA9
:1092C00006F0D6FF08F012FD00B2061C002800DAF6
:1092D000C0E236B243465A469D1A4B466080ED1AAC
:1092E00000D519E38023DB059B109D42FCDB002B9E
:1092F00000D111E30022D118C81884460020A942E9
:1093000000DC0800281AA94200DC6246D10F8A1846
:1093100051100A009B100500002BECD108B208F098
:109320001BFD6E4A6E4B07F0F3FE00226D4B06F0FC
:109330009FFF08F0DBFC00B2051C002800DA0FE3F9
:109340002BB20193A08040464B465044C01800D534
:109350001EE28023DB059B109842FCDB002B00D132
:1093600016E200229918CD18A8460025AC46814285
:1093700000DC8C466546451BAC46814200DC42461B
:10938000D10F8A1851100A009B106046EAD1FEE402
:10939000574808F0B3FD0A239946564B534C98465C
:1093A0001AE041460A80321C002E4EDB41464A80BC
:1093B0002A1C002D4FDB41468A801A1C002B50DBF3
:1093C00043464D48DA80FEF777FF01235B429C4617
:1093D000E1444B46002B46D00023E05E08F0BCFC85
:1093E000464B474A07F094FE08F080FC07B22780FE
:1093F0000223E05E08F0B0FC404B414A07F088FED3
:1094000008F074FC06B266800423E05E08F0A4FC59
:109410003A4B3B4A07F07CFE08F068FC05B2A58099
:109420000623E05E08F098FC354A344B07F070FEE6
:1094300008F05CFC03B2E3803A1C002FB1DA002292
:1094400041460A80321C002EB0DA002241464A8092
:109450002A1C002DAFDA002241468A801A1C002BFC
:10946000AEDA0022ACE7FD2000F094FC53464A46F9
:109470001A7023881F1C1BB2002B00DA6EE263886F
:109480003FB21E1C1BB2002B00DA65E2A38836B285
:109490001D1C1BB2002B00DA5CE22BB20193E288A8
:1094A000131C12B2002A00DACFE11BB231E6782396
:1094B0007820019398E5782678205CE51E29002025
:1094C000C42B00206C2A0020922B0020CD2B0020E2
:1094D000FF7F0000A4270020782A002066666666C9
:1094E0006666E63F000064407A2A0020882B002050
:1094F00054330200642A0020EE020000CCCCEC3F82
:10950000CDCCCCCCD44A1188D44A12888A18D449FC
:109510000988521AD34992B20888D34914B20988EB
:1095200064324118D14892B20088091A08B2C82A98
:1095300000D901E10200643200DAFDE0642800DDB8
:10954000FAE0CB4ACB4D126852009146CA4A2D68C8
:109550001288904698446B001A000193C74B002173
:109560005B5E9A46130043441C005346E41A00D540
:10957000E6E1C34B9C4200DDFFE101339B109C42BE
:10958000FCDB002B00D1DBE100220327D118C81837
:109590000026A14200DC0E00A61BA14200DC020056
:1095A000D10FDC178A183C40E31851100A009B10B9
:1095B0003400002BEAD108B208F0CEFBB14AB24B1E
:1095C00007F0A6FD0022B14B06F052FE08F08EFB1C
:1095D00000B2071C002800DA88E13FB243464A4641
:1095E0009A1A5346AA4C2080D21800D5ABE1A44B5E
:1095F0009A4200DDC4E101339B109A42FCDB002B50
:1096000000D1A0E1002603259819C1188B4600213E
:10961000904200DC0100511A904200DC5E46F00FDF
:10962000DA1780192A40D318401006009B100A0050
:10963000002BE9D100B208F08FFB924A924B07F061
:1096400067FD0022914B06F013FE08F04FFB00B2BD
:10965000061C002800DA4BE136B24346019A6080CE
:109660009D1A5346EA1A00D570E1854B9A4200DDF7
:1096700080E101339B109A42FCDB002B00D165E1B5
:10968000032100258C465819C1188B4600219042B1
:1096900000DC0100511A0191904200DC5D466146F8
:1096A000E80FDA1740190A40D318401005009B1044
:1096B000019AE8D100B208F04FFB724A724B07F0F2
:1096C00027FD0022714B06F0D3FD08F00FFB00B21E
:1096D000051C002800DA48E12BB20193A080404627
:1096E00053464844C01853D4654B984200DD3EE1D0
:1096F00001339B109842FCDB002B49D00321002250
:109700008B46D118CD18A8460025AC46814200DC16
:109710008C466546451BAC46814200DC42465D46B0
:10972000D10FD8178A182840C31851100A009B106F
:109730006046E6D1FFF72BFB564A1678564A117859
:10974000564A71430025555F554A4C430027D25F66
:109750004143AD1A534A75430020125E5248641BC0
:109760000027C05F434D121A724350488A1A40497D
:109770002C600A60844259DA28604C48824251DBEE
:109780004B48824200DCFEE04A4A08609146DDE632
:10979000A023A020FFF70EFB78237820FFF70AFB19
:1097A0000422FFF7EAF9802B00D08EE4424808F04B
:1097B000A5FB7F22414B00251B68FC20D9171140D7
:1097C000CB182849DB110B803D4B25701B68D9173E
:1097D0001140CB182049DB110B803A4B1B68D9177D
:1097E0001140CB183849DB110B80384B1B68D91757
:1097F0001140CB182A49DB110B80354B1B68D91758
:109800001140CB182849DB110B80324B1B68D9174C
:109810000A40D318304ADB11138000F0BBFA5346DC
:109820001D7052E42D4A086091468FE6204884421C
:10983000A2DCA2E70027FFF760FB0026FFF79AFBF8
:109840001A4A914200DACBE4CBE400231BB260E475
:10985000002702E500263CE5902B0020782A002016
:10986000AC270020A62700207A2A00209827002075
:1098700078260020742A0020A42700206C2A0020CB
:10988000FFFFFF3F666666666666E63F000064406F
:10989000882B00209A2700202C2600204C2A00200C
:1098A000D02B0020E0280020A82700200080FFFF08
:1098B000FF7F0000FEFF00005C330200B82700209D
:1098C00064260020382A0020BC27002080260020A3
:1098D000082600203C2A00201E2900200000FFFF4F
:1098E0000026FFF7F1F90027FFF7AFF9002774E62C
:1098F0000026B1E60025FFF700FC0026FFF7F5FB88
:109900000027FFF7EAFB0023FFF700FCA027A020B9
:10991000A4E4A026A020DDE4A023A020019311E56B
:109920000025FFF75FFBA027A020FFF78FF9A023FA
:10993000A0200193FFF704FAA026A020FFF7C5F9A5
:10994000A027A0204AE6A026A02086E6A023A020EB
:109950000193C3E60025A0E5002697E500278EE5E4
:109960000025EDE40025FFF7E9F90025B4E68023A2
:10997000DB05C3E68023DB0582E68023DB0503E607
:109980008023DB053EE652009146DFE5A222194B1B
:109990001949D20099501949194A802099501949FA
:1099A000043299501849194AC0039950A023EB2159
:1099B0000322DB05C9005A5008315A5010315A5061
:1099C00008315A50A121C9005850802040045850F5
:1099D0008020400558508020C00558500C495A50EE
:1099E00004315A5028395A5008395A500021094A2E
:1099F00099507047006000400315130003171300CF
:109A00001405000003191300031D13001C050000BA
:109A10004C070000140700000122014B1A70704728
:109A2000D82B0020A622274B52009958002931D06C
:109A30000021995024490A683932FF320A60012214
:109A40009A64224A1278002A24D1A922D2009A5874
:109A5000F423FF339A421DD81D4B0422995E1D4A00
:109A6000914218DDFA22FA2092009A800622995E2D
:109A7000184AC00091421BDC0A1C00291DDBFA2198
:109A800012B289005118DA80A8220E4BD2009850E9
:109A9000114A995070470A1C002910DBFA2112B2B2
:109AA000890050189A800622995E0A4A9142E3DDA5
:109AB000FA21FA22C9009200E5E70022DFE700223E
:109AC000ECE7C04600A00040D42B00205D2A002017
:109AD000642A0020E703000044050000A622254B6D
:109AE0005200995800292DD0002199504C3AFF3A44
:109AF0009A64214A1278002A24D1A922D2009A58C5
:109B0000F423FF339A421DD81C4B0022995E1C4A55
:109B1000914218DDFA22FA2092001A800222995E00
:109B2000174AC00091421BDC0A1C00291DDBFA21E8
:109B300012B2890051185A80A8220E4BD2009850B8
:109B4000104A995070470A1C002910DBFA2112B202
:109B5000890050181A800222995E094A9142E3DD79
:109B6000FA21FA22C9009200E5E70022DFE700228D
:109B7000ECE7C046009000405D2A0020642A0020E7
:109B8000E7030000440500000122054B9A64A92266
:109B9000D2009858034BC0081B68C0187047C046D5
:109BA00000A00040D42B0020014B18787047C0461D
:109BB000D82B00200022014B1A707047D82B0020B0
:109BC000F8B55F4656464D4644460023504AF0B429
:109BD0001360504AA2261370C1239B009A4680232B
:109BE0001B039B46012153465846A8254A4AF600C6
:109BF0009151D0504948E433ED0053519C461350E5
:109C0000474B4848802713509946082350465C46E6
:109C1000BF00D3519846444BD16099511C506046C7
:109C20003E4C5851185148463E4C18514046D85168
:109C3000D9601160C022520094468022D200904622
:109C4000196062464146394B043C9950F8395A58DC
:109C500091464846364A0240C020000402435A500A
:109C600042461A6062469F505A5894466046314AAE
:109C70000240C020000202435A501F602E4A2F4B60
:109C80002F499A512F4A08365A502F492348995143
:109C90002E4E9A51A4222E4ED2009E502D4A2E4E68
:109CA0009A51043699512D4910365A50A6222C4902
:109CB000D20099502B4A2C495A502C4999512C4E7C
:109CC0009A512C4A5A512C4A1A50195115490020C0
:109CD0005A50FF21294A99500023294AFA3903F0A2
:109CE00085F9002803D00022002102F04DFE254A0C
:109CF0000121254803F0ECF900222449244803F00F
:109D000001FA3CBC90469946A246AB46F8BDC04617
:109D1000D42B0020D82B002000A0004044050000D8
:109D2000C40900004C0500000090004000E100E084
:109D3000FFFF00FFFF00FFFF4091004000F00140E7
:109D400014050000006000404C9100401C0500001C
:109D50004491004004600040240500002C050000F0
:109D600040A1004008600040340500004CA10040C4
:109D70003C05000044A100400C60004004050000C8
:109D8000E0200020199A01008033020066060000DE
:109D9000A822002010B5802304240A4AD4500A4B7C
:109DA0001A78002A08D000221A70084B084AD050AE
:109DB0000422044B1A6010BD0100064800F0F0F8C0
:109DC000F6E7C04600E100E0642000201C0500002A
:109DD00000200040C4270020F0B55F4656464D469F
:109DE0004446F0B483B00192002A24DD80239946D2
:109DF0007C3B9246984600230C008A44124E134D39
:109E000004279B4609E05B46114A3370114B01342D
:109E1000D15043462B6054450DD04B462178EF502E
:109E20003378002BEFD10C4800F0BAF843460134E8
:109E30002B605445F1D1019803B03CBC9046994643
:109E4000A246AB46F0BDC0466420002000E100E021
:109E5000002000401C050000C427002070B58425A8
:109E60001B4C6D006359002B1ED18E23184C5B00D8
:109E7000E258002A09D000221648E250183BC35A83
:109E8000002B1FD10122144B1A709222104B52004A
:109E90009958002907D0002199509022D200995852
:109EA0000E4808F02BF870BDFFF76EFE0C4B1860E3
:109EB00000236351A323DB00E1580A48C9B200F034
:109EC0006FF8D2E700F07AF8074BE050DDE7C046C4
:109ED00000200040C42700206420002084330200BA
:109EE000402A0020842600201C05000010B51E48D2
:109EF00000F04CF81D4800F049F8A023E7220321A8
:109F0000DB05D2009950E82100220E20C9005A50EA
:109F1000174B1849585018490230585017481849DB
:109F20005850A0200421C0001950842040001A502D
:109F300014301A5001329A601A60C2221E38FF385B
:109F400092009850A120043A80009850C0230D4AF6
:109F50005B00D1507C3014580B4B2340C0242404A8
:109F600023431350116010BD84260020C427002015
:109F7000002000400C0500001405000000E0D7019F
:109F80002405000000E100E0FFFF00FF8022002325
:109F9000FF215200835202328152023283527047B3
:109FA000812210B5FF245200835A0133234083528B
:109FB000C1540232835A0133835210BD802110B53F
:109FC000FF2402004900435AC05C0133234053522E
:109FD0000431535A013B535210BDC046F0B55746A9
:109FE0004E4645468446E0B489469A460120002AFA
:109FF0003BD0B12300276146244E254D254CDB0084
:10A000002F702770F1504946234BF1508021890071
:10A010007750B06029780029FCD000212970012AEE
:10A020002ED080210125194889004550012117486B
:10A0300089460160802189008846FF39A325FF39C0
:10A04000534600268C46ED0021780029FCD026706E
:10A050004159013AD2B21970012A0BD04946016226
:10A06000002A01D00133EFE700201CBC904699463E
:10A07000A246F0BD41466746013347500262E3E71E
:10A0800080210225014889004550CFE7003000407B
:10A09000C8220020C92200201C050000F0B5474658
:10A0A00080B407000120002A27D00025B126A84649
:10A0B000134CF6002570134DAF5180274646BF0064
:10A0C000EE51114EA951A86021780029FCD0002141
:10A0D0000020013A2170D1B201310A4E0A4D5918BF
:10A0E0001A7872512278002AFCD0013320708B42FA
:10A0F000F6D101220020034B5A6104BC9046F0BD0A
:10A10000C8220020003000401C050000F8B5842360
:10A11000154A5B00D158002904D00021D1500122FA
:10A12000124B1A708E23104A5B00D158002904D0BC
:10A130000021D15001220E4B1A7092250A4C6D005D
:10A140006359002B0FD00B4EA759FFF71DFDB1230C
:10A15000DB000200E3583900074807F0CFFE032375
:10A16000A35100236351F8BD00300040C9220020F4
:10A17000C8220020C404000098330200A023E2217A
:10A180001A4ADB05C90010B55A5008395A50042143
:10A19000174B053AFF3A9950164A02399950002256
:10A1A000CD200731FF315A5014315A501249C004A2
:10A1B0005850A120C1218000890058500539FF392D
:10A1C0005A50A022FC39FF39D2009950C023C02434
:10A1D0000A4A03315B00D1507C30135824061B021D
:10A1E0001B0A23431350116010BDC0460C0600002B
:10A1F000003000400C0500002405000000E100E0F4
:10A200008022044BD2009A58002A01D101321A60F0
:10A210007047C0460070004080220021054B52006C
:10A220009950A122D2009A58D3009B1A024A138057
:10A230007047C046007000401C2900200A4B0B49A3
:10A240000B4AC0209950A0210122C9005A50FD3963
:10A25000FF395A50074A000653581B021B0A034392
:10A2600053508023136070470070004004100000BA
:10A270000405000000E100E0F0B5474680B4604C02
:10A2800082B02578012D32D0002D1CD0022D07D1AF
:10A29000FFF77AFC5B4B1B68C01A5B4B984250D8A7
:10A2A00032200138C046C046C046C046C046C046FF
:10A2B000C046C046C046C046C046C046F1D102B006
:10A2C00004BC9046F0BDB1227721504BD20099508A
:10A2D00080227539920099504D4A46319950012299
:10A2E0009A602270FFF750FC464B1860D8E7FFF7E2
:10A2F0004BFC444E3368C01A434B9842D0D9454F6B
:10A3000003223B0000217720FFF768FE3B7877218E
:10A310001A047B7858201B021343BA7813433E4A31
:10A320001360B122394BD200995002228A31FF3199
:10A330005A50374958509D602270FFF725FC306015
:10A34000AEE7344D03222B0000217720FFF746FEB5
:10A350002B7800211A046B781B021343AA782F4D27
:10A3600013432F4A13606A89288912029B1A984660
:10A370001A00002305F0B6F84E06CB110021C209E1
:10A380003243AE88300412184B41009201930021F1
:10A39000E8884246002305F0A5F80E06020A32437B
:10A3A0006E880B12F003002116001F00424636187B
:10A3B0004F410023A889002105F094F8FA23DB001F
:10A3C0009C464902C00D0843164B60441860124B6E
:10A3D0003200186800213B0005F084F8CD02420DE0
:10A3E0004B152A4300980199121A8B4111005B0406
:10A3F000CA0B1A430C4B1A600023237050E7C04667
:10A40000CE220020E42200200F2700000030004070
:10A410001C050000E0220020E02B0020D0220020BC
:10A42000DC2B00209C270020B027002070B5A02442
:10A43000094E0A4D2B00022221007720FFF7CEFDA6
:10A440002B786A781B0202341343E4B2338002365D
:10A45000B02CEFD170BDC046D0220020CC2200200D
:10A4600076DF70477ADF70477CDF70477FDF7047A9
:10A47000A9DF704760DF70472EDF704732DF70471B
:10A4800033DF70474CDF70478021A02210B5044BAA
:10A490004904D205D1500022002102F075FA10BD06
:10A4A0000C050000F8B50E00151E08D00024044F5E
:10A4B000315D38000134FFF773FDAC42F8D3F8BDCD
:10A4C0002C29002010B5040003F0EEFD21001F48E8
:10A4D00003F046FE2388112B2BD01ED9132B0ED050
:10A4E000522B08D11A4B0022188800210023FFF7B5
:10A4F000BFFF00280CD1200003F09CFC10BD144BC2
:10A500000022188885210023FFF7B0FF0028F2D031
:10A510000022002102F038FAEDE7102BEBD1802168
:10A52000A0220C4BD2054905D150A288084B1A80B5
:10A53000E1E78021A123A022DB00D2054905D1500B
:10A540000122034B52421A80D5E7C0463023002037
:10A550006C2000200C05000010B50378002B00D003
:10A5600010BD8021A022084BC903D205D150074B52
:10A570003B211888FFF774FF0028F1D0002200214A
:10A5800002F002FAECE7C0460C0500006C20002047
:10A590000123024A11784B40137070475D2A002056
:10A5A000F0B57248A9B0FFF7F1FC7148FFF7EEFC77
:10A5B000002348226F49082003F08AFF002800D0BA
:10A5C000CEE01AAC082200212000FDF721FE012276
:10A5D0002378200093432370FFF74CFF002800D01E
:10A5E000B9E0654803F09AFF002803D0002200215B
:10A5F00002F0CAF90022614B15201A70FFF73EFFE6
:10A6000001211520FFF73CFF1520FFF735FF022140
:10A610000320FFF737FF0F21012203AE337820001C
:10A620008B43134310220B4013433370D023544AFF
:10A630005449D358FF221340534A07F079FC2000B5
:10A6400007F098FC210082B23000FFF70DFF0028D0
:10A6500000D07BE00CAD082200212800FDF7D8FDDA
:10A6600006232B8006336B800023AB809133FF33AE
:10A670002800EB80FFF7F6FE002803D0002200211F
:10A6800002F082F9002104222000FDF7C1FD3F4BBA
:10A6900021003F481A9303F093FD002803D00022C5
:10A6A000002102F071F9382200212800FDF7B0FDE9
:10A6B000022300272B703822043300212000EB7086
:10A6C000AF70FDF7A5FD01232382324B2422002128
:10A6D00030006361FDF79CFD01233373402332009A
:10A6E0003361210000970023280003F0E3FA0028DB
:10A6F00003D00022002102F047F91C220021200093
:10A70000FDF786FD244A00236260F0221203A26056
:10A7100005221A93E38101332374204B20006361E7
:10A720001F4B2273A36103F083FC002803D0002297
:10A73000002102F029F9032003F05EFB002803D07A
:10A740000022002102F020F929B0F0BD00220021F2
:10A7500002F01AF97EE70022002102F015F940E725
:10A760000022002102F010F92BE7C0462C2900201E
:10A770007C2A0020E8220020C5A401005D2A0020D8
:10A7800000100010DC330200D0330200A5A4010049
:10A790003023002068200020CD0C000059A50100C6
:10A7A00089A40100F0B5564644465F464D468446AE
:10A7B0000120F0B4874B884C92461C60874BA02246
:10A7C000DB7AD2059840864B8426D050002306229F
:10A7D0007600A351834B87B0E25084225200934607
:10A7E000A2597D4B002AF8D0A324E4001A59A126CF
:10A7F0000492A022AF27F600D2059051049E0136A4
:10A80000049603AE377067463F0CB84677706746CC
:10A810003F0AB946B7706746F770002900D19EE03D
:10A8200057466D462F802F880197002F00D196E064
:10A830006B4F5D46D051002292465A5100940C0055
:10A840005A4651469B46A246745C664D5C519C58E4
:10A85000002CFCD084275C4600257F00E551009D3C
:10A860000131645905940429EED151464B1C5A4CD0
:10A870009A460A785B4B2500E2503C0084222B5913
:10A88000554E5200002BF9D00023B350A323DB0018
:10A89000F358A0250593A123ED05DB00E8504B46B6
:10A8A000FF201B02000203406446FF2020401818CE
:10A8B000FF26434636041B0433401B1801985446B8
:10A8C000013880B2013084460120824644488C44DD
:10A8D0008146AF20C9438046CB18424E0093644561
:10A8E00045D00F200138C046C046C046C046C046CD
:10A8F000C046C046C046C046C046C046C046F1D16C
:10A900005146364B4046DB7A99404B46E950314B35
:10A910001B68985198580028FCD0002083465F4659
:10A920000930FF301F50A320C00018580590207830
:10A93000985198580028FCD0002083465F46093083
:10A94000FF301F50A320C0001B5801340593A123E2
:10A95000DB00E950009B1919234B9942BFD9002015
:10A9600007B03CBC90469946A246AB46F0BD1420C9
:10A970000138C046C046C046C046C046C046C04674
:10A98000C046C046C046C046C046F1D10120134B68
:10A99000A022DB7A04219840114BD205D0500D4BF8
:10A9A0001A68104BD1500531FF315358002BFCD0A1
:10A9B000842300215B00D150A323DB00D358A022C5
:10A9C0000593A123D205DB00D050059B0120013364
:10A9D0000593C5E758230020004000404C23002089
:10A9E0000C0500001C050000FEFF0100F0B5444608
:10A9F0005F4656464D46F0B483B06C460323237041
:10AA0000030C6370030AE070A37092B20020002967
:10AA100001D0002A06D103B03CBC90469946A2461C
:10AA2000AB46F0BD284B294CA0272360284CFF05DE
:10AA3000E57AA4460124AC40264D7C518424640070
:10AA400018511800244B00259A4600239846A3234A
:10AA5000DB000700A1469B466B4656465B5D835173
:10AA60000359002BFCD04B464646FE505B46FB5834
:10AA700001350193042DEFD1174B8424A32698466A
:10AA80000027013A95B201350F484D196400F600D0
:10AA90004346C75003590C4A002BFBD084235B006C
:10AAA000D75093590B700131A942F1D16346DA7A3C
:10AAB0000123A0219340A122C905D2008B50019B04
:10AAC000012001330193A6E70040004058230020F5
:10AAD0004C2300200C0500001C050000F0B55F466B
:10AAE00056464D464446F0B489B006AD06220021D4
:10AAF0002800FDF78DFB40236B70353BAB70023BAC
:10AB0000EB7009332B71013B6B71784B2900981D59
:10AB100006229A4607F0E9F9AB78032298464146A7
:10AB2000A0230020C131FF31DB058900CA50E9783C
:10AB300084468946C131FF318900CA50297944468B
:10AB40008B46C131FF318900C8506F79A12039008F
:10AB50004E46C131FF318900CA506549C0000C50D2
:10AB6000644C0E515E46A04604340E51012634005A
:10AB7000BC401C506F78604C3F060F512F785F4DE2
:10AB800064464F518427543D7F00CC514E51E025FF
:10AB9000ED005A515A4D5A51802292011E501A50BE
:10ABA0005246584D2960D27A964042469E505022D5
:10ABB000554BCC51CA508422C8594D4B52000028E5
:10ABC000F9D0A321C9005958A0200191A121C005A5
:10ABD000C90046500199012701310191454946506C
:10ABE0000020494998505F50585084279958404850
:10ABF0007F000029F9D00023C351A323DB00C358F1
:10AC000002938421C3593A4A4900002BF9D0A32367
:10AC1000DB00D358A0200293A123C005DB00C6505F
:10AC2000029B01330293334BC6500023062053503E
:10AC3000354BD050842753582D487F00002BF9D036
:10AC4000A323DB00C358A0220393A123D205DB007A
:10AC5000D650039B01330393264BD650002360222A
:10AC6000C351294BC250224B984684235B0099461E
:10AC7000C359002BF7D0A3234246DB00D358A027AB
:10AC80000493A123FF05DB00FE50049B64200133E5
:10AC90000493FDF711FB43462B6053460121DB7AF9
:10ACA00042469940134B4846F95000231350062260
:10ACB0004046154BC25043464A4698580028FCD09F
:10ACC000A3230B4ADB00D358A0220593A123012024
:10ACD000DB00D205D150059B0133059309B03CBC84
:10ACE00090469946A246AB46F0BDC0464C23002094
:10ACF000004000400C050000240500005405000041
:10AD000034070000582300201C05000030B5554CC6
:10AD100083B0A37A002B00D197E06B46DD1D0023A2
:10AD20002B7023680122597C636818782B00FFF789
:10AD3000B5F9002800D088E02368012259796368BA
:10AD400018782B00FFF7AAF9002800D07DE02368CF
:10AD500001221979636818782B00FFF79FF9002802
:10AD600000D072E02423E35C002B36D00C232B7040
:10AD7000236801221979636818782B00FFF78EF990
:10AD8000002862D13230FDF797FAC0232B70A37AE6
:10AD9000DB0762D4236801221979636818782B00D5
:10ADA000FFF77CF9002850D1637C002B58D12B7021
:10ADB00023680122597C636818782B00FFF76EF92D
:10ADC000002842D1236828705979636801221878D5
:10ADD0002B00FFF763F9404235E004232B70236812
:10ADE00001221979636818782B00FFF757F90028BA
:10ADF0002BD1A27C4023002A2AD02B702368012269
:10AE00001979636818782B00FFF748F900281CD1DE
:10AE10003230FDF751FA637C5A1E93412B70236840
:10AE20000122597C636818782B00FFF737F9002856
:10AE30000BD1230022681033517962681078012207
:10AE4000FFF72CF9404203B030BD01204042FAE741
:10AE5000A27AD207D1D52033CFE7E0232B7099E730
:10AE60000223A4E77020002070B5060082B02828D5
:10AE700000D9BBE02323694C01ADE35C00282CD151
:10AE8000002B18D02870A27C8023002A02D07E3BA1
:10AE90002B7080332222A25C002A00D08AE0236833
:10AEA0000122D97D636818782B00FFF7F7F8002896
:10AEB00001D12323E05400232B7007336B702368E8
:10AEC0000222597D636818782B00FFF7E7F8002805
:10AED00000D08BE0207502B070BD012B19D030235B
:10AEE0002B70A27C8033002A02D07E3B2B708033F3
:10AEF0002222A25C002A5BD123680122D97D6368EB
:10AF000018782B00FFF7CAF8002802D1012223236A
:10AF1000E25420232B70012E6BD0052E59D9142E0C
:10AF20004AD903236B70A37A002B6FD004236A469F
:10AF3000D370E37A042B69D023680122997863687F
:10AF400018786B460333FFF7A9F8002860D16B46E9
:10AF50000722DB78E3726B789B011343DBB26B70E3
:10AF600023680222597D636818782B00FFF796F852
:10AF700000283BD108230122A372207322751C33C1
:10AF8000E35C002B12D12374637C002B0ED16B4643
:10AF9000DA702368597C636818786B460333FFF7CF
:10AFA0007DF8002802D16B46DB786374002092E7BD
:10AFB0002B70A1E72B7072E702236B70A37A002B32
:10AFC00005D005236A46D370E37A052BB4D18723D5
:10AFD000C5E701236B70A37A002B05D006236A46D0
:10AFE000D370E37A062BA7D14723B8E7012040426C
:10AFF00071E700236B70A37A002B05D006236A4605
:10B00000D370E37A062B97D10723A8E7C723A6E7D7
:10B010006B789A0107231343DBB2A0E7702000206E
:10B0200010B5114A0100537A012B19D0002B13D00F
:10B03000022B0AD0032B0CD1102320240370D37CC5
:10B040000020002B00D00C7010BD082310240370CA
:10B05000F5E701204042F7E7022304240370EEE7FE
:10B06000042308240370EAE77020002070B51C4C0C
:10B0700082B0A37A002B27D06B46DD1DBB2816D8E3
:10B08000612817D902232B70E27A00269A420BD04E
:10B09000236801229978636818782B00FEF7FEFF79
:10B0A000002811D12B78E372300002B070BD01236B
:10B0B0002B70E9E7292804D8132808D904232B701A
:10B0C000E2E703232B70DFE701267642ECE709284D
:10B0D00002D905232B70D7E706232B70D4E7C0468F
:10B0E0007020002070B5584C82B0A37A0600002B67
:10B0F00000D196E02423E35C002B00D091E0227D78
:10B10000002A30D0421E272A00D885E02322A25CE4
:10B1100001AD002A18D02B70A37C8022002B02D016
:10B12000022302322B702223E35C002B00D071E05B
:10B1300023680122D97D636818782B00FEF7AEFFE3
:10B14000002801D12323E05400232B7007336B70B8
:10B1500023680222597D636818782B00FEF79EFF52
:10B16000002800D12075F920032E31D86B46D87005
:10B17000236801225978636818786B460333FEF719
:10B180008DFF00284DD16B46FA20D978800001311F
:10B1900004F044F8A37A80B2E0814008002B14D078
:10B1A00001ADBB2821D9012301222B70E37A934200
:10B1B0000BD0236801229978636818782B00FEF77A
:10B1C0006DFF002801D12B78E372002002B070BD22
:10B1D000FA23311C9B009E420FD8FA2089B28000CE
:10B1E00004F01CF80138C0B2C0E761280ED8292845
:10B1F0001AD9032303222B70D8E7FA20191C89B22D
:10B20000800004F00BF80138C0B2AFE7022302223D
:10B210002B70CBE72A708BE7C0B2FFF725FE00202A
:10B22000D4E701204042D1E7132805D8092807D9DF
:10B23000052305222B70B9E7042304222B70B5E700
:10B24000062306222B70B1E770200020F0B5474698
:10B25000242380B4304D82B0EB5C0024002B2BD132
:10B26000AC7A002C54D00133984304402F7C2C74CA
:10B27000041B621E944106006442002821D12A7DED
:10B28000002A30D06A7C002A16D107326A44137033
:10B290002B689046597C6B68187813000122FEF7E2
:10B2A000FDFE002808D143461B786B74002E03D0A6
:10B2B000FFF72CFD002827D1200002B004BC9046E7
:10B2C000F0BD6A7C002AF3D107226A4413702B6810
:10B2D0009046597C6B68187813000122FEF7DEFE59
:10B2E0000028E0D0E4E76B46DA712B680122597C34
:10B2F0006B6818786B460733FEF7D0FE0028DBD169
:10B300006B46DB796B74D7E701242F746442D3E773
:10B3100001246442D0E7C04670200020F0B54F46BB
:10B3200046467023C0B4050083B0034069D06B4625
:10B330009E1D01233370484C01222368597D6368A8
:10B3400018783300FEF7AAFE002800D07EE04022E5
:10B3500033783070934323732A4266D03A20844670
:10B360003738814601383823392201213B2780466E
:10B37000A80604D443463A00337049466346E806BB
:10B3800001D4130031702A0700D4337023680122DE
:10B39000997D636818783300FEF780FE002855D148
:10B3A00008232A009A4320D02323E35C002B1CD0DF
:10B3B0006B46D871A37C8022002B03D06A460223FF
:10B3C000D37182222223E35C002B01D06B46DA7119
:10B3D00023680122D97D636818786B460733FEF72E
:10B3E0005DFE002801D12323E05400233220A57202
:10B3F0002375FCF761FF002003B00CBC9046994612
:10B40000F0BD00281ED16B464027134C9E1D2368BB
:10B410003770597D6368012218783300FEF73EFECD
:10B42000002813D13378BB4323733E200423844682
:10B4300037388146013833703D22383305213F27A4
:10B44000804695E76A46961D337074E70023012015
:10B45000A3724042D0E7C04670200020802370B520
:10B46000774C84B002AD2B7023680122597D63684C
:10B4700018782B00FEF712FE061E00D0C2E06420F2
:10B48000FCF71AFF23682E70597D63680122187833
:10B490002B00FEF703FE002800D0B3E070232B70D2
:10B4A00023680122D97E636818782B00FEF7F6FD29
:10B4B000002800D0B5E023680622597E636818781A
:10B4C0002B00FEF78BFD002800D09BE004216B7958
:10B4D00001269B0019400223EA78520013406A7843
:10B4E0000B433240134300D182E0D9B2012B03D089
:10B4F000022900D098E00023E37400232B70236816
:10B500000122D97E636818782B00FEF7C7FD051E5F
:10B5100000D086E00122FF235242A372237263729D
:10B52000E372E2812274A3742332FE3BA35423739B
:10B530002233E054607520752000163A1630002141
:10B54000FCF766FE2423E5540133E554A37AE58431
:10B55000002B57D06B46DD1D18232B70237A032B4D
:10B560000FD0236801229979636818782B00FEF7C1
:10B5700095FD002846D12B78DB082372A37A002B97
:10B5800040D000232B70637A002B0FD02368012258
:10B59000D979636818782B00FEF780FD002831D137
:10B5A0002B78DB086372A37A002B2BD005232B703A
:10B5B000E37A052B0BD02368012299786368187809
:10B5C0002B00FEF76BFD00281CD12B78E372FA20CC
:10B5D0008000FFF787FD002814D10020FFF736FE1A
:10B5E000041E0FD10020FFF799FE200004B070BDAB
:10B5F00023680122D978636818782B00FEF7EEFCE7
:10B60000002802D001246442EFE70F222B78134078
:10B6100010D0042B00D06EE70A4806F06FFCE674E9
:10B620006BE703246442E0E70124074806F066FC68
:10B630006442DAE70124054806F060FC6442D4E77E
:10B6400070200020943402001C34020044340200B4
:10B65000F0B544465F4656464D4698462423F0B41E
:10B66000954C91B004900B91E35C002B00D01BE152
:10B6700042461370A37A002B00D115E1237C002BE6
:10B6800000D111E15A0600D5BCE0002203920292DB
:10B6900006329146043A9346924606329446043A5C
:10B6A0000A9209920632089207920692063A059289
:10B6B00000220627062608250820022101929A0664
:10B6C00010D55A460392524602920A9AE146934690
:10B6D000099A2F009246089A060094460191079D08
:10B6E00006980599DA0607D55A4603925246E1466E
:10B6F0002F000600029201911B0703D4039B029FB7
:10B700009946019E23680DAD197B63680222187863
:10B710002B00FEF763FC002800D0C5E02B786A7888
:10B720001B021A439246BA4200D286E062685388EE
:10B730005B089A450ED923681078D97C01222B002A
:10B74000FEF74CFC002800D0AEE02B78DB0600D5DD
:10B75000ADE0626823681078597B32002B00FEF759
:10B760003DFC8346002800D09EE04946504603F049
:10B7700055FD1A9B013818705A4643461A70002E20
:10B7800002D0237C1B076CD405239A46013B9946C3
:10B790009B46023B01939C46032601220021002385
:10B7A000BB424AD0237C580614D56B5CAA5C1B02B2
:10B7B0001343049A138043461A78402313434246A6
:10B7C0001370BC4539D048463200DC465646237CCF
:10B7D00001990190980632D4DB062ED56B5CAA5CE9
:10B7E0001B021343049A0020938043461A781023C7
:10B7F00013434246137011B03CBC90469946A24692
:10B80000AB46F0BD02220392029206329146043A00
:10B810009346924606329446043A0A9209920632B8
:10B82000089207920692063A0592043A08270826DB
:10B830000A250A200421019241E70020DBE76B5C26
:10B84000AA5C1B021343049A538043461A782023B0
:10B85000134342461370BC45EFD0237C320001995C
:10B86000BAE72B786A780B991B0213430B80AB78ED
:10B87000EA781B0213434B802B796A791B0213432E
:10B880008B8043461A7808231343424613700B23D8
:10B890009A46013B99469B46023B01939C460926EA
:10B8A00007220621023B7BE701204042A3E7FFF786
:10B8B0002DFA022040429EE770200020F0B54F464E
:10B8C00046462423C0B4284C83B0E35C0700894675
:10B8D0009046002B3BD0A37A002B38D0236801AED2
:10B8E000197B6368022218783300FEF777FB002883
:10B8F0002DD1357873782D021D43BD422AD360685F
:10B9000043885B089D420CD923680078D97C0122CA
:10B910003300FEF763FB002819D13378DB061DD412
:10B9200060682368FAB2597B00784B46FEF756FBF5
:10B9300000280CD13900280003F0E6FB434601380B
:10B940001870002003B00CBC90469946F0BD012051
:10B950004042F7E7434618700138F3E7FFF7D6F99E
:10B9600002204042EEE7C046702000202223024A17
:10B97000D05400207047C04670200020232370B5AB
:10B98000174C82B0E35C0500834224D000281DD10F
:10B9900080228220022600216B4607331970A17C89
:10B9A000002901D002001E702221615C002900D014
:10B9B0001A702268D17D626810780122FEF76EFB52
:10B9C00000280AD12323E55402B070BDB022B22072
:10B9D00032263021E0E70020F6E701204042F3E77D
:10B9E0007020002070B50D0082B0161E20D0124CC1
:10B9F000A37A002B1CD0020A01AB1A70C0B2626895
:10BA0000587040185189884212DC21681078C97E2C
:10BA10000222FEF743FB00280AD12368EAB2197E0E
:10BA2000636818783300FEF739FB404202B070BDFE
:10BA300001204042FAE7C04670200020F0B556468B
:10BA40005F464D464446F0B48BB003932523514ED8
:10BA500001910292F35C8246002B75D1002973D0CC
:10BA6000002800D194E00400102800DD75E0A3B2A6
:10BA70009B46B37A002B67D0002305AF70683B70FC
:10BA80007B7043899C425FDC019B0025984638E02F
:10BA900033681078D97E02223B00FEF7FFFA0028B7
:10BAA00052D133684A46197E7368187806ABFEF7A0
:10BAB00095FA002848D1220006A9404606F006FA69
:10BAC00000284CD15D44ADB2AA454BD953465C1B0E
:10BAD000102C00DD1024A3B29B46019B9846A8447D
:10BAE0004346002B30D0B37A002B2DD02B0A3B706D
:10BAF0007068EBB222047B70120CD3184289934217
:10BB000022DC33680078D97E02223B00FEF7C6FAB9
:10BB1000002819D1E3B2994633684A46197E736802
:10BB200018784346FEF7BAFA00280DD1B37A002BF5
:10BB30000AD02B0A3B707268EBB27B702404240C91
:10BB400051891B198B42A3DD012040420BB03CBC44
:10BB500090469946A246AB46F0BD102487E70220E6
:10BB60004042F3E7029A130A3B7033687A70597FB8
:10BB70007368022218783B00FEF790FA0028E3D1A0
:10BB800025230122F2546B469B890020F384DDE7D4
:10BB900005AFE8E770200020242330B55A4C83B06D
:10BBA000E35C834276D0002800D17AE02522A25CB3
:10BBB000002A00D19EE0002B00D06EE0A27A002A7D
:10BBC00000D19AE06A46D51D2B7023680122597C6A
:10BBD000636818782B00FEF761FA002801D12B78F2
:10BBE0006374A37C002B36D0236801221979636823
:10BBF00018782B00FEF7F2F900282CD1A37ADB0786
:10BC000000D56FE020222B7893432B70236801220C
:10BC10001979636818782B00FEF740FA00281AD1CA
:10BC20000330FCF749FB2223E35C3022002B01D0D8
:10BC3000802380322B702323E35C002B00D02A70FA
:10BC400023680122D97D636818782B00FEF726FA55
:10BC5000002800D1A074E08CFFF744FA6B46002264
:10BC600006331A706268232110780122FEF716FA53
:10BC700024230122E254223B2B702368597C636801
:10BC800018782B00FEF70AFA002801D12B7863748C
:10BC9000FFF73CF8002003B030BD6B46DD1D0023EC
:10BCA00092E7002B22D1A27A002A29D06A46D51D1C
:10BCB0002B7023680122597C636818782B00FEF7EB
:10BCC000EDF9002801D12B786374237C01222B70BD
:10BCD0006368232118782B00FEF7E0F90022242363
:10BCE000E254D5E720232A7813438EE76B46DD1D07
:10BCF0002870DEE701204042CDE76B46DD1D70E78E
:10BD00006B46DD1DE1E7C04670200020802210B5A3
:10BD1000C823D20002490348FFF790FE10BDC04679
:10BD20002C350200F60B0000F0B5404C87B002AF96
:10BD3000050003AE21000322380006F0D6F8211DCD
:10BD40000322300006F0D1F821000322083104A8B4
:10BD500006F0CBF8210003220C3105A806F0C5F847
:10BD6000032108006A466C4628403B5C1370EA08D1
:10BD70000A40BB5CB25C6370AB090B40F95CF35CDE
:10BD8000A170315C01AC2170627003216A462848C1
:10BD9000A370FFF727FE002845D122000321254884
:10BDA000FFF720FE00283ED1032204A9684606F0D2
:10BDB0009CF8032205A9200006F097F86B0708D528
:10BDC0006A460123694612781A430A70227813439F
:10BDD0002370AB0608D56A460123694652781A4398
:10BDE0004A70627813436370EB0512D488206A4668
:10BDF0000321C000FFF7F6FD002814D12200032123
:10BE00000D48FFF7EFFD00280DD10C4B1D8107B049
:10BE1000F0BD6A460123694692781A438A70A27877
:10BE20001343A370E2E701204042F0E7E034020050
:10BE3000260400002A040000310400005C230020D6
:10BE400010B5144986B004000C22103103A806F086
:10BE50004CF8C82C1AD82100C82003F0DFF90138AB
:10BE600080B201AA030A507002210B481370FFF739
:10BE7000B9FD00280AD103AA0C210848FFF7B2FD3A
:10BE8000002803D1064B9C8106B010BD0120404222
:10BE9000FAE7C046E034020016020000C10A0000C2
:10BEA0005C230020F0B5050083B043076BD0C823A6
:10BEB000DB00994267D8080004F09CF94D4903F073
:10BEC000CBFC6B46DC1C071C2000FFF7A9F823788D
:10BED000042B00D17DE033D9082B6AD0102B52D12E
:10BEE0008A21381CC90503F081FE03F027FB424973
:10BEF00086B2381C03F07AFE03F020FB80B201AC5E
:10BF0000330A2370030A6670A370E070EB0729D42C
:10BF1000AB073CD400206B0737D5EE20220002216E
:10BF20004000FFF75FFD00282DD16B462D309A1D94
:10BF30000221FF30FFF756FD431E9841404224E0A6
:10BF4000022B20D18D21381CC90503F04FFE03F0D0
:10BF5000F5FA2A4986B2381C03F048FE03F0EEFADF
:10BF600080B2CCE7EA20220002214000FFF73AFD30
:10BF7000002808D16B4625309A1D0221FF30FFF7BB
:10BF800031FD0028C4D00120404203B0F0BDEC20B8
:10BF9000220002214000FFF725FD0028F3D16B4667
:10BFA00029309A1D0221FF30FFF71CFD0028B1D077
:10BFB000E9E78B21381CC90503F018FE03F0BEFA2F
:10BFC0000F4986B2381C03F011FE03F0B7FA80B2B5
:10BFD00095E78C21381CC90503F008FE03F0AEFA82
:10BFE000084986B2381C03F001FE03F0A7FA80B2BC
:10BFF00085E7C046000048430000C04400004046BA
:10C00000000040450000C045F0B54E464546574645
:10C01000E0B486B0924B03AC0600220004216820F5
:10C020000393FFF7DFFC4022A323324023709046A6
:10C0300000D10DE11D3363700833A370063BE3703C
:10C04000C0277F00374000D1FDE0C42323710833AF
:10C050006371063BA371A32322000A218148E37187
:10C0600023726372FFF7BEFC0323334099464A46AE
:10C070002023002A00D1B833220001217A482370FE
:10C080006D46FFF7AFFC09227849B30600D4D8E02B
:10C090001C31280005F029FF97202A000921C00043
:10C0A000FFF7A0FC002F09D0F30500D5D4E0704BBA
:10C0B0000393220004216F48FFF794FCF30700D498
:10C0C000B6E08B20F8232200012100012370FFF746
:10C0D00089FCFA210720FFF7E5FEA4203F232A0070
:10C0E000012140002B70FFF77DFC002350209A4671
:10C0F0002A000121FF302B70FFF774FC5346EF201C
:10C100002B7014232A00022140006B70FFF76AFC99
:10C110005346ED202B7064232A00022140006B70EF
:10C12000FFF760FC53462B708E23AE206B706B3391
:10C13000AB702A00693B04214000EB70FFF752FC12
:10C140005346AD202B7008232A00022140006B705B
:10C15000FFF748FC5346AC202B7002232A00022133
:10C1600040006B70FFF73EFCB307DB0FD8332200B3
:10C17000012141482370FFF735FC730752D53F4B2F
:10C1800000932A0004213E48FFF72CFCFEF7BEFD79
:10C19000F30641D53B4B00932A0004213A48FFF7B0
:10C1A00021FCFEF7B3FD0823384C33436381FEF7CF
:10C1B000ADFD4346002B22D10A20434684460C3075
:10C1C00082461038A3731422042310211A258046B6
:10C1D000002F04D043462A00A3735146634614201F
:10C1E000304201D01300A1734A46002A00D0A37345
:10C1F000002006B01CBC90469946A246F0BD102017
:10C20000062384460C3082461038A3731A22043366
:10C21000162120258046DBE70422A3212800FBF716
:10C22000F7FFB9E704228B212800FBF7F1FFA8E70D
:10C230008B20D8232200012100012370FFF7D2FBBD
:10C2400092E7283125E7A32323716371A37102E7E5
:10C250006370A370E370F3E60D4B039329E7C046C8
:10C2600002CAE309A70A0000B60A0000E03402008F
:10C27000B080B490A20A00003D070000C0C2C4C64E
:10C28000980A0000202830389E0A00005C23002015
:10C29000B28BB69BF0B544465F4656464D460023EA
:10C2A000F0B491B01A9C060023807C4B0F00987B61
:10C2B000914608A91B9AFFF701FB03B29846238019
:10C2C000181E74D11422754B5B891A4200D075E098
:10C2D0000325AC46013DA846013DA94600250C2199
:10C2E00000220420AA4607910139069101390591DF
:10C2F00001390491013903910139934602910632C3
:10C3000001390191009201395D062DD5524608ADE3
:10C31000AA5C120292462A004D46525D55461543CC
:10C320003D80454608AA525D65461202904608AA1D
:10C33000525D4546154308AA515C105C009A000204
:10C340009346079A08430092049A08219446039A58
:10C350007D809046029AB8809146019A2088924644
:10C360000143218005980699C0277F003B421BD0DE
:10C37000554608AA575D4D46525D45463F02174354
:10C3800008AA3780575D6546525D3F02174308AAE9
:10C39000105C515C00020143B180009A7021934609
:10C3A00077802088014321809B0752D1002011B063
:10C3B0003CBC90469946A246AB46F0BD089A11BADD
:10C3C0004A461160099A091410BA4A4650600A9AFE
:10C3D0008C4612BA92464A46554695604D460B9A8F
:10C3E000514612BAEA6065466D43AC460014091422
:10C3F0004043121449435243604440188018F122CC
:10C400001206944680226044920490423FD88021D4
:10C41000228849000A432280102293460632009265
:10C4200006320792013A0692013A0592013A0492C5
:10C43000013A0392013A0292013A0192033A944678
:10C44000013A9046013A9146013AEB39142092465E
:10C450005AE708AB9C465C4664446378E678DA07A2
:10C460000BD50E4A1268002A07D007200100F308F6
:10C47000314018400131904763781B0796D5074B30
:10C480005B68002B92D0B009984700208FE7FEF739
:10C490003DFC434601202380404288E75C23002086
:10C4A0000023F0B5C356002B36DD302200232024B4
:10C4B0000821282610259446382703228256002A70
:10C4C00018DD062141560022002902DD134398B2EF
:10C4D000F0BD00293AD10721415640320029F5DC50
:10C4E00051D10821415640320029EFDC59D1E022D8
:10C4F0005200EBE7002A27D1042282560B00002AC3
:10C50000DFDC3ED1052282562B00002AD9DC3B001D
:10C51000002AD6D06346D4E7002B0CD10123C356A2
:10C52000002B16DD31220123212409212926112582
:10C5300094463927C1E73422042324240C212C26D5
:10C54000142594463C27B8E72300BAE7802252001E
:10C55000BCE7002B0CD10223C356002B16DD322280
:10C56000022322240A212A26122594463A27A4E7E8
:10C570003522052325240D212D26152594463D27FA
:10C580009BE733009DE7A02252009FE7002B0BD1D1
:10C590003722072327240F212F26172594463F27CC
:10C5A0008BE70132FF3291E73622062326240E2143
:10C5B0002E26162594463E277FE7C046F0B55F46F7
:10C5C00056464D464446F0B4764B91B004AA944684
:10C5D00001930E23634400930AA900230CAA08A820
:10C5E000FFF758FE41B2002900D0D7E00C9803F0C5
:10C5F000B9FDC221890503F0F9FA041C0D9803F076
:10C60000B1FDC221890503F0F1FA80460E9803F0CE
:10C61000A9FDC221890503F0E9FA81460F9803F0CC
:10C62000A1FDC221890503F0E1FA211C051C201C93
:10C6300003F0DCFA4146071C404603F0D7FA4946AE
:10C640008246484603F0D2FA291C0290281C03F0C7
:10C65000CDFA5146061C381C03F0DCFB029903F0AE
:10C66000D9FB311C039602F081FF05F0B7FB049063
:10C670000591291C484603F0B9FA41468346201C1F
:10C6800003F0B4FA011C584602F070FF05F0A6FB57
:10C6900002000B0003F0ECFD049A059B01F0F2FF91
:10C6A0000022414B04F034FD05F020FB3F4B291CD8
:10C6B0001880404603F09AFA49468346201C03F04E
:10C6C00095FA011C584603F0A5FB05F087FBC02333
:10C6D00000221B0604F01CFD01F072FF80268B4631
:10C6E00036065E440022304B310004F011FD05F0A7
:10C6F000FDFA2F4B51461880381C02F037FF029983
:10C7000003F088FB039903F085FB05F067FB060047
:10C710000F004046494603F069FA291C8046201C58
:10C7200003F064FA011C404602F020FF05F056FBBE
:10C7300002000B0003F09CFD32003B0001F0A2FF61
:10C740000022194B04F0E4FC05F0D0FA7022194BDA
:10C75000188004ABDB891A420BD004AA118A164A4E
:10C76000118004AA518A154A118004AA918A144A98
:10C7700011801B070BD504AB1A8B124B1A8004AB2C
:10C780005A8B114B1A8004AB9A8B104B1A8011B044
:10C790003CBC90469946A246AB46F0BD0C4805F01D
:10C7A000ADFBF4E71C260020005FC4409827002062
:10C7B000AC270020142600204C2A0020E02800206E
:10C7C000922B0020D0280020002600206C2600207C
:10C7D0002441020000B5194B89B000930F2306A92C
:10C7E0006B44002204A8FEF733FF41B2002920D198
:10C7F0006B467022DB7B1A420BD06A46118A104AC4
:10C8000011806A46518A0F4A11806A46918A0E4AFF
:10C8100011801B070BD56B461A8B0C4B1A806B468D
:10C820005A8B0B4B1A806B469A8B0A4B1A8009B0B5
:10C8300000BD094805F062FBF9E7C0461C26002050
:10C840004C2A0020E0280020922B0020D028002035
:10C85000002600206C26002044410200A223A022D2
:10C86000DB00D205D35801209B0604D4024B187874
:10C87000431E9841C0B270471C26002070B50500C9
:10C8800082B000200E00FEF7E9FD0100324805F0FD
:10C8900035FB7820FEF742FD0100304805F02EFB05
:10C8A0007820FEF7D3FC01002D4805F027FB00207F
:10C8B000FFF75CF80120FFF761F8002D1FD16B46F0
:10C8C000DC1D0122DD711A2123006820FDF7E6FB43
:10C8D0000100244805F012FBFA203100400102F06B
:10C8E0009DFC013820701921230001226820FDF7EA
:10C8F000D5FB01001C4805F001FB02B070BDFFF73D
:10C9000005FA0100194805F0F9FA1948FFF7C8FDC2
:10C91000FFF70AFA0100174805F0F0FA7220FF301D
:10C92000FFF772FB0100144805F0E8FA6420FFF7F6
:10C9300087FA0100114805F0E1FA0120FFF72CF910
:10C9400001000F4805F0DAFA0A20FEF78FFB01001C
:10C950000C4805F0D3FAD0E768410200804102009C
:10C96000984102004042020058420200B0410200D9
:10C970009C200020C8410200E0410200F841020072
:10C98000104202002842020010B50B0001000B48C3
:10C9900005F0B4FA8021A123A022FA20C900DB000F
:10C9A000D205D150C000FBF787FCBFF34F8F044A7C
:10C9B000044BDA60BFF34F8FFEE7C04670420200BF
:10C9C0000400FA0500ED00E080218023184A890266
:10C9D000D1508022D221174B520289005A5040393F
:10C9E0005A5001222F205A600138C046C046C04626
:10C9F000C046C046C046C046C046C046C046C04607
:10CA0000C046F1D19A6000230B4A2F2013600138F1
:10CA1000C046C046C046C046C046C046C046C046E6
:10CA2000C046C046C046C046F1D1044A13707047A4
:10CA300000E100E0001001406C2300208C23002066
:10CA4000A021F0B5002347462C4A490080B453503A
:10CA50000431535004315350043153504C39535026
:10CA600004315350264B1B68002B37D02549002634
:10CA700052582549254F0C68141B00222402240A11
:10CA8000904602E0002D1AD02B001A68A24216D858
:10CA9000A41AB6181A7CDD69002AF3D042469969B7
:10CAA0001A745A693B68002B1BD010009847002865
:10CAB000E8D000220021FFF767FF002DE4D1144BDE
:10CAC00014491A780B789A420ED0134A9B009E5054
:10CAD00080218023114A49035B00D15004BC904659
:10CAE000F0BD08009047CDE70132D3B2022B01D050
:10CAF0000B70EAE700230B70E7E7C0460010014027
:10CB000070230020040500006C2300207423002003
:10CB100080230020812300208423002000E100E006
:10CB2000F0B55F4656464D464446F0B4C54BC64A3E
:10CB30001B68C6498BB0059309781378994200D1D8
:10CB400057E10133DBB2022B00D100231370C04A3E
:10CB50009B009B58BB4A9A46059B53441B021B0AE9
:10CB6000136001230193BB4B00241B689B46BA4B07
:10CB70005A461B78914619000393B84B88461B68A8
:10CB800047460493AF4B013F1B680793B44B1B7898
:10CB9000099300239C4606930893FBB26646984689
:10CBA000FF2B32D04346D800049B9C4613006044C0
:10CBB0000178457800961A00A9421FD046684A00BD
:10CBC000B446521886780131D200C9B262448E420E
:10CBD00000D1EDE01678022E00D1C7E0032EEAD195
:10CBE000002BE8D01C74DB69002BFBD101334578A6
:10CBF0000093002399461A00A942DFD14746013F1E
:10CC0000FBB2009E9846FF2BCCD1089BC8460292EF
:10CC1000B446002B00D0F0E0069B002B02D0894BDD
:10CC2000079A1A606346002B02D04246894B1A606D
:10CC3000019B002B00D02DE15B46029A00259B1A38
:10CC40005A1E9341DBB205937E4B00271B68029965
:10CC50009C46804B1B689B46814B1B7806930023A8
:10CC60000193804B994601230093039B013BDBB268
:10CC70000393FF2B00D1F9E0049ADB0092460E00EB
:10CC80009A44002D28D06A68A9682C00ED69634693
:10CC9000D31A1B021B0A4B4552D86A4612785B18FE
:10CCA00023606760A7602274E761002E58D0316866
:10CCB0003000994205D3B9E01168994200D3A3E04E
:10CCC0001000C2695B1A002AF6D1E26132002360CB
:10CCD000C4611600002DD6D153461A785B78310016
:10CCE0009342C2D0514649685300884651469B182A
:10CCF0000132D2B20A708978DB004344914200D1FC
:10CD00009DE0197832000129E3D15C68227C9046CD
:10CD1000414632000029DCD19A686260D968A1607E
:10CD20001869E0605B69A361069B002BAFD04346A6
:10CD3000002263606346D31A1B021B0A4B45ACD921
:10CD400063469A1A1202120A8A4264D28B1A6A46FF
:10CD5000127823606760A7602274E761002EA6D175
:10CD600022000123A34601931600B3E75668002B67
:10CD700030D09E421ED0009A1F00944602E0964298
:10CD800006D01700FA69002AF9D16246009212E72C
:10CD900065460095BA420FD01568D269FA61002A3B
:10CDA00016D013689C466544156045784B4602E7EB
:10CDB00000210FE71A001F00DE69002E0CD00125AC
:10CDC00000951568D269B1463300FA61002AE8D1AE
:10CDD0004578F0E60023EEE60125234B9D600095A3
:10CDE0000695002500230795013599460895099574
:10CDF000D2E700239A460193B5E66A4624215218E9
:10CE0000174B12781A7007E7C91A1160E2612360A4
:10CE10003200C4615DE76B461B7827606760A760DE
:10CE20002374E761002E9BD000233168CB1A336056
:10CE300022000123E661A346019316004AE7524609
:10CE400015705EE76C2300208023002081230020E2
:10CE50008423002070230020782300207C230020DE
:10CE600082230020FEFF7F0000100140019B002B69
:10CE700000D09DE0029B994236D1059B002B33D117
:10CE80000023534A13700BB03CBC90469946A2460F
:10CE9000AB46F0BD4F4B002418680025029B0021D3
:10CEA0000026574615E01A68BA4200D984E0D868CF
:10CEB000BF1A89181E60DC69002807D0DD611D00DB
:10CEC000059A986052181202120A5A602300200034
:10CED000019C002BE7D1002C01D03E4B18600023B1
:10CEE000029301330593AFE6002900D15DE00B68A2
:10CEF00039489846394B3A4DC4583A4B2E781B68FE
:10CF0000E11A0902090A0331002E2DD042468A4255
:10CF100000D20A00A820D21812022F49130AC0001A
:10CF20002E4D0B504A591B1B121B1202120A1B02D8
:10CF300003321B0A9A42A3D94B590B502F200138B8
:10CF4000C046C046C046C046C046C046C046C046B1
:10CF5000C046C046C046C046F1D180218023224A47
:10CF600089025B00D1508BE78026D1277602BF0073
:10CF7000C651403FC651C02280271B4EBF025200FF
:10CF8000B7503760012606602F200138C046C046E2
:10CF9000C046C046C046C046C046C046C046C04661
:10CFA000C046C046F1D12E70B0E7FFF70DFD67E730
:10CFB0005A46084B1A605DE7BA46002C01D0054975
:10CFC00008605146521A1A600293012305933BE60A
:10CFD000822300207023002000100140040500007F
:10CFE0008C2300206C23002000E100E0F8B54F46C0
:10CFF0004646C0B40326350080460F00140099460B
:10D0000015400720002D03D00CBC90469946F8BD72
:10D01000002A44D0FFF7D8FC4A46224B80201A60F1
:10D020002200214B18321E70204B62601C607B0076
:10D03000DB19DB00D218E260D318C02263612570CF
:10D040006570A77025726572A77225746574A774E0
:10D05000C524FF21164B40031D60164B52001D7066
:10D06000154BA4001D70154B98501A598A433F392F
:10D070000A431A51A122186040461149D200885033
:10D08000C42080001C580F4A2240C024240222439E
:10D090001A500D4B0020CA580C4B1A60B4E7034BD2
:10D0A0001A60B1E774230020782300207C2300203D
:10D0B00070230020802300208123002000E100E075
:10D0C00000100140FF00FFFF040500006C2300205A
:10D0D00010B50B4B1B68002B0BD0002A07D0002883
:10D0E00005D0036808201C7C002C04D010BD07204C
:10D0F000FCE70820FAE759745A610020F6E7C046B9
:10D100007C230020F0B5344B1C68002C06D000288E
:10D1100004D00723042903D81800F0BD0823FBE737
:10D120004369002BFAD0437C012B44D000262B4BC3
:10D1300010255B68DB05DB0D25D164196378A578C4
:10D140005F1CFFB2BD423AD02578BD4235D05D00AC
:10D15000ED186368ED009C4665440423002DDBD088
:10D16000033B2B7068601E4B1E48C358E960AB60E0
:10D17000802180236A611C4A5B0049032E6167702D
:10D18000D1500023C8E7103B5DB2002D19DBAD087C
:10D19000C035154FAD00ED5903273B40DB00DD40A6
:10D1A000AB093B40DBB20025012BC6D00835032B71
:10D1B000C3D00835C1E70E00B9E70423ACE7002768
:10D1C000C2E70F25094FDBB2BC461D40083DAD0844
:10D1D000AD0065446D68DFE77C23002000ED00E0D2
:10D1E000040500000010014000E100E018ED00E03F
:10D1F00010B52C4A03001168082000292AD0002B02
:10D2000028D05A69002A25D000221A74264A0830EC
:10D210005268D205D20D1ED109184A788878541C5C
:10D22000E4B2A04231D00878A0422CD0500082183D
:10D230004868D200844662440420002A0AD002389A
:10D24000107053604C70802380210020174A4903DE
:10D250005B00D15010BD103A50B2002817DB800897
:10D26000C030124C8000005903242240D200D0402C
:10D2700082092240D2B20020012ACDD00830032AF0
:10D28000CAD00830C8E70420E4E70024CBE70F2029
:10D29000074CD2B2A4461040083880088000604491
:10D2A0004068E1E77C23002000ED00E000E100E0C1
:10D2B00018ED00E0074B1A680823520701D4180044
:10D2C0007047002804D0044B5B7803600023F6E726
:10D2D0000E23F4E75C2400209023002071DF7047C8
:10D2E00072DF704779DF70477DDF704765DF704719
:10D2F000F0B55F4656464D464446F0B485B09A4672
:10D300000EAB80CB06001B8800919B463B880193A7
:10D310000388002B63D00023994602ABDD1C3B0041
:10D3200000241700984603E033880134A3422CDD23
:10D330007368A1009C460422614403A804F0D5FD53
:10D340000022290003A8FFF7D1FF002829D12B785C
:10D35000BB42E9D14B46002B2AD043461A88D31949
:10D360005B453EDC5244290003A8FFF7BFFF0028BD
:10D3700017D143462A781B880134D31842461380BC
:10D38000012399463388A342D2DC4B464746002B03
:10D3900025D03B88019A013B9B1A9BB20C20FF2BA6
:10D3A0001AD905B03CBC90469946A246AB46F0BDA2
:10D3B00043461B88DA1902325A4512DC42460133D1
:10D3C00069469BB2138052460978D15443461A8865
:10D3D000013292B21A80C5E7110052465354002020
:10D3E000DFE70C20DDE7C046F0B55F4656464D4608
:10D3F00044460023F0B417881380436B87B00600BF
:10D400000D001400002B00D19CE1022F00D891E107
:10D410001A7802230B701121238801339BB22380D9
:10D42000E954238801339BB22380EA5423880133D3
:10D430009BB22380326B002A00D170E019001231B8
:10D44000B94200D976E11121E95423880139013329
:10D450009BB22380E954238801339BB22380D17B84
:10D46000E954238801339BB22380917BE9542388BC
:10D4700001339BB22380517BE954238801339BB253
:10D480002380117BE954238801339BB22380D17A16
:10D49000E954238801339BB22380917AE95423888D
:10D4A00001339BB22380517AE954238801339BB224
:10D4B0002380117AE954238801339BB22380D179E8
:10D4C000E954238801339BB223809179E95423885E
:10D4D00001339BB223805179E954238801339BB2F5
:10D4E00023801179E954238801339BB22380D178BA
:10D4F000E954238801339BB223809178E95423882F
:10D5000001339BB223805178E954238801339BB2C5
:10D5100023801278EA54238801339BB223802E2281
:10D52000B25C002A00D00FE12D22B25C002A00D0AC
:10D530002CE1B278002A00D055E1F278002A14D00C
:10D54000D91CB94200D9F5E00221E95423880139F8
:10D5500001339BB22380E954238801339BB223809B
:10D56000EA54238801339BB223807268002A15D0C5
:10D57000D91CB94200D9DDE002211278E954238890
:10D58000083101339BB22380E954238852B201331E
:10D590009BB22380EA542388013323803389002BF4
:10D5A00000D09BE1338A002B00D0B1E1338B002BFC
:10D5B00000D0C7E1336A002B4BD022880C20911D8C
:10D5C0009346B94200D9B6E0198805388A4605293C
:10D5D00000D8B0E0BB496A468C46D4446146D1814C
:10D5E000D1898C46B84988468C4500D8A3E0598833
:10D5F0008C46052900D89EE0B2496144D18189B2A8
:10D60000414500D897E0B1498A4504D08C4502D005
:10D61000E24500D98FE005215A46A95422880D31F0
:10D62000013292B22280A9542288013292B2228021
:10D630001988AA181170090A51702288023292B210
:10D6400022805988AB181970090A5970238802334F
:10D650002380736A9846002B30D09A882188131D46
:10D660005B180C20BB4266D8931CFE2B63D8033298
:10D670006A54FF22238801339BB22380EA54424636
:10D68000238801339BB223801288EB181A70120A88
:10D690005A704246238802339BB223809288002A24
:10D6A0000CD0414689680538002944D0E81804F0B8
:10D6B0001CFC434622889B88D31823802C23F35CD0
:10D6C000002B00D0B0E033780020002B33D032881C
:10D6D0000720012A2FD02288901CB8422AD8012B7B
:10D6E00004D1737802339B189F4223D3023FBA1AA6
:10D6F00004AF93B22818390098463B80FFF7F4FD39
:10D70000002818D13378022B00D141E1012B00D140
:10D71000DEE043460821FE2B0CD822885E1CAE5466
:10D720002288013292B22280A954228801329B18A9
:10D73000238000E00C2007B03CBC90469946A246EE
:10D74000AB46F0BD002375E6D91C0C20B942F2D8D7
:10D750000221E9542388103001339BB22380E8541E
:10D76000238801339BB22380022A00D10BE100D829
:10D7700004E1032A00D109E1042A00D0FCE00322DD
:10D78000EA54238801339BB22380CDE609330C2071
:10D79000BB42D0D804A8FFF7A1FD0028CBD10822B6
:10D7A00023880921EA542388133201339BB2238052
:10D7B000EA5402AB9C462088153A013080B22080A2
:10D7C0006144281804F091FB238802AA0633127AD8
:10D7D0009BB22380002A00D00122EA54238801331F
:10D7E0009BB22380A5E604330C20BB42A3D804A837
:10D7F000FFF778FD00289ED103222388EA5423886E
:10D80000163201339BB22380EA54238802AA0133E3
:10D810009BB212892380EB181A70120A5A7023885F
:10D8200002339BB2238088E6B36A9846002B00D16E
:10D83000A2E09B880233FE2B00D97BE700229146B1
:10D84000163292461632208893460CE04B46B26A56
:10D850005B0090464B449B00984443469B880233B0
:10D86000FE2B00D966E7524601332B54238801333F
:10D870009BB22380EA544246238801339BB2238023
:10D880001288EB181A70120A5A7043462088023028
:10D8900080B220809A88002A0BD0996800296BD02A
:10D8A000281804F022FB434620889B88C01880B2C9
:10D8B00020804B460133DBB299465B46F35C4B4517
:10D8C000C4D800E77FF3FFFF7DF30000FFFF0000F7
:10D8D0007378984500D31DE743461BE70823984615
:10D8E000B044019700942B00022202214046FFF72A
:10D8F000FFFC002800D01EE7019700942B001022A7
:10D9000006214046FFF7F4FC002800D013E749E663
:10D9100010239846B044019700942B000222032163
:10D920004046FFF7E5FC002800D004E7019700948B
:10D930002B00102207214046FFF7DAFC002800D018
:10D94000F9E633E618239846B044019700942B007B
:10D95000022214214046FFF7CBFC002800D0EAE663
:10D96000019700942B00102215214046FFF7C0FCC0
:10D97000002800D0DFE61DE60720DCE6012AFBD107
:10D980000022EA54FDE60122EA54FAE6E954F8E6F8
:10D990003B880921984500D3BDE64346BAE6C04618
:10D9A00030B593B01F236A460C009380D3800028C3
:10D9B00022D0C3785B071CD501AA02A9FFF714FD8A
:10D9C00002AD002816D1002C19D0E378002B10D11D
:10D9D0006B460AA99A1D2000FFF706FD002809D111
:10D9E0006B469B790AAA694628000979FFF778FCFB
:10D9F00000E0072013B030BD90800025E3E76B46C0
:10DA00000022DC800023EEE773DF704770B59F4E85
:10DA100086B0072200213000FAF7FAFB9C4C6378AD
:10DA2000002B6ED09B4D2B78012B05D0A278002ABD
:10DA300000D1EFE0022B0FD1974A1268002A00D1E3
:10DA4000FDE00121954B0820197090472B78012BA0
:10DA500000D1F7E0022B5FD0227B002A01D1032BFB
:10DA60007AD0227E002A02D1042B00D107E18A4A13
:10DA70001268002A02D0033B012B77D90022884B81
:10DA80001A70182200216846FAF7C2FB00236A4682
:10DA9000137013722A7801930393022A00D18BE04A
:10DAA00072D9032A00D194E0042A22D16B46A28BBA
:10DAB0001A82228C5A827B4B1A79002A00D1B6E056
:10DAC0002278002A00D1B6E0774A1278002A00D0E6
:10DAD000B1E0694603930423023274480A720021BC
