:020000021000EC
:1080000000400020A5E00100EDE00100EFE00100EC
:108010000000000000000000000000000000000060
:10802000000000000000000000000000F1E001007E
:108030000000000000000000F3E00100F5E0010096
:10804000F7E00100F7E001009D9901004D9C01005F
:10805000F7E0010000000000F7E00100599D010079
:10806000F7E001001D96010065950100F7E00100B1
:10807000F7E00100F7E00100F7E00100F7E00100A0
:10808000F7E0010081C50100F7E00100F7E0010021
:1080900061C60100D1A0010071E00100F7E001001C
:1080A000F7E00100F7E00100000000000000000020
:1080B00000000000000000000000000000000000C0
:1080C00010B5064C2378002B07D1054B002B02D0AE
:1080D000044800E000BF0123237010BDB42000203D
:1080E000000000006C3F0200084B10B5002B03D0CD
:1080F0000749084800E000BF07480368002B00D18B
:1081000010BD064B002BFBD09847F9E7000000009C
:10811000B82000206C3F0200B420002000000000C6
:10812000164B002B00D1144B9D46402292029A1A06
:10813000924600218B460F461348144A121A00F04B
:1081400067F80F4B002B00D098470E4B002B00D048
:1081500098470020002104000D000D48002802D09F
:108160000C4800E000BF00F02DF82000290000F0CE
:1081700081FA00F011F8C04600000800004000201D
:108180000000000000000000B42000209C2B002014
:108190000000000000000000084B10B50400002B98
:1081A00002D0002100E000BF054B1868836A002B55
:1081B00000D09847200000F033F8C04600000000CF
:1081C000C82C02000E4B70B500251E000D4CE41AA1
:1081D000A410A54204D0AB00F35898470135F8E746
:1081E0000AF064FD084B00251E00084CE41AA41098
:1081F000A54204D0AB00F35898470135F8E770BDAD
:10820000AC200020AC200020AC200020B0200020BA
:1082100003008218934202D019700133FAE77047C5
:10822000FEE7C0461D4B1B78012B00D070471C4B4E
:108230001B681B07FAD1F0221A4B1B68134018D198
:10824000194B1B6813421CD0154B1B681B07EDD143
:10825000F022144B1B681340402BE7D1124B1B68D4
:108260001342E3D1C12380220121DB00D205D1508A
:10827000DCE7102B01D0302BEAD10B4B1B681342EB
:10828000E6D10A4A0A4B1A6080220A4B12021A608F
:10829000024B1B78012BD7D0C8E7C046E00F00F097
:1082A000E40F00F0E80F00F0EC0F00F0DFFF07C074
:1082B00004050040186C004082B00190019B002B27
:1082C00014D0019B0A48013B01930138C046C046C7
:1082D000C046C046C046C046C046C046C046C0466E
:1082E000C046C046F1D1019B002BEAD102B07047D5
:1082F000E703000070B501F0E7F93D4B3D4C186015
:10830000030E2370030C6370030AA3703A4BE070F2
:108310001B882371394B1B886371394B1B88A371F0
:10832000384B1B88E371384B1B782372374B002284
:108330009B5E1A12A372364B627200229B5E1A1267
:108340002373344BE27200229B5E1A126273A37392
:10835000314B00229B5E23741A12304BE2730022D1
:108360009B5EA3741A122E4B627400229B5E2375CF
:108370001A122C4BE27400215A5E11126175A2751B
:1083800002215A5E1112E175227604215A5E111201
:108390006176A27606229B5E1A122377224BE27642
:1083A0001B681A0E62771A0CA2771A0AE27720224B
:1083B000A3541E4B01321B681D4D190EA154190CFC
:1083C0000132A154190A0132A1540132A3542100EF
:1083D0000132286801F086FF002804D125222100FF
:1083E000286001F07FFF2B682933FF332B6070BDBD
:1083F00010260020C82800208C270020422A0020B8
:10840000402A0020342A0020A627002080270020B0
:1084100094270020142600201C2A0020BC280020BD
:10842000562B00202C2A0020B8280020C428002029
:10843000D8200020F0B547464F4D80B4280001F009
:108440005DFB4E4C2070280001F058FB0600280010
:1084500001F054FB4A4B9B5D83420CD0494809F024
:10846000EDFA0B242800013C01F048FB002CF9D167
:1084700004BC9046F0BD444F28003E7001F03EFB26
:10848000424B86B2984628001E8001F037FB4346D7
:108490003602361828001E8001F030FB3C4B0600E7
:1084A00098461880280001F029FB4346360236180A
:1084B00028001E8001F022FB364B060098461880EB
:1084C000280001F01BFB43463602361828001E80A8
:1084D00001F014FB304B060098461880280001F08C
:1084E0000DFB43463602361828001E8001F006FBBD
:1084F0002A4B1870280001F001FB294B1870280046
:1085000001F0FCFA274B1870FF2001F0E3F9207806
:1085100001F0E0F93B78062B19D0072B06D0082B89
:108520000ED101F0D1F8204B1860A1E71F4A063B9D
:1085300011784B40137003D01D4B1A681D4B1A6005
:10854000FFF7D8FE01F0C0F8174B186090E71A4CFF
:10855000053B22785340237005D16421012003F0AC
:108560002DFF3B78D9E76421002003F027FF237813
:10857000002BF2D03B78D0E770260020142A002090
:10858000F82C0200CC2C0200A62700208C2700200B
:10859000422A0020402A0020342A0020812B00207B
:1085A0002C26002082270020B4280020822B0020C7
:1085B00098270020FC250020242A002010B5074819
:1085C00001F09CFA064C2070FFF794FEFE2001F0AB
:1085D00081F9207801F07EF910BDC0467026002098
:1085E000142A0020F8B54F4646460023C0B41E4E5C
:1085F0001E4F3360380001F081FA041EFAD10020CA
:1086000001F068F9FA208000FFF756FE82235B0034
:108610009946174B34600020984603E030682930B3
:10862000FF3030604B46FB5A002B05D0380001F07C
:1086300065FAFF2814D030682522414601F076FF04
:108640000028EBD0FA2045464000FFF735FE4446AF
:1086500025352078013401F03DF9AC42F9D1DDE750
:108660000CBC90469946F8BDD02000207026002012
:10867000582B0020F0B55F464D4644465646F0B4B0
:1086800083B001F0D3F900F021FF01F039F801F0D7
:1086900075FB01F013FB6421012003F08FFE01F054
:1086A00065FC01F0BBFF01F01BFD0023704A0025B3
:1086B0001370704A1370704A1360704A13605360ED
:1086C0006F4A136053606F4A137091466E4A13806D
:1086D0006E4A13806E4A13806E4A13806E4B984622
:1086E00000234246137000F0EFFF002301936B4B11
:1086F0006B4F9B466B4E6C4C3860306043461B782A
:108700009A46002B4AD15246684B1A608222684B27
:1087100052009A5A002A0AD02378002B00D19AE0FE
:10872000644B1B78FF2B78D0FE2B00D18BE04B469F
:108730001B78082B65D000F0D7FF002857D103F035
:108740002DFE002838D100F0BFFF5B4B5B4A18605C
:1087500033683060C31A1360002D09D05B46584A55
:108760001B681268934203D900259B1A554A13606F
:108770001421019806F0EEFA0029BFD1A023524A35
:10878000DB0599588022D20511422DD1A121C900C3
:108790005A5043461B789A46002BB4D04B4809F0F8
:1087A0004DF96420FFF788FDBFF34F8F484A494BCE
:1087B000DA60BFF34F8FFEE7019B0133019300F0B6
:1087C00083FF454B18602A4B1B78002B16D003F013
:1087D000A1FD00F087F800F077FF5B46010018600C
:1087E0003E4809F02BF9AEE73D495A5086E701F0C3
:1087F000A7FA01F0E1FA00F07DFFA0E703F07EFCAC
:10880000E7E7002001F066F8FFF7ECFE4B46002298
:108810001A70434601221A708DE70D2A87D9FFF797
:1088200009FE00F051FF53462370224B38601B783D
:108830000125FE2B00D07AE782221D4B52009B5A65
:10884000002B00D173E7FFF7B9FE00F03DFF0023D6
:10885000386023706BE7164801F050F9154B18701B
:108860000230C0B2012800D961E7012323705EE71E
:10887000242A0020822B002018260020F428002023
:1088800078270020A6270020342A0020402A002034
:10889000422A00208C270020802B00205C2600200C
:1088A000202A0020282A0020D42000208827002009
:1088B00070260020242600200C260020B828002046
:1088C000B4280020C428002004050000E82C020081
:1088D0000400FA0500ED00E064260020E02C020010
:1088E0000C050000F0B55F4656464D464446F0B4D0
:1088F000CF4B83B01B78002B00D127E1CD4B9A469C
:108900001B78042B00D1CBE1CB4A1278002A1ED170
:10891000022B29D0012B00D1E7E2032B00D11EE16D
:10892000042B01D100F039FD052B00D1A4E3002B6D
:1089300000D04DE1C14A0026D3809380538013803C
:1089400000220192BE4A00230027904661E1BD4A01
:10895000BD4912680968521A5200BC4992B20A8095
:10896000BB490A80022BD5D1B94B1B889A46B94B1B
:10897000514600255D5F6B009B46B74B5944002272
:108980009B5E9846C91A00D5ACE28023DB059B109C
:108990009942FCDB002B00D1A4E200201E18F7183E
:1089A00000228E4200DC32008C1A8E4200DC38003D
:1089B000C20F1018421010009B102100002BEDD1A7
:1089C00010B208F069FFA54AA54B08F041F9002252
:1089D000A44B07F0EDF908F029FF00B2071C0028AE
:1089E00001DA00F0E9FC3FB29F4B944C00229B5E01
:1089F00020805B00994653464A46991A4346C91857
:108A000000D532E38023DB059B109942FCDB002B71
:108A100000D12AE30020C218D51800268A4200DCC3
:108A200016008E1B8A4200DC2800C20F101842106C
:108A300010009B103100002BEDD110B208F02CFF7C
:108A4000864A874B08F004F90022864B07F0B0F9FC
:108A500008F0ECFE00B2061C002801DA00F0A9FCC8
:108A600036B253465A469D1A43466080ED1A00D5E9
:108A7000FEE28023DB059B109D42FCDB002B00D136
:108A8000F6E200201A18D1188C460021AA4200DC18
:108A90001100691AAA4200DC6046C20F1018421089
:108AA00010009B100D00002BECD110B208F0F4FE6A
:108AB0006A4A6B4B08F0CCF800226A4B07F078F951
:108AC00008F0B4FE00B2051C002801DA00F0DBFC5F
:108AD0002BB20193514643464944A080C91801D5A1
:108AE00000F00DFC8023DB059B108B42FCDC002B8F
:108AF00001D100F004FC0020C218D518A8460025BA
:108B00008A4200DC15004D1B8A4200DC4046C20F41
:108B10001018421010009B102900002BECD110B24D
:108B200008F0BAFE4D4A4E4B08F092F800224D4B29
:108B300007F03EF908F07AFE00B2031C002800DAC4
:108B4000CEE11BB23E4AE080904662E03A4A394BA1
:108B500012789A461B78002A00D1D9E6F7E6434CF2
:108B600023780133DBB25AB22370002A00DACAE359
:108B70003F4A404B00215B5E11688C4663441360A2
:108B80003D4A3E4B00215B5E11688C466344136096
:108B90003B4A3C4B00215B5E11688C46634413608A
:108BA000394A3A4B00215B5E11688C46634413607E
:108BB000374A384B00215B5E11688C466344136072
:108BC000354A364B00215B5E11688C466344136066
:108BD0001A4C23881F1C1BB2002B01DA00F0D6FBB5
:108BE00063883FB21E1C1BB2002B00DACCE3A388C3
:108BF00036B21D1C1BB2002B00DACCE32BB2019362
:108C0000E288131C12B2002A00DAC2E30C4A1BB23B
:108C10009046694642468988178056809180D38065
:108C200003B03CBC90469946A246AB46F0BDC04658
:108C3000242A0020A6270020822B00204C2B002075
:108C40002C2A002098270020FC250020BE28002088
:108C50008C270020402A0020342A002066666666A1
:108C60006666E63F00005E40422A0020DC200020CD
:108C7000A0270020802700205826002094270020CD
:108C8000082A0020142600206C2600201C2A002020
:108C900008260020BC2800200C2A0020562B00208B
:108CA000C84EC94F34680022B85EC849C84AC94D89
:108CB00054430A004243A218746861435418696817
:108CC000C54A4A43C54994462A6851430A0062444A
:108CD000C349A21A92130A60316803C629682A6040
:108CE000696011B2BF4A39801278002A00D02EE69E
:108CF000BD4BBE4A1B8812889B185B1A9BB2BC49AD
:108D00001AB20A80002164339BB28846C82B08D966
:108D1000B84B1B785A43B84B90469A4200DC4EE35E
:108D20009846B64B1B889A46B54B544600255D5F66
:108D30006B009B4643465C44E41A00D59CE38023C9
:108D4000DB059B109C42FCDB002B00D194E300224E
:108D50009F18F8180021A74200DC3900661AA742C4
:108D600000DC0200D10F8A1851100A009B10340059
:108D7000002BEDD108B208F08FFDA24AA24B07F0FC
:108D800067FF0022A14B07F013F808F04FFD00B277
:108D9000071C002800DA63E33FB29D4B9D4C002284
:108DA0009B5E20805B00994653464A469E1A434686
:108DB000F61800D55DE38023DB059B109E42FCDBAB
:108DC000002B00D155E30022D118CD180020B1426C
:108DD00000DC0800301AB14200DC2A00D10F8A18EA
:108DE00051100A009B100600002BEDD108B208F0CC
:108DF00053FD844A844B07F02BFF0022834B06F07F
:108E0000D7FF08F013FD00B2061C002800DA25E3A6
:108E100036B253465A469D1A43466080ED1A00D535
:108E20002DE38023DB059B109D42FCDB002B00D152
:108E300025E300229918C81884460020A94200DCC6
:108E40000800281AA94200DC6246D10F8A18511086
:108E50000A009B100500002BECD108B208F01CFDA5
:108E6000684A694B07F0F4FE0022684B06F0A0FF49
:108E700008F0DCFC00B2051C002800DA13E32BB27A
:108E80000193A080504643464844C01800D577E27D
:108E90008023DB059B109842FCDB002B00D16FE2A6
:108EA0000022D118CD18A8460025AC46814200DC2E
:108EB0008C466546451BAC46814200DC4246D10FDC
:108EC0008A1851100A009B106046EAD108B208F0D7
:108ED000E3FC4C4A4C4B07F0BBFE00224B4B27E611
:108EE00000232EE6782778207EE54B4808F0A6FD83
:108EF0000A239946494B474C98461BE041460A8055
:108F0000321C002E4FDB41464A802A1C002D50DBCC
:108F100041468A801A1C002B51DBFA204346400050
:108F2000DA80FFF7C9F901235B429C46E1444B46D6
:108F3000002B79D00023E05E08F0AEFC384B394AB4
:108F400007F086FE08F072FC07B227800223E05E7D
:108F500008F0A2FC324B334A07F07AFE08F066FCB8
:108F600006B266800423E05E08F096FC2C4B2D4A86
:108F700007F06EFE08F05AFC05B2A5800623E05EFD
:108F800008F08AFC274A264B07F062FE08F04EFCE8
:108F900003B2E3803A1C002FB0DA002241460A8077
:108FA000321C002EAFDA002241464A802A1C002DD6
:108FB000AEDA002241468A801A1C002BADDA00226C
:108FC000ABE7C046F4280020562B002057030000D2
:108FD000AE06000078270020DE1D00007FAFFFFFF7
:108FE00018260020822B0020F0280020342A0020A0
:108FF0007E2B0020812B0020FF7F00008C2700208B
:10900000402A0020666666666666E63F00006440A9
:10901000422A00204C2B0020F82D02002C2A002090
:10902000CCCCEC3FCDCCCCCC53464A461A702388EE
:109030001F1C1BB2002B00DA31E263883FB21E1CFA
:109040001BB2002B00DA28E2A38836B21D1C1BB22B
:10905000002B00DA25E22BB20193E288131C12B236
:10906000002A00DAB0E11BB2D3E578267820F8E4D4
:109070007823782001932DE5D54B1A88D54B1B8892
:10908000D318D54A12889B1AD44A9BB21188D44A65
:109090001CB2128864338A18D2499BB20988521ACA
:1090A00015B2C82B00D9FDE02B00643300DAF9E0DB
:1090B000642D00DDF6E0CC4BCC4E1B685B0098467F
:1090C000CB4B35681B889A466B001A000193C94B3D
:1090D00000215B5E9946130053441C004B46E41A82
:1090E00000D5C3E1C44B9C4200DDE3E101339B109A
:1090F0009C42FCDB002B00D1B8E10022D118CE1835
:109100000020A14200DC0800201AA14200DC32004D
:10911000D10F8A1851100A009B100400002BEDD1CA
:1091200008B208F0B9FBB54AB54B07F091FD002233
:10913000B44B06F03DFE08F079FB00B2071C002896
:1091400000DA8FE13FB2534642469A1A4B46AE4C84
:109150002080D21800D599E1A74B9A4200DDACE1FE
:1091600001339B109A42FCDB002B00D18EE10026DC
:1091700003259819C1188B460021904200DC01009C
:10918000511A904200DC5E46F00FDA1786192A4029
:10919000D318701006009B100A00002BE9D100B212
:1091A00008F07AFB954A964B07F052FD0022954B4A
:1091B00006F0FEFD08F03AFB00B2061C002800DABB
:1091C00052E136B25346019A60809D1A4B46ED1A21
:1091D00000D55EE1884B9D4200DD71E101339B10BB
:1091E0009D42FCDB002B00D153E103220021944679
:1091F000C818C21893460022A84200DC0200AA1A2E
:109200000192A84200DC59466246C80FDD1741189A
:109210001540EB18481001009B10019DE8D100B2E9
:1092200008F03AFB754A764B07F012FD0022754BA9
:1092300006F0BEFD08F0FAFA00B2051C002800DABC
:1092400033E12BB20193A08050464B464044C018F6
:1092500000D595E0684B984200DD28E101339B1072
:109260009842FCDB002B00D18AE0032100228B46D0
:10927000D118CD18A8460025AC46814200DC8C46AA
:109280006546451BAC46814200DC42465D46D10F37
:10929000D8178A182840C31851100A009B1060463E
:1092A000E6D113E6594B514E1F78594B1978594B5B
:1092B0000A000020185E584B7A430021595E54433F
:1092C000411A564B79430020185E554B611A002411
:1092D0001B5F6A43C31A7B435248D31A424A316028
:1092E0001360814261DA30604E498B4259DB4E494E
:1092F0008B4200DCE7E04D4B11609846E0E67823B6
:109300007820FFF71FFC802B00D061E4484808F06C
:1093100095FB7F22474B1B68D9171140CB182F496B
:10932000DB110B80444B1B68D9171140CB1828491F
:10933000DB110B80414B1B68D9171140CB184049FA
:10934000DB110B803F4B1B68D9171140CB183249FA
:10935000DB110B803C4B1B68D9171140CB183049EF
:10936000DB110B80394B1B68D9170A40D318384AD8
:10937000DB1113800023524623701370FFF728FC83
:10938000A023A020FFF7DEFB002630E40027FFF734
:1093900027FC00233AE4002530E42E4B0021595EDF
:1093A000A6E42D4B116098468AE61F4881429ADC5C
:1093B0009AE70026FFF754FB0027FFF714FB194B31
:1093C0009A4200DAACE4ACE400231BB2FFF721FCC4
:1093D000542B0020402A0020942700208E270020B4
:1093E000422A002080270020682600203C2A0020F6
:1093F0008C270020342A0020FFFFFF3F6666666648
:109400006666E63F000064404C2B00208227002067
:109410002C2600201C2A0020842B0020BC280020A1
:10942000902700200080FFFFFF7F0000FEFF00006C
:10943000002E0200A027002058260020082A002025
:10944000A42700206C260020082600200C2A0020DB
:10945000F0280020562B00200000FFFF0026D7E454
:10946000002799E400276DE60026AAE6A027A020A1
:1094700069E6A026A020CCE4A027A0208DE4A023AC
:10948000A0200193FDE40025FFF722FBA026A020E9
:1094900098E6A023A0200193D5E60026D4E5002776
:1094A000CBE50025D7E50025E9E40025C9E68023C2
:1094B000DB05DAE68023DB051FE68023DB0556E6C5
:1094C0008023DB0591E65B009846F9E5A222194B63
:1094D0001949D20099501949194A802099501949BF
:1094E000043299501849194AC0039950A023EB211E
:1094F0000322DB05C9005A5008315A5010315A5026
:1095000008315A50A121C9005850802040045850B9
:109510008020400558508020C00558500C495A50B2
:1095200004315A5028395A5008395A500021094AF2
:109530009950704700600040031513000317130093
:109540001405000003191300031D13001C0500007F
:109550004C070000140700000122014B1A707047ED
:109560008C2B0020A622274B52009958002931D07D
:109570000021995024490A683932FF320A600122D9
:109580009A64224A1278002A24D1A922D2009A5839
:10959000F423FF339A421DD81D4B0422995E1D4AC5
:1095A000914218DDFA22FA2092009A800622995EF2
:1095B000184AC00091421BDC0A1C00291DDBFA215D
:1095C00012B289005118DA80A8220E4BD2009850AE
:1095D000114A995070470A1C002910DBFA2112B277
:1095E000890050189A800622995E0A4A9142E3DD6A
:1095F000FA21FA22C9009200E5E70022DFE7002203
:10960000ECE7C04600A00040882B0020252A00205F
:109610002C2A0020E703000044050000A622254B69
:109620005200995800292DD0002199504C3AFF3A08
:109630009A64214A1278002A24D1A922D2009A5889
:10964000F423FF339A421DD81C4B0022995E1C4A1A
:10965000914218DDFA22FA2092001A800222995EC5
:10966000174AC00091421BDC0A1C00291DDBFA21AD
:1096700012B2890051185A80A8220E4BD20098507D
:10968000104A995070470A1C002910DBFA2112B2C7
:10969000890050181A800222995E094A9142E3DD3E
:1096A000FA21FA22C9009200E5E70022DFE7002252
:1096B000ECE7C04600900040252A00202C2A00201C
:1096C000E7030000440500000122054B9A64A9222B
:1096D000D2009858034BC0081B68C0187047C0469A
:1096E00000A00040882B0020014B18787047C0462E
:1096F0008C2B00200022014B1A7070478C2B00200D
:10970000F8B55F4656464D4644460023504AF0B4ED
:109710001360504AA2261370C1239B009A468023EF
:109720001B039B46012153465846A8254A4AF6008A
:109730009151D0504948E433ED0053519C461350A9
:10974000474B4848802713509946082350465C46AB
:10975000BF00D3519846444BD16099511C5060468C
:109760003E4C5851185148463E4C18514046D8512D
:10977000D9601160C022520094468022D2009046E7
:10978000196062464146394B043C9950F8395A58A1
:1097900091464846364A0240C020000402435A50CF
:1097A00042461A6062469F505A5894466046314A73
:1097B0000240C020000202435A501F602E4A2F4B25
:1097C0002F499A512F4A08365A502F492348995108
:1097D0002E4E9A51A4222E4ED2009E502D4A2E4E2D
:1097E0009A51043699512D4910365A50A6222C49C7
:1097F000D20099502B4A2C495A502C4999512C4E41
:109800009A512C4A5A512C4A1A5019511549002084
:109810005A50FF21294A99500023294AFA3903F066
:1098200085F9002803D00022002102F04DFE254AD0
:109830000121254803F0ECF900222449244803F0D3
:1098400001FA3CBC90469946A246AB46F8BDC046DC
:10985000882B00208C2B002000A000404405000035
:10986000C40900004C0500000090004000E100E049
:10987000FFFF00FFFF00FFFF4091004000F00140AC
:1098800014050000006000404C9100401C050000E1
:109890004491004004600040240500002C050000B5
:1098A00040A1004008600040340500004CA1004089
:1098B0003C05000044A100400C600040040500008D
:1098C000E020002059950100242E020066060000C9
:1098D000A822002010B5802304240A4AD4500A4B41
:1098E0001A78002A08D000221A70084B084AD05073
:1098F0000422044B1A6010BD0100064800F0F0F885
:10990000F6E7C04600E100E0642000201C050000EE
:1099100000200040AC270020F0B55F4656464D467B
:109920004446F0B483B00192002A24DD8023994696
:109930007C3B9246984600230C008A44124E134DFD
:1099400004279B4609E05B46114A3370114B0134F2
:10995000D15043462B6054450DD04B462178EF50F3
:109960003378002BEFD10C4800F0BAF843460134AD
:109970002B605445F1D1019803B03CBC9046994608
:10998000A246AB46F0BDC0466420002000E100E0E6
:10999000002000401C050000AC27002070B5842585
:1099A0001B4C6D006359002B1ED18E23184C5B009D
:1099B000E258002A09D000221648E250183BC35A48
:1099C000002B1FD10122144B1A709222104B52000F
:1099D0009958002907D0002199509022D200995817
:1099E0000E4808F02BF870BDFFF76EFE0C4B1860A8
:1099F00000236351A323DB00E1580A48C9B200F0F9
:109A00006FF8D2E700F07AF8074BE050DDE7C04688
:109A100000200040AC27002064200020282E0200F7
:109A2000102A0020702600201C05000010B51E48DA
:109A300000F04CF81D4800F049F8A023E72203216C
:109A4000DB05D2009950E82100220E20C9005A50AF
:109A5000174B1849585018490230585017481849A0
:109A60005850A0200421C0001950842040001A50F2
:109A700014301A5001329A601A60C2221E38FF3820
:109A800092009850A120043A80009850C0230D4ABB
:109A90005B00D1507C3014580B4B2340C02424046D
:109AA00023431350116010BD70260020AC27002006
:109AB000002000400C0500001405000000E0D70164
:109AC0002405000000E100E0FFFF00FF80220023EA
:109AD000FF21520083520232815202328352704778
:109AE000812210B5FF245200835A01332340835250
:109AF000C1540232835A0133835210BD802110B504
:109B0000FF2402004900435AC05C013323405352F2
:109B10000431535A013B535210BDC046F0B557466D
:109B20004E4645468446E0B489469A460120002ABE
:109B30003BD0B12300276146244E254D254CDB0048
:109B40002F702770F1504946234BF1508021890036
:109B50007750B06029780029FCD000212970012AB3
:109B60002ED0802101251948890045500121174830
:109B700089460160802189008846FF39A325FF3985
:109B8000534600268C46ED0021780029FCD0267033
:109B90004159013AD2B21970012A0BD049460162EB
:109BA000002A01D00133EFE700201CBC9046994603
:109BB000A246F0BD41466746013347500262E3E7E3
:109BC00080210225014889004550CFE70030004040
:109BD000C8220020C92200201C050000F0B547461D
:109BE00080B407000120002A27D00025B126A8460E
:109BF000134CF6002570134DAF5180274646BF0029
:109C0000EE51114EA951A86021780029FCD0002105
:109C10000020013A2170D1B201310A4E0A4D591883
:109C20001A7872512278002AFCD0013320708B42BE
:109C3000F6D101220020034B5A6104BC9046F0BDCE
:109C4000C8220020003000401C050000F8B5842325
:109C5000154A5B00D158002904D00021D1500122BF
:109C6000124B1A708E23104A5B00D158002904D081
:109C70000021D15001220E4B1A7092250A4C6D0022
:109C80006359002B0FD00B4EA759FFF71DFDB123D1
:109C9000DB000200E3583900074807F0CFFE03233A
:109CA000A35100236351F8BD00300040C9220020B9
:109CB000C8220020C40400003C2E0200A023E221A0
:109CC0001A4ADB05C90010B55A5008395A50042108
:109CD000174B053AFF3A9950164A0239995000221B
:109CE000CD200731FF315A5014315A501249C00467
:109CF0005850A120C1218000890058500539FF39F2
:109D00005A50A022FC39FF39D2009950C023C024F8
:109D10000A4A03315B00D1507C30135824061B02E1
:109D20001B0A23431350116010BDC0460C060000EF
:109D3000003000400C0500002405000000E100E0B8
:109D40008022044BD2009A58002A01D101321A60B5
:109D50007047C0460070004080220021054B520031
:109D60009950A122D2009A58D3009B1A024A13801C
:109D70007047C04600700040EE2800200A4B0B4997
:109D80000B4AC0209950A0210122C9005A50FD3928
:109D9000FF395A50074A000653581B021B0A034357
:109DA000535080231360704700700040041000007F
:109DB0000405000000E100E0F0B5474680B4604CC7
:109DC00082B02578012D32D0002D1CD0022D07D174
:109DD000FFF77AFC5B4B1B68C01A5B4B984250D86C
:109DE00032200138C046C046C046C046C046C046C4
:109DF000C046C046C046C046C046C046F1D102B0CB
:109E000004BC9046F0BDB1227721504BD20099504E
:109E100080227539920099504D4A4631995001225D
:109E20009A602270FFF750FC464B1860D8E7FFF7A6
:109E30004BFC444E3368C01A434B9842D0D9454F2F
:109E400003223B0000217720FFF768FE3B78772153
:109E50001A047B7858201B021343BA7813433E4AF6
:109E60001360B122394BD200995002228A31FF315E
:109E70005A50374958509D602270FFF725FC3060DA
:109E8000AEE7344D03222B0000217720FFF746FE7A
:109E90002B7800211A046B781B021343AA782F4DEC
:109EA00013432F4A13606A89288912029B1A984625
:109EB0001A00002305F0B6F84E06CB110021C209A6
:109EC0003243AE88300412184B41009201930021B6
:109ED000E8884246002305F0A5F80E06020A324340
:109EE0006E880B12F003002116001F004246361840
:109EF0004F410023A889002105F094F8FA23DB00E4
:109F00009C464902C00D0843164B60441860124B32
:109F10003200186800213B0005F084F8CD02420DA4
:109F20004B152A4300980199121A8B4111005B04CA
:109F3000CA0B1A430C4B1A600023237050E7C0462B
:109F4000CA220020E42200200F2700000030004039
:109F50001C050000DC220020942B0020CC220020D5
:109F6000902B0020842700209827002070B5A02483
:109F7000094E0A4D2B00022221007720FFF7CEFD6B
:109F80002B786A781B0202341343E4B23380023622
:109F9000B02CEFD170BDC046CC220020E0220020C2
:109FA00076DF70477ADF70477CDF70477FDF70476E
:109FB000A9DF704760DF70472EDF704732DF7047E0
:109FC00033DF70474CDF70478021A02210B5044B6F
:109FD0004904D205D1500022002102F075FA10BDCB
:109FE0000C050000F8B50E00151E08D00024044F23
:109FF000315D38000134FFF773FDAC42F8D3F8BD92
:10A000000029002010B5040003F0EEFD21001F48D8
:10A0100003F046FE2388112B2BD01ED9132B0ED014
:10A02000522B08D11A4B0022188800210023FFF779
:10A03000BFFF00280CD1200003F09CFC10BD144B86
:10A040000022188885210023FFF7B0FF0028F2D0F6
:10A050000022002102F038FAEDE7102BEBD180212D
:10A06000A0220C4BD2054905D150A288084B1A807A
:10A07000E1E78021A123A022DB00D2054905D150D0
:10A080000122034B52421A80D5E7C046E822002045
:10A090006C2000200C05000010B50378002B00D0C8
:10A0A00010BD8021A022084BC903D205D150074B17
:10A0B0003B211888FFF774FF0028F1D0002200210F
:10A0C00002F002FAECE7C0460C0500006C2000200C
:10A0D0000123024A11784B4013707047252A002053
:10A0E000F0B57248A9B0FFF7F1FC7148FFF7EEFC3C
:10A0F000002348226F49082003F08AFF002800D07F
:10A10000CEE01AAC082200212000FEF781F80122DF
:10A110002378200093432370FFF74CFF002800D0E2
:10A12000B9E0654803F09AFF002803D0002200211F
:10A1300002F0CAF90022614B15201A70FFF73EFFAA
:10A1400001211520FFF73CFF1520FFF735FF022105
:10A150000320FFF737FF0F21012203AE33782000E1
:10A160008B43134310220B4013433370D023544AC4
:10A170005449D358FF221340534A07F079FC20007A
:10A1800007F098FC210082B23000FFF70DFF002895
:10A1900000D07BE00CAD082200212800FEF738F843
:10A1A00006232B8006336B800023AB809133FF3373
:10A1B0002800EB80FFF7F6FE002803D000220021E4
:10A1C00002F082F9002104222000FEF721F83F4B23
:10A1D00021003F481A9303F093FD002803D000228A
:10A1E000002102F071F9382200212800FEF710F852
:10A1F000022300272B703822043300212000EB704B
:10A20000AF70FEF705F801232382324B2422002190
:10A2100030006361FDF7FCFF0123337340233200FC
:10A220003361210000970023280003F0E3FA00289F
:10A2300003D00022002102F047F91C220021200057
:10A24000FDF7E6FF244A00236260F0221203A260B9
:10A2500005221A93E38101332374204B20006361AC
:10A260001F4B2273A36103F083FC002803D000225C
:10A27000002102F029F9032003F05EFB002803D03F
:10A280000022002102F020F929B0F0BD00220021B7
:10A2900002F01AF97EE70022002102F015F940E7EA
:10A2A0000022002102F010F92BE7C046002900200F
:10A2B000442A00200423002005A00100252A0020B4
:10A2C00000100010802E0200742E0200E59F010095
:10A2D000E822002068200020CD0C000099A0010099
:10A2E000C99F0100F0B5564644465F464D46844638
:10A2F0000120F0B4874B884C92461C60874BA0220B
:10A30000DB7AD2059840864B8426D0500023062263
:10A310007600A351834B87B0E250842252009346CB
:10A32000A2597D4B002AF8D0A324E4001A59A12693
:10A330000492A022AF27F600D2059051049E013668
:10A34000049603AE377067463F0CB8467770674691
:10A350003F0AB946B7706746F770002900D19EE002
:10A3600057466D462F802F880197002F00D196E029
:10A370006B4F5D46D051002292465A5100940C001A
:10A380005A4651469B46A246745C664D5C519C58A9
:10A39000002CFCD084275C4600257F00E551009D01
:10A3A0000131645905940429EED151464B1C5A4C95
:10A3B0009A460A785B4B2500E2503C0084222B59D8
:10A3C000554E5200002BF9D00023B350A323DB00DD
:10A3D000F358A0250593A123ED05DB00E8504B467B
:10A3E000FF201B02000203406446FF202040181893
:10A3F000FF26434636041B0433401B18019854467D
:10A40000013880B2013084460120824644488C44A1
:10A410008146AF20C9438046CB18424E0093644525
:10A4200045D00F200138C046C046C046C046C04691
:10A43000C046C046C046C046C046C046C046F1D130
:10A440005146364B4046DB7A99404B46E950314BFA
:10A450001B68985198580028FCD0002083465F461E
:10A460000930FF301F50A320C000185805902078F5
:10A47000985198580028FCD0002083465F46093048
:10A48000FF301F50A320C0001B5801340593A123A7
:10A49000DB00E950009B1919234B9942BFD90020DA
:10A4A00007B03CBC90469946A246AB46F0BD14208E
:10A4B0000138C046C046C046C046C046C046C04639
:10A4C000C046C046C046C046C046F1D10120134B2D
:10A4D000A022DB7A04219840114BD205D0500D4BBD
:10A4E0001A68104BD1500531FF315358002BFCD066
:10A4F000842300215B00D150A323DB00D358A0228A
:10A500000593A123D205DB00D050059B0120013328
:10A510000593C5E758230020004000404C2300204D
:10A520000C0500001C050000FEFF0100F0B54446CC
:10A530005F4656464D46F0B483B06C460323237005
:10A54000030C6370030AE070A37092B2002000292C
:10A5500001D0002A06D103B03CBC90469946A246E1
:10A56000AB46F0BD284B294CA0272360284CFF05A3
:10A57000E57AA4460124AC40264D7C518424640035
:10A5800018511800244B00259A4600239846A3230F
:10A59000DB000700A1469B466B4656465B5D835138
:10A5A0000359002BFCD04B464646FE505B46FB58F9
:10A5B00001350193042DEFD1174B8424A32698462F
:10A5C0000027013A95B201350F484D196400F60095
:10A5D0004346C75003590C4A002BFBD084235B0031
:10A5E000D75093590B700131A942F1D16346DA7A01
:10A5F0000123A0219340A122C905D2008B50019BC9
:10A60000012001330193A6E70040004058230020B9
:10A610004C2300200C0500001C050000F0B55F462F
:10A6200056464D464446F0B489B006AD0622002198
:10A630002800FDF7EDFD40236B70353BAB70023B0E
:10A64000EB7009332B71013B6B71784B2900981D1E
:10A6500006229A4607F0E9F9AB780322984641466C
:10A66000A0230020C131FF31DB058900CA50E97801
:10A6700084468946C131FF318900CA502979444650
:10A680008B46C131FF318900C8506F79A120390054
:10A690004E46C131FF318900CA506549C0000C5097
:10A6A000644C0E515E46A04604340E51012634001F
:10A6B000BC401C506F78604C3F060F512F785F4DA7
:10A6C00064464F518427543D7F00CC514E51E025C4
:10A6D000ED005A515A4D5A51802292011E501A5083
:10A6E0005246584D2960D27A964042469E5050229A
:10A6F000554BCC51CA508422C8594D4B52000028AA
:10A70000F9D0A321C9005958A0200191A121C00569
:10A71000C900465001990127013101914549465030
:10A720000020494998505F50585084279958404814
:10A730007F000029F9D00023C351A323DB00C358B5
:10A7400002938421C3593A4A4900002BF9D0A3232C
:10A75000DB00D358A0200293A123C005DB00C65024
:10A76000029B01330293334BC65000230620535003
:10A77000354BD050842753582D487F00002BF9D0FB
:10A78000A323DB00C358A0220393A123D205DB003F
:10A79000D650039B01330393264BD65000236022EF
:10A7A000C351294BC250224B984684235B009946E3
:10A7B000C359002BF7D0A3234246DB00D358A02770
:10A7C0000493A123FF05DB00FE50049B64200133AA
:10A7D0000493FDF771FD43462B6053460121DB7A5C
:10A7E00042469940134B4846F95000231350062225
:10A7F0004046154BC25043464A4698580028FCD064
:10A80000A3230B4ADB00D358A0220593A1230120E8
:10A81000DB00D205D150059B0133059309B03CBC48
:10A8200090469946A246AB46F0BDC0464C23002058
:10A83000004000400C050000240500005405000005
:10A8400034070000582300201C05000030B5554C8B
:10A8500083B0A37A002B00D197E06B46DD1D002367
:10A860002B7023680122597C636818782B00FFF74E
:10A87000B5F9002800D088E023680122597963687F
:10A8800018782B00FFF7AAF9002800D07DE0236894
:10A8900001221979636818782B00FFF79FF90028C7
:10A8A00000D072E02423E35C002B36D00C232B7005
:10A8B000236801221979636818782B00FFF78EF955
:10A8C000002862D13230FDF7F7FCC0232B70A37A49
:10A8D000DB0762D4236801221979636818782B009A
:10A8E000FFF77CF9002850D1637C002B58D12B70E6
:10A8F00023680122597C636818782B00FFF76EF9F2
:10A90000002842D123682870597963680122187899
:10A910002B00FFF763F9404235E004232B702368D6
:10A9200001221979636818782B00FFF757F900287E
:10A930002BD1A27C4023002A2AD02B70236801222D
:10A940001979636818782B00FFF748F900281CD1A3
:10A950003230FDF7B1FC637C5A1E93412B702368A3
:10A960000122597C636818782B00FFF737F900281B
:10A970000BD12300226810335179626810780122CC
:10A98000FFF72CF9404203B030BD01204042FAE706
:10A99000A27AD207D1D52033CFE7E0232B7099E7F5
:10A9A0000223A4E77020002070B5060082B028289A
:10A9B00000D9BBE02323694C01ADE35C00282CD116
:10A9C000002B18D02870A27C8023002A02D07E3B66
:10A9D0002B7080332222A25C002A00D08AE02368F8
:10A9E0000122D97D636818782B00FFF7F7F800285B
:10A9F00001D12323E05400232B7007336B702368AD
:10AA00000222597D636818782B00FFF7E7F80028C9
:10AA100000D08BE0207502B070BD012B19D030231F
:10AA20002B70A27C8033002A02D07E3B2B708033B7
:10AA30002222A25C002A5BD123680122D97D6368AF
:10AA400018782B00FFF7CAF8002802D1012223232F
:10AA5000E25420232B70012E6BD0052E59D9142ED1
:10AA60004AD903236B70A37A002B6FD004236A4664
:10AA7000D370E37A042B69D0236801229978636844
:10AA800018786B460333FFF7A9F8002860D16B46AE
:10AA90000722DB78E3726B789B011343DBB26B70A8
:10AAA00023680222597D636818782B00FFF796F817
:10AAB00000283BD108230122A372207322751C3386
:10AAC000E35C002B12D12374637C002B0ED16B4608
:10AAD000DA702368597C636818786B460333FFF794
:10AAE0007DF8002802D16B46DB786374002092E782
:10AAF0002B70A1E72B7072E702236B70A37A002BF7
:10AB000005D005236A46D370E37A052BB4D1872399
:10AB1000C5E701236B70A37A002B05D006236A4694
:10AB2000D370E37A062BA7D14723B8E70120404230
:10AB300071E700236B70A37A002B05D006236A46C9
:10AB4000D370E37A062B97D10723A8E7C723A6E79C
:10AB50006B789A0107231343DBB2A0E77020002033
:10AB600010B5114A0100537A012B19D0002B13D0D4
:10AB7000022B0AD0032B0CD1102320240370D37C8A
:10AB80000020002B00D00C7010BD0823102403708F
:10AB9000F5E701204042F7E7022304240370EEE7C3
:10ABA000042308240370EAE77020002070B51C4CD1
:10ABB00082B0A37A002B27D06B46DD1DBB2816D8A8
:10ABC000612817D902232B70E27A00269A420BD013
:10ABD000236801229978636818782B00FEF7FEFF3E
:10ABE000002811D12B78E372300002B070BD012330
:10ABF0002B70E9E7292804D8132808D904232B70DF
:10AC0000E2E703232B70DFE701267642ECE7092811
:10AC100002D905232B70D7E706232B70D4E7C04653
:10AC20007020002070B5584C82B0A37A0600002B2B
:10AC300000D196E02423E35C002B00D091E0227D3C
:10AC4000002A30D0421E272A00D885E02322A25CA9
:10AC500001AD002A18D02B70A37C8022002B02D0DB
:10AC6000022302322B702223E35C002B00D071E020
:10AC700023680122D97D636818782B00FEF7AEFFA8
:10AC8000002801D12323E05400232B7007336B707D
:10AC900023680222597D636818782B00FEF79EFF17
:10ACA000002800D12075F920032E31D86B46D870CA
:10ACB000236801225978636818786B460333FEF7DE
:10ACC0008DFF00284DD16B46FA20D97880000131E4
:10ACD00004F044F8A37A80B2E0814008002B14D03D
:10ACE00001ADBB2821D9012301222B70E37A9342C5
:10ACF0000BD0236801229978636818782B00FEF73F
:10AD00006DFF002801D12B78E372002002B070BDE6
:10AD1000FA23311C9B009E420FD8FA2089B2800092
:10AD200004F01CF80138C0B2C0E761280ED8292809
:10AD30001AD9032303222B70D8E7FA20191C89B2F1
:10AD4000800004F00BF80138C0B2AFE70223022202
:10AD50002B70CBE72A708BE7C0B2FFF725FE0020EF
:10AD6000D4E701204042D1E7132805D8092807D9A4
:10AD7000052305222B70B9E7042304222B70B5E7C5
:10AD8000062306222B70B1E770200020F0B547465D
:10AD9000242380B4304D82B0EB5C0024002B2BD1F7
:10ADA000AC7A002C54D00133984304402F7C2C748F
:10ADB000041B621E944106006442002821D12A7DB2
:10ADC000002A30D06A7C002A16D107326A441370F8
:10ADD0002B689046597C6B68187813000122FEF7A7
:10ADE000FDFE002808D143461B786B74002E03D06B
:10ADF000FFF72CFD002827D1200002B004BC9046AC
:10AE0000F0BD6A7C002AF3D107226A4413702B68D4
:10AE10009046597C6B68187813000122FEF7DEFE1D
:10AE20000028E0D0E4E76B46DA712B680122597CF8
:10AE30006B6818786B460733FEF7D0FE0028DBD12D
:10AE40006B46DB796B74D7E701242F746442D3E738
:10AE500001246442D0E7C04670200020F0B54F4680
:10AE600046467023C0B4050083B0034069D06B46EA
:10AE70009E1D01233370484C01222368597D63686D
:10AE800018783300FEF7AAFE002800D07EE04022AA
:10AE900033783070934323732A4266D03A20844635
:10AEA0003738814601383823392201213B27804633
:10AEB000A80604D443463A00337049466346E80680
:10AEC00001D4130031702A0700D4337023680122A3
:10AED000997D636818783300FEF780FE002855D10D
:10AEE00008232A009A4320D02323E35C002B1CD0A4
:10AEF0006B46D871A37C8022002B03D06A460223C4
:10AF0000D37182222223E35C002B01D06B46DA71DD
:10AF100023680122D97D636818786B460733FEF7F2
:10AF20005DFE002801D12323E05400233220A572C6
:10AF30002375FDF7C1F9002003B00CBC904699467B
:10AF4000F0BD00281ED16B464027134C9E1D236880
:10AF50003770597D6368012218783300FEF73EFE92
:10AF6000002813D13378BB4323733E200423844647
:10AF700037388146013833703D22383305213F2769
:10AF8000804695E76A46961D337074E700230120DA
:10AF9000A3724042D0E7C04670200020802370B5E5
:10AFA000774C84B002AD2B7023680122597D636811
:10AFB00018782B00FEF712FE061E00D0C2E06420B7
:10AFC000FDF77AF923682E70597D6368012218789D
:10AFD0002B00FEF703FE002800D0B3E070232B7097
:10AFE00023680122D97E636818782B00FEF7F6FDEE
:10AFF000002800D0B5E023680622597E63681878DF
:10B000002B00FEF78BFD002800D09BE004216B791C
:10B0100001269B0019400223EA78520013406A7807
:10B020000B433240134300D182E0D9B2012B03D04D
:10B03000022900D098E00023E37400232B702368DA
:10B040000122D97E636818782B00FEF7C7FD051E24
:10B0500000D086E00122FF235242A3722372637262
:10B06000E372E2812274A3742332FE3BA354237360
:10B070002233E054607520752000163A1630002106
:10B08000FDF7C6F82423E5540133E554A37AE5849B
:10B09000002B57D06B46DD1D18232B70237A032B12
:10B0A0000FD0236801229979636818782B00FEF786
:10B0B00095FD002846D12B78DB082372A37A002B5C
:10B0C00040D000232B70637A002B0FD0236801221D
:10B0D000D979636818782B00FEF780FD002831D1FC
:10B0E0002B78DB086372A37A002B2BD005232B70FF
:10B0F000E37A052B0BD023680122997863681878CE
:10B100002B00FEF76BFD00281CD12B78E372FA2090
:10B110008000FFF787FD002814D10020FFF736FEDE
:10B12000041E0FD10020FFF799FE200004B070BD6F
:10B1300023680122D978636818782B00FEF7EEFCAB
:10B14000002802D001246442EFE70F222B7813403D
:10B1500010D0042B00D06EE70A4806F06FFCE674AE
:10B160006BE703246442E0E70124074806F066FC2D
:10B170006442DAE70124054806F060FC6442D4E743
:10B1800070200020382F0200C02E0200E82E02009E
:10B19000F0B544465F4656464D4698462423F0B4E3
:10B1A000954C91B004900B91E35C002B00D01BE117
:10B1B00042461370A37A002B00D115E1237C002BAB
:10B1C00000D111E15A0600D5BCE0002203920292A0
:10B1D00006329146043A9346924606329446043A21
:10B1E0000A9209920632089207920692063A05924E
:10B1F00000220627062608250820022101929A0629
:10B2000010D55A460392524602920A9AE146934654
:10B21000099A2F009246089A060094460191079DCC
:10B2200006980599DA0607D55A4603925246E14632
:10B230002F000600029201911B0703D4039B029F7B
:10B240009946019E23680DAD197B63680222187828
:10B250002B00FEF763FC002800D0C5E02B786A784D
:10B260001B021A439246BA4200D286E062685388B3
:10B270005B089A450ED923681078D97C01222B00EF
:10B28000FEF74CFC002800D0AEE02B78DB0600D5A2
:10B29000ADE0626823681078597B32002B00FEF71E
:10B2A0003DFC8346002800D09EE04946504603F00E
:10B2B00055FD1A9B013818705A4643461A70002EE5
:10B2C00002D0237C1B076CD405239A46013B994688
:10B2D0009B46023B01939C4603260122002100234A
:10B2E000BB424AD0237C580614D56B5CAA5C1B0277
:10B2F0001343049A138043461A784023134342466B
:10B300001370BC4539D048463200DC465646237C93
:10B3100001990190980632D4DB062ED56B5CAA5CAD
:10B320001B021343049A0020938043461A7810238B
:10B3300013434246137011B03CBC90469946A24656
:10B34000AB46F0BD02220392029206329146043AC5
:10B350009346924606329446043A0A92099206327D
:10B36000089207920692063A0592043A08270826A0
:10B370000A250A200421019241E70020DBE76B5CEB
:10B38000AA5C1B021343049A538043461A78202375
:10B39000134342461370BC45EFD0237C3200019921
:10B3A000BAE72B786A780B991B0213430B80AB78B2
:10B3B000EA781B0213434B802B796A791B021343F3
:10B3C0008B8043461A7808231343424613700B239D
:10B3D0009A46013B99469B46023B01939C460926AF
:10B3E00007220621023B7BE701204042A3E7FFF74B
:10B3F0002DFA022040429EE770200020F0B54F4613
:10B4000046462423C0B4284C83B0E35C0700894639
:10B410009046002B3BD0A37A002B38D0236801AE96
:10B42000197B6368022218783300FEF777FB002847
:10B430002DD1357873782D021D43BD422AD3606823
:10B4400043885B089D420CD923680078D97C01228F
:10B450003300FEF763FB002819D13378DB061DD4D7
:10B4600060682368FAB2597B00784B46FEF756FBBA
:10B4700000280CD13900280003F0E6FB43460138D0
:10B480001870002003B00CBC90469946F0BD012016
:10B490004042F7E7434618700138F3E7FFF7D6F963
:10B4A00002204042EEE7C046702000202223024ADC
:10B4B000D05400207047C04670200020232370B570
:10B4C000174C82B0E35C0500834224D000281DD1D4
:10B4D00080228220022600216B4607331970A17C4E
:10B4E000002901D002001E702221615C002900D0D9
:10B4F0001A702268D17D626810780122FEF76EFB17
:10B5000000280AD12323E55402B070BDB022B22036
:10B5100032263021E0E70020F6E701204042F3E741
:10B520007020002070B50D0082B0161E20D0124C85
:10B53000A37A002B1CD0020A01AB1A70C0B2626859
:10B54000587040185189884212DC21681078C97EF1
:10B550000222FEF743FB00280AD12368EAB2197ED3
:10B56000636818783300FEF739FB404202B070BDC3
:10B5700001204042FAE7C04670200020F0B5564650
:10B580005F464D464446F0B48BB003932523514E9D
:10B5900001910292F35C8246002B75D1002973D091
:10B5A000002800D194E00400102800DD75E0A3B26B
:10B5B0009B46B37A002B67D0002305AF70683B70C1
:10B5C0007B7043899C425FDC019B0025984638E0F4
:10B5D00033681078D97E02223B00FEF7FFFA00287C
:10B5E00052D133684A46197E7368187806ABFEF765
:10B5F00095FA002848D1220006A9404606F006FA2E
:10B6000000284CD15D44ADB2AA454BD953465C1BD2
:10B61000102C00DD1024A3B29B46019B9846A84441
:10B620004346002B30D0B37A002B2DD02B0A3B7031
:10B630007068EBB222047B70120CD31842899342DB
:10B6400022DC33680078D97E02223B00FEF7C6FA7E
:10B65000002819D1E3B2994633684A46197E7368C7
:10B6600018784346FEF7BAFA00280DD1B37A002BBA
:10B670000AD02B0A3B707268EBB27B702404240C56
:10B6800051891B198B42A3DD012040420BB03CBC09
:10B6900090469946A246AB46F0BD102487E70220AB
:10B6A0004042F3E7029A130A3B7033687A70597F7D
:10B6B0007368022218783B00FEF790FA0028E3D165
:10B6C00025230122F2546B469B890020F384DDE799
:10B6D00005AFE8E770200020242330B55A4C83B032
:10B6E000E35C834276D0002800D17AE02522A25C78
:10B6F000002A00D19EE0002B00D06EE0A27A002A42
:10B7000000D19AE06A46D51D2B7023680122597C2E
:10B71000636818782B00FEF761FA002801D12B78B6
:10B720006374A37C002B36D02368012219796368E7
:10B7300018782B00FEF7F2F900282CD1A37ADB074A
:10B7400000D56FE020222B7893432B7023680122D1
:10B750001979636818782B00FEF740FA00281AD18F
:10B760000330FCF7A9FD2223E35C3022002B01D03B
:10B77000802380322B702323E35C002B00D02A70BF
:10B7800023680122D97D636818782B00FEF726FA1A
:10B79000002800D1A074E08CFFF744FA6B46002229
:10B7A00006331A706268232110780122FEF716FA18
:10B7B00024230122E254223B2B702368597C6368C6
:10B7C00018782B00FEF70AFA002801D12B78637451
:10B7D000FFF73CF8002003B030BD6B46DD1D0023B1
:10B7E00092E7002B22D1A27A002A29D06A46D51DE1
:10B7F0002B7023680122597C636818782B00FEF7B0
:10B80000EDF9002801D12B786374237C01222B7081
:10B810006368232118782B00FEF7E0F90022242327
:10B82000E254D5E720232A7813438EE76B46DD1DCB
:10B830002870DEE701204042CDE76B46DD1D70E752
:10B840006B46DD1DE1E7C04670200020802210B568
:10B85000C823D20002490348FFF790FE10BDC0463E
:10B86000D02F0200F60B0000F0B5404C87B002AFBD
:10B87000050003AE21000322380006F0D6F8211D92
:10B880000322300006F0D1F821000322083104A879
:10B8900006F0CBF8210003220C3105A806F0C5F80C
:10B8A000032108006A466C4628403B5C1370EA0896
:10B8B0000A40BB5CB25C6370AB090B40F95CF35CA3
:10B8C000A170315C01AC2170627003216A46284886
:10B8D000A370FFF727FE002845D122000321254849
:10B8E000FFF720FE00283ED1032204A9684606F097
:10B8F0009CF8032205A9200006F097F86B0708D5ED
:10B900006A460123694612781A430A702278134363
:10B910002370AB0608D56A460123694652781A435C
:10B920004A70627813436370EB0512D488206A462C
:10B930000321C000FFF7F6FD002814D122000321E7
:10B940000D48FFF7EFFD00280DD10C4B1D8107B00E
:10B95000F0BD6A460123694692781A438A70A2783C
:10B960001343A370E2E701204042F0E7842F020076
:10B97000260400002A040000310400005C2300209B
:10B9800010B5144986B004000C22103103A806F04B
:10B990004CF8C82C1AD82100C82003F0DFF9013870
:10B9A00080B201AA030A507002210B481370FFF7FE
:10B9B000B9FD00280AD103AA0C210848FFF7B2FDFF
:10B9C000002803D1064B9C8106B010BD01204042E7
:10B9D000FAE7C046842F020016020000C10A0000E8
:10B9E0005C230020F0B5050083B043076BD0C8236B
:10B9F000DB00994267D8080004F09CF94D4903F038
:10BA0000CBFC6B46DC1C071C2000FFF7A9F8237851
:10BA1000042B00D17DE033D9082B6AD0102B52D1F2
:10BA20008A21381CC90503F081FE03F027FB424937
:10BA300086B2381C03F07AFE03F020FB80B201AC22
:10BA4000330A2370030A6670A370E070EB0729D4F1
:10BA5000AB073CD400206B0737D5EE202200022133
:10BA60004000FFF75FFD00282DD16B462D309A1D59
:10BA70000221FF30FFF756FD431E9841404224E06B
:10BA8000022B20D18D21381CC90503F04FFE03F095
:10BA9000F5FA2A4986B2381C03F048FE03F0EEFAA4
:10BAA00080B2CCE7EA20220002214000FFF73AFDF5
:10BAB000002808D16B4625309A1D0221FF30FFF780
:10BAC00031FD0028C4D00120404203B0F0BDEC207D
:10BAD000220002214000FFF725FD0028F3D16B462C
:10BAE00029309A1D0221FF30FFF71CFD0028B1D03C
:10BAF000E9E78B21381CC90503F018FE03F0BEFAF4
:10BB00000F4986B2381C03F011FE03F0B7FA80B279
:10BB100095E78C21381CC90503F008FE03F0AEFA46
:10BB2000084986B2381C03F001FE03F0A7FA80B280
:10BB300085E7C046000048430000C044000040467E
:10BB4000000040450000C045F0B54E46454657460A
:10BB5000E0B486B0924B03AC0600220004216820BA
:10BB60000393FFF7DFFC4022A3233240237090466B
:10BB700000D10DE11D3363700833A370063BE37001
:10BB8000C0277F00374000D1FDE0C4232371083374
:10BB90006371063BA371A32322000A218148E3714C
:10BBA00023726372FFF7BEFC0323334099464A4673
:10BBB0002023002A00D1B833220001217A482370C3
:10BBC0006D46FFF7AFFC09227849B30600D4D8E0F0
:10BBD0001C31280005F029FF97202A000921C00008
:10BBE000FFF7A0FC002F09D0F30500D5D4E0704B7F
:10BBF0000393220004216F48FFF794FCF30700D45D
:10BC0000B6E08B20F8232200012100012370FFF70A
:10BC100089FCFA210720FFF7E5FEA4203F232A0034
:10BC2000012140002B70FFF77DFC002350209A4635
:10BC30002A000121FF302B70FFF774FC5346EF20E0
:10BC40002B7014232A00022140006B70FFF76AFC5E
:10BC50005346ED202B7064232A00022140006B70B4
:10BC6000FFF760FC53462B708E23AE206B706B3356
:10BC7000AB702A00693B04214000EB70FFF752FCD7
:10BC80005346AD202B7008232A00022140006B7020
:10BC9000FFF748FC5346AC202B7002232A000221F8
:10BCA00040006B70FFF73EFCB307DB0FD833220078
:10BCB000012141482370FFF735FC730752D53F4BF4
:10BCC00000932A0004213E48FFF72CFCFEF7BEFD3E
:10BCD000F30641D53B4B00932A0004213A48FFF775
:10BCE00021FCFEF7B3FD0823384C33436381FEF794
:10BCF000ADFD4346002B22D10A20434684460C303A
:10BD000082461038A3731422042310211A2580467A
:10BD1000002F04D043462A00A373514663461420E3
:10BD2000304201D01300A1734A46002A00D0A37309
:10BD3000002006B01CBC90469946A246F0BD1020DB
:10BD4000062384460C3082461038A3731A2204332B
:10BD5000162120258046DBE70422A3212800FCF7DA
:10BD600057FAB9E704228B212800FCF751FAA8E71B
:10BD70008B20D8232200012100012370FFF7D2FB82
:10BD800092E7283125E7A32323716371A37102E7AA
:10BD90006370A370E370F3E60D4B039329E7C0468D
:10BDA00002CAE309A70A0000B60A0000842F0200B5
:10BDB000B080B490A20A00003D070000C0C2C4C613
:10BDC000980A0000202830389E0A00005C230020DA
:10BDD000B28BB69BF0B544465F4656464D460023AF
:10BDE000F0B491B01A9C060023807C4B0F00987B26
:10BDF000914608A91B9AFFF701FB03B298462380DE
:10BE0000181E74D11422754B5B891A4200D075E05C
:10BE10000325AC46013DA846013DA94600250C215D
:10BE200000220420AA4607910139069101390591A3
:10BE30000139049101390391013993460291063287
:10BE400001390191009201395D062DD5524608ADA8
:10BE5000AA5C120292462A004D46525D5546154391
:10BE60003D80454608AA525D65461202904608AAE2
:10BE7000525D4546154308AA515C105C009A0002C9
:10BE80009346079A08430092049A08219446039A1D
:10BE90007D809046029AB8809146019A2088924609
:10BEA0000143218005980699C0277F003B421BD0A3
:10BEB000554608AA575D4D46525D45463F02174319
:10BEC00008AA3780575D6546525D3F02174308AAAE
:10BED000105C515C00020143B180009A70219346CE
:10BEE00077802088014321809B0752D1002011B028
:10BEF0003CBC90469946A246AB46F0BD089A11BAA2
:10BF00004A461160099A091410BA4A4650600A9AC2
:10BF10008C4612BA92464A46554695604D460B9A53
:10BF2000514612BAEA6065466D43AC4600140914E6
:10BF30004043121449435243604440188018F12290
:10BF40001206944680226044920490423FD8802199
:10BF5000228849000A43228010229346063200922A
:10BF600006320792013A0692013A0592013A04928A
:10BF7000013A0392013A0292013A0192033A94463D
:10BF8000013A9046013A9146013AEB391420924623
:10BF90005AE708AB9C465C4664446378E678DA0767
:10BFA0000BD50E4A1268002A07D007200100F308BB
:10BFB000314018400131904763781B0796D5074BF5
:10BFC0005B68002B92D0B009984700208FE7FEF7FE
:10BFD0003DFC434601202380404288E75C2300204B
:10BFE0000023F0B5C356002B36DD30220023202479
:10BFF0000821282610259446382703228256002A35
:10C0000018DD062141560022002902DD134398B2B3
:10C01000F0BD00293AD10721415640320029F5DC14
:10C0200051D10821415640320029EFDC59D1E0229C
:10C030005200EBE7002A27D1042282560B00002A87
:10C04000DFDC3ED1052282562B00002AD9DC3B00E2
:10C05000002AD6D06346D4E7002B0CD10123C35667
:10C06000002B16DD31220123212409212926112547
:10C0700094463927C1E73422042324240C212C269A
:10C08000142594463C27B8E72300BAE780225200E3
:10C09000BCE7002B0CD10223C356002B16DD322245
:10C0A000022322240A212A26122594463A27A4E7AD
:10C0B0003522052325240D212D26152594463D27BF
:10C0C0009BE733009DE7A02252009FE7002B0BD196
:10C0D0003722072327240F212F26172594463F2791
:10C0E0008BE70132FF3291E73622062326240E2108
:10C0F0002E26162594463E277FE7C046F0B55F46BC
:10C1000056464D464446F0B4764B91B004AA944648
:10C1100001930E23634400930AA900230CAA08A8E4
:10C12000FFF758FE41B2002900D0D7E00C9803F089
:10C13000B9FDC221890503F0F9FA041C0D9803F03A
:10C14000B1FDC221890503F0F1FA80460E9803F093
:10C15000A9FDC221890503F0E9FA81460F9803F091
:10C16000A1FDC221890503F0E1FA211C051C201C58
:10C1700003F0DCFA4146071C404603F0D7FA494673
:10C180008246484603F0D2FA291C0290281C03F08C
:10C19000CDFA5146061C381C03F0DCFB029903F073
:10C1A000D9FB311C039602F081FF05F0B7FB049028
:10C1B0000591291C484603F0B9FA41468346201CE4
:10C1C00003F0B4FA011C584602F070FF05F0A6FB1C
:10C1D00002000B0003F0ECFD049A059B01F0F2FF56
:10C1E0000022414B04F034FD05F020FB3F4B291C9D
:10C1F0001880404603F09AFA49468346201C03F013
:10C2000095FA011C584603F0A5FB05F087FBC023F7
:10C2100000221B0604F01CFD01F072FF80268B46F5
:10C2200036065E440022304B310004F011FD05F06B
:10C23000FDFA2F4B51461880381C02F037FF029947
:10C2400003F088FB039903F085FB05F067FB06000C
:10C250000F004046494603F069FA291C8046201C1D
:10C2600003F064FA011C404602F020FF05F056FB83
:10C2700002000B0003F09CFD32003B0001F0A2FF26
:10C280000022194B04F0E4FC05F0D0FA7022194B9F
:10C29000188004ABDB891A420BD004AA118A164A13
:10C2A000118004AA518A154A118004AA918A144A5D
:10C2B00011801B070BD504AB1A8B124B1A8004ABF1
:10C2C0005A8B114B1A8004AB9A8B104B1A8011B009
:10C2D0003CBC90469946A246AB46F0BD0C4805F0E2
:10C2E000ADFBF4E71C260020005FC440802700203F
:10C2F00094270020142600201C2A0020BC2800209F
:10C30000562B0020B22800200026002060260020A6
:10C31000C83B020000B5194B89B000930F2306A952
:10C320006B44002204A8FEF733FF41B2002920D15C
:10C330006B467022DB7B1A420BD06A46118A104A88
:10C3400011806A46518A0F4A11806A46918A0E4AC4
:10C3500011801B070BD56B461A8B0C4B1A806B4652
:10C360005A8B0B4B1A806B469A8B0A4B1A8009B07A
:10C3700000BD094805F062FBF9E7C0461C26002015
:10C380001C2A0020BC280020562B0020B2280020A8
:10C390000026002060260020E83B0200A223A02205
:10C3A000DB00D205D35801209B0604D4024B187839
:10C3B000431E9841C0B270471C26002070B505008E
:10C3C00082B000200E00FEF7E9FD0100324805F0C2
:10C3D00035FB7820FEF742FD0100304805F02EFBCA
:10C3E0007820FEF7D3FC01002D4805F027FB002044
:10C3F000FFF75CF80120FFF761F8002D1FD16B46B5
:10C40000DC1D0122DD711A2123006820FDF7E6FB07
:10C410000100244805F012FBFA203100400102F02F
:10C420009DFC013820701921230001226820FDF7AE
:10C43000D5FB01001C4805F001FB02B070BDFFF701
:10C4400005FA0100194805F0F9FA1948FFF7C8FD87
:10C45000FFF70AFA0100174805F0F0FA7220FF30E2
:10C46000FFF772FB0100144805F0E8FA6420FFF7BB
:10C4700087FA0100114805F0E1FA0120FFF72CF9D5
:10C4800001000F4805F0DAFA0A20FEF78FFB0100E1
:10C490000C4805F0D3FAD0E70C3C0200243C020023
:10C4A0003C3C0200E43C0200FC3C0200543C020024
:10C4B0009C2000206C3C0200843C02009C3C02005A
:10C4C000B43C0200CC3C020010B50B0001000B484C
:10C4D00005F0B4FA8021A123A022FA20C900DB00D4
:10C4E000D205D150C000FBF7E7FEBFF34F8F044ADF
:10C4F000044BDA60BFF34F8FFEE7C046143D0200E5
:10C500000400FA0500ED00E080218023184A89022A
:10C51000D1508022D221174B520289005A50403903
:10C520005A5001222F205A600138C046C046C046EA
:10C53000C046C046C046C046C046C046C046C046CB
:10C54000C046F1D19A6000230B4A2F2013600138B6
:10C55000C046C046C046C046C046C046C046C046AB
:10C56000C046C046C046C046F1D1044A1370704769
:10C5700000E100E0001001406C2300208C2300202B
:10C58000A021F0B5002347462C4A490080B45350FF
:10C590000431535004315350043153504C395350EB
:10C5A00004315350264B1B68002B37D025490026F9
:10C5B00052582549254F0C68141B00222402240AD6
:10C5C000904602E0002D1AD02B001A68A24216D81D
:10C5D000A41AB6181A7CDD69002AF3D0424699697C
:10C5E0001A745A693B68002B1BD01000984700282A
:10C5F000E8D000220021FFF767FF002DE4D1144BA3
:10C6000014491A780B789A420ED0134A9B009E5018
:10C6100080218023114A49035B00D15004BC90461D
:10C62000F0BD08009047CDE70132D3B2022B01D014
:10C630000B70EAE700230B70E7E7C04600100140EB
:10C6400070230020040500006C23002074230020C8
:10C6500080230020812300208423002000E100E0CB
:10C66000F0B55F4656464D464446F0B4C54BC64A03
:10C670001B68C6498BB0059309781378994200D19D
:10C6800057E10133DBB2022B00D100231370C04A03
:10C690009B009B58BB4A9A46059B53441B021B0AAE
:10C6A000136001230193BB4B00241B689B46BA4BCC
:10C6B0005A461B78914619000393B84B88461B686D
:10C6C00047460493AF4B013F1B680793B44B1B785D
:10C6D000099300239C4606930893FBB2664698464E
:10C6E000FF2B32D04346D800049B9C461300604485
:10C6F0000178457800961A00A9421FD046684A0082
:10C70000B446521886780131D200C9B262448E42D2
:10C7100000D1EDE01678022E00D1C7E0032EEAD159
:10C72000002BE8D01C74DB69002BFBD1013345786A
:10C730000093002399461A00A942DFD14746013FE2
:10C74000FBB2009E9846FF2BCCD1089BC8460292B4
:10C75000B446002B00D0F0E0069B002B02D0894BA2
:10C76000079A1A606346002B02D04246894B1A6032
:10C77000019B002B00D02DE15B46029A00259B1AFD
:10C780005A1E9341DBB205937E4B00271B6802992A
:10C790009C46804B1B689B46814B1B78069300236D
:10C7A0000193804B994601230093039B013BDBB22D
:10C7B0000393FF2B00D1F9E0049ADB0092460E00B0
:10C7C0009A44002D28D06A68A9682C00ED69634658
:10C7D000D31A1B021B0A4B4552D86A4612785B18C3
:10C7E00023606760A7602274E761002E58D031682B
:10C7F0003000994205D3B9E01168994200D3A3E013
:10C800001000C2695B1A002AF6D1E261320023608F
:10C81000C4611600002DD6D153461A785B783100DA
:10C820009342C2D0514649685300884651469B18EE
:10C830000132D2B20A708978DB004344914200D1C0
:10C840009DE0197832000129E3D15C68227C904692
:10C85000414632000029DCD19A686260D968A16043
:10C860001869E0605B69A361069B002BAFD043466B
:10C87000002263606346D31A1B021B0A4B45ACD9E6
:10C8800063469A1A1202120A8A4264D28B1A6A46C4
:10C89000127823606760A7602274E761002EA6D13A
:10C8A00022000123A34601931600B3E75668002B2C
:10C8B00030D09E421ED0009A1F00944602E096425D
:10C8C00006D01700FA69002AF9D16246009212E7F1
:10C8D00065460095BA420FD01568D269FA61002A00
:10C8E00016D013689C466544156045784B4602E7B0
:10C8F00000210FE71A001F00DE69002E0CD0012571
:10C9000000951568D269B1463300FA61002AE8D172
:10C910004578F0E60023EEE60125234B9D60009567
:10C920000695002500230795013599460895099538
:10C93000D2E700239A460193B5E66A4624215218AD
:10C94000174B12781A7007E7C91A1160E261236069
:10C950003200C4615DE76B461B7827606760A760A3
:10C960002374E761002E9BD000233168CB1A33601B
:10C9700022000123E661A346019316004AE75246CE
:10C9800015705EE76C2300208023002081230020A7
:10C990008423002070230020782300207C230020A3
:10C9A00082230020FEFF7F0000100140019B002B2E
:10C9B00000D09DE0029B994236D1059B002B33D1DC
:10C9C0000023534A13700BB03CBC90469946A246D4
:10C9D000AB46F0BD4F4B002418680025029B002198
:10C9E0000026574615E01A68BA4200D984E0D86894
:10C9F000BF1A89181E60DC69002807D0DD611D00A0
:10CA0000059A986052181202120A5A6023002000F8
:10CA1000019C002BE7D1002C01D03E4B1860002375
:10CA2000029301330593AFE6002900D15DE00B6866
:10CA300039489846394B3A4DC4583A4B2E781B68C2
:10CA4000E11A0902090A0331002E2DD042468A421A
:10CA500000D20A00A820D21812022F49130AC000DF
:10CA60002E4D0B504A591B1B121B1202120A1B029D
:10CA700003321B0A9A42A3D94B590B502F2001387D
:10CA8000C046C046C046C046C046C046C046C04676
:10CA9000C046C046C046C046F1D180218023224A0C
:10CAA00089025B00D1508BE78026D1277602BF0038
:10CAB000C651403FC651C02280271B4EBF025200C4
:10CAC000B7503760012606602F200138C046C046A7
:10CAD000C046C046C046C046C046C046C046C04626
:10CAE000C046C046F1D12E70B0E7FFF70DFD67E7F5
:10CAF0005A46084B1A605DE7BA46002C01D005493A
:10CB000008605146521A1A600293012305933BE6CE
:10CB10008223002070230020001001400405000043
:10CB20008C2300206C23002000E100E0F8B54F4684
:10CB30004646C0B40326350080460F0014009946CF
:10CB400015400720002D03D00CBC90469946F8BD37
:10CB5000002A44D0FFF7D8FC4A46224B80201A60B6
:10CB60002200214B18321E70204B62601C607B003B
:10CB7000DB19DB00D218E260D318C0226361257094
:10CB80006570A77025726572A77225746574A774A5
:10CB9000C524FF21164B40031D60164B52001D702B
:10CBA000154BA4001D70154B98501A598A433F39F4
:10CBB0000A431A51A122186040461149D2008850F8
:10CBC000C42080001C580F4A2240C0242402224363
:10CBD0001A500D4B0020CA580C4B1A60B4E7034B97
:10CBE0001A60B1E774230020782300207C23002002
:10CBF00070230020802300208123002000E100E03A
:10CC000000100140FF00FFFF040500006C2300201E
:10CC100010B50B4B1B68002B0BD0002A07D0002847
:10CC200005D0036808201C7C002C04D010BD072010
:10CC3000FCE70820FAE759745A610020F6E7C0467D
:10CC40007C230020F0B5344B1C68002C06D0002853
:10CC500004D00723042903D81800F0BD0823FBE7FC
:10CC60004369002BFAD0437C012B44D000262B4B88
:10CC700010255B68DB05DB0D25D164196378A57889
:10CC80005F1CFFB2BD423AD02578BD4235D05D0071
:10CC9000ED186368ED009C4665440423002DDBD04D
:10CCA000033B2B7068601E4B1E48C358E960AB60A5
:10CCB000802180236A611C4A5B0049032E616770F2
:10CCC000D1500023C8E7103B5DB2002D19DBAD0841
:10CCD000C035154FAD00ED5903273B40DB00DD406B
:10CCE000AB093B40DBB20025012BC6D00835032B36
:10CCF000C3D00835C1E70E00B9E70423ACE700272D
:10CD0000C2E70F25094FDBB2BC461D40083DAD0808
:10CD1000AD0065446D68DFE77C23002000ED00E096
:10CD2000040500000010014000E100E018ED00E003
:10CD300010B52C4A03001168082000292AD0002BC6
:10CD400028D05A69002A25D000221A74264A0830B1
:10CD50005268D205D20D1ED109184A788878541C21
:10CD6000E4B2A04231D00878A0422CD05000821802
:10CD70004868D200844662440420002A0AD002385F
:10CD8000107053604C70802380210020174A4903A3
:10CD90005B00D15010BD103A50B2002817DB80085C
:10CDA000C030124C8000005903242240D200D040F1
:10CDB00082092240D2B20020012ACDD00830032AB5
:10CDC000CAD00830C8E70420E4E70024CBE70F20EE
:10CDD000074CD2B2A4461040083880088000604456
:10CDE0004068E1E77C23002000ED00E000E100E086
:10CDF00018ED00E0074B1A680823520701D4180009
:10CE00007047002804D0044B5B7803600023F6E7EA
:10CE10000E23F4E75C2400209023002071DF70478C
:10CE200072DF704779DF70477DDF704765DF7047DD
:10CE3000F0B55F4656464D464446F0B485B09A4636
:10CE40000EAB80CB06001B8800919B463B8801936C
:10CE50000388002B63D00023994602ABDD1C3B0006
:10CE600000241700984603E033880134A3422CDDE8
:10CE70007368A1009C460422614403A804F0D5FD18
:10CE80000022290003A8FFF7D1FF002829D12B7821
:10CE9000BB42E9D14B46002B2AD043461A88D3190E
:10CEA0005B453EDC5244290003A8FFF7BFFF002882
:10CEB00017D143462A781B880134D3184246138081
:10CEC000012399463388A342D2DC4B464746002BC8
:10CED00025D03B88019A013B9B1A9BB20C20FF2B6B
:10CEE0001AD905B03CBC90469946A246AB46F0BD67
:10CEF00043461B88DA1902325A4512DC4246013396
:10CF000069469BB2138052460978D15443461A8829
:10CF1000013292B21A80C5E71100524653540020E4
:10CF2000DFE70C20DDE7C046F0B55F4656464D46CC
:10CF300044460023F0B417881380436B87B0060083
:10CF40000D001400002B00D19CE1022F00D891E1CC
:10CF50001A7802230B701121238801339BB223809E
:10CF6000E954238801339BB22380EA542388013398
:10CF70009BB22380326B002A00D170E0190012317D
:10CF8000B94200D976E11121E954238801390133EE
:10CF90009BB22380E954238801339BB22380D17B49
:10CFA000E954238801339BB22380917BE954238881
:10CFB00001339BB22380517BE954238801339BB218
:10CFC0002380117BE954238801339BB22380D17ADB
:10CFD000E954238801339BB22380917AE954238852
:10CFE00001339BB22380517AE954238801339BB2E9
:10CFF0002380117AE954238801339BB22380D179AD
:10D00000E954238801339BB223809179E954238822
:10D0100001339BB223805179E954238801339BB2B9
:10D0200023801179E954238801339BB22380D1787E
:10D03000E954238801339BB223809178E9542388F3
:10D0400001339BB223805178E954238801339BB28A
:10D0500023801278EA54238801339BB223802E2246
:10D06000B25C002A00D00FE12D22B25C002A00D071
:10D070002CE1B278002A00D055E1F278002A14D0D1
:10D08000D91CB94200D9F5E00221E95423880139BD
:10D0900001339BB22380E954238801339BB2238060
:10D0A000EA54238801339BB223807268002A15D08A
:10D0B000D91CB94200D9DDE002211278E954238855
:10D0C000083101339BB22380E954238852B20133E3
:10D0D0009BB22380EA542388013323803389002BB9
:10D0E00000D09BE1338A002B00D0B1E1338B002BC1
:10D0F00000D0C7E1336A002B4BD022880C20911D51
:10D100009346B94200D9B6E0198805388A46052900
:10D1100000D8B0E0BB496A468C46D4446146D18110
:10D12000D1898C46B84988468C4500D8A3E05988F7
:10D130008C46052900D89EE0B2496144D18189B26C
:10D14000414500D897E0B1498A4504D08C4502D0CA
:10D15000E24500D98FE005215A46A95422880D31B5
:10D16000013292B22280A9542288013292B22280E6
:10D170001988AA181170090A51702288023292B2D5
:10D1800022805988AB181970090A59702388023314
:10D190002380736A9846002B30D09A882188131D0B
:10D1A0005B180C20BB4266D8931CFE2B63D803325D
:10D1B0006A54FF22238801339BB22380EA544246FB
:10D1C000238801339BB223801288EB181A70120A4D
:10D1D0005A704246238802339BB223809288002AE9
:10D1E0000CD0414689680538002944D0E81804F07D
:10D1F0001CFC434622889B88D31823802C23F35C95
:10D20000002B00D0B0E033780020002B33D03288E0
:10D210000720012A2FD02288901CB8422AD8012B3F
:10D2200004D1737802339B189F4223D3023FBA1A6A
:10D2300004AF93B22818390098463B80FFF7F4FDFD
:10D24000002818D13378022B00D141E1012B00D105
:10D25000DEE043460821FE2B0CD822885E1CAE542B
:10D260002288013292B22280A954228801329B186E
:10D27000238000E00C2007B03CBC90469946A246B3
:10D28000AB46F0BD002375E6D91C0C20B942F2D89C
:10D290000221E9542388103001339BB22380E854E3
:10D2A000238801339BB22380022A00D10BE100D8EE
:10D2B00004E1032A00D109E1042A00D0FCE00322A2
:10D2C000EA54238801339BB22380CDE609330C2036
:10D2D000BB42D0D804A8FFF7A1FD0028CBD108227B
:10D2E00023880921EA542388133201339BB2238017
:10D2F000EA5402AB9C462088153A013080B2208067
:10D300006144281804F091FB238802AA0633127A9C
:10D310009BB22380002A00D00122EA5423880133E3
:10D320009BB22380A5E604330C20BB42A3D804A8FB
:10D33000FFF778FD00289ED103222388EA54238832
:10D34000163201339BB22380EA54238802AA0133A8
:10D350009BB212892380EB181A70120A5A70238824
:10D3600002339BB2238088E6B36A9846002B00D133
:10D37000A2E09B880233FE2B00D97BE70022914676
:10D38000163292461632208893460CE04B46B26A1B
:10D390005B0090464B449B00984443469B88023375
:10D3A000FE2B00D966E7524601332B542388013304
:10D3B0009BB22380EA544246238801339BB22380E8
:10D3C0001288EB181A70120A5A70434620880230ED
:10D3D00080B220809A88002A0BD0996800296BD0EF
:10D3E000281804F022FB434620889B88C01880B28E
:10D3F00020804B460133DBB299465B46F35C4B45DC
:10D40000C4D800E77FF3FFFF7DF30000FFFF0000BB
:10D410007378984500D31DE743461BE708239846D9
:10D42000B044019700942B00022202214046FFF7EE
:10D43000FFFC002800D01EE7019700942B0010226B
:10D4400006214046FFF7F4FC002800D013E749E628
:10D4500010239846B044019700942B000222032128
:10D460004046FFF7E5FC002800D004E70197009450
:10D470002B00102207214046FFF7DAFC002800D0DD
:10D48000F9E633E618239846B044019700942B0040
:10D49000022214214046FFF7CBFC002800D0EAE628
:10D4A000019700942B00102215214046FFF7C0FC85
:10D4B000002800D0DFE61DE60720DCE6012AFBD1CC
:10D4C0000022EA54FDE60122EA54FAE6E954F8E6BD
:10D4D0003B880921984500D3BDE64346BAE6C046DD
:10D4E00030B593B01F236A460C009380D380002888
:10D4F00022D0C3785B071CD501AA02A9FFF714FD4F
:10D5000002AD002816D1002C19D0E378002B10D1E1
:10D510006B460AA99A1D2000FFF706FD002809D1D5
:10D520006B469B790AAA694628000979FFF778FCBF
:10D5300000E0072013B030BD90800025E3E76B4684
:10D540000022DC800023EEE773DF704770B59F4E4A
:10D5500086B0072200213000FAF75AFE9C4C63780F
:10D56000002B6ED09B4D2B78012B05D0A278002A82
:10D5700000D1EFE0022B0FD1974A1268002A00D1A8
:10D58000FDE00121954B0820197090472B78012B65
:10D5900000D1F7E0022B5FD0227B002A01D1032BC0
:10D5A0007AD0227E002A02D1042B00D107E18A4AD8
:10D5B0001268002A02D0033B012B77D90022884B46
:10D5C0001A70182200216846FAF722FE00236A46E4
:10D5D000137013722A7801930393022A00D18BE00F
:10D5E00072D9032A00D194E0042A22D16B46A28B7F
:10D5F0001A82228C5A827B4B1A79002A00D1B6E01B
:10D600002278002A00D1B6E0774A1278002A00D0AA
:10D61000B1E0694603930423023274480A72002180
:10D62000C370FFF75DFF002864D10622704B1A70AB
:10D630002A78002A51D1684B1B68002B56D1002054
:10D6400058E0A378634D002BA0D02B78022B93D009
:10D65000012BA1D102232B70A378002B17D0737854
:10D66000002B00D0B0E0B378002B00D0ACE0F37812
:10D67000002B00D0A8E03379002B00D0A4E0737910
:10D68000002B00D0A0E0B379002B00D09CE0032356
:10D690002B70237B002B61D104232B70237E002B66
:10D6A00000D18CE04C4B1A68002A87D02378002BDD
:10D6B00084D04D4B1B78002B00D07FE70121484BD5
:10D6C0000720197090477CE7012AB2D169464B8246
:10D6D0000B82474B01960A701A706846FFF734FFB9
:10D6E000002807D13C4B1B68002BA8D0404A10787B
:10D6F0009847002006B070BD012369460B706B4649
:10D70000218901965982694663680B82384B1A70E9
:10D71000E3E76B46A28A5A82228A1A82314B1A792F
:10D72000002A1DD02278002A1DD02F4A1278002A04
:10D7300019D169460393042302322C480A7200214E
:10D74000C370FFF7CDFE0028D4D10522284B1A70F4
:10D750002A786EE7022B00D01EE798E7032326E71E
:10D760001A7B002ADED10322214B1A70B5E71A7BFF
:10D77000002A00D044E704221D4B1A70ADE7174978
:10D780000A7004E76278002A00D163E77278002A01
:10D7900000D00CE7B278002A00D008E7F278002A1F
:10D7A00000D004E73279002A00D000E77279002A1D
:10D7B00000D0FCE6B279002A00D14BE7F7E600235F
:10D7C0000B4A2B701370F9E60223F0E6D0240020F8
:10D7D000D824002070250020A424002071250020DA
:10D7E0004F25002020250020CB240020602400208D
:10D7F00084250020F8B504000E000E20002C00D176
:10D800007BE0002A79D000203C4908703C490B603D
:10D8100006993C4B19603C490B0023CA23C323CA19
:10D8200023C323CA23C3072200213848FAF7F0FC98
:10D83000374B384A384D1A60384A00219A60280020
:10D840003822FAF7E5FC237822002B70A3781032F7
:10D85000AB70E378EB7063786B702B00103303CA06
:10D8600003C32B00103A083303CA03C32B0008324A
:10D87000183303CA03C3636A002B11D0284B294F06
:10D880006B62616A9F600A881A8088889880002885
:10D8900006D000238A68D25CFA5401338342F9D15E
:10D8A000A36A002B14D0204B204FAB62A06A9F606C
:10D8B0008188998002881A800023002905D0826817
:10D8C000D25CFA5401338B42F9D12C23E25CEA5446
:10D8D000236A002B06D0164B2B62226A518859808E
:10D8E00012881A806368002B03D0124B6B60636848
:10D8F0006B6031002800FFF7F3FDF8BD70250020B4
:10D90000A4240020CC240020D8240020D0240020EF
:10D9100020250020FC240020602400205025002029
:10D9200098240020AC2400207825002030250020F9
:10D93000742500201C25002010B500240B4B82B05C
:10D94000187001A80194FFF755FA082809D000289B
:10D9500005D1019B002B05D00122054B1A7002B0A6
:10D9600010BD0194FFF7F2FDF9E7C04670250020D5
:10D97000A824002030B5038883B0112B1ED0192BAA
:10D9800007D0102B01D003B030BD82882D4B1A80F8
:10D99000F9E78479002CF6D12B4B1D78022D4ED05F
:10D9A00038D9032D23D0042DEDD1284B1C70284BE2
:10D9B0001B68002BE7D000209847E4E70024254BA4
:10D9C0001C70204B82881B889A42DCD101251E4B9B
:10D9D00001A81D700194FFF70DFA082824D0002833
:10D9E00027D1019B002B20D01B4B1D70CBE7174A82
:10D9F0001570042201A81A700194FFF7FBF908289A
:10DA000012D0002815D1019B002B0ED00122124B01
:10DA10001A70B8E7012DB6D1022201A81A7001943C
:10DA2000FFF7E8F90828DAD10194FFF78FFD002805
:10DA3000A9D00A4B1B68002BA5D09847A3E7032267
:10DA4000D8E7C046A62000207025002084250020AD
:10DA5000A4240020CB240020A8240020CC240020D3
:10DA600075DF704776DF70477ADF70477BDF70477E
:10DA700010B5184B82B01888174B984214D0174A2B
:10DA8000174C13780133DBB21370217B99420DD20E
:10DA900000231370237C002B12D16369002B03D069
:10DAA000002201A80270984702B010BD0D49FFF78F
:10DAB000D7FF0028F8D0A369002BF5D09847F3E7EB
:10DAC0003B21FFF7CFFF0028E7D0A369002BE4D06C
:10DAD0009847E2E7D0250020FFFF000090250020B6
