:020000021000EC
:1080000000400020EDCB010035CC010037CC010051
:108010000000000000000000000000000000000060
:1080200000000000000000000000000039CC01004A
:1080300000000000000000003BCC01003DCC01002E
:108040003FCC01003FCC0100118A0100C18D01002D
:108050003FCC0100000000003FCC0100CD8E0100AC
:108060003FCC0100D58601001D8601003FCC0100F8
:108070003FCC01003FCC01003FCC01003FCC0100D0
:108080003FCC0100C9B001003FCC01003FCC010052
:10809000A9B1010045920100B9CB01003FCC01001C
:1080A0003FCC01003FCC01000000000000000000B8
:1080B00000000000000000000000000000000000C0
:1080C00010B5064C2378002B07D1054B002B02D0AE
:1080D000044800E000BF0123237010BDB42000203D
:1080E00000000000C4290200084B10B5002B03D08B
:1080F0000749084800E000BF07480368002B00D18B
:1081000010BD064B002BFBD09847F9E7000000009C
:10811000B8200020C4290200B42000200000000084
:10812000164B002B00D1144B9D46402292029A1A06
:10813000924600218B460F461348144A121A00F04B
:1081400067F80F4B002B00D098470E4B002B00D048
:1081500098470020002104000D000D48002802D09F
:108160000C4800E000BF00F02DF82000290000F0CE
:10817000C1F800F011F8C0460000080000400020DF
:108180000000000000000000B4200020782F002034
:108190000000000000000000084B10B50400002B98
:1081A00002D0002100E000BF054B1868836A002B55
:1081B00000D09847200000F033F8C04600000000CF
:1081C0004C1802000E4B70B500251E000D4CE41A31
:1081D000A410A54204D0AB00F35898470135F8E746
:1081E00009F026FB084B00251E00084CE41AA410D9
:1081F000A54204D0AB00F35898470135F8E770BDAD
:10820000AC200020AC200020AC200020B0200020BA
:1082100003008218934202D019700133FAE77047C5
:10822000FEE7C0461D4B1B78012B00D070471C4B4E
:108230001B681B07FAD1F0221A4B1B68134018D198
:10824000194B1B6813421CD0154B1B681B07EDD143
:10825000F022144B1B681340402BE7D1124B1B68D4
:108260001342E3D1C12380220121DB00D205D1508A
:10827000DCE7102B01D0302BEAD10B4B1B681342EB
:10828000E6D10A4A0A4B1A6080220A4B12021A608F
:10829000024B1B78012BD7D0C8E7C046E00F00F097
:1082A000E40F00F0E80F00F0EC0F00F0DFFF07C074
:1082B00004050040186C004082B00190019B002B27
:1082C00014D0019B0A48013B01930138C046C046C7
:1082D000C046C046C046C046C046C046C046C0466E
:1082E000C046C046F1D1019B002BEAD102B07047D5
:1082F000E7030000F0B556464D4644465F46F0B4ED
:1083000085B000F0F5FB00F03DF900F055FA00F003
:10831000EFFD00F08DFD6421012002F0F3FD00F07F
:10832000DFFE01F099F800F095FF0023344AA02603
:108330001370344A80251380334A00271380334A50
:1083400002AC1380324AF6051380324BED059A4693
:10835000002352461370304B9946304B984621E02B
:1083600000F01EFA002815D07B1C142138009B4613
:1083700005F0F4FA002906D14346F3582B423CD1CC
:10838000A123DB00F55000F095FD5F4600F0CEFD27
:1083900000F00CFA02F0A6FD002818D153461B7815
:1083A000002B1CD14B4642469B5A002BD8D0494645
:1083B000200000F045FC0423032202212078E3562C
:1083C000A25661560090164808F0FAF8C8E702F085
:1083D0007DFC00F02FF853461B78002BE2D01148AB
:1083E00008F0EEF86420FFF767FFBFF34F8F0E4AE7
:1083F0000E4BDA60BFF34F8FFEE70D4BF550C2E72F
:10840000142C0020382E0020402E0020422E002068
:108410000C2C0020562F002000270020040500000F
:1084200050180200641802000400FA0500ED00E094
:108430000C050000F0B5474680B44B4B1B78022B6F
:1084400010D00022002000210024484BDA809A80BE
:108450005A801A80464B1C8059809A80D88004BC70
:108460009046F0BD434E0023F05E06F01FFA424BEB
:10847000041C0020185E06F019FA011C201C06F0EE
:108480006DF83E4C051C0023E05E06F00FFA011C5F
:10849000281C06F063F808F003F804F03BFC07F032
:1084A000C9FF324D28800023F05E06F0FFF9344FFB
:1084B00080460023F85E06F0F9F9011C404606F0FC
:1084C0004DF880460023E05E06F0F0F9011C4046BE
:1084D00005F0F0FB07F0E4FF04F01CFC07F0AAFF36
:1084E00068800023F05E06F0E1F980460023F85E24
:1084F00006F0DCF9011C404605F0DCFB8046002359
:10850000E05E06F0D3F9011C404606F027F807F0BC
:10851000C7FF04F0FFFB07F08DFFA8800023F05E8B
:1085200006F0C4F9061C0023F85E06F0BFF9011C32
:10853000301C05F0BFFB061C0023E05E06F0B6F918
:10854000011C301C05F0B6FB07F0AAFF04F0E2FBAB
:1085500007F070FF00B2E8800023EC5E0223E95EC2
:108560000423EA5E76E7C046142C00204C2F00203E
:10857000302E00200C2C0020402E0020382E002011
:10858000422E0020A222194B1949D20099501949B4
:10859000194A802099501949043299501849194AAA
:1085A000C0039950A023EB210322DB05C9005A50D8
:1085B00008315A5010315A5008315A50A121C9007F
:1085C000585080204004585080204005585080204A
:1085D000C00558500C495A5004315A5028395A5045
:1085E00008395A500021094A9950704700600040EC
:1085F00003151300031713001405000003191300DB
:10860000031D13001C0500004C07000014070000A8
:108610000122014B1A7070475C2F0020A622274BC5
:1086200052009958002931D00021995024490A68F4
:108630003932FF320A6001229A64224A1278002AF3
:1086400024D1A922D2009A58F423FF339A421DD88C
:108650001D4B0422995E1D4A914218DDFA22FA2030
:1086600092009A800622995E184AC00091421BDC53
:108670000A1C00291DDBFA2112B289005118DA8088
:10868000A8220E4BD2009850114A995070470A1CEC
:10869000002910DBFA2112B2890050189A800622B4
:1086A000995E0A4A9142E3DDFA21FA22C90092005A
:1086B000E5E70022DFE70022ECE7C04600A000402B
:1086C000582F00202C2E0020302E0020E703000021
:1086D00044050000A622254B5200995800292DD0B0
:1086E000002199504C3AFF3A9A64214A1278002AA4
:1086F00024D1A922D2009A58F423FF339A421DD8DC
:108700001C4B0022995E1C4A914218DDFA22FA2085
:1087100092001A800222995E174AC00091421BDC27
:108720000A1C00291DDBFA2112B2890051185A8057
:10873000A8220E4BD2009850104A995070470A1C3C
:10874000002910DBFA2112B2890050181A80022287
:10875000995E094A9142E3DDFA21FA22C9009200AA
:10876000E5E70022DFE70022ECE7C046009000408A
:108770002C2E0020302E0020E703000044050000CE
:108780000122054B9A64A922D2009858034BC008D5
:108790001B68C0187047C04600A00040582F00203A
:1087A000014B18787047C0465C2F00200022014B17
:1087B0001A7070475C2F0020F8B55F4656464D464C
:1087C00044460023504AF0B41360504AA226137066
:1087D000C1239B009A4680231B039B4601215346DD
:1087E0005846A8254A4AF6009151D0504948E433EA
:1087F000ED0053519C461350474B48488027135077
:108800009946082350465C46BF00D3519846444BD6
:10881000D16099511C5060463E4C58511851484601
:108820003E4C18514046D851D9601160C0225200C8
:1088300094468022D2009046196062464146394BE8
:10884000043C9950F8395A5891464846364A0240F5
:10885000C020000402435A5042461A6062469F50AC
:108860005A5894466046314A0240C02000020243F2
:108870005A501F602E4A2F4B2F499A512F4A0836C3
:108880005A502F49234899512E4E9A51A4222E4EC8
:10889000D2009E502D4A2E4E9A51043699512D49A0
:1088A00010365A50A6222C49D20099502B4A2C49F6
:1088B0005A502C4999512C4E9A512C4A5A512C4AB3
:1088C0001A501951154900205A50FF21294A995030
:1088D0000023294AFA3902F0CDFE002803D00022F5
:1088E000002102F095FB254A0121254802F034FFC2
:1088F00000222449244802F049FF3CBC9046994696
:10890000A246AB46F8BDC046582F00205C2F002081
:1089100000A0004044050000C40900004C05000010
:108920000090004000E100E0FFFF00FFFF00FFFFBC
:108930004091004000F0014014050000006000403C
:108940004C9100401C050000449100400460004030
:10895000240500002C05000040A1004008600040F4
:10896000340500004CA100403C05000044A100403B
:108970000C60004004050000D0200020118601009A
:10898000741802006606000098220020F0B55F46C9
:1089900056464D464446F0B483B00192002A24DD89
:1089A000802399467C3B9246984600230C008A44DB
:1089B000124E134D04279B4609E05B46114A337063
:1089C000114B0134D15043462B6054450DD04B46DA
:1089D0002178EF503378002BEFD10C4800F0F6F8F7
:1089E000434601342B605445F1D1019803B03CBC9F
:1089F00090469946A246AB46F0BDC0466420002092
:108A000000E100E0002000401C050000182C0020C0
:108A1000842230B52D4B5200995883B000290BD0D9
:108A200000249C50A322D2009B58DBB2FF2B47D0DE
:108A3000274D2A78002A1FD18E23244C5B00E25850
:108A4000002A09D000222348E250183BC35A002BC9
:108A500031D10122204B1A7092221C4B520099589E
:108A6000002907D0002199509022D20099581B4824
:108A700007F0A6FD03B030BD194881180132013955
:108A8000D2B20B702A70062AD6D16A4603781370C8
:108A90004378537083789370C378D37003790099C7
:108AA0001371019A0F4800F0AFF80F4A2C70138829
:108AB00001331380C0E700F097F80C4BE050CBE790
:108AC000034A137801331370B6E7C0460020004014
:108AD000BA220020182C0020642000207818020000
:108AE000602F002000270020B82200201C05000075
:108AF00010B5204800F052F81F4800F059F81F4800
:108B000000F04CF8A023E7220321DB05D2009950A6
:108B1000E82100220E20C9005A50194B194958501B
:108B2000194902305850194819495850A0200421B9
:108B3000C0001950842040001A5014301A500132DD
:108B40009A601A60C2221E38FF3892009850A12005
:108B5000043A80009850C0230E4A5B00D1507C300C
:108B600014580D4B2340C024240423431350116098
:108B700010BDC046F825002000270020182C00203A
:108B8000002000400C0500001405000000E0D701A3
:108B90002405000000E100E0FFFF00FF8022002329
:108BA000FF215200835202328152023283527047B7
:108BB000A0220023FF21D2008352024A8152024A9E
:108BC000835270470205000004050000812210B5A1
:108BD000FF245200835A013323408352C15402328E
:108BE000835A0133835210BD802110B5FF24020047
:108BF0004900435AC05C0133234053520431535A55
:108C0000013B535210BDC04610B582B00192FF2205
:108C10000400094B0091C05A694601301040E052EF
:108C2000830018182018FA3A07F0C1FC034AA35A27
:108C30000133A35202B010BD02050000040500007C
:108C4000F0B5A0244746E4000A5B80B493009B186B
:108C5000CB181D780127AC4602260325DF579E5707
:108C60005D571B7901325BB29846FF231A400A53C5
:108C7000064A8B5A4770013B8B526346037043464A
:108C80008670C570037104BC9046F0BD04050000F9
:108C9000F0B557464E4645468446E0B489469A4666
:108CA0000120002A3BD0B12300276146244E254DE8
:108CB000254CDB002F702770F1504946234BF150B3
:108CC000802189007750B06029780029FCD00021EC
:108CD0002970012A2ED0802101251948890045508C
:108CE0000121174889460160802189008846FF39A3
:108CF000A325FF39534600268C46ED002178002934
:108D0000FCD026704159013AD2B21970012A0BD019
:108D100049460162002A01D00133EFE700201CBC64
:108D200090469946A246F0BD4146674601334750FA
:108D30000262E3E780210225014889004550CFE720
:108D400000300040BB220020BC2200201C05000097
:108D5000F0B5474680B407000120002A27D000253F
:108D6000B126A846134CF6002570134DAF5180274D
:108D70004646BF00EE51114EA951A8602178002946
:108D8000FCD000210020013A2170D1B201310A4EFD
:108D90000A4D59181A7872512278002AFCD00133F2
:108DA00020708B42F6D101220020034B5A6104BC93
:108DB0009046F0BDBB220020003000401C050000A2
:108DC000F8B58423154A5B00D158002904D000214E
:108DD000D1500122124B1A708E23104A5B00D158D9
:108DE000002904D00021D15001220E4B1A70922587
:108DF0000A4C6D006359002B0FD00B4EA759FFF79B
:108E0000BFFCB123DB000200E3583900074807F03C
:108E1000D7FB0323A35100236351F8BD003000406A
:108E2000BC220020BB220020C40400008C180200D9
:108E3000A023E2211A4ADB05C90010B55A500839AF
:108E40005A500421174B053AFF3A9950164A0239F5
:108E500099500022CD200731FF315A5014315A5019
:108E60001249C0045850A120C121800089005850E7
:108E70000539FF395A50A022FC39FF39D2009950E8
:108E8000C023C0240A4A03315B00D1507C30135800
:108E900024061B021B0A23431350116010BDC04659
:108EA0000C060000003000400C0500002405000006
:108EB00000E100E08022044BD2009A58002A01D140
:108EC00001321A607047C0460070004080220021C5
:108ED000054B52009950A122D2009A58D3009B1AF8
:108EE000024A13807047C04600700040222D0020C7
:108EF0000A4B0B490B4AC0209950A0210122C900FE
:108F00005A50FD39FF395A50074A000653581B0280
:108F10001B0A0343535080231360704700700040C6
:108F2000041000000405000000E100E0F0B5474631
:108F300080B4604C82B02578012D32D0002D1CD039
:108F4000022D07D1FFF71CFC5B4B1B68C01A5B4B63
:108F5000984250D832200138C046C046C046C0466C
:108F6000C046C046C046C046C046C046C046C046D1
:108F7000F1D102B004BC9046F0BDB1227721504B34
:108F8000D200995080227539920099504D4A46314D
:108F9000995001229A602270FFF7F2FB464B18604D
:108FA000D8E7FFF7EDFB444E3368C01A434B9842B5
:108FB000D0D9454F03223B0000217720FFF768FE00
:108FC0003B7877211A047B7858201B021343BA7828
:108FD00013433E4A1360B122394BD200995002220A
:108FE0008A31FF315A50374958509D602270FFF73F
:108FF000C7FB3060AEE7344D03222B000021772001
:10900000FFF746FE2B7800211A046B781B021343EE
:10901000AA782F4D13432F4A13606A8928891202B8
:109020009B1A98461A00002304F000FE4E06CB114E
:109030000021C2093243AE88300412184B4100921D
:1090400001930021E8884246002304F0EFFD0E065C
:10905000020A32436E880B12F003002116001F0033
:10906000424636184F410023A889002104F0DEFD56
:10907000FA23DB009C464902C00D0843164B6044AE
:109080001860124B3200186800213B0004F0CEFD3E
:10909000CD02420D4B152A4300980199121A8B41BB
:1090A00011005B04CA0B1A430C4B1A600023237097
:1090B00050E7C046BD220020D82200200F27000024
:1090C000003000401C050000D4220020702F00203A
:1090D000C02200206C2F0020082C0020102C002023
:1090E00070B5A024094E0A4D2B00022221007720E2
:1090F000FFF7CEFD2B786A781B0202341343E4B2EB
:1091000033800236B02CEFD170BDC046C0220020A3
:10911000D022002076DF70477ADF70477CDF70470F
:109120007FDF7047A9DF704760DF70472EDF704731
:1091300032DF704733DF70474CDF70478021A02259
:1091400010B5044B4904D205D1500022002101F092
:109150005FFF10BD0C050000F8B50E00151E08D00D
:109160000024044F315D38000134FFF72FFDAC427D
:10917000F8D3F8BD242D002010B5040003F0D8FA70
:1091800021001F4803F030FB2388112B2BD01ED960
:10919000132B0ED0522B08D11A4B00221888002115
:1091A0000023FFF7BFFF00280CD1200003F086F951
:1091B00010BD144B0022188885210023FFF7B0FF53
:1091C0000028F2D00022002101F022FFEDE7102B51
:1091D000EBD18021A0220C4BD2054905D150A288A9
:1091E000084B1A80E1E78021A123A022DB00D205F1
:1091F0004905D1500122034B52421A80D5E7C0469F
:10920000242300206C2000200C05000010B50378FA
:10921000002B00D010BD8021A022084BC903D2052D
:10922000D150074B3B211888FFF774FF0028F1D07D
:109230000022002101F0ECFEECE7C0460C05000026
:109240006C2000200123024A11784B4013707047B4
:109250002C2E0020F0B57248A9B0FFF79FFC714892
:10926000FFF79CFC002348226F49082003F074FCA0
:10927000002800D0CEE01AAC082200212000FEF722
:10928000C7FF01222378200093432370FFF74CFF90
:10929000002800D0B9E0654803F084FC002803D022
:1092A0000022002101F0B4FE0022614B15201A704B
:1092B000FFF73EFF01211520FFF73CFF1520FFF7C8
:1092C00035FF02210320FFF737FF0F21012203AEF4
:1092D000337820008B43134310220B401343337029
:1092E000D023544A5449D358FF221340534A07F01D
:1092F00081F9200007F0A0F9210082B23000FFF7C9
:109300000DFF002800D07BE00CAD082200212800D2
:10931000FEF77EFF06232B8006336B800023AB8095
:109320009133FF332800EB80FFF7F6FE002803D0CF
:109330000022002101F06CFE002104222000FEF733
:1093400067FF3F4B21003F481A9303F07DFA002846
:1093500003D00022002101F05BFE3822002128000A
:10936000FEF756FF022300272B703822043300211A
:109370002000EB70AF70FEF74BFF01232382324BCE
:109380002422002130006361FEF742FF0123337382
:10939000402332003361210000970023280002F0AF
:1093A000CDFF002803D00022002101F031FE1C2255
:1093B00000212000FEF72CFF244A00236260F022E7
:1093C0001203A26005221A93E38101332374204B18
:1093D000200063611F4B2273A36103F06DF9002825
:1093E00003D00022002101F013FE032003F048F80F
:1093F000002803D00022002101F00AFE29B0F0BDB0
:109400000022002101F004FE7EE70022002101F08D
:10941000FFFD40E70022002101F0FAFD2BE7C046E6
:10942000242D0020442E0020DC2200207991010010
:109430002C2E002000100010D0180200C4180200CA
:10944000599101002423002068200020CD0C000049
:109450000D9201003D910100F0B55F4656464D4624
:109460004446F0B489B006AD062200212800FEF77C
:10947000CFFE40236B70353BAB70023BEB70093382
:109480002B71013B6B71784B2900981D06229A467F
:1094900007F08DF8AB78032298464146A0230020C0
:1094A000C131FF31DB058900CA50E978844689461D
:1094B000C131FF318900CA50297944468B46C131F8
:1094C000FF318900C8506F79A12039004E46C13163
:1094D000FF318900CA506549C0000C50644C0E51E0
:1094E0005E46A04604340E5101263400BC401C5098
:1094F0006F78604C3F060F512F785F4D64464F5197
:109500008427543D7F00CC514E51E025ED005A5147
:109510005A4D5A51802292011E501A505246584DAF
:109520002960D27A964042469E505022554BCC51EB
:10953000CA508422C8594D4B52000028F9D0A321AB
:10954000C9005958A0200191A121C005C900465069
:1095500001990127013101914549465000204949AF
:1095600098505F5058508427995840487F000029F0
:10957000F9D00023C351A323DB00C35802938421F5
:10958000C3593A4A4900002BF9D0A323DB00D35832
:10959000A0200293A123C005DB00C650029B01332B
:1095A0000293334BC650002306205350354BD05006
:1095B000842753582D487F00002BF9D0A323DB00CC
:1095C000C358A0220393A123D205DB00D650039BEE
:1095D00001330393264BD65000236022C351294BFD
:1095E000C250224B984684235B009946C359002BF6
:1095F000F7D0A3234246DB00D358A0270493A1232E
:10960000FF05DB00FE50049B642001330493FEF74A
:1096100053FE43462B6053460121DB7A4246994074
:10962000134B4846F9500023135006224046154B71
:10963000C25043464A4698580028FCD0A3230B4A00
:10964000DB00D358A0220593A1230120DB00D20523
:10965000D150059B0133059309B03CBC9046994617
:10966000A246AB46F0BDC04640230020004000406B
:109670000C0500002405000054050000340700001C
:109680004C2300201C05000030B5554C83B0A37A54
:10969000002B00D197E06B46DD1D00232B70236863
:1096A0000122597C636818782B00FFF751FB0028D2
:1096B00000D088E0236801225979636818782B006C
:1096C000FFF746FB002800D07DE0236801221979CE
:1096D000636818782B00FFF73BFB002800D072E08E
:1096E0002423E35C002B36D00C232B70236801224B
:1096F0001979636818782B00FFF72AFB002862D1DC
:109700003230FEF7D9FDC0232B70A37ADB0762D479
:10971000236801221979636818782B00FFF718FB7A
:10972000002850D1637C002B58D12B702368012274
:10973000597C636818782B00FFF70AFB002842D198
:109740002368287059796368012218782B00FFF785
:10975000FFFA404235E004232B7023680122197977
:10976000636818782B00FFF7F3FA00282BD1A27C4E
:109770004023002A2AD02B702368012219796368BC
:1097800018782B00FFF7E4FA00281CD13230FEF7DE
:1097900093FD637C5A1E93412B7023680122597CF0
:1097A000636818782B00FFF7D3FA00280BD1230049
:1097B000226810335179626810780122FFF7C8FAE5
:1097C000404203B030BD01204042FAE7A27AD207FE
:1097D000D1D52033CFE7E0232B7099E70223A4E70C
:1097E0007020002070B5060082B0282800D9BBE0A8
:1097F0002323694C01ADE35C00282CD1002B18D049
:109800002870A27C8023002A02D07E3B2B708033FC
:109810002222A25C002A00D08AE023680122D97D9E
:10982000636818782B00FFF793FA002801D12323EF
:10983000E05400232B7007336B7023680222597D9C
:10984000636818782B00FFF783FA002800D08BE0BC
:10985000207502B070BD012B19D030232B70A27C73
:109860008033002A02D07E3B2B7080332222A25C00
:10987000002A5BD123680122D97D636818782B0008
:10988000FFF766FA002802D101222323E2542023A5
:109890002B70012E6BD0052E59D9142E4AD90323D3
:1098A0006B70A37A002B6FD004236A46D370E37ADF
:1098B000042B69D0236801229978636818786B4675
:1098C0000333FFF745FA002860D16B460722DB78A7
:1098D000E3726B789B011343DBB26B702368022247
:1098E000597D636818782B00FFF732FA00283BD1C6
:1098F00008230122A372207322751C33E35C002B22
:1099000012D12374637C002B0ED16B46DA7023686E
:10991000597C636818786B460333FFF719FA0028FF
:1099200002D16B46DB786374002092E72B70A1E7CD
:109930002B7072E702236B70A37A002B05D00523EE
:109940006A46D370E37A052BB4D18723C5E7012398
:109950006B70A37A002B05D006236A46D370E37A96
:10996000062BA7D14723B8E70120404271E7002327
:109970006B70A37A002B05D006236A46D370E37A76
:10998000062B97D10723A8E7C723A6E76B789A0190
:1099900007231343DBB2A0E77020002010B5114A63
:1099A0000100537A012B19D0002B13D0022B0AD0BF
:1099B000032B0CD1102320240370D37C0020002B18
:1099C00000D00C7010BD082310240370F5E70120AF
:1099D0004042F7E7022304240370EEE7042308243F
:1099E0000370EAE77020002070B51C4C82B0A37AA7
:1099F000002B27D06B46DD1DBB2816D8612817D950
:109A000002232B70E27A00269A420BD023680122AF
:109A10009978636818782B00FFF79AF9002811D11C
:109A20002B78E372300002B070BD01232B70E9E7A0
:109A3000292804D8132808D904232B70E2E703232C
:109A40002B70DFE701267642ECE7092802D90523CF
:109A50002B70D7E706232B70D4E7C0467020002078
:109A600070B5584C82B0A37A0600002B00D196E066
:109A70002423E35C002B00D091E0227D002A30D02B
:109A8000421E272A00D885E02322A25C01AD002ACD
:109A900018D02B70A37C8022002B02D0022302322C
:109AA0002B702223E35C002B00D071E0236801229D
:109AB000D97D636818782B00FFF74AF9002801D197
:109AC0002323E05400232B7007336B70236802229A
:109AD000597D636818782B00FFF73AF9002800D108
:109AE0002075F920032E31D86B46D87023680122E7
:109AF0005978636818786B460333FFF729F9002813
:109B00004DD16B46FA20D9788000013103F02AFF4D
:109B1000A37A80B2E0814008002B14D001ADBB28AD
:109B200021D9012301222B70E37A93420BD02368C1
:109B300001229978636818782B00FFF709F900284B
:109B400001D12B78E372002002B070BDFA23311CE2
:109B50009B009E420FD8FA2089B2800003F002FFDA
:109B60000138C0B2C0E761280ED829281AD90323CA
:109B700003222B70D8E7FA20191C89B2800003F069
:109B8000F1FE0138C0B2AFE7022302222B70CBE70F
:109B90002A708BE7C0B2FFF725FE0020D4E7012032
:109BA0004042D1E7132805D8092807D90523052203
:109BB0002B70B9E7042304222B70B5E70623062295
:109BC0002B70B1E770200020F0B54746242380B405
:109BD000304D82B0EB5C0024002B2BD1AC7A002CF2
:109BE00054D00133984304402F7C2C74041B621E14
:109BF000944106006442002821D12A7D002A30D0F9
:109C00006A7C002A16D107326A4413702B6890468A
:109C1000597C6B68187813000122FFF799F8002827
:109C200008D143461B786B74002E03D0FFF72CFD40
:109C3000002827D1200002B004BC9046F0BD6A7C09
:109C4000002AF3D107226A4413702B689046597C8E
:109C50006B68187813000122FFF77AF80028E0D02B
:109C6000E4E76B46DA712B680122597C6B6818783F
:109C70006B460733FFF76CF80028DBD16B46DB79C6
:109C80006B74D7E701242F746442D3E70124644244
:109C9000D0E7C04670200020F0B54F4646467023FE
:109CA000C0B4050083B0034069D06B469E1D0123FC
:109CB0003370484C01222368597D6368187833005B
:109CC000FFF746F8002800D07EE04022337830705D
:109CD000934323732A4266D03A208446373881461C
:109CE00001383823392201213B278046A80604D4B5
:109CF00043463A00337049466346E80601D41300F0
:109D000031702A0700D4337023680122997D63687B
:109D100018783300FFF71CF8002855D108232A00D3
:109D20009A4320D02323E35C002B1CD06B46D871D0
:109D3000A37C8022002B03D06A460223D3718222A7
:109D40002223E35C002B01D06B46DA7123680122E9
:109D5000D97D636818786B460733FEF7F9FF002852
:109D600001D12323E05400233220A5722375FEF78E
:109D7000A3FA002003B00CBC90469946F0BD002821
:109D80001ED16B464027134C9E1D23683770597DAA
:109D90006368012218783300FEF7DAFF002813D138
:109DA0003378BB4323733E200423844637388146EF
:109DB000013833703D22383305213F27804695E72F
:109DC0006A46961D337074E700230120A372404257
:109DD000D0E7C04670200020802370B5774C84B057
:109DE00002AD2B7023680122597D636818782B001F
:109DF000FEF7AEFF061E00D0C2E06420FEF75CFA5C
:109E000023682E70597D6368012218782B00FEF7B5
:109E10009FFF002800D0B3E070232B70236801223D
:109E2000D97E636818782B00FEF792FF002800D0D7
:109E3000B5E023680622597E636818782B00FEF788
:109E400027FF002800D09BE004216B7901269B00AE
:109E500019400223EA78520013406A780B433240DB
:109E6000134300D182E0D9B2012B03D0022900D0E4
:109E700098E00023E37400232B7023680122D97E2D
:109E8000636818782B00FEF763FF051E00D086E09C
:109E90000122FF235242A37223726372E372E281B2
:109EA0002274A3742332FE3BA35423732233E05461
:109EB000607520752000163A16300021FEF7A8F9CB
:109EC0002423E5540133E554A37AE584002B57D0CD
:109ED0006B46DD1D18232B70237A032B0FD02368CC
:109EE00001229979636818782B00FEF731FF00286A
:109EF00046D12B78DB082372A37A002B40D00023B5
:109F00002B70637A002B0FD023680122D979636804
:109F100018782B00FEF71CFF002831D12B78DB08C6
:109F20006372A37A002B2BD005232B70E37A052BC9
:109F30000BD0236801229978636818782B00FEF70C
:109F400007FF00281CD12B78E372FA208000FFF76E
:109F500087FD002814D10020FFF736FE041E0FD124
:109F60000020FFF799FE200004B070BD2368012295
:109F7000D978636818782B00FEF78AFE002802D093
:109F800001246442EFE70F222B78134010D0042BFA
:109F900000D06EE70A4806F013FBE6746BE7032473
:109FA0006442E0E70124074806F00AFB6442DAE76E
:109FB0000124054806F004FB6442D4E77020002029
:109FC000881902001019020038190200F0B54F4636
:109FD00046462423C0B4284C83B0E35C070089467E
:109FE0009046002B3BD0A37A002B38D0236801AEDB
:109FF000197B6368022218783300FEF749FE0028B7
:10A000002DD1357873782D021D43BD422AD3606867
:10A0100043885B089D420CD923680078D97C0122D3
:10A020003300FEF735FE002819D13378DB061DD446
:10A0300060682368FAB2597B00784B46FEF728FE29
:10A0400000280CD13900280003F002FC43460138F7
:10A050001870002003B00CBC90469946F0BD01205A
:10A060004042F7E7434618700138F3E7FFF70CFB6F
:10A0700002204042EEE7C046702000202223024A20
:10A08000D05400207047C04670200020232370B5B4
:10A09000174C82B0E35C0500834224D000281DD118
:10A0A00080228220022600216B4607331970A17C92
:10A0B000002901D002001E702221615C002900D01D
:10A0C0001A702268D17D626810780122FEF740FE86
:10A0D00000280AD12323E55402B070BDB022B2207B
:10A0E00032263021E0E70020F6E701204042F3E786
:10A0F0007020002070B50D0082B0161E20D0124CCA
:10A10000A37A002B1CD0020A01AB1A70C0B262689D
:10A11000587040185189884212DC21681078C97E35
:10A120000222FEF715FE00280AD12368EAB2197E42
:10A13000636818783300FEF70BFE404202B070BD32
:10A1400001204042FAE7C04670200020F0B5564694
:10A150005F464D464446F0B48BB003932523514EE1
:10A1600001910292F35C8246002B75D1002973D0D5
:10A17000002800D194E00400102800DD75E0A3B2AF
:10A180009B46B37A002B67D0002305AF70683B7005
:10A190007B7043899C425FDC019B0025984638E038
:10A1A00033681078D97E02223B00FEF7D1FD0028EB
:10A1B00052D133684A46197E7368187806ABFEF7A9
:10A1C00067FD002848D1220006A9404606F0E0F9C4
:10A1D00000284CD15D44ADB2AA454BD953465C1B17
:10A1E000102C00DD1024A3B29B46019B9846A84486
:10A1F0004346002B30D0B37A002B2DD02B0A3B7076
:10A200007068EBB222047B70120CD318428993421F
:10A2100022DC33680078D97E02223B00FEF798FDED
:10A22000002819D1E3B2994633684A46197E73680B
:10A2300018784346FEF78CFD00280DD1B37A002B29
:10A240000AD02B0A3B707268EBB27B702404240C9A
:10A2500051891B198B42A3DD012040420BB03CBC4D
:10A2600090469946A246AB46F0BD102487E70220EF
:10A270004042F3E7029A130A3B7033687A70597FC1
:10A280007368022218783B00FEF762FD0028E3D1D4
:10A2900025230122F2546B469B890020F384DDE7DD
:10A2A00005AFE8E770200020242330B55A4C83B076
:10A2B000E35C834276D0002800D17AE02522A25CBC
:10A2C000002A00D19EE0002B00D06EE0A27A002A86
:10A2D00000D19AE06A46D51D2B7023680122597C73
:10A2E000636818782B00FEF733FD002801D12B7826
:10A2F0006374A37C002B36D023680122197963682C
:10A3000018782B00FEF7C4FC00282CD1A37ADB07B9
:10A3100000D56FE020222B7893432B702368012215
:10A320001979636818782B00FEF712FD00281AD1FE
:10A330000330FDF7C1FF2223E35C3022002B01D064
:10A34000802380322B702323E35C002B00D02A7003
:10A3500023680122D97D636818782B00FEF7F8FC8A
:10A36000002800D1A074E08CFFF77AFB6B46002236
:10A3700006331A706268232110780122FEF7E8FC88
:10A3800024230122E254223B2B702368597C63680A
:10A3900018782B00FEF7DCFC002801D12B786374C1
:10A3A000FFF772F9002003B030BD6B46DD1D0023BE
:10A3B00092E7002B22D1A27A002A29D06A46D51D25
:10A3C0002B7023680122597C636818782B00FEF7F4
:10A3D000BFFC002801D12B786374237C01222B70F1
:10A3E0006368232118782B00FEF7B2FC0022242397
:10A3F000E254D5E720232A7813438EE76B46DD1D10
:10A400002870DEE701204042CDE76B46DD1D70E796
:10A410006B46DD1DE1E7C04670200020802210B5AC
:10A42000C823D20002490348FFF790FE10BDC04682
:10A43000201A0200F60B0000F0B5404C87B002AFC6
:10A44000050003AE21000322380006F0B0F8211DFC
:10A450000322300006F0ABF821000322083104A8E3
:10A4600006F0A5F8210003220C3105A806F09FF89C
:10A47000032108006A466C4628403B5C1370EA08DA
:10A480000A40BB5CB25C6370AB090B40F95CF35CE7
:10A49000A170315C01AC2170627003216A462848CA
:10A4A000A370FFF727FE002845D12200032125488D
:10A4B000FFF720FE00283ED1032204A9684606F0DB
:10A4C00076F8032205A9200006F071F86B0708D57D
:10A4D0006A460123694612781A430A7022781343A8
:10A4E0002370AB0608D56A460123694652781A43A1
:10A4F0004A70627813436370EB0512D488206A4671
:10A500000321C000FFF7F6FD002814D1220003212B
:10A510000D48FFF7EFFD00280DD10C4B1D8107B052
:10A52000F0BD6A460123694692781A438A70A27880
:10A530001343A370E2E701204042F0E7D419020080
:10A54000260400002A0400003104000050230020EB
:10A5500010B5144986B004000C22103103A806F08F
:10A5600026F8C82C1AD82100C82003F0FBF90138BE
:10A5700080B201AA030A507002210B481370FFF742
:10A58000B9FD00280AD103AA0C210848FFF7B2FD43
:10A59000002803D1064B9C8106B010BD012040422B
:10A5A000FAE7C046D419020016020000C10A0000F2
:10A5B00050230020F0B5050083B043076BD0C823BB
:10A5C000DB00994267D8080004F0B8F94D4903F060
:10A5D000E7FC6B46DC1C071C2000FFF7DFF9237843
:10A5E000042B00D17DE033D9082B6AD0102B52D137
:10A5F0008A21381CC90503F09DFE03F043FB424944
:10A6000086B2381C03F096FE03F03CFB80B201AC2E
:10A61000330A2370030A6670A370E070EB0729D435
:10A62000AB073CD400206B0737D5EE202200022177
:10A630004000FFF75FFD00282DD16B462D309A1D9D
:10A640000221FF30FFF756FD431E9841404224E0AF
:10A65000022B20D18D21381CC90503F06BFE03F0BD
:10A6600011FB2A4986B2381C03F064FE03F00AFB92
:10A6700080B2CCE7EA20220002214000FFF73AFD39
:10A68000002808D16B4625309A1D0221FF30FFF7C4
:10A6900031FD0028C4D00120404203B0F0BDEC20C1
:10A6A000220002214000FFF725FD0028F3D16B4670
:10A6B00029309A1D0221FF30FFF71CFD0028B1D080
:10A6C000E9E78B21381CC90503F034FE03F0DAFA00
:10A6D0000F4986B2381C03F02DFE03F0D3FA80B286
:10A6E00095E78C21381CC90503F024FE03F0CAFA53
:10A6F000084986B2381C03F01DFE03F0C3FA80B28D
:10A7000085E7C046000048430000C04400004046C2
:10A71000000040450000C045F0B54E46454657464E
:10A72000E0B486B0924B03AC0600220004216820FE
:10A730000393FFF7DFFC4022A323324023709046AF
:10A7400000D10DE11D3363700833A370063BE37045
:10A75000C0277F00374000D1FDE0C42323710833B8
:10A760006371063BA371A32322000A218148E37190
:10A7700023726372FFF7BEFC0323334099464A46B7
:10A780002023002A00D1B833220001217A48237007
:10A790006D46FFF7AFFC09227849B30600D4D8E034
:10A7A0001C31280005F003FF97202A000921C00072
:10A7B000FFF7A0FC002F09D0F30500D5D4E0704BC3
:10A7C0000393220004216F48FFF794FCF30700D4A1
:10A7D000B6E08B20F8232200012100012370FFF74F
:10A7E00089FCFA210720FFF7E5FEA4203F232A0079
:10A7F000012140002B70FFF77DFC002350209A467A
:10A800002A000121FF302B70FFF774FC5346EF2024
:10A810002B7014232A00022140006B70FFF76AFCA2
:10A820005346ED202B7064232A00022140006B70F8
:10A83000FFF760FC53462B708E23AE206B706B339A
:10A84000AB702A00693B04214000EB70FFF752FC1B
:10A850005346AD202B7008232A00022140006B7064
:10A86000FFF748FC5346AC202B7002232A0002213C
:10A8700040006B70FFF73EFCB307DB0FD8332200BC
:10A88000012141482370FFF735FC730752D53F4B38
:10A8900000932A0004213E48FFF72CFCFEF7F4FE4B
:10A8A000F30641D53B4B00932A0004213A48FFF7B9
:10A8B00021FCFEF7E9FE0823384C33436381FEF7A1
:10A8C000E3FE4346002B22D10A20434684460C3047
:10A8D00082461038A3731422042310211A258046BF
:10A8E000002F04D043462A00A37351466346142028
:10A8F000304201D01300A1734A46002A00D0A3734E
:10A90000002006B01CBC90469946A246F0BD10201F
:10A91000062384460C3082461038A3731A2204336F
:10A92000162120258046DBE70422A3212800FDF71D
:10A930006FFCB9E704228B212800FDF769FCA8E72A
:10A940008B20D8232200012100012370FFF7D2FBC6
:10A9500092E7283125E7A32323716371A37102E7EE
:10A960006370A370E370F3E60D4B039329E7C046D1
:10A9700002CAE309A70A0000B60A0000D4190200BF
:10A98000B080B490A20A00003D070000C0C2C4C657
:10A99000980A0000202830389E0A0000502300202A
:10A9A000B28BB69BF0B544465F4656464D460023F3
:10A9B000F0B491B01A9C060023807C4B0F00987B6A
:10A9C000914608A91B9AFFF701FB03B29846238022
:10A9D000181E74D11422754B5B891A4200D075E0A1
:10A9E0000325AC46013DA846013DA94600250C21A2
:10A9F00000220420AA4607910139069101390591E8
:10AA000001390491013903910139934602910632CB
:10AA100001390191009201395D062DD5524608ADEC
:10AA2000AA5C120292462A004D46525D55461543D5
:10AA30003D80454608AA525D65461202904608AA26
:10AA4000525D4546154308AA515C105C009A00020D
:10AA50009346079A08430092049A08219446039A61
:10AA60007D809046029AB8809146019A208892464D
:10AA70000143218005980699C0277F003B421BD0E7
:10AA8000554608AA575D4D46525D45463F0217435D
:10AA900008AA3780575D6546525D3F02174308AAF2
:10AAA000105C515C00020143B180009A7021934612
:10AAB00077802088014321809B0752D1002011B06C
:10AAC0003CBC90469946A246AB46F0BD089A11BAE6
:10AAD0004A461160099A091410BA4A4650600A9A07
:10AAE0008C4612BA92464A46554695604D460B9A98
:10AAF000514612BAEA6065466D43AC46001409142B
:10AB00004043121449435243604440188018F122D4
:10AB10001206944680226044920490423FD88021DD
:10AB2000228849000A43228010229346063200926E
:10AB300006320792013A0692013A0592013A0492CE
:10AB4000013A0392013A0292013A0192033A944681
:10AB5000013A9046013A9146013AEB391420924667
:10AB60005AE708AB9C465C4664446378E678DA07AB
:10AB70000BD50E4A1268002A07D007200100F308FF
:10AB8000314018400131904763781B0796D5074B39
:10AB90005B68002B92D0B009984700208FE7FEF742
:10ABA00073FD434601202380404288E75023002064
:10ABB0000023F0B5C356002B36DD302200232024BD
:10ABC0000821282610259446382703228256002A79
:10ABD00018DD062141560022002902DD134398B2F8
:10ABE000F0BD00293AD10721415640320029F5DC59
:10ABF00051D10821415640320029EFDC59D1E022E1
:10AC00005200EBE7002A27D1042282560B00002ACB
:10AC1000DFDC3ED1052282562B00002AD9DC3B0026
:10AC2000002AD6D06346D4E7002B0CD10123C356AB
:10AC3000002B16DD3122012321240921292611258B
:10AC400094463927C1E73422042324240C212C26DE
:10AC5000142594463C27B8E72300BAE78022520027
:10AC6000BCE7002B0CD10223C356002B16DD322289
:10AC7000022322240A212A26122594463A27A4E7F1
:10AC80003522052325240D212D26152594463D2703
:10AC90009BE733009DE7A02252009FE7002B0BD1DA
:10ACA0003722072327240F212F26172594463F27D5
:10ACB0008BE70132FF3291E73622062326240E214C
:10ACC0002E26162594463E277FE7C046F0B55F4600
:10ACD00056464D464446F0B4764B91B004AA94468D
:10ACE00001930E23634400930AA900230CAA08A829
:10ACF000FFF758FE41B2002900D0D7E00C9803F0CE
:10AD0000D5FDC221890503F015FB041C0D9803F045
:10AD1000CDFDC221890503F00DFB80460E9803F09E
:10AD2000C5FDC221890503F005FB81460F9803F09C
:10AD3000BDFDC221890503F0FDFA211C051C201C64
:10AD400003F0F8FA4146071C404603F0F3FA49467F
:10AD50008246484603F0EEFA291C0290281C03F0B4
:10AD6000E9FA5146061C381C03F0F8FB029903F07F
:10AD7000F5FB311C039602F09DFF05F091FB04905A
:10AD80000591291C484603F0D5FA41468346201C0C
:10AD900003F0D0FA011C584602F08CFF05F080FB4E
:10ADA00002000B0003F008FE049A059B01F0AEFFC1
:10ADB0000022414B04F050FD05F03CFB3F4B291CA9
:10ADC0001880404603F0B6FA49468346201C03F03B
:10ADD000B1FA011C584603F0C1FB05F061FBC0232A
:10ADE00000221B0604F038FD01F02EFF80268B4662
:10ADF00036065E440022304B310004F02DFD05F094
:10AE000019FB2F4B51461880381C02F053FF029952
:10AE100003F0A4FB039903F0A1FB05F041FB06003E
:10AE20000F004046494603F085FA291C8046201C45
:10AE300003F080FA011C404602F03CFF05F030FBB5
:10AE400002000B0003F0B8FD32003B0001F05EFF92
:10AE50000022194B04F000FD05F0ECFA7022194BAA
:10AE6000188004ABDB891A420BD004AA118A164A57
:10AE7000118004AA518A154A118004AA918A144AA1
:10AE800011801B070BD504AB1A8B124B1A8004AB35
:10AE90005A8B114B1A8004AB9A8B104B1A8011B04D
:10AEA0003CBC90469946A246AB46F0BD0C4805F026
:10AEB00087FBF4E7F4250020005FC440062C002047
:10AEC0000E2C0020F22500202A2E0020202D00200C
:10AED000542F00201E2D0020F0250020F6250020F4
:10AEE00018260200A223A022DB00D205D35801209D
:10AEF0009B0604D4024B1878431E9841C0B2704799
:10AF0000F425002070B5050082B000200E00FEF789
:10AF100063FF0100324805F053FB7820FEF7BCFECA
:10AF20000100304805F04CFB7820FEF74DFE010093
:10AF30002D4805F045FB0020FFF7A0F80120FFF7A2
:10AF4000A5F8002D1FD16B46DC1D0122DD711A21F1
:10AF500023006820FDF7FCFE0100244805F030FBCB
:10AF6000FA203100400102F0FDFC01382070192167
:10AF7000230001226820FDF7EBFE01001C4805F0CC
:10AF80001FFB02B070BDFFF749FA0100194805F038
:10AF900017FB1948FFF70CFEFFF74EFA01001748A0
:10AFA00005F00EFB7220FF30FFF7B6FB01001448DE
:10AFB00005F006FB6420FFF7CBFA0100114805F00D
:10AFC000FFFA0120FFF770F901000F4805F0F8FAC9
:10AFD0000A20FEF709FD01000C4805F0F1FAD0E760
:10AFE0005C260200742602008C2602003427020030
:10AFF0004C270200A42602009C200020BC26020050
:10B00000D4260200EC260200042702001C270200BE
:10B0100010B50B0001000B4805F0D2FA8021A123E6
:10B02000A022FA20C900DB00D205D150C000FDF7F4
:10B0300043F9BFF34F8F044A044BDA60BFF34F8FDD
:10B04000FEE7C046642702000400FA0500ED00E0B8
:10B0500080218023184A8902D1508022D221174BA7
:10B06000520289005A5040395A5001222F205A600A
:10B070000138C046C046C046C046C046C046C0466D
:10B08000C046C046C046C046C046F1D19A600023C3
:10B090000B4A2F2013600138C046C046C046C04648
:10B0A000C046C046C046C046C046C046C046C04670
:10B0B000F1D1044A1370704700E100E00010014034
:10B0C0006023002080230020A021F0B50023474604
:10B0D0002C4A490080B4535004315350043153502A
:10B0E000043153504C39535004315350264B1B6894
:10B0F000002B37D02549002652582549254F0C688A
:10B10000141B00222402240A904602E0002D1AD0CB
:10B110002B001A68A24216D8A41AB6181A7CDD6948
:10B12000002AF3D0424699691A745A693B68002B89
:10B130001BD0100098470028E8D000220021FFF71C
:10B1400067FF002DE4D1144B14491A780B789A420A
:10B150000ED0134A9B009E5080218023114A490340
:10B160005B00D15004BC9046F0BD08009047CDE78D
:10B170000132D3B2022B01D00B70EAE700230B702F
:10B18000E7E7C046001001406423002004050000EA
:10B1900060230020682300207423002075230020F2
:10B1A0007823002000E100E0F0B55F4656464D46AA
:10B1B0004446F0B4C54BC64A1B68C6498BB00593DC
:10B1C00009781378994200D157E10133DBB2022BA1
:10B1D00000D100231370C04A9B009B58BB4A9A467B
:10B1E000059B53441B021B0A136001230193BB4BB5
:10B1F00000241B689B46BA4B5A461B78914619009F
:10B200000393B84B88461B6847460493AF4B013FF6
:10B210001B680793B44B1B78099300239C46069345
:10B220000893FBB266469846FF2B32D04346D800BF
:10B23000049B9C46130060440178457800961A00F0
:10B24000A9421FD046684A00B44652188678013198
:10B25000D200C9B262448E4200D1EDE01678022ECF
:10B2600000D1C7E0032EEAD1002BE8D01C74DB69C3
:10B27000002BFBD1013345780093002399461A0037
:10B28000A942DFD14746013FFBB2009E9846FF2B03
:10B29000CCD1089BC8460292B446002B00D0F0E007
:10B2A000069B002B02D0894B079A1A606346002B3D
:10B2B00002D04246894B1A60019B002B00D02DE141
:10B2C0005B46029A00259B1A5A1E9341DBB20593F6
:10B2D0007E4B00271B6802999C46804B1B689B464F
:10B2E000814B1B78069300230193804B99460123E1
:10B2F0000093039B013BDBB20393FF2B00D1F9E0EA
:10B30000049ADB0092460E009A44002D28D06A6809
:10B31000A9682C00ED696346D31A1B021B0A4B4532
:10B3200052D86A4612785B1823606760A76022745F
:10B33000E761002E58D031683000994205D3B9E05A
:10B340001168994200D3A3E01000C2695B1A002A79
:10B35000F6D1E26132002360C4611600002DD6D11F
:10B3600053461A785B7831009342C2D051464968FF
:10B370005300884651469B180132D2B20A70897830
:10B38000DB004344914200D19DE01978320001294D
:10B39000E3D15C68227C9046414632000029DCD132
:10B3A0009A686260D968A1601869E0605B69A3610E
:10B3B000069B002BAFD04346002263606346D31A3E
:10B3C0001B021B0A4B45ACD963469A1A1202120A99
:10B3D0008A4264D28B1A6A46127823606760A7603B
:10B3E0002274E761002EA6D122000123A346019317
:10B3F0001600B3E75668002B30D09E421ED0009A4C
:10B400001F00944602E0964206D01700FA69002A0F
:10B41000F9D16246009212E765460095BA420FD014
:10B420001568D269FA61002A16D013689C466544F3
:10B43000156045784B4602E700210FE71A001F0010
:10B44000DE69002E0CD0012500951568D269B14641
:10B450003300FA61002AE8D14578F0E60023EEE6F1
:10B460000125234B9D600095069500250023079537
:10B470000135994608950995D2E700239A4601932C
:10B48000B5E66A4624215218174B12781A7007E75E
:10B49000C91A1160E26123603200C4615DE76B4646
:10B4A0001B7827606760A7602374E761002E9BD03C
:10B4B00000233168CB1A336022000123E661A346E2
:10B4C000019316004AE7524615705EE7602300209C
:10B4D000742300207523002078230020642300209B
:10B4E0006C2300207023002076230020FEFF7F00C5
:10B4F00000100140019B002B00D09DE0029B99426F
:10B5000036D1059B002B33D10023534A13700BB067
:10B510003CBC90469946A246AB46F0BD4F4B00243A
:10B5200018680025029B00210026574615E01A687E
:10B53000BA4200D984E0D868BF1A89181E60DC6955
:10B54000002807D0DD611D00059A9860521812028C
:10B55000120A5A6023002000019C002BE7D1002C26
:10B5600001D03E4B18600023029301330593AFE6F0
:10B57000002900D15DE00B6839489846394B3A4DB7
:10B58000C4583A4B2E781B68E11A0902090A0331A4
:10B59000002E2DD042468A4200D20A00A820D2189E
:10B5A00012022F49130AC0002E4D0B504A591B1B83
:10B5B000121B1202120A1B0203321B0A9A42A3D95F
:10B5C0004B590B502F200138C046C046C046C046DC
:10B5D000C046C046C046C046C046C046C046C0463B
:10B5E000F1D180218023224A89025B00D1508BE770
:10B5F0008026D1277602BF00C651403FC651C022E7
:10B6000080271B4EBF025200B750376001260660EC
:10B610002F200138C046C046C046C046C046C0467E
:10B62000C046C046C046C046C046C046F1D12E7096
:10B63000B0E7FFF70DFD67E75A46084B1A605DE774
:10B64000BA46002C01D0054908605146521A1A60CA
:10B650000293012305933BE6762300206423002018
:10B66000001001400405000080230020602300201A
:10B6700000E100E0F8B54F464646C0B40326350069
:10B6800080460F001400994615400720002D03D076
:10B690000CBC90469946F8BD002A44D0FFF7D8FC70
:10B6A0004A46224B80201A602200214B18321E701D
:10B6B000204B62601C607B00DB19DB00D218E2606B
:10B6C000D318C022636125706570A77025726572FA
:10B6D000A77225746574A774C524FF21164B400317
:10B6E0001D60164B52001D70154BA4001D70154BAC
:10B6F00098501A598A433F390A431A51A1221860B7
:10B7000040461149D2008850C42080001C580F4A7E
:10B710002240C024240222431A500D4B0020CA5854
:10B720000C4B1A60B4E7034B1A60B1E768230020A2
:10B730006C23002070230020642300207423002049
:10B740007523002000E100E000100140FF00FFFF32
:10B75000040500006023002010B50B4B1B68002B74
:10B760000BD0002A07D0002805D0036808201C7CD5
:10B77000002C04D010BD0720FCE70820FAE759741C
:10B780005A610020F6E7C04670230020F0B5344B24
:10B790001C68002C06D0002804D00723042903D8F5
:10B7A0001800F0BD0823FBE74369002BFAD0437C67
:10B7B000012B44D000262B4B10255B68DB05DB0DED
:10B7C00025D164196378A5785F1CFFB2BD423AD0D9
:10B7D0002578BD4235D05D00ED186368ED009C46CC
:10B7E00065440423002DDBD0033B2B7068601E4BA7
:10B7F0001E48C358E960AB60802180236A611C4AFF
:10B800005B0049032E616770D1500023C8E7103BED
:10B810005DB2002D19DBAD08C035154FAD00ED59F7
:10B8200003273B40DB00DD40AB093B40DBB200259A
:10B83000012BC6D00835032BC3D00835C1E70E0055
:10B84000B9E70423ACE70027C2E70F25094FDBB2B5
:10B85000BC461D40083DAD08AD0065446D68DFE79E
:10B860007023002000ED00E00405000000100140FE
:10B8700000E100E018ED00E010B52C4A030011686B
:10B88000082000292AD0002B28D05A69002A25D068
:10B8900000221A74264A08305268D205D20D1ED1F1
:10B8A00009184A788878541CE4B2A04231D008784C
:10B8B000A0422CD0500082184868D20084466244CE
:10B8C0000420002A0AD00238107053604C70802384
:10B8D00080210020174A49035B00D15010BD103A67
:10B8E00050B2002817DB8008C030124C800000598D
:10B8F00003242240D200D04082092240D2B200204C
:10B90000012ACDD00830032ACAD00830C8E7042065
:10B91000E4E70024CBE70F20074CD2B2A446104046
:10B9200008388008800060444068E1E77023002008
:10B9300000ED00E000E100E018ED00E0074B1A68C0
:10B940000823520701D418007047002804D0044B84
:10B950005B7803600023F6E70E23F4E75024002011
:10B960008423002071DF704772DF704779DF7047F2
:10B970007DDF704765DF7047F0B55F4656464D4640
:10B980004446F0B485B09A460EAB80CB06001B88C7
:10B9900000919B463B8801930388002B63D00023D2
:10B9A000994602ABDD1C3B0000241700984603E0DB
:10B9B00033880134A3422CDD7368A1009C46042225
:10B9C000614403A804F0F3FD0022290003A8FFF757
:10B9D000D1FF002829D12B78BB42E9D14B46002B5F
:10B9E0002AD043461A88D3195B453EDC52442900CD
:10B9F00003A8FFF7BFFF002817D143462A781B880A
:10BA00000134D31842461380012399463388A34258
:10BA1000D2DC4B464746002B25D03B88019A013BA0
:10BA20009B1A9BB20C20FF2B1AD905B03CBC904648
:10BA30009946A246AB46F0BD43461B88DA1902324E
:10BA40005A4512DC4246013369469BB21380524686
:10BA50000978D15443461A88013292B21A80C5E758
:10BA60001100524653540020DFE70C20DDE7C046AA
:10BA7000F0B55F4656464D4644460023F0B417885D
:10BA80001380436B87B006000D001400002B00D11B
:10BA90009CE1022F00D891E11A7802230B7011214A
:10BAA000238801339BB22380E954238801339BB25E
:10BAB0002380EA54238801339BB22380326B002A0F
:10BAC00000D170E019001231B94200D976E111219C
:10BAD000E9542388013901339BB22380E954238838
:10BAE00001339BB22380D17BE954238801339BB27D
:10BAF0002380917BE954238801339BB22380517BBF
:10BB0000E954238801339BB22380117BE9542388B5
:10BB100001339BB22380D17AE954238801339BB24D
:10BB20002380917AE954238801339BB22380517A90
:10BB3000E954238801339BB22380117AE954238886
:10BB400001339BB22380D179E954238801339BB21E
:10BB500023809179E954238801339BB22380517962
:10BB6000E954238801339BB223801179E954238857
:10BB700001339BB22380D178E954238801339BB2EF
:10BB800023809178E954238801339BB22380517834
:10BB9000E954238801339BB223801278EA54238826
:10BBA00001339BB223802E22B25C002A00D00FE129
:10BBB0002D22B25C002A00D02CE1B278002A00D0FD
:10BBC00055E1F278002A14D0D91CB94200D9F5E029
:10BBD0000221E9542388013901339BB22380E954BF
:10BBE000238801339BB22380EA54238801339BB21C
:10BBF00023807268002A15D0D91CB94200D9DDE033
:10BC000002211278E9542388083101339BB2238042
:10BC1000E954238852B201339BB22380EA5423882B
:10BC2000013323803389002B00D09BE1338A002B22
:10BC300000D0B1E1338B002B00D0C7E1336A002B79
:10BC40004BD022880C20911D9346B94200D9B6E012
:10BC5000198805388A46052900D8B0E0BB496A46EC
:10BC60008C46D4446146D181D1898C46B8498846F6
:10BC70008C4500D8A3E059888C46052900D89EE061
:10BC8000B2496144D18189B2414500D897E0B149B8
:10BC90008A4504D08C4502D0E24500D98FE00521C9
:10BCA0005A46A95422880D31013292B22280A954F9
:10BCB0002288013292B222801988AA181170090ACA
:10BCC00051702288023292B222805988AB181970C2
:10BCD000090A5970238802332380736A9846002B1F
:10BCE00030D09A882188131D5B180C20BB4266D87F
:10BCF000931CFE2B63D803326A54FF22238801333E
:10BD00009BB22380EA544246238801339BB22380AE
:10BD10001288EB181A70120A5A70424623880233AE
:10BD20009BB223809288002A0CD04146896805384E
:10BD3000002944D0E81804F03AFC434622889B8846
:10BD4000D31823802C23F35C002B00D0B0E0337891
:10BD50000020002B33D032880720012A2FD02288E0
:10BD6000901CB8422AD8012B04D1737802339B1857
:10BD70009F4223D3023FBA1A04AF93B22818390066
:10BD800098463B80FFF7F4FD002818D13378022B4A
:10BD900000D141E1012B00D1DEE043460821FE2B1A
:10BDA0000CD822885E1CAE542288013292B22280C6
:10BDB000A954228801329B18238000E00C2007B090
:10BDC0003CBC90469946A246AB46F0BD002375E6C2
:10BDD000D91C0C20B942F2D80221E9542388103032
:10BDE00001339BB22380E854238801339BB2238024
:10BDF000022A00D10BE100D804E1032A00D109E1B5
:10BE0000042A00D0FCE00322EA54238801339BB2C9
:10BE10002380CDE609330C20BB42D0D804A8FFF71D
:10BE2000A1FD0028CBD1082223880921EA542388C8
:10BE3000133201339BB22380EA5402AB9C46208824
:10BE4000153A013080B220806144281804F0AFFB1D
:10BE5000238802AA0633127A9BB22380002A00D0DC
:10BE60000122EA54238801339BB22380A5E60433E0
:10BE70000C20BB42A3D804A8FFF778FD00289ED170
:10BE800003222388EA542388163201339BB223808D
:10BE9000EA54238802AA01339BB212892380EB184B
:10BEA0001A70120A5A70238802339BB2238088E6E4
:10BEB000B36A9846002B00D1A2E09B880233FE2B88
:10BEC00000D97BE70022914616329246163220882E
:10BED00093460CE04B46B26A5B0090464B449B0095
:10BEE000984443469B880233FE2B00D966E75246AE
:10BEF00001332B54238801339BB22380EA544246FA
:10BF0000238801339BB223801288EB181A70120A1F
:10BF10005A7043462088023080B220809A88002AD6
:10BF20000BD0996800296BD0281804F040FB4346D9
:10BF300020889B88C01880B220804B460133DBB23A
:10BF400099465B46F35C4B45C4D800E77FF3FFFF9F
:10BF50007DF30000FFFF00007378984500D31DE7D4
:10BF600043461BE708239846B044019700942B00F2
:10BF7000022202214046FFF7FFFC002800D01EE706
:10BF8000019700942B00102206214046FFF7F4FC95
:10BF9000002800D013E749E610239846B0440197E3
:10BFA00000942B00022203214046FFF7E5FC002805
:10BFB00000D004E7019700942B001022072140468F
:10BFC000FFF7DAFC002800D0F9E633E6182398469C
:10BFD000B044019700942B00022214214046FFF741
:10BFE000CBFC002800D0EAE6019700942B00102239
:10BFF00015214046FFF7C0FC002800D0DFE61DE613
:10C000000720DCE6012AFBD10022EA54FDE60122EA
:10C01000EA54FAE6E954F8E63B880921984500D34A
:10C02000BDE64346BAE6C04630B593B01F236A4624
:10C030000C009380D380002822D0C3785B071CD5E6
:10C0400001AA02A9FFF714FD02AD002816D1002CA9
:10C0500019D0E378002B10D16B460AA99A1D200055
:10C06000FFF706FD002809D16B469B790AAA6946AD
:10C0700028000979FFF778FC00E0072013B030BDF5
:10C0800090800025E3E76B460022DC800023EEE78A
:10C0900073DF704770B59F4E86B0072200213000D5
:10C0A000FCF7B6F89C4C6378002B6ED09B4D2B7838
:10C0B000012B05D0A278002A00D1EFE0022B0FD18E
:10C0C000974A1268002A00D1FDE00121954B082013
:10C0D000197090472B78012B00D1F7E0022B5FD02D
:10C0E000227B002A01D1032B7AD0227E002A02D1A2
:10C0F000042B00D107E18A4A1268002A02D0033BD0
:10C10000012B77D90022884B1A701822002168462B
:10C11000FCF77EF800236A46137013722A780193A5
:10C120000393022A00D18BE072D9032A00D194E054
:10C13000042A22D16B46A28B1A82228C5A827B4B14
:10C140001A79002A00D1B6E02278002A00D1B6E0A0
:10C15000774A1278002A00D0B1E06946039304239D
:10C16000023274480A720021C370FFF75DFF002895
:10C1700064D10622704B1A702A78002A51D1684B7C
:10C180001B68002B56D1002058E0A378634D002B8C
:10C19000A0D02B78022B93D0012BA1D102232B709E
:10C1A000A378002B17D07378002B00D0B0E0B378C1
:10C1B000002B00D0ACE0F378002B00D0A8E033795E
:10C1C000002B00D0A4E07379002B00D0A0E0B3795D
:10C1D000002B00D09CE003232B70237B002B61D12C
:10C1E00004232B70237E002B00D18CE04C4B1A686B
:10C1F000002A87D02378002B84D04D4B1B78002B4E
:10C2000000D07FE70121484B0720197090477CE759
:10C21000012AB2D169464B820B82474B01960A70C4
:10C220001A706846FFF734FF002807D13C4B1B68A3
:10C23000002BA8D0404A10789847002006B070BD67
:10C24000012369460B706B46218901965982694624
:10C2500063680B82384B1A70E3E76B46A28A5A82F6
:10C26000228A1A82314B1A79002A1DD02278002A9C
:10C270001DD02F4A1278002A19D16946039304234E
:10C2800002322C480A720021C370FFF7CDFE00284D
:10C29000D4D10522284B1A702A786EE7022B00D0E1
:10C2A0001EE798E7032326E71A7B002ADED1032244
:10C2B000214B1A70B5E71A7B002A00D044E704220C
:10C2C0001D4B1A70ADE717490A7004E76278002A1F
:10C2D00000D163E77278002A00D00CE7B278002A18
:10C2E00000D008E7F278002A00D004E73279002A6B
:10C2F00000D000E77279002A00D0FCE6B279002A6B
:10C3000000D14BE7F7E600230B4A2B701370F9E6D8
:10C310000223F0E6C4240020CC2400206425002061
:10C3200098240020652500204325002014250020A6
:10C33000BF2400205424002078250020F8B50400F4
:10C340000E000E20002C00D17BE0002A79D00020C6
:10C350003C4908703C490B6006993C4B19603C49CC
:10C360000B0023CA23C323CA23C323CA23C3072220
:10C3700000213848FBF74CFF374B384A384D1A60DC
:10C38000384A00219A6028003822FBF741FF2378C1
:10C3900022002B70A3781032AB70E378EB706378D7
:10C3A0006B702B00103303CA03C32B00103A083301
:10C3B00003CA03C32B000832183303CA03C3636ADA
:10C3C000002B11D0284B294F6B62616A9F600A884D
:10C3D0001A8088889880002806D000238A68D25C5A
:10C3E000FA5401338342F9D1A36A002B14D0204BB5
:10C3F000204FAB62A06A9F608188998002881A8072
:10C400000023002905D08268D25CFA5401338B42A4
:10C41000F9D12C23E25CEA54236A002B06D0164B98
:10C420002B62226A5188598012881A806368002B17
:10C4300003D0124B6B6063686B6031002800FFF71C
:10C44000F3FDF8BD6425002098240020C0240020BE
:10C45000CC240020C424002014250020F024002037
:10C4600054240020442500208C240020A0240020F7
:10C470006C250020242500206825002010250020A0
:10C4800010B500240B4B82B0187001A80194FFF77F
:10C4900055FA082809D0002805D1019B002B05D0AA
:10C4A0000122054B1A7002B010BD0194FFF7F2FD96
:10C4B000F9E7C046642500209C24002030B503889D
:10C4C00083B0112B1ED0192B07D0102B01D003B035
:10C4D00030BD82882D4B1A80F9E78479002CF6D183
:10C4E0002B4B1D78022D4ED038D9032D23D0042D8F
:10C4F000EDD1284B1C70284B1B68002BE7D0002087
:10C500009847E4E70024254B1C70204B82881B8849
:10C510009A42DCD101251E4B01A81D700194FFF742
:10C520000DFA082824D0002827D1019B002B20D009
:10C530001B4B1D70CBE7174A1570042201A81A7017
:10C540000194FFF7FBF9082812D0002815D1019BB0
:10C55000002B0ED00122124B1A70B8E7012DB6D174
:10C56000022201A81A700194FFF7E8F90828DAD12D
:10C570000194FFF78FFD0028A9D00A4B1B68002B00
:10C58000A5D09847A3E70322D8E7C046A6200020FD
:10C59000642500207825002098240020BF24002056
:10C5A0009C240020C024002075DF704776DF704790
:10C5B0007ADF70477BDF704710B5184B82B0188860
:10C5C000174B984214D0174A174C13780133DBB23B
:10C5D0001370217B99420DD200231370237C002B12
:10C5E00012D16369002B03D0002201A80270984782
:10C5F00002B010BD0D49FFF7D7FF0028F8D0A3699E
:10C60000002BF5D09847F3E73B21FFF7CFFF002839
:10C61000E7D0A369002BE4D09847E2E7C4250020C7
:10C62000FFFF00008425002088250020C825002069
:10C6300030B51B4B1B4A5B88118883B099420FD8D9
:10C6400052889A420CD3184B5B69002B03D001220D
:10C6500001A802709847154C0023237003B030BD29
:10C66000124C2378002B08D00F4B5B69002BF3D0C2
:10C67000002201A802709847EEE70D4B0A4D1B7887
:10C68000002B0BD0A96800220A48FFF77FF800288A
:10C69000E2D0AB69002BDFD09847DDE76968F2E7AD
:10C6A0007C250020C8250020882500207925002031
:10C6B00084250020A4250020164902000B0070B537
:10C6C00032CA32C332CA32C312681A600022124B15
:10C6D00001681A70002916D0104C0832200003F0AF
:10C6E00066FF2000FFF764FF00280BD101220C4BEE
:10C6F00052421A8000220B4B00211A700A480B4A42
:10C70000FFF72AF870BD0548FFF754FF0028EDD069
:10C71000F8E7C0468825002079250020C82500209C
:10C72000C4250020842500208C270200B9C5010003
:10C7300010B50388112B35D021D9122B17D0502BCF
:10C740001CD1214CC288E3899A4217D1C38B022B9A
:10C7500014D11E33C35CDB070ED41C48FFF78CF8E2
:10C7600000280BD0A369002B08D0984706E0811D54
:10C770000822174803F01BFFFFF75AFF10BD102BCC
:10C78000FCD101008288134B16311A801048082210
:10C7900003F00DFF0022104B1A700B4BDB89002BAE
:10C7A000ECD1E9E701220B4B52421A8000220A4BDE
:10C7B00006481A70FFF760F80028DFD0024B9B692B
:10C7C000002BDBD09847D9E788250020A42500203E
:10C7D0007C250020C425002084250020A0DF704790
:10C7E000A2DF704763DF704710B5002808D000292A
:10C7F00006D00B88112B15D0502B02D0102B0ED049
:10C8000010BDCB88028A9A4210D082889A42F7D112
:10C810008369002BF4D0CA8B20319847F0E78B88CE
:10C820008382EDE701235B428382E9E7CA8B022A18
:10C83000EBD12023CA5C1F3B134002D00123837538
:10C84000DEE78375DCE7C046F0B54D465F464446FB
:10C8500056461023F0B495B004000D0010227B4919
:10C8600004A899460E2703F0A2FE002C0ED0002D3E
:10C870000CD001235B42A3822B682100A36100231B
:10C8800004A8A375FFF7AEFF071E07D0380015B048
:10C890003CBC90469946A246AB46F0BD237802A91F
:10C8A0008B700123A21C01200B80FFF797FF071E4E
:10C8B000ECD1032200216846FBF7AAFC6B460F224D
:10C8C0001B7892469343012293465A46134352469D
:10C8D000134010229046424613436A461370537821
:10C8E000524693435A46134352461340424613431B
:10C8F0006A465370937806229343043A13436A4678
:10C900000DAD937000211C222800FBF781FC4246EC
:10C910002B7801AE13432B706B466A466B6123780C
:10C920000021937303233000938103226F60EF6033
:10C930002F61AF61FBF76CFC5246337800219343C3
:10C940005A461343524613404246134352463370ED
:10C95000737808A893435A461343524613404246FD
:10C96000134306227370B3789343043A1343DBB244
:10C97000063293434A4693435A4613431422B370F4
:10C98000FBF746FC03AB089301226B461A85142281
:10C990005F859A85230060880C3308AA29000996D0
:10C9A000FFF71EFF071E00D070E71C2200212800A1
:10C9B000FBF72EFC08232A7800211343042213439B
:10C9C0006A462B70237830009373022393810322ED
:10C9D0006F60EF602F616F61AF61FBF719FC52462A
:10C9E0003378002193435A4613435246134042463C
:10C9F000134352463370737808A893435A4613433F
:10CA0000524613404246134306227370B378934351
:10CA1000043A1343DBB2063293434A4693435A46E1
:10CA200013431422B370FBF7F3FB03AB089301220B
:10CA30006B461A8514225F859A856088231D08AA93
:10CA400029000996FFF7CCFE07001FE79027020098
:10CA50002EDF704751DF704710DF704761DF70478E
:10CA600010B50800110000E000BF10BDF0B557463A
:10CA70004E464546E0B4344B344E1D6899466B42F1
:10CA80005D41334BEDB21C68984663425C4182B015
:10CA9000E4B2304FB246002D13D0002C40D13C6898
:10CAA000338801A920000B80FFF7D8FF052837D075
:10CAB00000282AD000220021FEF7AAFA0024002D27
:10CAC000EBD101A8FFF7C6FF05280DD0002822D022
:10CAD00000220021FEF79CFA002C27D0012401A897
:10CAE000FFF7B8FF0528F1D1002C19D153466A464B
:10CAF0001B8801A99380174B1C682000FFF7AEFF2D
:10CB000005280DD001250028D4D1434620001B68FC
:10CB100098470024D3E74B4601981B689847DBE70A
:10CB200002B01CBC90469946A246F0BD6A46074B2F
:10CB300001A91B889380074B1C682000FFF78EFF1C
:10CB40000528B5D10124CAE7D8250020D225002028
:10CB5000DC250020D425002070B504000720002922
:10CB600001D08D0700D070BD09480160094920003F
:10CB70000A80094A09491360FFF76EFF0028F2D1C5
:10CB80000122074B16301A70FFF762FFEBE7C04631
:10CB9000D4250020D2250020E025002061CA010014
:10CBA000D0250020002803D0024B186000207047D9
:10CBB0000E20FCE7DC25002010B50A4B1B68002B7B
:10CBC00008D09847002800D110BD00220021FEF7B0
:10CBD0001FFAF9E7044B1B78002BF5D0FFF746FF4F
:10CBE000F2E7C046E0250020D025002003210A48B6
:10CBF00002680A430260094802680A430260084961
:10CC0000084A094B9B1A03DD043BC858D050FBDC93
:10CC10000648804706480047240500405405004068
:10CC2000CC29020000200020B42000202582010031
:10CC300021810100FEE7FEE7FEE7FEE7FEE7FEE7F3
:10CC400049004B0819007047F0B546464F46C0B43E
:10CC50008DB004000D0000F0BDF8284B060098468A
:10CC60001B780F005BB2013332D022002B00200072
:10CC7000290003F0BFFB8146002829D120002900AC
:10CC8000FFF7DEFF00221E4B00F082FF00281FD0BE
:10CC9000012302931B4B1C4803934B4606940795B4
:10CCA0000A930494059500F0CDFD43461B78089047
:10CCB00009915BB2022B12D002A800F0C1FD00283E
:10CCC0000DD00A9B0193002B11D10898099901E01E
:10CCD000300039000DB00CBC90469946F0BD03F011
:10CCE00051FC212303600A9B0193002BEDD003F03C
:10CCF00049FC0A9B01930360E7E7C046A820002097
:10CD00000000F03FA02702000C19020010B500F04F
:10CD100047FA10BDF0B546464F46C0B48DB004008A
:10CD20000D0000F0F9FA294B009001911B785BB2DD
:10CD30009846013312D022002B002000290003F076
:10CD400059FB8146002809D10026002732003B000C
:10CD50002000290000F008FF002806D10098019962
:10CD60000DB00CBC90469946F0BD01230293184BC0
:10CD70000694079503934B460A93434604940595FE
:10CD8000002B15D03B0032003000390002F040F992
:10CD9000434608900991022B0CD103F0F3FB2123A9
:10CDA00003600A9B0093002B0AD108980999D7E7E2
:10CDB0000896099702A800F043FD0028F1D1ECE79E
:10CDC00003F0E0FB0A9B00930360EEE7A82000203D
:10CDD000A8270200F0B557464E464B005B089A461E
:10CDE000C0B4CD4B87B006000F0089469A4512DDCE
:10CDF000CA4B5344034322D002000B0002F0A6FFAB
:10CE00000B00020002F004F90300180007B00CBC8C
:10CE100091469A46F0BDC24B9A4524DCC14B9A45D7
:10CE200000DD0CE1C04AC14B01F0C6FD0022C04B41
:10CE300000F0AEFE002816D033003900E5E7BD4A09
:10CE4000BD4B02F009FDBD4A04000D00BC4B300093
:10CE5000390002F001FD0B0002002900200001F062
:10CE6000ABFD0300D1E730003900FFF7E9FE020017
:10CE70000B000020AE4902F069FF0022B14B02F026
:10CE8000EBFC04000D00B04AB04B02F0E5FCB04AE8
:10CE9000B04B01F091FD22002B0002F0DDFCAE4A08
:10CEA000AE4B02F053FF22002B0002F0D5FCAC4A3F
:10CEB000AC4B01F081FD22002B0002F0CDFCAA4A10
:10CEC000AA4B02F043FF22002B0002F0C5FCA84A47
:10CED000A84B01F071FD22002B0002F0BDFCA64A18
:10CEE00002900391A54B2000290002F0B5FCA44A52
:10CEF000A44B02F02BFF22002B0002F0ADFCA24A53
:10CF0000A24B01F059FD22002B0002F0A5FCA04A23
:10CF1000A04B02F01BFF22002B0002F09DFC844B73
:10CF2000002201F049FD049005912000290000F045
:10CF3000F3F9994B06000F009A4563DC0B00029849
:10CF40000399002200920193049A059B02F060F875
:10CF50003200029003913B003000390001F02CFDBB
:10CF600002000B000298039902F076FC02900391F4
:10CF70000098019902000B0002F06EFC02000B0009
:10CF80002000290002F0E2FE009A019B04000D003F
:10CF90003000390001F010FD02000B0020002900D4
:10CFA00002F036F802000B0001F006FD02000B0053
:10CFB0006248634902F0CAFE02000B00029803991E
:10CFC00002F0C4FE04000D000098019902000B005D
:10CFD00001F0F2FC02000B005648704902F0B6FE68
:10CFE00002000B002000290002F0B0FE02000B003E
:10CFF00050486A4902F0AAFE4B46002B00DC84E050
:10D00000030002E7049A059B0298039902F000F8D6
:10D0100032003B0002F020FC32003B0001F0CCFC6F
:10D0200002000B0001F0C8FC444A454B02F08EFEA2
:10D0300002000B003F48404902F088FEDCE7020096
:10D040000B0002F009FC04000D003F4A3F4B02F0C8
:10D0500003FC3F4A3F4B01F0AFFC22002B0002F0E3
:10D06000FBFB3D4A3D4B02F071FE22002B0002F01B
:10D07000F3FB3B4A3B4B01F09FFC22002B0002F0EC
:10D08000EBFB394A394B02F061FE22002B0002F023
:10D09000E3FB374A374B01F08FFC22002B0002F0F4
:10D0A000DBFB354A00900191344B2000290002F04F
:10D0B000D3FB334A334B02F049FE22002B0002F02F
:10D0C000CBFB314A314B01F077FC22002B0002F000
:10D0D000C3FB2F4A2F4B02F039FE22002B0002F037
:10D0E000BBFB0022124B01F067FC02000B00009812
:10D0F000019901F08DFF32003B0002F0ADFB3B00D7
:10D10000320001F059FC03007FE6802212069446AB
:10D110000300614479E6C046FFFFEF3F000010C006
:10D12000FFFFDF3FFFFF3F3E9C7500883CE4377EFA
:10D130000000F03F182D4454FB21F93F075C1433E5
:10D1400026A6913C0000E03F09F7FD0DE13D023FBE
:10D1500088B20175E0EF493F3B8F68B52882A43F54
:10D160005544880E55C1C93F7D6FEB0312D6D43F9D
:10D17000555555555555C53F82922EB1C5B8B33F4B
:10D1800059018D1B6C06E63FC88A599CE52A004070
:10D190004B2D8A1C273A03403233EF3FFB21E93FF6
:10D1A000F8B515004F4646465A001C006B42C0B405
:10D1B0002B434B4F5208DB0F88461343BB423AD8F0
:10D1C0004B005B0899464E4643420343DB0F334313
:10D1D000BB4230D8434BE3182B4343D00226A3175E
:10D1E0001E40CB0F1E434B4603432ED013002B4350
:10D1F00032D0BA4241D0B9452ED04B469A1A1215B8
:10D200003C2A32DC002C55DB2A00230001F000FF11
:10D21000FFF716FD00F076F9012E46D0022E39D028
:10D22000002E0ED0304A314B02F090FD304A314B87
:10D2300002F08CFD05E002000B002800210001F047
:10D24000BBFB0CBC90469946F8BD022E10D0032EB5
:10D25000F7D127482849F4E743462548002B0ADB45
:10D260002649EEE700F04EF9EBE721482349D3E7E2
:10D270001F482049E5E72249E3E791451FD0022EE8
:10D28000F6D0032EE5D000200021012ED9D1802137
:10D290000906D6E7144A154B02F058FD02000B00B0
:10D2A0001348144902F052FDCBE7802424060B19E1
:10D2B0001900C6E73C32A7DA00200021ACE7022EB5
:10D2C00006D0032E09D00A48012E04D00D49B8E734
:10D2D0000D480E49B5E70E49B3E70B480D49B0E7D5
:10D2E0000000F07F000010C0075C143326A6A13CAC
:10D2F000182D4454FB210940FB2109C0FB21F93FB3
:10D30000FB21F9BFFB21E93FD221337F7CD90240C9
:10D31000FB21E9BF7CD902C0F0B556464D464446D4
:10D320005F46754BF0B40A000D00190083B006008B
:10D3300004002940994200D1BAE0002D00DC94E0BD
:10D340002D1500D1A3E06D4B12039C468023120BD8
:10D350005B0365441A43EB0700D581E06B109846E8
:10D36000E30F9B189B1880221621002600276400DB
:10D370009203B818984202DC87181B1AB618E00FFF
:10D380005B0001391B18640052080029F1D100220A
:10D3900001929446802212062020914609E09F4285
:10D3A00041D0E10FC9180138CB1864005208002899
:10D3B0001ED0614651189F42F1DA8D18AC46CD0F50
:10D3C000ED07BA464D4539D0DB1B8C42BF417F4249
:10D3D000DB1B641A019901388B469344594601912D
:10D3E000E10FC9185746CB18640052080028E0D155
:10D3F00023432BD1019B5B08414972108C46624448
:10D40000F10702D5802109060B43414609058D1815
:10D410001E002F003000390003B03CBC90469946F6
:10D42000A246AB46F0BDA1420ED88D18AC46CD0F3A
:10D43000ED074D4548D09A460023CAE76546002DC2
:10D44000C2DB7D1CAA46BFE73B00AAE7019B013374
:10D450003ED0019A01239446134063445B08CBE716
:10D46000E30F52009A18640078E76B005B080343EF
:10D470002F00002BCED00025002A31D1E20A153D25
:10D480006405002AFAD080235B031A4223D180204E
:10D490000023400300E00B005200591C0242FAD066
:10D4A0002020401AED1A2300C3408C401A434AE75B
:10D4B00002002B00290002F0CFF932002B0001F00E
:10D4C0007BFA06000F00A5E76546002DB9DAB2E742
:10D4D0000136002390E7012320205B420021E1E791
:10D4E0003B000200390002F031FC02000B0001F0A9
:10D4F0008FFD06000F008DE70000F07F01FCFFFFAD
:10D500000000E03FF8B556464D4644465F46A54B01
:10D51000F0B44E00804689468A4676089E420CDD6D
:10D52000A14B9E4200DDA0E000D19BE05346002BC2
:10D5300000DCE3E09D4B9E4A9FE09E4B9E4200DD57
:10D54000B1E09D4B9E4200DC9FE001235B429B4685
:10D5500042464B464046494602F07EF902000B0027
:10D5600006000F0002F078F904000D00934A944B76
:10D5700002F072F9934A944B01F01EFA22002B003C
:10D5800002F06AF9914A924B01F016FA22002B0040
:10D5900002F062F98F4A904B01F00EFA22002B0044
:10D5A00002F05AF98D4A8E4B01F006FA22002B0048
:10D5B00002F052F98B4A8C4B01F0FEF932003B002D
:10D5C00002F04AF9894A8A4B06000F002000290020
:10D5D00002F042F9874A884B02F0B8FB22002B0088
:10D5E00002F03AF9854A864B02F0B0FB22002B008C
:10D5F00002F032F9834A844B02F0A8FB22002B0090
:10D6000002F02AF9814A824B02F0A0FB22002B0093
:10D6100002F022F90B0059460200013100D170E0FE
:10D6200059463000CC00390001F0C6F942464B465D
:10D6300002F012F9774D784B2D191C192268636896
:10D6400002F084FB42464B4602F080FB02000B00D6
:10D650002868696802F07AFB53460A00002B48DB11
:10D6600003000AE0002800D160E742464B464046EE
:10D67000494601F0A1F903000A00180011003CBC62
:10D6800090469946A246AB46F8BD644A644B01F009
:10D6900093F90022634B00F07BFA002800D154E795
:10D6A00043464A46E9E7FFF7CBFA5F4B04000D001B
:10D6B0009E4237DC5D4B9E425DDC02000B0001F0B8
:10D6C0007BF90022574B02F041FB802306000F003C
:10D6D0000022DB052000290001F06EF90B0002009A
:10D6E0003900300001F094FC0023804689469B46B7
:10D6F0002EE78022120603008A18BEE72B4B4C4A05
:10D70000BBE73000390001F057F942464B4602F0C2
:10D71000A3F802000B004046494602F017FB030045
:10D720000A00AAE7434B9E421ADC0022424B02F059
:10D730000DFB002206000F003F4B2000290002F0E5
:10D740008BF80022374B01F037F90B00020039004B
:10D75000300001F05DFC0223804689469B46F7E6D7
:10D760000B0002003549002001F052FC03238046E3
:10D7700089469B46ECE600222A4B02F0E7FA00229B
:10D7800006000F00274B2000290001F015F90B00BF
:10D7900002003900300001F03BFC0123804689463D
:10D7A0009B46D5E6FFFF0F440000F07F182D445440
:10D7B000FB21F93FFFFFDB3FFFFF1F3E11DA22E3B2
:10D7C0003AAD903FEB0D76244B7BA93F513DD0A065
:10D7D000660DB13F6E204CC5CD45B73FFF8300922B
:10D7E0002449C23F0D5555555555D53F2F6C6A2CD0
:10D7F00044B4A2BF9AFDDE522DDEAD3F6D9A74AFE8
:10D80000F2B0B33F711623FEC671BC3FC4EB9899CA
:10D810009999C93FD0270200B02702009C75008863
:10D820003CE4377E0000F03FFFFFF23FFFFFE53FA3
:10D83000FB21F9BFFF7F03400000F83F0000F0BF6D
:10D8400000207047002001497047C0460000F87F63
:10D85000002243088B4274D303098B425FD3030A2F
:10D860008B4244D3030B8B4228D3030C8B420DD342
:10D87000FF22090212BA030C8B4202D312120902D0
:10D8800065D0030B8B4219D300E0090AC30B8B420E
:10D8900001D3CB03C01A5241830B8B4201D38B03BC
:10D8A000C01A5241430B8B4201D34B03C01A524161
:10D8B000030B8B4201D30B03C01A5241C30A8B42A4
:10D8C00001D3CB02C01A5241830A8B4201D38B028F
:10D8D000C01A5241430A8B4201D34B02C01A524133
:10D8E000030A8B4201D30B02C01A5241CDD2C309A5
:10D8F0008B4201D3CB01C01A524183098B4201D321
:10D900008B01C01A524143098B4201D34B01C01A0B
:10D91000524103098B4201D30B01C01A5241C30883
:10D920008B4201D3CB00C01A524183088B4201D3F2
:10D930008B00C01A524143088B4201D34B00C01ADE
:10D940005241411A00D20146524110467047FFE74A
:10D9500001B5002000F0F0F802BDC0460029F7D064
:10D9600076E7704703460B437FD4002243088B427F
:10D9700074D303098B425FD3030A8B4244D3030B56
:10D980008B4228D3030C8B420DD3FF22090212BA1B
:10D99000030C8B4202D31212090265D0030B8B4297
:10D9A00019D300E0090AC30B8B4201D3CB03C01A81
:10D9B0005241830B8B4201D38B03C01A5241430B5C
:10D9C0008B4201D34B03C01A5241030B8B4201D34C
:10D9D0000B03C01A5241C30A8B4201D3CB02C01AB7
:10D9E0005241830A8B4201D38B02C01A5241430A2F
:10D9F0008B4201D34B02C01A5241030A8B4201D31E
:10DA00000B02C01A5241CDD2C3098B4201D3CB01C4
:10DA1000C01A524183098B4201D38B01C01A524173
:10DA200043098B4201D34B01C01A524103098B4277
:10DA300001D30B01C01A5241C3088B4201D3CB0062
:10DA4000C01A524183088B4201D38B00C01A524145
:10DA500043088B4201D34B00C01A5241411A00D2F5
:10DA600001465241104670475DE0CA0F00D049425E
:10DA7000031000D34042534000229C4603098B42CE
:10DA80002DD3030A8B4212D3FC22890112BA030A56
:10DA90008B420CD3890192118B4208D389019211D8
:10DAA0008B4204D389013AD0921100E08909C3095D
:10DAB0008B4201D3CB01C01A524183098B4201D35F
:10DAC0008B01C01A524143098B4201D34B01C01A4A
:10DAD000524103098B4201D30B01C01A5241C308C2
