:020000021000EC
:108000000040002085DE0100CDDE0100CFDE010052
:108010000000000000000000000000000000000060
:10802000000000000000000000000000D1DE0100A0
:108030000000000000000000D3DE0100D5DE0100DA
:10804000D7DE0100D7DE0100359A0100219D010035
:10805000D7DE010000000000D7DE01002D9E0100E8
:10806000D7DE0100B5960100FD950100D7DE0100C5
:10807000D7DE0100D7DE0100D7DE0100D7DE010028
:10808000D7DE010061C30100D7DE0100D7DE0100A9
:1080900041C40100A5A1010051DE0100D7DE0100AD
:1080A000D7DE0100D7DE0100000000000000000064
:1080B00000000000000000000000000000000000C0
:1080C00010B5064C2378002B07D1054B002B02D0AE
:1080D000044800E000BF0123237010BDB42000203D
:1080E00000000000A43D0200084B10B5002B03D097
:1080F0000749084800E000BF07480368002B00D18B
:1081000010BD064B002BFBD09847F9E7000000009C
:10811000B8200020A43D0200B42000200000000090
:10812000164B002B00D1144B9D46402292029A1A06
:10813000924600218B460F461348144A121A00F04B
:1081400067F80F4B002B00D098470E4B002B00D048
:1081500098470020002104000D000D48002802D09F
:108160000C4800E000BF00F02DF82000290000F0CE
:1081700063FA00F011F8C04600000800004000203B
:108180000000000000000000B42000209C2B002014
:108190000000000000000000084B10B50400002B98
:1081A00002D0002100E000BF054B1868836A002B55
:1081B00000D09847200000F033F8C04600000000CF
:1081C000A82A02000E4B70B500251E000D4CE41AC3
:1081D000A410A54204D0AB00F35898470135F8E746
:1081E0000AF054FC084B00251E00084CE41AA410A9
:1081F000A54204D0AB00F35898470135F8E770BDAD
:10820000AC200020AC200020AC200020B0200020BA
:1082100003008218934202D019700133FAE77047C5
:10822000FEE7C0461D4B1B78012B00D070471C4B4E
:108230001B681B07FAD1F0221A4B1B68134018D198
:10824000194B1B6813421CD0154B1B681B07EDD143
:10825000F022144B1B681340402BE7D1124B1B68D4
:108260001342E3D1C12380220121DB00D205D1508A
:10827000DCE7102B01D0302BEAD10B4B1B681342EB
:10828000E6D10A4A0A4B1A6080220A4B12021A608F
:10829000024B1B78012BD7D0C8E7C046E00F00F097
:1082A000E40F00F0E80F00F0EC0F00F0DFFF07C074
:1082B00004050040186C004082B00190019B002B27
:1082C00014D0019B0A48013B01930138C046C046C7
:1082D000C046C046C046C046C046C046C046C0466E
:1082E000C046C046F1D1019B002BEAD102B07047D5
:1082F000E703000010B5064801F06AFC054C207049
:10830000FF2001F033FB207801F030FB10BDC046A8
:1083100070260020142A002070B501F021FA374B96
:10832000374C1860030E2370030C6370030AA370AC
:10833000344BE0701B882371334B1B886371334BC4
:108340001B88A371324B1B88E371324B1B7823725D
:10835000314B00229B5E1A12A372304B62720022D4
:108360009B5E1A1223732E4BE27200229B5E1A123E
:108370006273A3732B4B00229B5E23741A122A4B49
:10838000E27300229B5EA3741A12284B62740022CF
:108390009B5E23751A12264BE27400215A5E11125D
:1083A0006175A27502215A5E1112E17522760421CF
:1083B0005A5E11126176A27606229B5E21001A1285
:1083C00023771C4BE2761B681A0E62771A0CA27791
:1083D0001A0AE2772022A354174D0132286801F0CF
:1083E000EBFF002804D121222100286001F0E4FFE6
:1083F0002B680933FF332B6070BDC0461026002068
:10840000CC2800208C270020422A0020402A00206F
:10841000342A0020AA270020802700209A27002045
:10842000142600201C2A0020C0280020582B0020E1
:108430002C2A0020282A0020D8200020F0B55F46F2
:1084400056464D464446F0B4674C89B0200001F0D2
:10845000BFFB664D00062860200001F0B9FB2B68C9
:1084600000049C4660442860200001F0B1FB2B68AA
:1084700000029C4660442860200001F0A9FB2B68A4
:108480009C4660442860200001F0A2FB584B187005
:10849000200001F09DFB574F3870200001F098FB41
:1084A000554B86B29B4620001E8001F091FB5B4637
:1084B0003602361820001E8001F08AFB4F4B060062
:1084C00098461880200001F083FB43463602361898
:1084D00020001E8001F07CFB494B06009946188065
:1084E000200001F075FB4B463602361820001E8036
:1084F00001F06EFB434B06009A461880200001F005
:1085000067FB53463602361820001E8001F060FBE0
:108510003D4B1880200001F05BFB3C4B1880200095
:1085200001F056FB3A4E3080200001F051FB3A78C2
:10853000384B9C5C844225D0374809F06FF93B7872
:10854000062B48D0072B10D0082B18D101F008F9C2
:10855000324B18602B68C01A314B186009B03CBC14
:1085600090469946A246AB46F0BD2E4A063B11788E
:108570004B40137003D02C4B1A682C4B1A60FFF73A
:10858000CBFEE3E75B461A491B8809780694002472
:10859000305F05901D480024005F04901A480024B5
:1085A000005F039050460024005F0290484600247C
:1085B000005F019040460024005F00901C4809F0D5
:1085C0002DF9FF2001F0D2F9094B187801F0CEF90E
:1085D0003B78062BB6D10123164A11784B40137015
:1085E000FFF79AFEB2E7C0467026002094270020CD
:1085F000142A0020AA2700208C270020422A0020CD
:10860000402A0020342A0020822B00202C26002023
:10861000822700202C2B0200AC2A0200B828002060
:1086200064260020842B00209C270020FC250020AD
:10863000C02A0200242A0020F0B55F465646444670
:108640004D46F0B483B001F05BFA00F08BFF01F00F
:10865000A3F801F0FDFB01F09BFB6421012003F076
:108660009DFD01F0EDFC02F043F801F0A3FD0123B4
:108670009F4A137000239F4A13709F4A13709F4AAA
:1086800013609F4A136053609E4A136053609E4A72
:1086900013709E4A13809E4A13809E4A13809E4AFE
:1086A00013809E4A137001F05BF89D4B9D4F18603C
:1086B0009B469D4B9D4E9A4618609D4B984638E0D0
:1086C0000533FF33FB5A002B00D0C5E001F048F81A
:1086D0005B461B68C01A974B984200D8B9E001234B
:1086E000894A13700023994601F04AF8002800D007
:1086F0008CE003F043FD002800D092E0A0238E4AD6
:10870000DB0599588022D205114200D09EE0A121BC
:10871000C9005A5001F024F8884B894A1860534622
:108720001B68C31A1360534618604B46002B00D0D9
:10873000ABE07A4B1B78002B00D0B4E0814A136089
:10874000814B1B78002BBBD0804B1B7882225200C0
:10875000BA5A9A42BAD37E4B1B78FF2B00D1B3E0B2
:1087600000229146FE2B00D1ABE000F0F9FF5B4602
:1087700000221860744B1A70634B1B78082BB3D11E
:10878000002001F0F3F800233360380001F020FAF4
:108790000028FAD1040001F0E9F8FA208000FFF780
:1087A0008BFD534B6B4D1B78346000202135002B23
:1087B00008D120E030684E4B09301B78FF30306024
:1087C000002B18D02122634901F01AFF0028F1D0B4
:1087D000FA204000FFF770FD5E4C2078013401F074
:1087E000C5F8AC42F9D13068414B09301B78FF30F5
:1087F0003060002BE6D10022434B1A700123474A18
:10880000137000F0BDFF002800D172E701F002FBF9
:1088100001F03CFB00F0BAFF03F0B0FC002800D1EF
:108820006CE700F09DFF4C4B186003F09BFB00F0E1
:10883000A1F800F095FF43461860A0233E4ADB05EF
:1088400099588022D205114200D160E743495A501D
:1088500060E7002399468FE7380001F0B9F93C4BF7
:108860001870FF283BD0FE2833D0374B1B78002BE5
:1088700000D12BE782235B00FA5A344B1B789A42D3
:1088800000D223E7002399466FE7354B1B6801931D
:108890004346019A1B689B1A324A13601F4B1B7890
:1088A000002B00D14AE7304808F0B8FF6420FFF7FA
:1088B00003FDBFF34F8F2D4A2D4BDA60BFF34F8F6F
:1088C000FEE7FFF717FD50E7FFF7B8FD01239946D4
:1088D0004BE701231D4A13701B4A137036E712231E
:1088E0001A4A1370184A113B137011332EE7C04611
:1088F000542B0020242A0020842B0020182600203E
:10890000F428002078270020AA270020342A0020FD
:10891000402A0020422A00208C270020802B0020A3
:10892000202A002070260020282A0020D0200020A5
:108930005826002080841E00040500000C2600201C
:10894000BC28002088270020D4200020FC280020FC
:10895000242600205C2B0020602600200C0500004F
:1089600094270020C82800201C2B02000400FA05D0
:1089700000ED00E0F0B55F4656464D464446F0B483
:10898000CF4B83B01B78002B00D127E1CD4B9A460B
:108990001B78042B00D1CBE1CB4A1278002A1ED1E0
:1089A000022B29D0012B00D1E8E2032B00D11EE1DC
:1089B000042B01D100F03DFD052B00D1A4E3002BD9
:1089C00000D04DE1C14A0026D380938053801380AC
:1089D00000220192BE4A00230027904661E1BD4A71
:1089E000BD4912680968521A5200BC4992B20A8005
:1089F000BB490A80022BD5D1B94B1B889A46B94B8B
:108A0000514600255D5F6B009B46B74B59440022E1
:108A10009B5E9846C91A00D5ADE28023DB059B100A
:108A20009942FCDB002B00D1A5E200201E18F718AC
:108A300000228E4200DC32008C1A8E4200DC3800AC
:108A4000C20F1018421010009B102100002BEDD116
:108A500010B208F011FEA54AA54B07F0E9FF00226D
:108A6000A44B07F095F808F0D1FD00B2071C0028D0
:108A700001DA00F0EDFC3FB29F4B944C00229B5E6C
:108A800020805B00994653464A46991A4346C918C6
:108A900000D532E38023DB059B109942FCDB002BE1
:108AA00000D12AE30020C218D51800268A4200DC33
:108AB00016008E1B8A4200DC2800C20F10184210DC
:108AC00010009B103100002BEDD110B208F0D4FD46
:108AD000864A874B07F0ACFF0022864B07F058F818
:108AE00008F094FD00B2061C002801DA00F0ADFC8D
:108AF00036B253465A469D1A43466080ED1A00D559
:108B0000FEE28023DB059B109D42FCDB002B00D1A5
:108B1000F6E200201A18D1188C460021AA4200DC87
:108B20001100691AAA4200DC6046C20F10184210F8
:108B300010009B100D00002BECD110B208F09CFD32
:108B40006A4A6B4B07F074FF00226A4B07F020F86B
:108B500008F05CFD00B2051C002801DA00F0DFFC23
:108B60002BB20193514643464944A080C91801D510
:108B700000F00FFC8023DB059B108B42FCDC002BFC
:108B800001D100F006FC0020C218D518A846002527
:108B90008A4200DC15004D1B8A4200DC4046C20FB1
:108BA0001018421010009B102900002BECD110B2BD
:108BB00008F062FD4D4A4E4B07F03AFF00224D4B44
:108BC00006F0E6FF08F022FD00B2031C002800DAE0
:108BD000CFE11BB23E4AE080904662E03A4A394B10
:108BE00012789A461B78002A00D1D9E6F7E6434C62
:108BF00023780133DBB25AB22370002A00DACCE3C7
:108C00003F4A404B00215B5E11688C466344136011
:108C10003D4A3E4B00215B5E11688C466344136005
:108C20003B4A3C4B00215B5E11688C4663441360F9
:108C3000394A3A4B00215B5E11688C4663441360ED
:108C4000374A384B00215B5E11688C4663441360E1
:108C5000354A364B00215B5E11688C4663441360D5
:108C60001A4C23881F1C1BB2002B01DA00F0D9FB21
:108C700063883FB21E1C1BB2002B00DACEE3A38830
:108C800036B21D1C1BB2002B00DACFE32BB20193CE
:108C9000E288131C12B2002A00DAC5E30C4A1BB2A8
:108CA0009046694642468988178056809180D380D5
:108CB00003B03CBC90469946A246AB46F0BDC046C8
:108CC000242A0020AA270020842B00204C2B0020DF
:108CD0002C2A00209C270020FC250020C2280020F0
:108CE0008C270020402A0020342A00206666666611
:108CF0006666E63F00005E40422A0020DC2000203D
:108D0000A427002080270020542600209A27002036
:108D1000082A0020142600206C2600201C2A00208F
:108D200008260020C02800200C2A0020582B0020F4
:108D3000C84EC94F34680022B85EC849C84AC94DF8
:108D400054430A004243A218746861435418696886
:108D5000C54A4A43C54994462A6851430A006244B9
:108D6000C349A21A92130A60316803C629682A60AF
:108D7000696011B2BF4A39801278002A00D02EE60D
:108D8000BD4BBE4A1B8812889B185B1A9BB2BC491C
:108D90001AB20A80002164339BB28846C82B09D9D5
:108DA000B84B00215B5E5A43B74B90469A4200DCB9
:108DB00051E39846B54B1B889A46B54B544600255F
:108DC0005D5F6B009B4643465C44E41A00D59FE31D
:108DD0008023DB059B109C42FCDB002B00D197E33A
:108DE00000229F18F8180021A74200DC3900661AFB
:108DF000A74200DC0200D10F8A1851100A009B1014
:108E00003400002BEDD108B208F036FCA14AA24B89
:108E100007F00EFE0022A14B06F0BAFE08F0F6FBAA
:108E200000B2071C002800DA66E33FB29C4B9D4C61
:108E300000229B5E20805B00994653464A469E1A5C
:108E40004346F61800D560E38023DB059B109E4265
:108E5000FCDB002B00D158E30022D118CD180020F4
:108E6000B14200DC0800301AB14200DC2A00D10F08
:108E70008A1851100A009B100600002BEDD108B291
:108E800008F0FAFB834A844B07F0D2FD0022834BA3
:108E900006F07EFE08F0BAFB00B2061C002800DADD
:108EA00028E336B253465A469D1A43466080ED1A6F
:108EB00000D530E38023DB059B109D42FCDB002BBB
:108EC00000D128E300229918C81884460020A9423E
:108ED00000DC0800281AA94200DC6246D10F8A187B
:108EE00051100A009B100500002BECD108B208F0CD
:108EF000C3FB684A684B07F09BFD0022674B06F0F6
:108F000047FE08F083FB00B2051C002800DA16E3D8
:108F10002BB20193A080504643464844C01800D568
:108F200078E28023DB059B109842FCDB002B00D10C
:108F300070E20022D118CD18A8460025AC46814227
:108F400000DC8C466546451BAC46814200DC42464F
:108F5000D10F8A1851100A009B106046EAD108B25E
:108F600008F08AFB4B4A4C4B07F062FD00224B4B4A
:108F700026E600232DE6782778207DE54A4808F08C
:108F80004DFC0A239946494B464C98461BE0414606
:108F90000A80321C002E4FDB41464A802A1C002DDD
:108FA00050DB41468A801A1C002B51DBFA204346D5
:108FB0004000DA80FFF780F901235B429C46E144E0
:108FC0004B46002B78D00023E05E08F055FB384B71
:108FD000384A07F02DFD08F019FB07B2278002235D
:108FE000E05E08F049FB324B324A07F021FD08F001
:108FF0000DFB06B266800423E05E08F03DFB2C4BBF
:109000002C4A07F015FD08F001FB05B2A5800623E8
:10901000E05E08F031FB274A254B07F009FD08F018
:10902000F5FA03B2E3803A1C002FB0DA0022414681
:109030000A80321C002EAFDA002241464A802A1CE8
:10904000002DAEDA002241468A801A1C002BADDAD0
:109050000022ABE7F4280020582B00205703000023
:10906000AE06000078270020DE1D00007FAFFFFF66
:1090700018260020842B0020F0280020342A00200D
:109080007E2B0020822B0020FF7F00008C270020F9
:10909000402A0020666666666666E63F0000644019
:1090A000422A00204C2B00202C2C02002C2A0020CD
:1090B000CCCCEC3FCDCCCCCC53464A461A7023885E
:1090C0001F1C1BB2002B00DA35E263883FB21E1C66
:1090D0001BB2002B00DA2CE2A38836B21D1C1BB297
:1090E000002B00DA29E22BB20193E288131C12B2A2
:1090F000002A00DAFAE11BB2D3E578267820F8E4FA
:109100007823782001932DE5D54B1A88D54B1B8801
:10911000D318D54A12889B1AD44A9BB21188D44AD4
:109120001CB2128864338A18D2499BB20988521A39
:1091300015B2C82B00D9FDE02B00643300DAF9E04A
:10914000642D00DDF6E0CC4BCC4E1B685B009846EE
:10915000CB4B35681B889A466B001A000193C94BAC
:1091600000215B5E9946130053441C004B46E41AF1
:1091700000D5C7E1C44B9C4200DDE7E101339B1001
:109180009C42FCDB002B00D1BCE10022D118CE18A0
:109190000020A14200DC0800201AA14200DC3200BD
:1091A000D10F8A1851100A009B100400002BEDD13A
:1091B00008B208F061FAB54AB54B07F039FC002255
:1091C000B44B06F0E5FC08F021FA00B2071C0028B9
:1091D00000DA93E13FB2534642469A1A4B46AE4CF0
:1091E0002080D21800D59DE1A74B9A4200DDB0E166
:1091F00001339B109A42FCDB002B00D192E1002648
:1092000003259819C1188B460021904200DC01000B
:10921000511A904200DC5E46F00FDA1786192A4098
:10922000D318701006009B100A00002BE9D100B281
:1092300008F022FA954A964B07F0FAFB0022954B6C
:1092400006F0A6FC08F0E2F900B2061C002800DADD
:1092500056E136B25346019A60809D1A4B46ED1A8C
:1092600000D562E1884B9D4200DD75E101339B1022
:109270009D42FCDB002B00D157E1032200219446E4
:10928000C818C21893460022A84200DC0200AA1A9D
:109290000192A84200DC59466246C80FDD1741180A
:1092A0001540EB18481001009B10019DE8D100B259
:1092B00008F0E2F9754A764B07F0BAFB0022754BCD
:1092C00006F066FC08F0A2F900B2051C002800DADE
:1092D00037E12BB20193A08050464B464044C01862
:1092E00000D597E0684B984200DD2CE101339B10DC
:1092F0009842FCDB002B00D18CE0032100228B463E
:10930000D118CD18A8460025AC46814200DC8C4619
:109310006546451BAC46814200DC42465D46D10FA6
:10932000D8178A182840C31851100A009B106046AD
:10933000E6D114E6594B514E0027DF5F584B002110
:10934000595E584B0A000020185E574B7A430021A3
:10935000595E5443411A554B79430020185E544BD3
:10936000611A00241B5F6A43C31A7B435148D31A16
:10937000414A31601360814263DA30604D498B426B
:109380005BDB4D498B4200DCE9E04C4B11609846B9
:10939000DEE678237820FFF71DFC802B00D05FE409
:1093A000474808F03BFA7F22464B1B68D91711400B
:1093B000CB182E49DB110B80434B1B68D91711408A
:1093C000CB182749DB110B80404B1B68D917114084
:1093D000CB183F49DB110B803E4B1B68D91711405E
:1093E000CB183149DB110B803B4B1B68D91711405F
:1093F000CB182F49DB110B80384B1B68D9170A405B
:10940000D318374ADB1113800023524623701370A0
:10941000FFF726FCA023A020FFF7DCFB0026FFF7C8
:109420002EFC0027FFF724FC002337E40025FFF77C
:109430002DFC2C4B0021595EA2E42B4B1160984669
:1094400086E61D48814298DC98E70026FFF750FB2E
:109450000027FFF710FB174B9A4200DAA9E4A9E4B2
:10946000562B0020402A00209A2700208E2700201B
:10947000422A002080270020682600203C2A002065
:109480008C270020342A0020FFFFFF3F66666666B7
:109490006666E63F000064404C2B002082270020D7
:1094A0002C2600201C2A0020862B0020C02800200B
:1094B000902700200080FFFFFF7F0000FEFF0000DC
:1094C000342C0200A427002054260020082A002063
:1094D000A82700206C260020082600200C2A002047
:1094E000F0280020582B00200000FFFF00231BB2B3
:1094F000FFF7D7FB0026D4E4002796E4002769E6AF
:109500000026A6E6A027A02065E6A026A020C9E4A4
:10951000A027A0208AE4A023A0200193FAE400253C
:10952000FFF71EFBA026A02094E6A023A020019315
:10953000D1E60026D0E50027C7E50025D3E50025C4
:10954000E6E40025C5E68023DB05D6E68023DB05BF
:109550001BE68023DB0552E68023DB058DE65B00FE
:109560009846F5E5A222194B1949D200995019499C
:10957000194A802099501949043299501849194ABA
:10958000C0039950A023EB210322DB05C9005A50E8
:1095900008315A5010315A5008315A50A121C9008F
:1095A000585080204004585080204005585080205A
:1095B000C00558500C495A5004315A5028395A5055
:1095C00008395A500021094A9950704700600040FC
:1095D00003151300031713001405000003191300EB
:1095E000031D13001C0500004C07000014070000B9
:1095F0000122014B1A7070478C2B0020A622274BAA
:1096000052009958002931D00021995024490A6804
:109610003932FF320A6001229A64224A1278002A03
:1096200024D1A922D2009A58F423FF339A421DD89C
:109630001D4B0422995E1D4A914218DDFA22FA2040
:1096400092009A800622995E184AC00091421BDC63
:109650000A1C00291DDBFA2112B289005118DA8098
:10966000A8220E4BD2009850114A995070470A1CFC
:10967000002910DBFA2112B2890050189A800622C4
:10968000995E0A4A9142E3DDFA21FA22C90092006A
:10969000E5E70022DFE70022ECE7C04600A000403B
:1096A000882B0020252A00202C2A0020E703000018
:1096B00044050000A622254B5200995800292DD0C0
:1096C000002199504C3AFF3A9A64214A1278002AB4
:1096D00024D1A922D2009A58F423FF339A421DD8EC
:1096E0001C4B0022995E1C4A914218DDFA22FA2096
:1096F00092001A800222995E174AC00091421BDC38
:109700000A1C00291DDBFA2112B2890051185A8067
:10971000A8220E4BD2009850104A995070470A1C4C
:10972000002910DBFA2112B2890050181A80022297
:10973000995E094A9142E3DDFA21FA22C9009200BA
:10974000E5E70022DFE70022ECE7C046009000409A
:10975000252A00202C2A0020E703000044050000F1
:109760000122054B9A64A922D2009858034BC008E5
:109770001B68C0187047C04600A00040882B00201E
:10978000014B18787047C0468C2B00200022014BFB
:109790001A7070478C2B0020F8B55F4656464D4630
:1097A00044460023504AF0B41360504AA226137076
:1097B000C1239B009A4680231B039B4601215346ED
:1097C0005846A8254A4AF6009151D0504948E433FA
:1097D000ED0053519C461350474B48488027135087
:1097E0009946082350465C46BF00D3519846444BE7
:1097F000D16099511C5060463E4C58511851484612
:109800003E4C18514046D851D9601160C0225200D8
:1098100094468022D2009046196062464146394BF8
:10982000043C9950F8395A5891464846364A024005
:10983000C020000402435A5042461A6062469F50BC
:109840005A5894466046314A0240C0200002024302
:109850005A501F602E4A2F4B2F499A512F4A0836D3
:109860005A502F49234899512E4E9A51A4222E4ED8
:10987000D2009E502D4A2E4E9A51043699512D49B0
:1098800010365A50A6222C49D20099502B4A2C4906
:109890005A502C4999512C4E9A512C4A5A512C4AC3
:1098A0001A501951154900205A50FF21294A995040
:1098B0000023294AFA3903F029F8002803D00022AE
:1098C000002102F0F1FC254A0121254803F090F81F
:1098D00000222449244803F0A5F83CBC9046994650
:1098E000A246AB46F8BDC046882B00208C2B00203A
:1098F00000A0004044050000C40900004C05000021
:109900000090004000E100E0FFFF00FFFF00FFFFCC
:109910004091004000F0014014050000006000404C
:109920004C9100401C050000449100400460004040
:10993000240500002C05000040A100400860004004
:10994000340500004CA100403C05000044A100404B
:109950000C60004004050000E0200020F1950100AB
:10996000582C020066060000A822002010B58023B3
:1099700004240A4AD4500A4B1A78002A08D000223C
:109980001A70084B084AD0500422044B1A6010BDCC
:109990000100064800F00EF9F6E7C04600E100E0DD
:1099A000642000201C05000000200040B02700209B
:1099B000F0B55F4656464D464446F0B483B001923A
:1099C000002A24DD802399467C3B9246984600235A
:1099D0000C008A44124E134D04279B4609E05B4657
:1099E000114A3370114B0134D15043462B6054451A
:1099F0000DD04B462178EF503378002BEFD10C4837
:109A000000F0D8F8434601342B605445F1D1019859
:109A100003B03CBC90469946A246AB46F0BDC0465A
:109A20006420002000E100E0002000401C05000050
:109A3000B0270020F8B58425284C6D006359002B11
:109A40001ED18E23254C5B00E258002A09D000224B
:109A50002348E250183BC35A002B39D10122214B35
:109A60001A7092221D4B52009958002907D00021EC
:109A700099509022D20099581B4807F0CFFEF8BDAC
:109A8000FFF76EFE0027A323184EDB0030606751FE
:109A9000E458174DE4B22100280000F08BF8FF2CA9
:109AA000CFD1F178280000F085F8B178280000F0D7
:109AB00081F87178280000F07DF83178280000F0F6
:109AC00079F80C4B1B78082BBBD10B4B1F70B8E7F8
:109AD00000F07EF8094BE050C3E7C046002000408C
:109AE000B0270020642000205C2C0200102A0020F7
:109AF00070260020AA270020542B00201C050000FF
:109B000010B51E4800F04CF81D4800F049F8A0239D
:109B1000E7220321DB05D2009950E82100220E2024
:109B2000C9005A50174B184958501849023058501C
:109B3000174818495850A0200421C000195084200B
:109B400040001A5014301A5001329A601A60C22232
:109B50001E38FF3892009850A120043A8000985097
:109B6000C0230D4A5B00D1507C3014580B4B23406E
:109B7000C024240423431350116010BD702600201C
:109B8000B0270020002000400C0500001405000054
:109B900000E0D7012405000000E100E0FFFF00FF26
:109BA00080220023FF21520083520232815202326E
:109BB00083527047812210B5FF245200835A01332B
:109BC00023408352C1540232835A0133835210BD61
:109BD000802110B5FF2402004900435AC05C0133C4
:109BE000234053520431535A013B535210BDC046D7
:109BF000F0B557464E4645468446E0B489469A46F7
:109C00000120002A3BD0B12300276146244E254D78
:109C1000254CDB002F702770F1504946234BF15043
:109C2000802189007750B06029780029FCD000217C
:109C30002970012A2ED0802101251948890045501C
:109C40000121174889460160802189008846FF3933
:109C5000A325FF39534600268C46ED0021780029C4
:109C6000FCD026704159013AD2B21970012A0BD0AA
:109C700049460162002A01D00133EFE700201CBCF5
:109C800090469946A246F0BD41466746013347508B
:109C90000262E3E780210225014889004550CFE7B1
:109CA00000300040C8220020C92200201C0500000E
:109CB000F0B5474680B407000120002A27D00025D0
:109CC000B126A846134CF6002570134DAF518027DE
:109CD0004646BF00EE51114EA951A86021780029D7
:109CE000FCD000210020013A2170D1B201310A4E8E
:109CF0000A4D59181A7872512278002AFCD0013383
:109D000020708B42F6D101220020034B5A6104BC23
:109D10009046F0BDC8220020003000401C05000025
:109D2000F8B58423154A5B00D158002904D00021DE
:109D3000D1500122124B1A708E23104A5B00D15869
:109D4000002904D00021D15001220E4B1A70922517
:109D50000A4C6D006359002B0FD00B4EA759FFF72B
:109D6000FFFCB123DB000200E3583900074807F08D
:109D700055FD0323A35100236351F8BD003000407B
:109D8000C9220020C8220020C4040000702C020058
:109D9000A023E2211A4ADB05C90010B55A50083940
:109DA0005A500421174B053AFF3A9950164A023986
:109DB00099500022CD200731FF315A5014315A50AA
:109DC0001249C0045850A120C12180008900585078
:109DD0000539FF395A50A022FC39FF39D200995079
:109DE000C023C0240A4A03315B00D1507C30135891
:109DF00024061B021B0A23431350116010BDC046EA
:109E00000C060000003000400C0500002405000096
:109E100000E100E08022044BD2009A58002A01D1D0
:109E200001321A607047C046007000408022002155
:109E3000054B52009950A122D2009A58D3009B1A88
:109E4000024A13807047C04600700040EE28002090
:109E50000A4B0B490B4AC0209950A0210122C9008E
:109E60005A50FD39FF395A50074A000653581B0211
:109E70001B0A034353508023136070470070004057
:109E8000041000000405000000E100E0F0B54746C2
:109E900080B4604C82B02578012D32D0002D1CD0CA
:109EA000022D07D1FFF75CFC5B4B1B68C01A5B4BB4
:109EB000984250D832200138C046C046C046C046FD
:109EC000C046C046C046C046C046C046C046C04662
:109ED000F1D102B004BC9046F0BDB1227721504BC5
:109EE000D200995080227539920099504D4A4631DE
:109EF000995001229A602270FFF732FC464B18609D
:109F0000D8E7FFF72DFC444E3368C01A434B984204
:109F1000D0D9454F03223B0000217720FFF768FE90
:109F20003B7877211A047B7858201B021343BA78B8
:109F300013433E4A1360B122394BD200995002229A
:109F40008A31FF315A50374958509D602270FFF7CF
:109F500007FC3060AEE7344D03222B000021772050
:109F6000FFF746FE2B7800211A046B781B0213437F
:109F7000AA782F4D13432F4A13606A892889120249
:109F80009B1A98461A00002304F03CFF4E06CB11A2
:109F90000021C2093243AE88300412184B410092AE
:109FA00001930021E8884246002304F02BFF0E06AF
:109FB000020A32436E880B12F003002116001F00C4
:109FC000424636184F410023A889002104F01AFFA9
:109FD000FA23DB009C464902C00D0843164B60443F
:109FE0001860124B3200186800213B0004F00AFF91
:109FF000CD02420D4B152A4300980199121A8B414C
:10A0000011005B04CA0B1A430C4B1A600023237027
:10A0100050E7C046CE220020E42200200F27000097
:10A02000003000401C050000E0220020942B00209E
:10A03000D0220020902B0020842700209C27002085
:10A0400070B5A024094E0A4D2B0002222100772072
:10A05000FFF7CEFD2B786A781B0202341343E4B27B
:10A0600033800236B02CEFD170BDC046D022002024
:10A07000CC22002076DF70477ADF70477CDF7047A4
:10A080007FDF7047A9DF704760DF70472EDF7047C2
:10A0900032DF704733DF70474CDF70478021A022EA
:10A0A00010B5044B4904D205D1500022002102F022
:10A0B000FBF810BD0C050000F8B50E00151E08D009
:10A0C0000024044F315D38000134FFF773FDAC42CA
:10A0D000F8D3F8BD0029002010B5040003F074FC8B
:10A0E00021001F4803F0CCFC2388112B2BD01ED954
:10A0F000132B0ED0522B08D11A4B002218880021A6
:10A100000023FFF7BFFF00280CD1200003F022FB43
:10A1100010BD144B0022188885210023FFF7B0FFE3
:10A120000028F2D00022002102F0BEF8EDE7102B4B
:10A13000EBD18021A0220C4BD2054905D150A28839
:10A14000084B1A80E1E78021A123A022DB00D20581
:10A150004905D1500122034B52421A80D5E7C0462F
:10A16000302300206C2000200C05000010B503787F
:10A17000002B00D010BD8021A022084BC903D205BE
:10A18000D150074B3B211888FFF774FF0028F1D00E
:10A190000022002102F088F8ECE7C0460C05000020
:10A1A0006C2000200123024A11784B401370704745
:10A1B000252A0020F0B57248A9B0FFF7F1FC7148DC
:10A1C000FFF7EEFC002348226F49082003F010FE41
:10A1D000002800D0CEE01AAC082200212000FEF7B3
:10A1E00017F801222378200093432370FFF74CFFD8
:10A1F000002800D0B9E0654803F020FE002803D015
:10A200000022002102F050F80022614B15201A7044
:10A21000FFF73EFF01211520FFF73CFF1520FFF758
:10A2200035FF02210320FFF737FF0F21012203AE84
:10A23000337820008B43134310220B4013433370B9
:10A24000D023544A5449D358FF221340534A07F0AD
:10A25000FFFA200007F01EFB210082B23000FFF75A
:10A260000DFF002800D07BE00CAD08220021280063
:10A27000FDF7CEFF06232B8006336B800023AB80D7
:10A280009133FF332800EB80FFF7F6FE002803D060
:10A290000022002102F008F8002104222000FDF72E
:10A2A000B7FF3F4B21003F481A9303F019FC0028E9
:10A2B00003D00022002101F0F7FF382200212800FE
:10A2C000FDF7A6FF022300272B703822043300215C
:10A2D0002000EB70AF70FDF79BFF01232382324B10
:10A2E0002422002130006361FDF792FF01233373C4
:10A2F000402332003361210000970023280003F03F
:10A3000069F9002803D00022002101F0CDFF1C22B2
:10A3100000212000FDF77CFF244A00236260F02228
:10A320001203A26005221A93E38101332374204BA8
:10A33000200063611F4B2273A36103F009FB002817
:10A3400003D00022002101F0AFFF032003F0E4F965
:10A35000002803D00022002101F0A6FF29B0F0BDA3
:10A360000022002101F0A0FF7EE70022002101F081
:10A370009BFF40E70022002101F096FF2BE7C0463B
:10A3800000290020442A0020E8220020D9A0010052
:10A39000252A002000100010B42C0200A82C020076
:10A3A000B9A001003023002068200020CD0C00005F
:10A3B0006DA101009DA00100F0B5564644465F46E0
:10A3C0004D4684460120F0B4874B884C92461C6071
:10A3D000874BA022DB7AD2059840864B8426D0504A
:10A3E000002306227600A351834B87B0E2508422DB
:10A3F00052009346A2597D4B002AF8D0A324E400D2
:10A400001A59A1260492A022AF27F600D205905136
:10A41000049E0136049603AE377067463F0CB8467B
:10A42000777067463F0AB946B7706746F7700029EC
:10A4300000D19EE057466D462F802F880197002F50
:10A4400000D196E06B4F5D46D051002292465A51A2
:10A4500000940C005A4651469B46A246745C664DD9
:10A460005C519C58002CFCD084275C4600257F0062
:10A47000E551009D0131645905940429EED15146FE
:10A480004B1C5A4C9A460A785B4B2500E2503C0024
:10A4900084222B59554E5200002BF9D00023B35083
:10A4A000A323DB00F358A0250593A123ED05DB00D2
:10A4B000E8504B46FF201B02000203406446FF2089
:10A4C00020401818FF26434636041B0433401B184F
:10A4D00001985446013880B20130844601208246FA
:10A4E00044488C448146AF20C9438046CB18424E35
:10A4F0000093644545D00F200138C046C046C04691
:10A50000C046C046C046C046C046C046C046C0461B
:10A51000C046F1D15146364B4046DB7A99404B4616
:10A52000E950314B1B68985198580028FCD0002006
:10A5300083465F460930FF301F50A320C0001858E3
:10A5400005902078985198580028FCD00020834628
:10A550005F460930FF301F50A320C0001B58013454
:10A560000593A123DB00E950009B1919234B994265
:10A57000BFD9002007B03CBC90469946A246AB46E6
:10A58000F0BD14200138C046C046C046C046C04693
:10A59000C046C046C046C046C046C046C046F1D1CF
:10A5A0000120134BA022DB7A04219840114BD205E5
:10A5B000D0500D4B1A68104BD1500531FF31535814
:10A5C000002BFCD0842300215B00D150A323DB00AF
:10A5D000D358A0220593A123D205DB00D050059BC0
:10A5E000012001330593C5E75823002000400040B7
:10A5F0004C2300200C0500001C050000FEFF01009C
:10A60000F0B544465F4656464D46F0B483B06C46BE
:10A6100003232370030C6370030AE070A37092B2EB
:10A620000020002901D0002A06D103B03CBC90468E
:10A630009946A246AB46F0BD284B294CA027236083
:10A64000284CFF05E57AA4460124AC40264D7C51F8
:10A650008424640018511800244B00259A460023D6
:10A660009846A323DB000700A1469B466B4656464F
:10A670005B5D83510359002BFCD04B464646FE5090
:10A680005B46FB5801350193042DEFD1174B842411
:10A69000A32698460027013A95B201350F484D1977
:10A6A0006400F6004346C75003590C4A002BFBD008
:10A6B00084235B00D75093590B700131A942F1D12B
:10A6C0006346DA7A0123A0219340A122C905D20072
:10A6D0008B50019B012001330193A6E7004000400D
:10A6E000582300204C2300200C0500001C0500000E
:10A6F000F0B55F4656464D464446F0B489B006ADC7
:10A70000062200212800FDF783FD40236B70353BB6
:10A71000AB70023BEB7009332B71013B6B71784BD3
:10A720002900981D06229A4607F06FF8AB7803229D
:10A7300098464146A0230020C131FF31DB05890046
:10A74000CA50E97884468946C131FF318900CA5030
:10A75000297944468B46C131FF318900C8506F7951
:10A76000A12039004E46C131FF318900CA506549E8
:10A77000C0000C50644C0E515E46A04604340E518D
:10A7800001263400BC401C506F78604C3F060F51CE
:10A790002F785F4D64464F518427543D7F00CC5144
:10A7A0004E51E025ED005A515A4D5A5180229201E6
:10A7B0001E501A505246584D2960D27A9640424651
:10A7C0009E505022554BCC51CA508422C8594D4BF3
:10A7D00052000028F9D0A321C9005958A0200191A6
:10A7E000A121C005C90046500199012701310191FD
:10A7F000454946500020494998505F505850842799
:10A80000995840487F000029F9D00023C351A32361
:10A81000DB00C35802938421C3593A4A4900002BF4
:10A82000F9D0A323DB00D358A0200293A123C005B5
:10A83000DB00C650029B01330293334BC65000230A
:10A8400006205350354BD050842753582D487F0055
:10A85000002BF9D0A323DB00C358A0220393A1232C
:10A86000D205DB00D650039B01330393264BD65011
:10A8700000236022C351294BC250224B98468423A7
:10A880005B009946C359002BF7D0A3234246DB0057
:10A89000D358A0270493A123FF05DB00FE50049B9F
:10A8A000642001330493FDF707FD43462B605346B4
:10A8B0000121DB7A42469940134B4846F950002368
:10A8C000135006224046154BC25043464A469858FC
:10A8D0000028FCD0A3230B4ADB00D358A022059309
:10A8E000A1230120DB00D205D150059B0133059344
:10A8F00009B03CBC90469946A246AB46F0BDC04666
:10A900004C230020004000400C05000024050000FE
:10A910005405000034070000582300201C050000E7
:10A9200030B5554C83B0A37A002B00D197E06B462D
:10A93000DD1D00232B7023680122597C6368187881
:10A940002B00FFF7B5F9002800D088E0236801222A
:10A950005979636818782B00FFF7AAF9002800D00E
:10A960007DE0236801221979636818782B00FFF7CE
:10A970009FF9002800D072E02423E35C002B36D03E
:10A980000C232B70236801221979636818782B0037
:10A99000FFF78EF9002862D13230FDF78DFCC0231D
:10A9A0002B70A37ADB0762D42368012219796368CC
:10A9B00018782B00FFF77CF9002850D1637C002B1E
:10A9C00058D12B7023680122597C636818782B00BA
:10A9D000FFF76EF9002842D123682870597963681F
:10A9E000012218782B00FFF763F9404235E0042379
:10A9F0002B70236801221979636818782B00FFF700
:10AA000057F900282BD1A27C4023002A2AD02B7092
:10AA1000236801221979636818782B00FFF748F939
:10AA200000281CD13230FDF747FC637C5A1E93414D
:10AA30002B7023680122597C636818782B00FFF77C
:10AA400037F900280BD1230022681033517962684E
:10AA500010780122FFF72CF9404203B030BD0120ED
:10AA60004042FAE7A27AD207D1D52033CFE7E023DC
:10AA70002B7099E70223A4E77020002070B5060030
:10AA800082B0282800D9BBE02323694C01ADE35CE8
:10AA900000282CD1002B18D02870A27C8023002AFB
:10AAA00002D07E3B2B7080332222A25C002A00D091
:10AAB0008AE023680122D97D636818782B00FFF7AC
:10AAC000F7F8002801D12323E05400232B7007332B
:10AAD0006B7023680222597D636818782B00FFF79A
:10AAE000E7F8002800D08BE0207502B070BD012B84
:10AAF00019D030232B70A27C8033002A02D07E3BF9
:10AB00002B7080332222A25C002A5BD123680122B1
:10AB1000D97D636818782B00FFF7CAF8002802D1A6
:10AB200001222323E25420232B70012E6BD0052E0B
:10AB300059D9142E4AD903236B70A37A002B6FD0F6
:10AB400004236A46D370E37A042B69D02368012278
:10AB50009978636818786B460333FFF7A9F80028E3
:10AB600060D16B460722DB78E3726B789B0113435D
:10AB7000DBB26B7023680222597D636818782B0062
:10AB8000FFF796F800283BD108230122A372207317
:10AB900022751C33E35C002B12D12374637C002BE1
:10ABA0000ED16B46DA702368597C636818786B465F
:10ABB0000333FFF77DF8002802D16B46DB7863741E
:10ABC000002092E72B70A1E72B7072E702236B70D5
:10ABD000A37A002B05D005236A46D370E37A052BB0
:10ABE000B4D18723C5E701236B70A37A002B05D06E
:10ABF00006236A46D370E37A062BA7D14723B8E72A
:10AC00000120404271E700236B70A37A002B05D02E
:10AC100006236A46D370E37A062B97D10723A8E769
:10AC2000C723A6E76B789A0107231343DBB2A0E79B
:10AC30007020002010B5114A0100537A012B19D061
:10AC4000002B13D0022B0AD0032B0CD1102320246D
:10AC50000370D37C0020002B00D00C7010BD0823A3
:10AC600010240370F5E701204042F7E70223042493
:10AC70000370EEE7042308240370EAE77020002045
:10AC800070B51C4C82B0A37A002B27D06B46DD1D1B
:10AC9000BB2816D8612817D902232B70E27A002628
:10ACA0009A420BD0236801229978636818782B00A8
:10ACB000FEF7FEFF002811D12B78E372300002B0BE
:10ACC00070BD01232B70E9E7292804D8132808D97F
:10ACD00004232B70E2E703232B70DFE70126764283
:10ACE000ECE7092802D905232B70D7E706232B7040
:10ACF000D4E7C0467020002070B5584C82B0A37ACB
:10AD00000600002B00D196E02423E35C002B00D04A
:10AD100091E0227D002A30D0421E272A00D885E00B
:10AD20002322A25C01AD002A18D02B70A37C8022C4
:10AD3000002B02D0022302322B702223E35C002B73
:10AD400000D071E023680122D97D636818782B0058
:10AD5000FEF7AEFF002801D12323E05400232B701F
:10AD600007336B7023680222597D636818782B00C3
:10AD7000FEF79EFF002800D12075F920032E31D860
:10AD80006B46D870236801225978636818786B463F
:10AD90000333FEF78DFF00284DD16B46FA20D9789A
:10ADA0008000013103F0CAFEA37A80B2E08140083E
:10ADB000002B14D001ADBB2821D9012301222B7017
:10ADC000E37A93420BD0236801229978636818785C
:10ADD0002B00FEF76DFF002801D12B78E3720020D5
:10ADE00002B070BDFA23311C9B009E420FD8FA209E
:10ADF00089B2800003F0A2FE0138C0B2C0E761282A
:10AE00000ED829281AD9032303222B70D8E7FA2059
:10AE1000191C89B2800003F091FE0138C0B2AFE77F
:10AE2000022302222B70CBE72A708BE7C0B2FFF718
:10AE300025FE0020D4E701204042D1E7132805D8A1
:10AE4000092807D9052305222B70B9E7042304221A
:10AE50002B70B5E7062306222B70B1E77020002087
:10AE6000F0B54746242380B4304D82B0EB5C00241B
:10AE7000002B2BD1AC7A002C54D0013398430440E2
:10AE80002F7C2C74041B621E94410600644200282F
:10AE900021D12A7D002A30D06A7C002A16D10732BF
:10AEA0006A4413702B689046597C6B6818781300BD
:10AEB0000122FEF7FDFE002808D143461B786B7483
:10AEC000002E03D0FFF72CFD002827D1200002B070
:10AED00004BC9046F0BD6A7C002AF3D107226A4484
:10AEE00013702B689046597C6B6818781300012208
:10AEF000FEF7DEFE0028E0D0E4E76B46DA712B684F
:10AF00000122597C6B6818786B460733FEF7D0FE38
:10AF10000028DBD16B46DB796B74D7E701242F74F3
:10AF20006442D3E701246442D0E7C0467020002089
:10AF3000F0B54F4646467023C0B4050083B00340C9
:10AF400069D06B469E1D01233370484C0122236853
:10AF5000597D636818783300FEF7AAFE002800D0F8
:10AF60007EE0402233783070934323732A4266D0C8
:10AF70003A20844637388146013838233922012166
:10AF80003B278046A80604D443463A00337049461E
:10AF90006346E80601D4130031702A0700D43370E9
:10AFA00023680122997D636818783300FEF780FEDC
:10AFB000002855D108232A009A4320D02323E35C9C
:10AFC000002B1CD06B46D871A37C8022002B03D0B1
:10AFD0006A460223D37182222223E35C002B01D034
:10AFE0006B46DA7123680122D97D636818786B4655
:10AFF0000733FEF75DFE002801D12323E054002330
:10B000003220A5722375FDF757F9002003B00CBC60
:10B0100090469946F0BD00281ED16B464027134C40
:10B020009E1D23683770597D6368012218783300AC
:10B03000FEF73EFE002813D13378BB4323733E2036
:10B040000423844637388146013833703D22383333
:10B0500005213F27804695E76A46961D337074E7C1
:10B0600000230120A3724042D0E7C0467020002098
:10B07000802370B5774C84B002AD2B702368012219
:10B08000597D636818782B00FEF712FE061E00D06B
:10B09000C2E06420FDF710F923682E70597D6368C3
:10B0A000012218782B00FEF703FE002800D0B3E041
:10B0B00070232B7023680122D97E636818782B00D7
:10B0C000FEF7F6FD002800D0B5E023680622597E81
:10B0D000636818782B00FEF78BFD002800D09BE0FA
:10B0E00004216B7901269B0019400223EA78520063
:10B0F00013406A780B433240134300D182E0D9B247
:10B10000012B03D0022900D098E00023E374002330
:10B110002B7023680122D97E636818782B00FEF714
:10B12000C7FD051E00D086E00122FF235242A37214
:10B1300023726372E372E2812274A3742332FE3BB2
:10B14000A35423732233E054607520752000163A0F
:10B1500016300021FDF75CF82423E5540133E55453
:10B16000A37AE584002B57D06B46DD1D18232B7086
:10B17000237A032B0FD0236801229979636818780A
:10B180002B00FEF795FD002846D12B78DB082372B3
:10B19000A37A002B40D000232B70637A002B0FD0B2
:10B1A00023680122D979636818782B00FEF780FDA7
:10B1B000002831D12B78DB086372A37A002B2BD0C7
:10B1C00005232B70E37A052B0BD023680122997895
:10B1D000636818782B00FEF76BFD00281CD12B78D4
:10B1E000E372FA208000FFF787FD002814D10020C9
:10B1F000FFF736FE041E0FD10020FFF799FE200056
:10B2000004B070BD23680122D978636818782B00D8
:10B21000FEF7EEFC002802D001246442EFE70F2283
:10B220002B78134010D0042B00D06EE70A4806F0AC
:10B23000F5FAE6746BE703246442E0E7012407486B
:10B2400006F0ECFA6442DAE70124054806F0E6FA73
:10B250006442D4E7702000206C2D0200F42C020020
:10B260001C2D0200F0B54F4646462423C0B4284C9E
:10B2700083B0E35C070089469046002B3BD0A37A5D
:10B28000002B38D0236801AE197B6368022218783E
:10B290003300FEF7ADFC00282DD1357873782D02F0
:10B2A0001D43BD422AD3606843885B089D420CD988
:10B2B00023680078D97C01223300FEF799FC00282E
:10B2C00019D13378DB061DD460682368FAB2597B44
:10B2D00000784B46FEF78CFC00280CD13900280082
:10B2E00003F0A2FB434601381870002003B00CBCE9
:10B2F00090469946F0BD01204042F7E7434618705A
:10B300000138F3E7FFF70CFB02204042EEE7C046AE
:10B31000702000202223024AD05400207047C046EB
:10B3200070200020232370B5174C82B0E35C050029
:10B33000834224D000281DD18022822002260021B1
:10B340006B4607331970A17C002901D002001E70E2
:10B350002221615C002900D01A702268D17D6268C8
:10B3600010780122FEF7A4FC00280AD12323E5541B
:10B3700002B070BDB022B22032263021E0E70020BA
:10B38000F6E701204042F3E77020002070B50D0081
:10B3900082B0161E20D0124CA37A002B1CD0020AB9
:10B3A00001AB1A70C0B26268587040185189884267
:10B3B00012DC21681078C97E0222FEF779FC002891
:10B3C0000AD12368EAB2197E636818783300FEF761
:10B3D0006FFC404202B070BD01204042FAE7C04617
:10B3E00070200020F0B556465F464D464446F0B406
:10B3F0008BB003932523514E01910292F35C824658
:10B40000002B75D1002973D0002800D194E00400EE
:10B41000102800DD75E0A3B29B46B37A002B67D0FD
:10B42000002305AF70683B707B7043899C425FDCF2
:10B43000019B0025984638E033681078D97E0222B7
:10B440003B00FEF735FC002852D133684A46197E8E
:10B450007368187806ABFEF7CBFB002848D12200B2
:10B4600006A9404606F0C2F900284CD15D44ADB2B1
:10B47000AA454BD953465C1B102C00DD1024A3B207
:10B480009B46019B9846A8444346002B30D0B37A94
:10B49000002B2DD02B0A3B707068EBB222047B701E
:10B4A000120CD3184289934222DC33680078D97E8B
:10B4B00002223B00FEF7FCFB002819D1E3B29946BB
:10B4C00033684A46197E736818784346FEF7F0FBE6
:10B4D00000280DD1B37A002B0AD02B0A3B7072687A
:10B4E000EBB27B702404240C51891B198B42A3DD21
:10B4F000012040420BB03CBC90469946A246AB4668
:10B50000F0BD102487E702204042F3E7029A130AB5
:10B510003B7033687A70597F7368022218783B0059
:10B52000FEF7C6FB0028E3D125230122F2546B4627
:10B530009B890020F384DDE705AFE8E77020002059
:10B54000242330B55A4C83B0E35C834276D0002884
:10B5500000D17AE02522A25C002A00D19EE0002BD7
:10B5600000D06EE0A27A002A00D19AE06A46D51D8A
:10B570002B7023680122597C636818782B00FEF732
:10B5800097FB002801D12B786374A37C002B36D065
:10B59000236801221979636818782B00FEF728FBCD
:10B5A00000282CD1A37ADB0700D56FE020222B786E
:10B5B00093432B70236801221979636818782B0054
:10B5C000FEF776FB00281AD10330FCF775FE222324
:10B5D000E35C3022002B01D0802380322B702323A8
:10B5E000E35C002B00D02A7023680122D97D6368B8
:10B5F00018782B00FEF75CFB002800D1A074E08CCB
:10B60000FFF77AFB6B46002206331A70626823212B
:10B6100010780122FEF74CFB24230122E254223B46
:10B620002B702368597C636818782B00FEF740FB69
:10B63000002801D12B786374FFF772F9002003B062
:10B6400030BD6B46DD1D002392E7002B22D1A27A8C
:10B65000002A29D06A46D51D2B7023680122597C07
:10B66000636818782B00FEF723FB002801D12B78A4
:10B670006374237C01222B706368232118782B00CC
:10B68000FEF716FB00222423E254D5E720232A7874
:10B6900013438EE76B46DD1D2870DEE70120404234
:10B6A000CDE76B46DD1D70E76B46DD1DE1E7C0466B
:10B6B00070200020802210B5C823D2000249034820
:10B6C000FFF790FE10BDC046042E0200F60B0000EE
:10B6D000F0B5404C87B002AF050003AE2100032255
:10B6E000380006F092F8211D0322300006F08DF894
:10B6F00021000322083104A806F087F82100032264
:10B700000C3105A806F081F8032108006A466C4652
:10B7100028403B5C1370EA080A40BB5CB25C637073
:10B72000AB090B40F95CF35CA170315C01AC21709A
:10B73000627003216A462848A370FFF727FE00289D
:10B7400045D1220003212548FFF720FE00283ED1E5
:10B75000032204A9684606F058F8032205A9200030
:10B7600006F053F86B0708D56A460123694612783C
:10B770001A430A70227813432370AB0608D56A4631
:10B780000123694652781A434A7062781343637002
:10B79000EB0512D488206A460321C000FFF7F6FDAE
:10B7A000002814D1220003210D48FFF7EFFD0028E7
:10B7B0000DD10C4B1D8107B0F0BD6A4601236946CF
:10B7C00092781A438A70A2781343A370E2E70120AB
:10B7D0004042F0E7B82D0200260400002A040000D1
:10B7E000310400005C23002010B5144986B0040029
:10B7F0000C22103103A806F008F8C82C1AD8210032
:10B80000C82003F09BF9013880B201AA030A5070E6
:10B8100002210B481370FFF7B9FD00280AD103AAD3
:10B820000C210848FFF7B2FD002803D1064B9C818C
:10B8300006B010BD01204042FAE7C046B82D020014
:10B8400016020000C10A00005C230020F0B50500CC
:10B8500083B043076BD0C823DB00994267D8080048
:10B8600004F058F94D4903F087FC6B46DC1C071CBB
:10B870002000FFF7DFF92378042B00D17DE033D9D6
:10B88000082B6AD0102B52D18A21381CC90503F02D
:10B890003DFE03F0E3FA424986B2381C03F036FE5F
:10B8A00003F0DCFA80B201AC330A2370030A66703D
:10B8B000A370E070EB0729D4AB073CD400206B07E2
:10B8C00037D5EE20220002214000FFF75FFD00285F
:10B8D0002DD16B462D309A1D0221FF30FFF756FD0A
:10B8E000431E9841404224E0022B20D18D21381C78
:10B8F000C90503F00BFE03F0B1FA2A4986B2381CE1
:10B9000003F004FE03F0AAFA80B2CCE7EA2022009A
:10B9100002214000FFF73AFD002808D16B46253090
:10B920009A1D0221FF30FFF731FD0028C4D001200D
:10B93000404203B0F0BDEC20220002214000FFF79E
:10B9400025FD0028F3D16B4629309A1D0221FF30D6
:10B95000FFF71CFD0028B1D0E9E78B21381CC90591
:10B9600003F0D4FD03F07AFA0F4986B2381C03F0D5
:10B97000CDFD03F073FA80B295E78C21381CC90520
:10B9800003F0C4FD03F06AFA084986B2381C03F0DC
:10B99000BDFD03F063FA80B285E7C046000048436E
:10B9A0000000C04400004046000040450000C04583
:10B9B000F0B54E4645465746E0B486B0924B03ACD0
:10B9C00006002200042168200393FFF7DFFC4022D9
:10B9D000A32332402370904600D10DE11D336370E4
:10B9E0000833A370063BE370C0277F00374000D1C7
:10B9F000FDE0C423237108336371063BA371A323C5
:10BA000022000A218148E37123726372FFF7BEFCB2
:10BA10000323334099464A462023002A00D1B833F5
:10BA2000220001217A4823706D46FFF7AFFC0922FE
:10BA30007849B30600D4D8E01C31280005F0E5FEB3
:10BA400097202A000921C000FFF7A0FC002F09D091
:10BA5000F30500D5D4E0704B0393220004216F4816
:10BA6000FFF794FCF30700D4B6E08B20F823220004
:10BA7000012100012370FFF789FCFA210720FFF75D
:10BA8000E5FEA4203F232A00012140002B70FFF790
:10BA90007DFC002350209A462A000121FF302B70A4
:10BAA000FFF774FC5346EF202B7014232A00022169
:10BAB00040006B70FFF76AFC5346ED202B70642347
:10BAC0002A00022140006B70FFF760FC53462B7088
:10BAD0008E23AE206B706B33AB702A00693B042160
:10BAE0004000EB70FFF752FC5346AD202B7008234B
:10BAF0002A00022140006B70FFF748FC5346AC203F
:10BB00002B7002232A00022140006B70FFF73EFCDD
:10BB1000B307DB0FD8332200012141482370FFF720
:10BB200035FC730752D53F4B00932A0004213E4851
:10BB3000FFF72CFCFEF7F4FEF30641D53B4B0093D8
:10BB40002A0004213A48FFF721FCFEF7E9FE08230A
:10BB5000384C33436381FEF7E3FE4346002B22D18A
:10BB60000A20434684460C3082461038A3731422C0
:10BB7000042310211A258046002F04D043462A00B2
:10BB8000A373514663461420304201D01300A173C1
:10BB90004A46002A00D0A373002006B01CBC904681
:10BBA0009946A246F0BD1020062384460C308246FA
:10BBB0001038A3731A220433162120258046DBE7B0
:10BBC0000422A3212800FCF723FBB9E704228B21E0
:10BBD0002800FCF71DFBA8E78B20D82322000121B9
:10BBE00000012370FFF7D2FB92E7283125E7A3235A
:10BBF00023716371A37102E76370A370E370F3E6CE
:10BC00000D4B039329E7C04602CAE309A70A0000C7
:10BC1000B60A0000B82D0200B080B490A20A00005D
:10BC20003D070000C0C2C4C6980A00002028303872
:10BC30009E0A00005C230020B28BB69BF0B5444600
:10BC40005F4656464D460023F0B491B01A9C06005C
:10BC500023807C4B0F00987B914608A91B9AFFF725
:10BC600001FB03B298462380181E74D11422754B31
:10BC70005B891A4200D075E00325AC46013DA84619
:10BC8000013DA94600250C2100220420AA46079167
:10BC90000139069101390591013904910139039166
:10BCA000013993460291063201390191009201391E
:10BCB0005D062DD5524608ADAA5C120292462A00B6
:10BCC0004D46525D554615433D80454608AA525D96
:10BCD00065461202904608AA525D4546154308AAD9
:10BCE000515C105C009A00029346079A0843009248
:10BCF000049A08219446039A7D809046029AB8805F
:10BD00009146019A20889246014321800598069920
:10BD1000C0277F003B421BD0554608AA575D4D46C1
:10BD2000525D45463F02174308AA3780575D654676
:10BD3000525D3F02174308AA105C515C00020143A8
:10BD4000B180009A7021934677802088014321803A
:10BD50009B0752D1002011B03CBC90469946A246A8
:10BD6000AB46F0BD089A11BA4A461160099A091407
:10BD700010BA4A4650600A9A8C4612BA92464A460F
:10BD8000554695604D460B9A514612BAEA60654693
:10BD90006D43AC4600140914404312144943524306
:10BDA000604440188018F1221206944680226044B4
:10BDB000920490423FD88021228849000A43228081
:10BDC000102293460632009206320792013A0692FA
:10BDD000013A0592013A0492013A0392013A029221
:10BDE000013A0192033A9446013A9046013A91464B
:10BDF000013AEB39142092465AE708AB9C465C4660
:10BE000064446378E678DA070BD50E4A1268002A94
:10BE100007D007200100F308314018400131904756
:10BE200063781B0796D5074B5B68002B92D0B0094F
:10BE3000984700208FE7FEF773FD434601202380DB
:10BE4000404288E75C2300200023F0B5C356002B56
:10BE500036DD302200232024082128261025944690
:10BE6000382703228256002A18DD06214156002277
:10BE7000002902DD134398B2F0BD00293AD1072111
:10BE8000415640320029F5DC51D10821415640325B
:10BE90000029EFDC59D1E0225200EBE7002A27D13C
:10BEA000042282560B00002ADFDC3ED10522825696
:10BEB0002B00002AD9DC3B00002AD6D06346D4E709
:10BEC000002B0CD10123C356002B16DD3122012398
:10BED000212409212926112594463927C1E7342236
:10BEE000042324240C212C26142594463C27B8E74F
:10BEF0002300BAE780225200BCE7002B0CD10223BA
:10BF0000C356002B16DD3222022322240A212A26C0
:10BF1000122594463A27A4E73522052325240D212E
:10BF20002D26152594463D279BE733009DE7A0224B
:10BF300052009FE7002B0BD13722072327240F2124
:10BF40002F26172594463F278BE70132FF3291E7D2
:10BF50003622062326240E212E26162594463E2719
:10BF60007FE7C046F0B55F4656464D464446F0B4BE
:10BF7000764B91B004AA944601930E236344009338
:10BF80000AA900230CAA08A8FFF758FE41B200290D
:10BF900000D0D7E00C9803F075FDC221890503F0AD
:10BFA000B5FA041C0D9803F06DFDC221890503F05C
:10BFB000ADFA80460E9803F065FDC221890503F0B5
:10BFC000A5FA81460F9803F05DFDC221890503F0B3
:10BFD0009DFA211C051C201C03F098FA4146071C01
:10BFE000404603F093FA49468246484603F08EFAEB
:10BFF000291C0290281C03F089FA5146061C381CA3
:10C0000003F098FB029903F095FB311C039602F0B4
:10C010003DFF05F073FB04900591291C484603F091
:10C0200075FA41468346201C03F070FA011C5846FD
:10C0300002F02CFF05F062FB02000B0003F0A8FDEC
:10C04000049A059B01F0AEFF0022414B04F0F0FC86
:10C0500005F0DCFA3F4B291C1880404603F056FAE5
:10C0600049468346201C03F051FA011C584603F050
:10C0700061FB05F043FBC02300221B0604F0D8FC43
:10C0800001F02EFF80268B4636065E440022304BA0
:10C09000310004F0CDFC05F0B9FA2F4B5146188061
:10C0A000381C02F0F3FE029903F044FB039903F0FD
:10C0B00041FB05F023FB06000F004046494603F014
:10C0C00025FA291C8046201C03F020FA011C40465A
:10C0D00002F0DCFE05F012FB02000B0003F058FD3D
:10C0E00032003B0001F05EFF0022194B04F0A0FC7F
:10C0F00005F08CFA7022194B188004ABDB891A42C8
:10C100000BD004AA118A164A118004AA518A154A32
:10C11000118004AA918A144A11801B070BD504AB25
:10C120001A8B124B1A8004AB5A8B114B1A8004AB3A
:10C130009A8B104B1A8011B03CBC90469946A2468F
:10C14000AB46F0BD0C4805F069FBF4E71C26002067
:10C15000005FC440802700209A270020142600207A
:10C160001C2A0020C0280020582B0020B6280020C0
:10C17000002600205C260020FC390200A223A02219
:10C18000DB00D205D35801209B0604D4024B18785B
:10C19000431E9841C0B270471C26002070B50500B0
:10C1A00082B000200E00FEF763FF0100324805F068
:10C1B00035FB7820FEF7BCFE0100304805F02EFB71
:10C1C0007820FEF74DFE01002D4805F027FB0020EA
:10C1D000FFF7A0F80120FFF7A5F8002D1FD16B464F
:10C1E000DC1D0122DD711A2123006820FDF760FDAE
:10C1F0000100244805F012FBFA203100400102F052
:10C200009DFC013820701921230001226820FDF7D0
:10C210004FFD01001C4805F001FB02B070BDFFF7A7
:10C2200049FA0100194805F0F9FA1948FFF70CFE20
:10C23000FFF74EFA0100174805F0F0FA7220FF30C0
:10C24000FFF7B6FB0100144805F0E8FA6420FFF799
:10C25000CBFA0100114805F0E1FA0120FFF770F96F
:10C2600001000F4805F0DAFA0A20FEF709FD010087
:10C270000C4805F0D3FAD0E7403A0200583A0200E1
:10C28000703A0200183B0200303B0200883A02007C
:10C290009C200020A03A0200B83A0200D03A0200E6
:10C2A000E83A0200003B020010B50B0001000B4809
:10C2B00005F0B4FA8021A123A022FA20C900DB00F6
:10C2C000D205D150C000FBF7F7FFBFF34F8F044AF0
:10C2D000044BDA60BFF34F8FFEE7C046483B0200D5
:10C2E0000400FA0500ED00E080218023184A89024D
:10C2F000D1508022D221174B520289005A50403926
:10C300005A5001222F205A600138C046C046C0460C
:10C31000C046C046C046C046C046C046C046C046ED
:10C32000C046F1D19A6000230B4A2F2013600138D8
:10C33000C046C046C046C046C046C046C046C046CD
:10C34000C046C046C046C046F1D1044A137070478B
:10C3500000E100E0001001406C2300208C2300204D
:10C36000A021F0B5002347462C4A490080B4535021
:10C370000431535004315350043153504C3953500D
:10C3800004315350264B1B68002B37D0254900261B
:10C3900052582549254F0C68141B00222402240AF8
:10C3A000904602E0002D1AD02B001A68A24216D83F
:10C3B000A41AB6181A7CDD69002AF3D0424699699E
:10C3C0001A745A693B68002B1BD01000984700284C
:10C3D000E8D000220021FFF767FF002DE4D1144BC5
:10C3E00014491A780B789A420ED0134A9B009E503B
:10C3F00080218023114A49035B00D15004BC904640
:10C40000F0BD08009047CDE70132D3B2022B01D036
:10C410000B70EAE700230B70E7E7C046001001400D
:10C4200070230020040500006C23002074230020EA
:10C4300080230020812300208423002000E100E0ED
:10C44000F0B55F4656464D464446F0B4C54BC64A25
:10C450001B68C6498BB0059309781378994200D1BF
:10C4600057E10133DBB2022B00D100231370C04A25
:10C470009B009B58BB4A9A46059B53441B021B0AD0
:10C48000136001230193BB4B00241B689B46BA4BEE
:10C490005A461B78914619000393B84B88461B688F
:10C4A00047460493AF4B013F1B680793B44B1B787F
:10C4B000099300239C4606930893FBB26646984670
:10C4C000FF2B32D04346D800049B9C4613006044A7
:10C4D0000178457800961A00A9421FD046684A00A4
:10C4E000B446521886780131D200C9B262448E42F5
:10C4F00000D1EDE01678022E00D1C7E0032EEAD17C
:10C50000002BE8D01C74DB69002BFBD1013345788C
:10C510000093002399461A00A942DFD14746013F04
:10C52000FBB2009E9846FF2BCCD1089BC8460292D6
:10C53000B446002B00D0F0E0069B002B02D0894BC4
:10C54000079A1A606346002B02D04246894B1A6054
:10C55000019B002B00D02DE15B46029A00259B1A1F
:10C560005A1E9341DBB205937E4B00271B6802994C
:10C570009C46804B1B689B46814B1B78069300238F
:10C580000193804B994601230093039B013BDBB24F
:10C590000393FF2B00D1F9E0049ADB0092460E00D2
:10C5A0009A44002D28D06A68A9682C00ED6963467A
:10C5B000D31A1B021B0A4B4552D86A4612785B18E5
:10C5C00023606760A7602274E761002E58D031684D
:10C5D0003000994205D3B9E01168994200D3A3E035
:10C5E0001000C2695B1A002AF6D1E26132002360B2
:10C5F000C4611600002DD6D153461A785B783100FD
:10C600009342C2D0514649685300884651469B1810
:10C610000132D2B20A708978DB004344914200D1E2
:10C620009DE0197832000129E3D15C68227C9046B4
:10C63000414632000029DCD19A686260D968A16065
:10C640001869E0605B69A361069B002BAFD043468D
:10C65000002263606346D31A1B021B0A4B45ACD908
:10C6600063469A1A1202120A8A4264D28B1A6A46E6
:10C67000127823606760A7602274E761002EA6D15C
:10C6800022000123A34601931600B3E75668002B4E
:10C6900030D09E421ED0009A1F00944602E096427F
:10C6A00006D01700FA69002AF9D16246009212E713
:10C6B00065460095BA420FD01568D269FA61002A22
:10C6C00016D013689C466544156045784B4602E7D2
:10C6D00000210FE71A001F00DE69002E0CD0012593
:10C6E00000951568D269B1463300FA61002AE8D195
:10C6F0004578F0E60023EEE60125234B9D6000958A
:10C70000069500250023079501359946089509955A
:10C71000D2E700239A460193B5E66A4624215218CF
:10C72000174B12781A7007E7C91A1160E26123608B
:10C730003200C4615DE76B461B7827606760A760C5
:10C740002374E761002E9BD000233168CB1A33603D
:10C7500022000123E661A346019316004AE75246F0
:10C7600015705EE76C2300208023002081230020C9
:10C770008423002070230020782300207C230020C5
:10C7800082230020FEFF7F0000100140019B002B50
:10C7900000D09DE0029B994236D1059B002B33D1FE
:10C7A0000023534A13700BB03CBC90469946A246F6
:10C7B000AB46F0BD4F4B002418680025029B0021BA
:10C7C0000026574615E01A68BA4200D984E0D868B6
:10C7D000BF1A89181E60DC69002807D0DD611D00C2
:10C7E000059A986052181202120A5A60230020001B
:10C7F000019C002BE7D1002C01D03E4B1860002398
:10C80000029301330593AFE6002900D15DE00B6888
:10C8100039489846394B3A4DC4583A4B2E781B68E4
:10C82000E11A0902090A0331002E2DD042468A423C
:10C8300000D20A00A820D21812022F49130AC00001
:10C840002E4D0B504A591B1B121B1202120A1B02BF
:10C8500003321B0A9A42A3D94B590B502F2001389F
:10C86000C046C046C046C046C046C046C046C04698
:10C87000C046C046C046C046F1D180218023224A2E
:10C8800089025B00D1508BE78026D1277602BF005A
:10C89000C651403FC651C02280271B4EBF025200E6
:10C8A000B7503760012606602F200138C046C046C9
:10C8B000C046C046C046C046C046C046C046C04648
:10C8C000C046C046F1D12E70B0E7FFF70DFD67E717
:10C8D0005A46084B1A605DE7BA46002C01D005495C
:10C8E00008605146521A1A600293012305933BE6F1
:10C8F0008223002070230020001001400405000066
:10C900008C2300206C23002000E100E0F8B54F46A6
:10C910004646C0B40326350080460F0014009946F1
:10C9200015400720002D03D00CBC90469946F8BD59
:10C93000002A44D0FFF7D8FC4A46224B80201A60D8
:10C940002200214B18321E70204B62601C607B005D
:10C95000DB19DB00D218E260D318C02263612570B6
:10C960006570A77025726572A77225746574A774C7
:10C97000C524FF21164B40031D60164B52001D704D
:10C98000154BA4001D70154B98501A598A433F3916
:10C990000A431A51A122186040461149D20088501A
:10C9A000C42080001C580F4A2240C0242402224385
:10C9B0001A500D4B0020CA580C4B1A60B4E7034BB9
:10C9C0001A60B1E774230020782300207C23002024
:10C9D00070230020802300208123002000E100E05C
:10C9E00000100140FF00FFFF040500006C23002041
:10C9F00010B50B4B1B68002B0BD0002A07D000286A
:10CA000005D0036808201C7C002C04D010BD072032
:10CA1000FCE70820FAE759745A610020F6E7C0469F
:10CA20007C230020F0B5344B1C68002C06D0002875
:10CA300004D00723042903D81800F0BD0823FBE71E
:10CA40004369002BFAD0437C012B44D000262B4BAA
:10CA500010255B68DB05DB0D25D164196378A578AB
:10CA60005F1CFFB2BD423AD02578BD4235D05D0093
:10CA7000ED186368ED009C4665440423002DDBD06F
:10CA8000033B2B7068601E4B1E48C358E960AB60C7
:10CA9000802180236A611C4A5B0049032E61677014
:10CAA000D1500023C8E7103B5DB2002D19DBAD0863
:10CAB000C035154FAD00ED5903273B40DB00DD408D
:10CAC000AB093B40DBB20025012BC6D00835032B58
:10CAD000C3D00835C1E70E00B9E70423ACE700274F
:10CAE000C2E70F25094FDBB2BC461D40083DAD082B
:10CAF000AD0065446D68DFE77C23002000ED00E0B9
:10CB0000040500000010014000E100E018ED00E025
:10CB100010B52C4A03001168082000292AD0002BE8
:10CB200028D05A69002A25D000221A74264A0830D3
:10CB30005268D205D20D1ED109184A788878541C43
:10CB4000E4B2A04231D00878A0422CD05000821824
:10CB50004868D200844662440420002A0AD0023881
:10CB6000107053604C70802380210020174A4903C5
:10CB70005B00D15010BD103A50B2002817DB80087E
:10CB8000C030124C8000005903242240D200D04013
:10CB900082092240D2B20020012ACDD00830032AD7
:10CBA000CAD00830C8E70420E4E70024CBE70F2010
:10CBB000074CD2B2A4461040083880088000604478
:10CBC0004068E1E77C23002000ED00E000E100E0A8
:10CBD00018ED00E0074B1A680823520701D418002B
:10CBE0007047002804D0044B5B7803600023F6E70D
:10CBF0000E23F4E75C2400209023002071DF7047AF
:10CC000072DF704779DF70477DDF704765DF7047FF
:10CC1000F0B55F4656464D464446F0B485B09A4658
:10CC20000EAB80CB06001B8800919B463B8801938E
:10CC30000388002B63D00023994602ABDD1C3B0028
:10CC400000241700984603E033880134A3422CDD0A
:10CC50007368A1009C460422614403A804F0D5FD3A
:10CC60000022290003A8FFF7D1FF002829D12B7843
:10CC7000BB42E9D14B46002B2AD043461A88D31930
:10CC80005B453EDC5244290003A8FFF7BFFF0028A4
:10CC900017D143462A781B880134D31842461380A3
:10CCA000012399463388A342D2DC4B464746002BEA
:10CCB00025D03B88019A013B9B1A9BB20C20FF2B8D
:10CCC0001AD905B03CBC90469946A246AB46F0BD89
:10CCD00043461B88DA1902325A4512DC42460133B8
:10CCE00069469BB2138052460978D15443461A884C
:10CCF000013292B21A80C5E7110052465354002007
:10CD0000DFE70C20DDE7C046F0B55F4656464D46EE
:10CD100044460023F0B417881380436B87B00600A5
:10CD20000D001400002B00D19CE1022F00D891E1EE
:10CD30001A7802230B701121238801339BB22380C0
:10CD4000E954238801339BB22380EA5423880133BA
:10CD50009BB22380326B002A00D170E0190012319F
:10CD6000B94200D976E11121E95423880139013310
:10CD70009BB22380E954238801339BB22380D17B6B
:10CD8000E954238801339BB22380917BE9542388A3
:10CD900001339BB22380517BE954238801339BB23A
:10CDA0002380117BE954238801339BB22380D17AFD
:10CDB000E954238801339BB22380917AE954238874
:10CDC00001339BB22380517AE954238801339BB20B
:10CDD0002380117AE954238801339BB22380D179CF
:10CDE000E954238801339BB223809179E954238845
:10CDF00001339BB223805179E954238801339BB2DC
:10CE000023801179E954238801339BB22380D178A0
:10CE1000E954238801339BB223809178E954238815
:10CE200001339BB223805178E954238801339BB2AC
:10CE300023801278EA54238801339BB223802E2268
:10CE4000B25C002A00D00FE12D22B25C002A00D093
:10CE50002CE1B278002A00D055E1F278002A14D0F3
:10CE6000D91CB94200D9F5E00221E95423880139DF
:10CE700001339BB22380E954238801339BB2238082
:10CE8000EA54238801339BB223807268002A15D0AC
:10CE9000D91CB94200D9DDE002211278E954238877
:10CEA000083101339BB22380E954238852B2013305
:10CEB0009BB22380EA542388013323803389002BDB
:10CEC00000D09BE1338A002B00D0B1E1338B002BE3
:10CED00000D0C7E1336A002B4BD022880C20911D73
:10CEE0009346B94200D9B6E0198805388A46052923
:10CEF00000D8B0E0BB496A468C46D4446146D18133
:10CF0000D1898C46B84988468C4500D8A3E0598819
:10CF10008C46052900D89EE0B2496144D18189B28E
:10CF2000414500D897E0B1498A4504D08C4502D0EC
:10CF3000E24500D98FE005215A46A95422880D31D7
:10CF4000013292B22280A9542288013292B2228008
:10CF50001988AA181170090A51702288023292B2F7
:10CF600022805988AB181970090A59702388023336
:10CF70002380736A9846002B30D09A882188131D2D
:10CF80005B180C20BB4266D8931CFE2B63D803327F
:10CF90006A54FF22238801339BB22380EA5442461D
:10CFA000238801339BB223801288EB181A70120A6F
:10CFB0005A704246238802339BB223809288002A0B
:10CFC0000CD0414689680538002944D0E81804F09F
:10CFD0001CFC434622889B88D31823802C23F35CB7
:10CFE000002B00D0B0E033780020002B33D0328803
:10CFF0000720012A2FD02288901CB8422AD8012B62
:10D0000004D1737802339B189F4223D3023FBA1A8C
:10D0100004AF93B22818390098463B80FFF7F4FD1F
:10D02000002818D13378022B00D141E1012B00D127
:10D03000DEE043460821FE2B0CD822885E1CAE544D
:10D040002288013292B22280A954228801329B1890
:10D05000238000E00C2007B03CBC90469946A246D5
:10D06000AB46F0BD002375E6D91C0C20B942F2D8BE
:10D070000221E9542388103001339BB22380E85405
:10D08000238801339BB22380022A00D10BE100D810
:10D0900004E1032A00D109E1042A00D0FCE00322C4
:10D0A000EA54238801339BB22380CDE609330C2058
:10D0B000BB42D0D804A8FFF7A1FD0028CBD108229D
:10D0C00023880921EA542388133201339BB2238039
:10D0D000EA5402AB9C462088153A013080B2208089
:10D0E0006144281804F091FB238802AA0633127ABF
:10D0F0009BB22380002A00D00122EA542388013306
:10D100009BB22380A5E604330C20BB42A3D804A81D
:10D11000FFF778FD00289ED103222388EA54238854
:10D12000163201339BB22380EA54238802AA0133CA
:10D130009BB212892380EB181A70120A5A70238846
:10D1400002339BB2238088E6B36A9846002B00D155
:10D15000A2E09B880233FE2B00D97BE70022914698
:10D16000163292461632208893460CE04B46B26A3D
:10D170005B0090464B449B00984443469B88023397
:10D18000FE2B00D966E7524601332B542388013326
:10D190009BB22380EA544246238801339BB223800A
:10D1A0001288EB181A70120A5A704346208802300F
:10D1B00080B220809A88002A0BD0996800296BD011
:10D1C000281804F022FB434620889B88C01880B2B0
:10D1D00020804B460133DBB299465B46F35C4B45FE
:10D1E000C4D800E77FF3FFFF7DF30000FFFF0000DE
:10D1F0007378984500D31DE743461BE708239846FC
:10D20000B044019700942B00022202214046FFF710
:10D21000FFFC002800D01EE7019700942B0010228D
:10D2200006214046FFF7F4FC002800D013E749E64A
:10D2300010239846B044019700942B00022203214A
:10D240004046FFF7E5FC002800D004E70197009472
:10D250002B00102207214046FFF7DAFC002800D0FF
:10D26000F9E633E618239846B044019700942B0062
:10D27000022214214046FFF7CBFC002800D0EAE64A
:10D28000019700942B00102215214046FFF7C0FCA7
:10D29000002800D0DFE61DE60720DCE6012AFBD1EE
:10D2A0000022EA54FDE60122EA54FAE6E954F8E6DF
:10D2B0003B880921984500D3BDE64346BAE6C046FF
:10D2C00030B593B01F236A460C009380D3800028AA
:10D2D00022D0C3785B071CD501AA02A9FFF714FD71
:10D2E00002AD002816D1002C19D0E378002B10D104
:10D2F0006B460AA99A1D2000FFF706FD002809D1F8
:10D300006B469B790AAA694628000979FFF778FCE1
:10D3100000E0072013B030BD90800025E3E76B46A6
:10D320000022DC800023EEE773DF704770B59F4E6C
:10D3300086B0072200213000FAF76AFF9C4C637820
:10D34000002B6ED09B4D2B78012B05D0A278002AA4
:10D3500000D1EFE0022B0FD1974A1268002A00D1CA
:10D36000FDE00121954B0820197090472B78012B87
:10D3700000D1F7E0022B5FD0227B002A01D1032BE2
:10D380007AD0227E002A02D1042B00D107E18A4AFA
:10D390001268002A02D0033B012B77D90022884B68
:10D3A0001A70182200216846FAF732FF00236A46F5
:10D3B000137013722A7801930393022A00D18BE031
:10D3C00072D9032A00D194E0042A22D16B46A28BA1
:10D3D0001A82228C5A827B4B1A79002A00D1B6E03D
:10D3E0002278002A00D1B6E0774A1278002A00D0CD
:10D3F000B1E0694603930423023274480A720021A3
:10D40000C370FFF75DFF002864D10622704B1A70CD
:10D410002A78002A51D1684B1B68002B56D1002076
:10D4200058E0A378634D002BA0D02B78022B93D02B
:10D43000012BA1D102232B70A378002B17D0737876
:10D44000002B00D0B0E0B378002B00D0ACE0F37834
:10D45000002B00D0A8E03379002B00D0A4E0737932
:10D46000002B00D0A0E0B379002B00D09CE0032378
:10D470002B70237B002B61D104232B70237E002B88
:10D4800000D18CE04C4B1A68002A87D02378002BFF
:10D4900084D04D4B1B78002B00D07FE70121484BF7
:10D4A0000720197090477CE7012AB2D169464B8268
:10D4B0000B82474B01960A701A706846FFF734FFDB
:10D4C000002807D13C4B1B68002BA8D0404A10789D
:10D4D0009847002006B070BD012369460B706B466B
:10D4E000218901965982694663680B82384B1A700C
:10D4F000E3E76B46A28A5A82228A1A82314B1A7952
:10D50000002A1DD02278002A1DD02F4A1278002A26
:10D5100019D169460393042302322C480A72002170
:10D52000C370FFF7CDFE0028D4D10522284B1A7016
:10D530002A786EE7022B00D01EE798E7032326E740
:10D540001A7B002ADED10322214B1A70B5E71A7B21
:10D55000002A00D044E704221D4B1A70ADE717499A
:10D560000A7004E76278002A00D163E77278002A23
:10D5700000D00CE7B278002A00D008E7F278002A41
:10D5800000D004E73279002A00D000E77279002A3F
:10D5900000D0FCE6B279002A00D14BE7F7E6002381
:10D5A0000B4A2B701370F9E60223F0E6D02400201A
:10D5B000D824002070250020A424002071250020FC
:10D5C0004F25002020250020CB24002060240020AF
:10D5D00084250020F8B504000E000E20002C00D198
:10D5E0007BE0002A79D000203C4908703C490B6060
:10D5F00006993C4B19603C490B0023CA23C323CA3C
:10D6000023C323CA23C3072200213848FAF700FEA8
:10D61000374B384A384D1A60384A00219A60280042
:10D620003822FAF7F5FD237822002B70A378103208
:10D63000AB70E378EB7063786B702B00103303CA28
:10D6400003C32B00103A083303CA03C32B0008326C
:10D65000183303CA03C3636A002B11D0284B294F28
:10D660006B62616A9F600A881A80888898800028A7
:10D6700006D000238A68D25CFA5401338342F9D180
:10D68000A36A002B14D0204B204FAB62A06A9F608E
:10D690008188998002881A800023002905D0826839
:10D6A000D25CFA5401338B42F9D12C23E25CEA5468
:10D6B000236A002B06D0164B2B62226A51885980B0
:10D6C00012881A806368002B03D0124B6B6063686A
:10D6D0006B6031002800FFF7F3FDF8BD70250020D6
:10D6E000A4240020CC240020D8240020D024002012
:10D6F00020250020FC24002060240020502500204C
:10D7000098240020AC24002078250020302500201B
:10D71000742500201C25002010B500240B4B82B07E
:10D72000187001A80194FFF755FA082809D00028BD
:10D7300005D1019B002B05D00122054B1A7002B0C8
:10D7400010BD0194FFF7F2FDF9E7C04670250020F7
:10D75000A824002030B5038883B0112B1ED0192BCC
:10D7600007D0102B01D003B030BD82882D4B1A801A
:10D77000F9E78479002CF6D12B4B1D78022D4ED081
:10D7800038D9032D23D0042DEDD1284B1C70284B04
:10D790001B68002BE7D000209847E4E70024254BC6
:10D7A0001C70204B82881B889A42DCD101251E4BBD
:10D7B00001A81D700194FFF70DFA082824D0002855
:10D7C00027D1019B002B20D01B4B1D70CBE7174AA4
:10D7D0001570042201A81A700194FFF7FBF90828BC
:10D7E00012D0002815D1019B002B0ED00122124B24
:10D7F0001A70B8E7012DB6D1022201A81A7001945F
:10D80000FFF7E8F90828DAD10194FFF78FFD002827
:10D81000A9D00A4B1B68002BA5D09847A3E7032289
:10D82000D8E7C046A62000207025002084250020CF
:10D83000A4240020CB240020A8240020CC240020F5
:10D8400075DF704776DF70477ADF70477BDF7047A0
:10D8500010B5184B82B01888174B984214D0174A4D
:10D86000174C13780133DBB21370217B99420DD230
:10D8700000231370237C002B12D16369002B03D08B
:10D88000002201A80270984702B010BD0D49FFF7B1
:10D89000D7FF0028F8D0A369002BF5D09847F3E70D
:10D8A0003B21FFF7CFFF0028E7D0A369002BE4D08E
:10D8B0009847E2E7D0250020FFFF000090250020D8
:10D8C00094250020D425002030B51B4B1B4A5B88D3
:10D8D000118883B099420FD852889A420CD3184BC2
:10D8E0005B69002B03D0012201A802709847154CF8
:10D8F0000023237003B030BD124C2378002B08D0D6
:10D900000F4B5B69002BF3D0002201A802709847EF
:10D91000EEE70D4B0A4D1B78002B0BD0A9680022B7
:10D920000A48FFF77FF80028E2D0AB69002BDFD070
:10D930009847DDE76968F2E788250020D4250020B4
:10D94000942500208525002090250020B02500206A
:10D95000164902000B0070B532CA32C332CA32C354
:10D9600012681A600022124B01681A70002916D042
:10D97000104C0832200003F048FF2000FFF764FF3E
:10D9800000280BD101220C4B52421A8000220B4B73
:10D9900000211A700A480B4AFFF72AF870BD0548A3
:10D9A000FFF754FF0028EDD0F8E7C046942500208B
:10D9B00085250020D4250020D0250020902500209A
:10D9C000703B020051D8010010B50388112B35D0EF
:10D9D00021D9122B17D0502B1CD1214CC288E3899E
:10D9E0009A4217D1C38B022B14D11E33C35CDB07C1
:10D9F0000ED41C48FFF78CF800280BD0A369002B2D
:10DA000008D0984706E0811D0822174803F0FDFE64
:10DA1000FFF75AFF10BD102BFCD101008288134B79
:10DA200016311A801048082203F0EFFE0022104B36
:10DA30001A700B4BDB89002BECD1E9E701220B4B71
:10DA400052421A8000220A4B06481A70FFF760F80B
:10DA50000028DFD0024B9B69002BDBD09847D9E729
:10DA600094250020B025002088250020D025002006
:10DA700090250020A0DF7047A2DF704763DF70476A
:10DA800010B5002808D0002906D00B88112B15D01E
:10DA9000502B02D0102B0ED010BDCB88028A9A4298
:10DAA00010D082889A42F7D18369002BF4D0CA8BB8
:10DAB00020319847F0E78B888382EDE701235B42B2
:10DAC0008382E9E7CA8B022AEBD12023CA5C1F3B81
:10DAD000134002D001238375DEE78375DCE7C0467F
