:020000021000EC
:1080000000400020E9DE010031DF010033DF010024
:108010000000000000000000000000000000000060
:1080200000000000000000000000000035DF01003B
:10803000000000000000000037DF010039DF010010
:108040003BDF01003BDF0100BD9A0100859D01007F
:108050003BDF0100000000003BDF0100919E0100BA
:108060003BDF01003D970100859601003BDF0100E9
:108070003BDF01003BDF01003BDF01003BDF010094
:108080003BDF0100C5C301003BDF01003BDF010016
:10809000A5C4010009A20100B5DE01003BDF01001B
:1080A0003BDF01003BDF010000000000000000009A
:1080B00000000000000000000000000000000000C0
:1080C00010B5064C2378002B07D1054B002B02D0AE
:1080D000044800E000BF0123237010BDB42000203D
:1080E00000000000243E0200084B10B5002B03D016
:1080F0000749084800E000BF07480368002B00D18B
:1081000010BD064B002BFBD09847F9E7000000009C
:10811000B8200020243E0200B4200020000000000F
:10812000164B002B00D1144B9D46402292029A1A06
:10813000924600218B460F461348144A121A00F04B
:1081400067F80F4B002B00D098470E4B002B00D048
:1081500098470020002104000D000D48002802D09F
:108160000C4800E000BF00F02DF82000290000F0CE
:1081700091FA00F011F8C04600000800004000200D
:108180000000000000000000B4200020C82B0020E8
:108190000000000000000000084B10B50400002B98
:1081A00002D0002100E000BF054B1868836A002B55
:1081B00000D09847200000F033F8C04600000000CF
:1081C0000C2B02000E4B70B500251E000D4CE41A5E
:1081D000A410A54204D0AB00F35898470135F8E746
:1081E0000AF086FC084B00251E00084CE41AA41077
:1081F000A54204D0AB00F35898470135F8E770BDAD
:10820000AC200020AC200020AC200020B0200020BA
:1082100003008218934202D019700133FAE77047C5
:10822000FEE7C0461D4B1B78012B00D070471C4B4E
:108230001B681B07FAD1F0221A4B1B68134018D198
:10824000194B1B6813421CD0154B1B681B07EDD143
:10825000F022144B1B681340402BE7D1124B1B68D4
:108260001342E3D1C12380220121DB00D205D1508A
:10827000DCE7102B01D0302BEAD10B4B1B681342EB
:10828000E6D10A4A0A4B1A6080220A4B12021A608F
:10829000024B1B78012BD7D0C8E7C046E00F00F097
:1082A000E40F00F0E80F00F0EC0F00F0DFFF07C074
:1082B00004050040186C004082B00190019B002B27
:1082C00014D0019B0A48013B01930138C046C046C7
:1082D000C046C046C046C046C046C046C046C0466E
:1082E000C046C046F1D1019B002BEAD102B07047D5
:1082F000E703000010B5084801F09CFC074C0100A2
:108300002070074809F0BCFAFE2001F073FB2078CA
:1083100001F070FB10BDC04678260020302A0020F6
:10832000102B020070B501F05FFA374B374C186024
:10833000030E2370030C6370030AA370344BE070C8
:108340001B882371334B1B886371334B1B88A371CC
:10835000324B1B88E371324B1B782372314B002266
:108360009B5E1A12A372304B627200229B5E1A123D
:1083700023732E4BE27200229B5E1A126273A37368
:108380002B4B00229B5E23741A122A4BE2730022AD
:108390009B5EA3741A12284B627400229B5E2375A5
:1083A0001A12264BE27400215A5E11126175A275F1
:1083B00002215A5E1112E175227604215A5E1112D1
:1083C0006176A27606229B5E21001A1223771C4B4F
:1083D000E2761B681A0E62771A0CA2771A0AE27705
:1083E0002022A354174D0132286802F017F8002804
:1083F00004D121222100286002F010F82B680933F3
:10840000FF332B6070BDC04610260020E4280020FA
:1084100098270020662A0020642A0020582A00207D
:10842000B62700208C270020A62700201426002035
:10843000382A0020D8280020802B0020502A002035
:108440004C2A0020D8200020F0B55F4656464D4605
:108450004446F0B4584C89B0200001F0EBFB574D76
:108460002870200001F0E6FB0700200001F0E2FB8D
:10847000534BDE5D864210D0524809F001FA0B25BD
:108480002000013D01F0D6FB002DF9D109B03CBC24
:1084900090469946A246AB46F0BD4B4B20001F705C
:1084A00001F0C8FB494B87B29B4620001F8001F0BA
:1084B000C1FB5B463F023F1820001F8001F0BAFB62
:1084C000434B070098461880200001F0B3FB434659
:1084D0003F023F1820001F8001F0ACFB3D4B07001E
:1084E00099461880200001F0A5FB4B463F023F183B
:1084F00020001F8001F09EFB374B07009A46188032
:10850000200001F097FB53463F023F1820001F80D8
:1085100001F090FB314B1870200001F08BFB304FC5
:108520003870200001F086FB2E4B274A18705B46FE
:1085300012781B8829780696059038780490274889
:108540000078039050460024005F029048460024C3
:10855000005F019040460024005F0090224809F02F
:108560008FF9FF2001F046FA287801F043FA164B04
:108570001B78062B1AD0072B0BD0082B13D101F038
:1085800033F91A4B18601A4B1B68C01A194B186044
:108590007CE7194A063B11784B40137003D0174B08
:1085A0001A68174B1A60FFF7BDFEE8E70123154A6A
:1085B00011784B401370F6E778260020302A00200F
:1085C000B02B0200302B0200B62700209827002095
:1085D000662A0020642A0020582A0020AD2B0020A3
:1085E0002C2600208E270020442B0200CC280020BF
:1085F000A02700206C260020AE2B0020A8270020FA
:10860000FC250020482A00200122124B1A7000236A
:10861000114A1370114A1370114A1360114A136002
:108620005360114A13605360104A1360104A13607C
:10863000104A1360104A1360104A1360104A136006
:10864000104A1360104A1360104A1360104A1360F6
:108650007047C0467C2B0020482A0020AE2B00200B
:10866000182600200C29002084270020A82B002099
:1086700080270020442A0020202A0020C42800202F
:10868000D428002054260020702B002064260020CF
:108690003C2A0020F0B55F4656464D464446F0B4AD
:1086A00083B001F05FFA00F0A1FF01F0B9F801F02A
:1086B00001FC01F09FFB6421012003F0A1FD01F00A
:1086C000F1FC02F047F801F0A7FDFFF79DFF002342
:1086D0007E4A13707E4A13807E4A13807E4A13803E
:1086E0007E4A13807E4A137001F07EF87D4B7E4FE8
:1086F00018609A467D4B7E4E984618607D4B9B468F
:108700007D4B994611E0A121C9005A5001F06CF847
:108710007A4B7B4A186043461B68C31A1360434672
:108720001860019B002B00D0B2E06D4B1C78002C30
:1087300000D0B9E0734B1C6082235B00FB5A002B16
:108740000AD0714A1278002A75D0704A1278FF2A2E
:108750007ED0FE2A00D1B5E0002301935B4B1B784D
:10876000082B26D001F050F800281BD103F038FD6B
:1087700000280AD1A023664ADB0599588022D20539
:108780001142C0D063495A50C0E701F02DF8624B46
:10879000186003F019FC00F031F901F025F85B4690
:1087A0001860E7E701F068FB01F0A2FB01F032F886
:1087B000DCE7002001F01EF900233360380001F0EF
:1087C00039FA0028FAD1040001F014F9FA208000E7
:1087D000FFF772FD514B524D1B783460002021355C
:1087E000002B08D120E030684C4B09301B78FF305B
:1087F0003060002B18D02122494901F033FF0028B6
:10880000F1D0FA204000FFF757FD454C20780134A5
:1088100001F0F0F8AC42F9D13068404B09301B78D8
:10882000FF303060002BE6D10022284B1A70012364
:108830002B4A137096E7380001F0FCF9334B18709F
:108840000230C0B2012887D801232F4A137083E772
:108850000D2B81D9FFF7F8FD00F0C6FF534601222A
:108860001860294B01921C70284B1B78FE2B00D0FE
:1088700074E70633FB5A002B00D16FE7FFF73AFD90
:1088800000F0B2FF5346002218601F4B1A7065E7D4
:108890005B464A461B6812689B1A224A1360104BBB
:1088A0001C78002C00D145E71F4808F0E9FF642040
:1088B000FFF702FDBFF34F8F1C4A1D4BDA60BFF379
:1088C0004F8FFEE700230193D8E7C046B62700206C
:1088D000582A0020642A0020662A002098270020B9
:1088E000AC2B0020402A0020782600204C2A0020B3
:1088F000D02000205C260020A02700200C2600208D
:10890000D028002094270020D420002024260020F6
:10891000040500000C050000682600207C2B0020C8
:10892000842B0020E0280020A02B02000400FA0580
:1089300000ED00E030B5214B214800229B5E214A2A
:108940001B041360204A01680024125F1F4C1204AC
:10895000521A22601E4C52112568AC461D4D6244CD
:10896000D31A2B60DD115B011B155B180360521BD2
:10897000194B226012141A80184B194800229B5E72
:10898000184A1B041360184A01680024125F174C30
:108990001204521A2260164C52112568AC46154D2D
:1089A0006244D31A2B60DD115B011B155B18521B4F
:1089B0000360114B226012141A8030BD0026002083
:1089C000A82B0020C4280020382A0020442A002098
:1089D000202A0020802700208C270020C828002083
:1089E000D428002054260020D82800206426002007
:1089F0003C2A0020702B0020A6270020F0B55F46FF
:108A000056464D464446F0B4B34B83B01B78002B1A
:108A100000D029E1B14B9A461B78B14A1278002A5E
:108A200023D1022B2ED0012B00D1E1E2032B00D168
:108A300078E1042B00D1E1E1052B00D1A3E3002B69
:108A400000D0A8E1A74A0026D380938053801380EA
:108A500000220192A44A002300279046BBE1A04BCC
:108A60001A780423002A00D1C9E1A04AA04912685B
:108A70000968521A52009F4992B20A809E490A80A0
:108A8000022BD0D19C4B1B889A469C4B514600250B
:108A90005D5F6B009B469A4B594400229B5E984653
:108AA000C91A00D5A7E18023DB059B109942FCDBA6
:108AB000002B00D19FE100201E18F71800228E42E3
:108AC00000DC32008C1A8E4200DC3800C20F101815
:108AD000421010009B102100002BEDD110B208F0C5
:108AE000FDFD884A884B07F0D5FF0022874B07F031
:108AF00081F808F0BDFD00B2071C002801DA00F083
:108B000003FD3FB2824B774C00229B5E20805B00CE
:108B1000994653464A46991A4346C91800D52BE34D
:108B20008023DB059B109942FCDB002B00D123E363
:108B30000020C218D51800268A4200DC16008E1BC1
:108B40008A4200DC2800C20F1018421010009B104F
:108B50003100002BEDD110B208F0C0FD694A6A4B1C
:108B600007F098FF0022694B07F044F808F080FDF9
:108B700000B2061C002801DA00F0C3FC36B25346EE
:108B80005A469D1A43466080ED1A00D5F7E28023CD
:108B9000DB059B109D42FCDB002B00D1EFE20020A7
:108BA0001A18D1188C460021AA4200DC1100691A5B
:108BB000AA4200DC6046C20F1018421010009B1041
:108BC0000D00002BECD110B208F088FD4D4A4E4B41
:108BD00007F060FF00224D4B07F00CF808F048FD4D
:108BE00000B2051C002801DA00F0ABFC2BB20193A7
:108BF000514643464944A080C91801D500F02DFCD8
:108C00008023DB059B109942FCDB002B01D100F097
:108C100024FC00201A18D518A84600258A4200DC3A
:108C200015004D1B8A4200DC4046C20F101842104E
:108C300010009B102900002BECD110B208F04EFD63
:108C4000304A314B07F026FF0022304B06F0D2FFAE
:108C500008F00EFD00B2031C002800DAC9E01BB2C8
:108C6000214AE0809046B6E01C4B9A461B781A1FBA
:108C7000012A00D9D1E6274F27480022BC5E46686A
:108C8000A201610089180268244DD2018918026886
:108C9000D2008918B2018A18710051182A68D603C7
:108CA0001203961B6A689203B2186E68F602921B52
:108CB0008A1A1B4992130A6001683A804160296848
:108CC000046069602A60052B00D0C8E6FFF732FE19
:108CD00053461B78A1E6C046482A0020B62700204C
:108CE000AE2B0020742B0020502A0020A827002043
:108CF000FC250020DA28002098270020642A002084
:108D0000582A0020666666666666E63F00005E409A
:108D1000662A0020802B00200C29002084270020B8
:108D200018260020B74C23780133DBB25AB22370E7
:108D3000002A00DA95E3B44AB44B00215B5E116867
:108D40008C4663441360B24AB24B00215B5E1168EB
:108D50008C4663441360B04AB04B00215B5E1168DF
:108D60008C4663441360AE4AAE4B00215B5E1168D3
:108D70008C4663441360AC4AAC4B00215B5E1168C7
:108D80008C4663441360AA4AAA4B00215B5E1168BB
:108D90008C4663441360A84C23881F1C1BB2002B15
:108DA00000DAA0E363883FB21E1C1BB2002B00DA7E
:108DB00097E3A38836B21D1C1BB2002B00DA96E3A2
:108DC0002BB20193E288131C12B2002A00DA8CE362
:108DD0009A4A1BB290466946424689881780568057
:108DE0009180D38003B03CBC90469946A246AB46E6
:108DF000F0BD002333E77827782083E68D4F904B32
:108E000090491A88904B1B88D3183A889B1A9BB2BA
:108E10001AB20A80002164339BB28846C82B08D955
:108E20008A4B1B785A438A4B90469A4200DC6EE389
:108E30009846884B1B889A46874B544600255D5FB1
:108E40006B009B4643465C44E41A00D572E38023E2
:108E5000DB059B109C42FCDB002B00D16AE3002267
:108E60009F18F8180021A74200DC3900661AA742B3
:108E700000DC0200D10F8A1851100A009B10340048
:108E8000002BEDD108B208F029FC744A744B07F0AE
:108E900001FE0022734B06F0ADFE08F0E9FB00B2C4
:108EA000071C002800DA3CE33FB26F4B624C002203
:108EB0009B5E20805B00994653464A469E1A434675
:108EC000F61800D533E38023DB059B109E42FCDBC4
:108ED000002B00D12BE30022D118CD180020B14285
:108EE00000DC0800301AB14200DC2A00D10F8A18D9
:108EF00051100A009B100600002BEDD108B208F0BB
:108F0000EDFB564A564B07F0C5FD0022554B06F0C7
:108F100071FE08F0ADFB00B2061C002800DAFEE28C
:108F200036B253465A469D1A43466080ED1A00D524
:108F300003E38023DB059B109D42FCDB002B00D16B
:108F4000FBE200229918C81884460020A94200DCE0
:108F50000800281AA94200DC6246D10F8A18511075
:108F60000A009B100500002BECD108B208F0B6FBFC
:108F70003A4A3B4B07F08EFD00223A4B06F03AFE90
:108F800008F076FB00B2051C002800DAECE22BB2F8
:108F90000193A080504643464844C01800D59CE247
:108FA0008023DB059B109842FCDB002B00D194E270
:108FB0000022D118CD18A8460025AC46814200DC1D
:108FC0008C466546451BAC46814200DC4246D10FCB
:108FD0008A1851100A009B106046EAD108B208F0C6
:108FE0007DFB1E4A1E4B07F055FD00221D4B2DE652
:108FF0001E4808F045FC0A239946104B0E4C984633
:1090000052E0C046DC200020B02700208C27002042
:1090100058260020A6270020242A002014260020FD
:1090200074260020382A002008260020D828002096
:10903000282A0020802B0020742B0020502A00209A
:1090400008290020A62B0020582A0020AD2B002044
:10905000FF7F000098270020642A0020666666666D
:109060006666E63F00006440662A0020B02C0200DD
:1090700041460A80321C002E4FDB41464A802A1CA2
:10908000002D50DB41468A801A1C002B51DBFA2050
:1090900043464000DA80FFF70FF901235B429C460C
:1090A000E1444B46002B46D00023E05E08F016FB5F
:1090B000C24BC34A07F0EEFC08F0DAFA07B2278089
:1090C0000223E05E08F00AFBBC4BBD4A07F0E2FC5D
:1090D00008F0CEFA06B266800423E05E08F0FEFADD
:1090E000B64BB74A07F0D6FC08F0C2FA05B2A58025
:1090F0000623E05E08F0F2FAB14AB04B07F0CAFC72
:1091000008F0B6FA03B2E3803A1C002FB0DA00226E
:1091100041460A80321C002EAFDA002241464A80C6
:109120002A1C002DAEDA002241468A801A1C002B30
:10913000ADDA0022ABE753464A461A7023881F1C5B
:109140001BB2002B00DA0DE263883FB21E1C1BB27B
:10915000002B00DA04E2A38836B21D1C1BB2002BE0
:1091600000DAFBE12BB20193E288131C12B2002A51
:1091700000DAD1E11BB22EE678267820FFE47823CE
:109180007820019334E58F4B8F491A888F4B1B88C9
:10919000D3188F4A12889B1A8E4A9BB210888E4A27
:1091A0001CB212886433821808889BB2121A10B25B
:1091B000C82B00D924E10300643300DA20E16428DD
:1091C00000DD1DE1854B864C1B685B009846854B96
:1091D00025681B889A466B001A000193824B002178
:1091E0005B5E9946130053441C004B46E41A00D5BD
:1091F000ADE17E4B9C4200DDC0E101339B109C42FF
:10920000FCDB002B00D1A2E100220327D118C818F3
:109210000026A14200DC0E00A61BA14200DC0200D9
:10922000D10FDC178A183C40E31851100A009B103C
:109230003400002BEAD108B208F050FA6C4A6D4BAA
:1092400007F028FC00226C4B06F0D4FC08F010FA62
:1092500000B2071C002800DA65E13FB253464246DF
:109260009A1A4B46654C2080D21800D56CE15F4BB2
:109270009A4200DD7FE101339B109A42FCDB002B18
:1092800000D161E100260325F018C1188B460021AA
:10929000904200DC0100511A904200DC5E46F00F63
:1092A000DA1786192A40D318701006009B100A009E
:1092B000002BE9D100B208F011FA4D4A4D4B07F0EE
:1092C000E9FB00224C4B06F095FC08F0D1F900B206
:1092D000061C002800DA28E136B25346019A608065
:1092E0009D1A4B46ED1A00D534E1404B9D4200DDFE
:1092F00047E101339B109D42FCDB002B00D129E1AB
:109300000322002194465818C21893460022A8420E
:1093100000DC0200AA1A0192A84200DC594662460B
:10932000C80FDD1741181540EB18481001009B10BD
:10933000019DE8D100B208F0D1F92D4A2D4B07F07C
:10934000A9FB00222C4B06F055FC08F091F900B265
:10935000051C002800DA09E12BB20193A0805046D9
:109360004B464044C01800D5B7E0204B984200DD82
:10937000FEE001339B109842FCDB002B00D1ACE0F7
:10938000032100228B46D118CD18A8460025AC46F3
:10939000814200DC8C466546451BAC46814200DCC0
:1093A00042465D46D10FD8178A182840C31851107D
:1093B0000A009B106046E6D110E6C046CCCCEC3FDC
:1093C000CDCCCCCC7E2B00208C270020642A002022
:1093D000A62700209A270020662A00207026002059
:1093E000602A002098270020582A0020FFFFFF3F16
:1093F000666666666666E63F00006440742B002081
:10940000634B1E78634B1978634B0A0000255D5F40
:10941000624B72430021595E54436D1A7543604B91
:10942000424300201B5E5F48611B0025405F5E4C8D
:109430001B1A73435D48D31A5D4A21601360814251
:109440005BDA206059498B4253DB5A498B4200DC7E
:109450009AE0594B11609846B9E678237820FFF7D7
:10946000FFFB802B00D096E4544808F009FA7F22D5
:10947000534B1B68D9171140CB185249DB110B8095
:10948000514B1B68D9171140CB185049DB110B8089
:109490004F4B1B68D9171140CB184E49DB110B807D
:1094A0004D4B1B68D9171140CB183C49DB110B8081
:1094B0004A4B1B68D9171140CB183A49DB110B8076
:1094C000474B1B68D9170A40D318464ADB11138053
:1094D00000235246237013705DE4A023A020FFF701
:1094E000BFFB002665E400275CE4002370E4002550
:1094F00066E43D4B1160984669E62E488142A0DC47
:10950000A0E70026FFF73AFB0027FFF7FAFA274B00
:109510009A4200DA8CE48CE400231BB25BE4002660
:10952000FEE40027C0E4002797E60026D4E6A02644
:10953000A020F6E4A027A020B7E4A023A020019358
:1095400027E50025FFF752FBA026A020C5E6A027AF
:10955000A02083E6A023A0200193FFE6002501E6DA
:109560000026F8E50027EFE5002510E50025F3E6E5
:109570008023DB0504E78023DB0583E68023DB050E
:1095800042E68023DB05BBE65B0098461FE6C0464B
:109590008E2700202C260020382A0020B02B002007
:1095A000D82800209C270020602A00200080FFFF90
:1095B00070260020FF7F0000FEFF0000B82C020094
:1095C000B02700209A270020582600207E2B00205C
:1095D000242A0020B427002074260020082600201A
:1095E000282A0020082900200000FFFFA222194B92
:1095F0001949D20099501949194A8020995019499E
:10960000043299501849194AC0039950A023EB21FC
:109610000322DB05C9005A5008315A5010315A5004
:1096200008315A50A121C900585080204004585098
:109630008020400558508020C00558500C495A5091
:1096400004315A5028395A5008395A500021094AD1
:109650009950704700600040031513000317130072
:109660001405000003191300031D13001C0500005E
:109670004C070000140700000122014B1A707047CC
:10968000B82B0020A622274B52009958002931D030
:109690000021995024490A683932FF320A600122B8
:1096A0009A64224A1278002A24D1A922D2009A5818
:1096B000F423FF339A421DD81D4B0422995E1D4AA4
:1096C000914218DDFA22FA2092009A800622995ED1
:1096D000184AC00091421BDC0A1C00291DDBFA213C
:1096E00012B289005118DA80A8220E4BD20098508D
:1096F000114A995070470A1C002910DBFA2112B256
:10970000890050189A800622995E0A4A9142E3DD48
:10971000FA21FA22C9009200E5E70022DFE70022E1
:10972000ECE7C04600A00040B42B0020492A0020EE
:10973000502A0020E703000044050000A622254B24
:109740005200995800292DD0002199504C3AFF3AE7
:109750009A64214A1278002A24D1A922D2009A5868
:10976000F423FF339A421DD81C4B0022995E1C4AF9
:10977000914218DDFA22FA2092001A800222995EA4
:10978000174AC00091421BDC0A1C00291DDBFA218C
:1097900012B2890051185A80A8220E4BD20098505C
:1097A000104A995070470A1C002910DBFA2112B2A6
:1097B000890050181A800222995E094A9142E3DD1D
:1097C000FA21FA22C9009200E5E70022DFE7002231
:1097D000ECE7C04600900040492A0020502A0020B3
:1097E000E7030000440500000122054B9A64A9220A
:1097F000D2009858034BC0081B68C0187047C04679
:1098000000A00040B42B0020014B18787047C046E0
:10981000B82B00200022014B1A707047B82B002093
:10982000F8B55F4656464D4644460023504AF0B4CC
:109830001360504AA2261370C1239B009A468023CE
:109840001B039B46012153465846A8254A4AF60069
:109850009151D0504948E433ED0053519C46135088
:10986000474B4848802713509946082350465C468A
:10987000BF00D3519846444BD16099511C5060466B
:109880003E4C5851185148463E4C18514046D8510C
:10989000D9601160C022520094468022D2009046C6
:1098A000196062464146394B043C9950F8395A5880
:1098B00091464846364A0240C020000402435A50AE
:1098C00042461A6062469F505A5894466046314A52
:1098D0000240C020000202435A501F602E4A2F4B04
:1098E0002F499A512F4A08365A502F4923489951E7
:1098F0002E4E9A51A4222E4ED2009E502D4A2E4E0C
:109900009A51043699512D4910365A50A6222C49A5
:10991000D20099502B4A2C495A502C4999512C4E1F
:109920009A512C4A5A512C4A1A5019511549002063
:109930005A50FF21294A99500023294AFA3903F045
:1099400017F8002803D00022002102F0DFFC254A8E
:109950000121254803F07EF800222449244803F021
:1099600093F83CBC90469946A246AB46F8BDC0462B
:10997000B42B0020B82B002000A0004044050000BC
:10998000C40900004C0500000090004000E100E028
:10999000FFFF00FFFF00FFFF4091004000F001408B
:1099A00014050000006000404C9100401C050000C0
:1099B0004491004004600040240500002C05000094
:1099C00040A1004008600040340500004CA1004068
:1099D0003C05000044A100400C600040040500006C
:1099E000E020002079960100DC2C020066060000D1
:1099F000A822002010B5802304240A4AD4500A4B20
:109A00001A78002A08D000221A70084B084AD05051
:109A10000422044B1A6010BD0100064800F0FCF857
:109A2000F6E7C04600E100E0642000201C050000CD
:109A300000200040BC270020F0B55F4656464D464A
:109A40004446F0B483B00192002A24DD8023994675
:109A50007C3B9246984600230C008A44124E134DDC
:109A600004279B4609E05B46114A3370114B0134D1
:109A7000D15043462B6054450DD04B462178EF50D2
:109A80003378002BEFD10C4800F0C6F84346013480
:109A90002B605445F1D1019803B03CBC90469946E7
:109AA000A246AB46F0BDC0466420002000E100E0C5
:109AB000002000401C050000BC27002070B5842554
:109AC0001F4C6D006359002B1ED18E231C4C5B0074
:109AD000E258002A09D000221A48E250183BC35A23
:109AE000002B28D10122184B1A709222144B5200DD
:109AF0009958002907D0002199509022D2009958F6
:109B0000124807F0BDFE70BDFFF76EFE104B002639
:109B10001860A3236651DB00E4580E48E4B221002C
:109B200000F07AF80C4B1B78082BCED1FF2CCCD14F
:109B30000A4B1E70C9E700F07DF8094BE050D4E7EE
:109B400000200040BC27002064200020E02C020000
:109B50002C2A002078260020B62700207C2B00200D
:109B60001C05000010B51E4800F04CF81D4800F020
:109B700049F8A023E7220321DB05D2009950E82110
:109B800000220E20C9005A50174B18495850184946
:109B900002305850174818495850A0200421C000DE
:109BA0001950842040001A5014301A5001329A6023
:109BB0001A60C2221E38FF3892009850A120043A41
:109BC00080009850C0230D4A5B00D1507C3014585F
:109BD0000B4B2340C024240423431350116010BDB9
:109BE00078260020BC270020002000400C05000043
:109BF0001405000000E0D7012405000000E100E0AA
:109C0000FFFF00FF80220023FF2152008352023217
:109C10008152023283527047812210B5FF245200D4
:109C2000835A013323408352C1540232835A013391
:109C3000835210BD802110B5FF2402004900435A11
:109C4000C05C0133234053520431535A013B5352F9
:109C500010BDC046F0B557464E4645468446E0B472
:109C600089469A460120002A3BD0B123002761464D
:109C7000244E254D254CDB002F702770F1504946AE
:109C8000234BF150802189007750B060297800295A
:109C9000FCD000212970012A2ED0802101251948ED
:109CA00089004550012117488946016080218900BB
:109CB0008846FF39A325FF39534600268C46ED0020
:109CC00021780029FCD026704159013AD2B219708E
:109CD000012A0BD049460162002A01D00133EFE787
:109CE00000201CBC90469946A246F0BD41466746FE
:109CF000013347500262E3E78021022501488900D1
:109D00004550CFE700300040C8220020C922002083
:109D10001C050000F0B5474680B407000120002A6A
:109D200027D00025B126A846134CF6002570134D08
:109D3000AF5180274646BF00EE51114EA951A86091
:109D400021780029FCD000210020013A2170D1B2F5
:109D500001310A4E0A4D59181A7872512278002A98
:109D6000FCD0013320708B42F6D101220020034B3E
:109D70005A6104BC9046F0BDC8220020003000406B
:109D80001C050000F8B58423154A5B00D158002952
:109D900004D00021D1500122124B1A708E23104A98
:109DA0005B00D158002904D00021D15001220E4B74
:109DB0001A7092250A4C6D006359002B0FD00B4E80
:109DC000A759FFF711FDB123DB000200E35839006A
:109DD000074807F055FD0323A35100236351F8BD45
:109DE00000300040C9220020C8220020C404000026
:109DF000F42C0200A023E2211A4ADB05C90010B5A9
:109E00005A5008395A500421174B053AFF3A9950D5
:109E1000164A023999500022CD200731FF315A509D
:109E200014315A501249C0045850A120C121800059
:109E3000890058500539FF395A50A022FC39FF39A2
:109E4000D2009950C023C0240A4A03315B00D1508C
:109E50007C30135824061B021B0A23431350116045
:109E600010BDC0460C060000003000400C0500008C
:109E70002405000000E100E08022044BD2009A5843
:109E8000002A01D101321A607047C04600700040BC
:109E900080220021054B52009950A122D2009A58ED
:109EA000D3009B1A024A13807047C04600700040DE
:109EB000062900200A4B0B490B4AC0209950A021CB
:109EC0000122C9005A50FD39FF395A50074A00068D
:109ED00053581B021B0A03435350802313607047DF
:109EE00000700040041000000405000000E100E0E4
:109EF000F0B5474680B4604C82B02578012D32D051
:109F0000002D1CD0022D07D1FFF76EFC5B4B1B68A8
:109F1000C01A5B4B984250D832200138C046C04628
:109F2000C046C046C046C046C046C046C046C04601
:109F3000C046C046F1D102B004BC9046F0BDB1228B
:109F40007721504BD2009950802275399200995058
:109F50004D4A4631995001229A602270FFF744FC25
:109F6000464B1860D8E7FFF73FFC444E3368C01AF1
:109F7000434B9842D0D9454F03223B000021772024
:109F8000FFF768FE3B7877211A047B7858201B0284
:109F90001343BA7813433E4A1360B122394BD200BF
:109FA000995002228A31FF315A50374958509D60EA
:109FB0002270FFF719FC3060AEE7344D03222B000E
:109FC00000217720FFF746FE2B7800211A046B78DA
:109FD0001B021343AA782F4D13432F4A13606A893B
:109FE000288912029B1A98461A00002304F03CFFAD
:109FF0004E06CB110021C2093243AE88300412183C
:10A000004B41009201930021E8884246002304F06E
:10A010002BFF0E06020A32436E880B12F00300215A
:10A0200016001F00424636184F410023A889002120
:10A0300004F01AFFFA23DB009C464902C00D0843D6
:10A04000164B60441860124B3200186800213B0028
:10A0500004F00AFFCD02420D4B152A4300980199E6
:10A06000121A8B4111005B04CA0B1A430C4B1A6085
:10A070000023237050E7C046CA220020E4220020BB
:10A080000F270000003000401C050000E0220020E7
:10A09000C02B0020D0220020BC2B002090270020C5
:10A0A000A827002070B5A024094E0A4D2B000222DB
:10A0B00021007720FFF7CEFD2B786A781B0202344F
:10A0C0001343E4B233800236B02CEFD170BDC046EA
:10A0D000D0220020CC22002076DF70477ADF704744
:10A0E0007CDF70477FDF7047A9DF704760DF704714
:10A0F0002EDF704732DF704733DF70474CDF704729
:10A100008021A02210B5044B4904D205D150002271
:10A11000002102F0FBF810BD0C050000F8B50E00A0
:10A12000151E08D00024044F315D38000134FFF7BC
:10A1300073FDAC42F8D3F8BD1829002010B5040017
:10A1400003F074FC21001F4803F0CCFC2388112B82
:10A150002BD01ED9132B0ED0522B08D11A4B002214
:10A16000188800210023FFF7BFFF00280CD1200032
:10A1700003F022FB10BD144B002218888521002318
:10A18000FFF7B0FF0028F2D00022002102F0BEF855
:10A19000EDE7102BEBD18021A0220C4BD205490515
:10A1A000D150A288084B1A80E1E78021A123A02288
:10A1B000DB00D2054905D1500122034B52421A80DF
:10A1C000D5E7C046302300206C2000200C0500009D
:10A1D00010B50378002B00D010BD8021A022084BC1
:10A1E000C903D205D150074B3B211888FFF774FFF4
:10A1F0000028F1D00022002102F088F8ECE7C046E8
:10A200000C0500006C2000200123024A11784B400D
:10A2100013707047492A0020F0B57248A9B0FFF7C3
:10A22000F1FC7148FFF7EEFC002348226F4908203B
:10A2300003F010FE002800D0CEE01AAC0822002166
:10A240002000FDF7E5FF01222378200093432370CF
:10A25000FFF74CFF002800D0B9E0654803F020FE6E
:10A26000002803D00022002102F050F80022614BA8
:10A2700015201A70FFF73EFF01211520FFF73CFF64
:10A280001520FFF735FF02210320FFF737FF0F21CD
:10A29000012203AE337820008B43134310220B407E
:10A2A00013433370D023544A5449D358FF221340E8
:10A2B000534A07F0FFFA200007F01EFB210082B28C
:10A2C0003000FFF70DFF002800D07BE00CAD082226
:10A2D00000212800FDF79CFF06232B8006336B80AE
:10A2E0000023AB809133FF332800EB80FFF7F6FEAD
:10A2F000002803D00022002102F008F800210422E7
:10A300002000FDF785FF3F4B21003F481A9303F0E3
:10A3100019FC002803D00022002101F0F7FF3822A9
:10A3200000212800FDF774FF022300272B7038223C
:10A33000043300212000EB70AF70FDF769FF0123AB
:10A340002382324B2422002130006361FDF760FF3D
:10A35000012333734023320033612100009700232F
:10A36000280003F069F9002803D00022002101F041
:10A37000CDFF1C2200212000FDF74AFF244A0023C4
:10A380006260F0221203A26005221A93E381013376
:10A390002374204B200063611F4B2273A36103F0E1
:10A3A00009FB002803D00022002101F0AFFF0320A9
:10A3B00003F0E4F9002803D00022002101F0A6FFF9
:10A3C00029B0F0BD0022002101F0A0FF7EE70022AD
:10A3D000002101F09BFF40E70022002101F096FFE1
:10A3E0002BE7C04618290020682A0020E822002018
:10A3F0003DA10100492A002000100010382D020064
:10A400002C2D02001DA10100302300206820002017
:10A41000CD0C0000D1A1010001A10100F0B556460C
:10A4200044465F464D4684460120F0B4874B884C35
:10A4300092461C60874BA022DB7AD2059840864B5F
:10A440008426D050002306227600A351834B87B088
:10A45000E250842252009346A2597D4B002AF8D044
:10A46000A324E4001A59A1260492A022AF27F600E3
:10A47000D2059051049E0136049603AE37706746AC
:10A480003F0CB846777067463F0AB946B7706746D3
:10A49000F770002900D19EE057466D462F802F8827
:10A4A0000197002F00D196E06B4F5D46D0510022FE
:10A4B00092465A5100940C005A4651469B46A24679
:10A4C000745C664D5C519C58002CFCD084275C4623
:10A4D00000257F00E551009D013164590594042950
:10A4E000EED151464B1C5A4C9A460A785B4B2500DC
:10A4F000E2503C0084222B59554E5200002BF9D0DB
:10A500000023B350A323DB00F358A0250593A12318
:10A51000ED05DB00E8504B46FF201B020002034024
:10A520006446FF2020401818FF26434636041B04CB
:10A5300033401B1801985446013880B201308446DC
:10A540000120824644488C448146AF20C94380465E
:10A55000CB18424E0093644545D00F200138C046C9
:10A56000C046C046C046C046C046C046C046C046BB
:10A57000C046C046C046F1D15146364B4046DB7A14
:10A5800099404B46E950314B1B6898519858002828
:10A59000FCD0002083465F460930FF301F50A320C7
:10A5A000C000185805902078985198580028FCD081
:10A5B000002083465F460930FF301F50A320C000B3
:10A5C0001B5801340593A123DB00E950009B1919A6
:10A5D000234B9942BFD9002007B03CBC9046994616
:10A5E000A246AB46F0BD14200138C046C046C04666
:10A5F000C046C046C046C046C046C046C046C0462B
:10A60000C046F1D10120134BA022DB7A04219840EF
:10A61000114BD205D0500D4B1A68104BD15005315B
:10A62000FF315358002BFCD0842300215B00D15014
:10A63000A323DB00D358A0220593A123D205DB007E
:10A64000D050059B012001330593C5E75823002016
:10A65000004000404C2300200C0500001C050000B9
:10A66000FEFF0100F0B544465F4656464D46F0B445
:10A6700083B06C4603232370030C6370030AE070FD
:10A68000A37092B20020002901D0002A06D103B0A5
:10A690003CBC90469946A246AB46F0BD284B294C9F
:10A6A000A0272360284CFF05E57AA4460124AC408E
:10A6B000264D7C518424640018511800244B002539
:10A6C0009A4600239846A323DB000700A1469B4639
:10A6D0006B4656465B5D83510359002BFCD04B46BD
:10A6E0004646FE505B46FB5801350193042DEFD1E1
:10A6F000174B8424A32698460027013A95B20135CA
:10A700000F484D196400F6004346C75003590C4AE0
:10A71000002BFBD084235B00D75093590B70013181
:10A72000A942F1D16346DA7A0123A0219340A12204
:10A73000C905D2008B50019B012001330193A6E78C
:10A7400000400040582300204C2300200C0500004E
:10A750001C050000F0B55F4656464D464446F0B431
:10A7600089B006AD062200212800FDF751FD4023E7
:10A770006B70353BAB70023BEB7009332B71013BC7
:10A780006B71784B2900981D06229A4607F06FF8E6
:10A79000AB78032298464146A0230020C131FF3107
:10A7A000DB058900CA50E97884468946C131FF310A
:10A7B0008900CA50297944468B46C131FF3189004E
:10A7C000C8506F79A12039004E46C131FF31890050
:10A7D000CA506549C0000C50644C0E515E46A046FC
:10A7E00004340E5101263400BC401C506F78604C7C
:10A7F0003F060F512F785F4D64464F518427543DDB
:10A800007F00CC514E51E025ED005A515A4D5A511E
:10A81000802292011E501A505246584D2960D27A19
:10A82000964042469E505022554BCC51CA508422ED
:10A83000C8594D4B52000028F9D0A321C9005958DE
:10A84000A0200191A121C005C9004650019901270E
:10A8500001310191454946500020494998505F50C7
:10A8600058508427995840487F000029F9D0002388
:10A87000C351A323DB00C35802938421C3593A4A2E
:10A880004900002BF9D0A323DB00D358A02002936A
:10A89000A123C005DB00C650029B01330293334B5A
:10A8A000C650002306205350354BD05084275358B0
:10A8B0002D487F00002BF9D0A323DB00C358A02232
:10A8C0000393A123D205DB00D650039B01330393EE
:10A8D000264BD65000236022C351294BC250224B35
:10A8E000984684235B009946C359002BF7D0A323D5
:10A8F0004246DB00D358A0270493A123FF05DB00C9
:10A90000FE50049B642001330493FDF7D5FC4346BD
:10A910002B6053460121DB7A42469940134B48464F
:10A92000F9500023135006224046154BC2504346AF
:10A930004A4698580028FCD0A3230B4ADB00D35882
:10A94000A0220593A1230120DB00D205D150059B55
:10A950000133059309B03CBC90469946A246AB46EC
:10A96000F0BDC0464C230020004000400C05000014
:10A97000240500005405000034070000582300207F
:10A980001C05000030B5554C83B0A37A002B00D1D4
:10A9900097E06B46DD1D00232B7023680122597C54
:10A9A000636818782B00FFF7B5F9002800D088E01D
:10A9B000236801225979636818782B00FFF7AAF9F8
:10A9C000002800D07DE02368012219796368187897
:10A9D0002B00FFF79FF9002800D072E02423E35CEE
:10A9E000002B36D00C232B70236801221979636861
:10A9F00018782B00FFF78EF9002862D13230FDF76E
:10AA00005BFCC0232B70A37ADB0762D4236801228E
:10AA10001979636818782B00FFF77CF9002850D16A
:10AA2000637C002B58D12B7023680122597C63680A
:10AA300018782B00FFF76EF9002842D123682870A0
:10AA400059796368012218782B00FFF763F94042B7
:10AA500035E004232B702368012219796368187884
:10AA60002B00FFF757F900282BD1A27C4023002AA6
:10AA70002AD02B70236801221979636818782B007B
:10AA8000FFF748F900281CD13230FDF715FC637C34
:10AA90005A1E93412B7023680122597C63681878F1
:10AAA0002B00FFF737F900280BD123002268103361
:10AAB0005179626810780122FFF72CF9404203B007
:10AAC00030BD01204042FAE7A27AD207D1D5203327
:10AAD000CFE7E0232B7099E70223A4E77020002042
:10AAE00070B5060082B0282800D9BBE02323694C4A
:10AAF00001ADE35C00282CD1002B18D02870A27C7B
:10AB00008023002A02D07E3B2B7080332222A25C5D
:10AB1000002A00D08AE023680122D97D6368187872
:10AB20002B00FFF7F7F8002801D12323E05400237E
:10AB30002B7007336B7023680222597D6368187885
:10AB40002B00FFF7E7F8002800D08BE0207502B05B
:10AB500070BD012B19D030232B70A27C8033002ACA
:10AB600002D07E3B2B7080332222A25C002A5BD174
:10AB700023680122D97D636818782B00FFF7CAF893
:10AB8000002802D101222323E25420232B70012E1E
:10AB90006BD0052E59D9142E4AD903236B70A37A92
:10ABA000002B6FD004236A46D370E37A042B69D05C
:10ABB000236801229978636818786B460333FFF79E
:10ABC000A9F8002860D16B460722DB78E3726B7826
:10ABD0009B011343DBB26B7023680222597D6368CB
:10ABE00018782B00FFF796F800283BD108230122A4
:10ABF000A372207322751C33E35C002B12D12374E3
:10AC0000637C002B0ED16B46DA702368597C636835
:10AC100018786B460333FFF77DF8002802D16B46A6
:10AC2000DB786374002092E72B70A1E72B7072E74A
:10AC300002236B70A37A002B05D005236A46D370DC
:10AC4000E37A052BB4D18723C5E701236B70A37A80
:10AC5000002B05D006236A46D370E37A062BA7D1D2
:10AC60004723B8E70120404271E700236B70A37AC5
:10AC7000002B05D006236A46D370E37A062B97D1C2
:10AC80000723A8E7C723A6E76B789A010723134396
:10AC9000DBB2A0E77020002010B5114A0100537A02
:10ACA000012B19D0002B13D0022B0AD0032B0CD16F
:10ACB000102320240370D37C0020002B00D00C70C4
:10ACC00010BD082310240370F5E701204042F7E788
:10ACD000022304240370EEE7042308240370EAE748
:10ACE0007020002070B51C4C82B0A37A002B27D0B6
:10ACF0006B46DD1DBB2816D8612817D902232B709F
:10AD0000E27A00269A420BD0236801229978636880
:10AD100018782B00FEF7FEFF002811D12B78E37284
:10AD2000300002B070BD01232B70E9E7292804D858
:10AD3000132808D904232B70E2E703232B70DFE7E5
:10AD400001267642ECE7092802D905232B70D7E7C4
:10AD500006232B70D4E7C0467020002070B5584CF5
:10AD600082B0A37A0600002B00D196E02423E35C96
:10AD7000002B00D091E0227D002A30D0421E272AED
:10AD800000D885E02322A25C01AD002A18D02B70E8
:10AD9000A37C8022002B02D0022302322B702223BC
:10ADA000E35C002B00D071E023680122D97D636849
:10ADB00018782B00FEF7AEFF002801D12323E054C2
:10ADC00000232B7007336B7023680222597D636860
:10ADD00018782B00FEF79EFF002800D12075F9207F
:10ADE000032E31D86B46D8702368012259786368E6
:10ADF00018786B460333FEF78DFF00284DD16B4664
:10AE0000FA20D9788000013103F0CAFEA37A80B21B
:10AE1000E0814008002B14D001ADBB2821D90123CB
:10AE200001222B70E37A93420BD023680122997898
:10AE3000636818782B00FEF76DFF002801D12B788E
:10AE4000E372002002B070BDFA23311C9B009E42C9
:10AE50000FD8FA2089B2800003F0A2FE0138C0B2F8
:10AE6000C0E761280ED829281AD9032303222B70A2
:10AE7000D8E7FA20191C89B2800003F091FE01384E
:10AE8000C0B2AFE7022302222B70CBE72A708BE718
:10AE9000C0B2FFF725FE0020D4E701204042D1E7F1
:10AEA000132805D8092807D9052305222B70B9E7EF
:10AEB000042304222B70B5E7062306222B70B1E78A
:10AEC00070200020F0B54746242380B4304D82B076
:10AED000EB5C0024002B2BD1AC7A002C54D0013336
:10AEE000984304402F7C2C74041B621E944106007E
:10AEF0006442002821D12A7D002A30D06A7C002AB1
:10AF000016D107326A4413702B689046597C6B68DF
:10AF1000187813000122FEF7FDFE002808D14346F1
:10AF20001B786B74002E03D0FFF72CFD002827D16F
:10AF3000200002B004BC9046F0BD6A7C002AF3D128
:10AF400007226A4413702B689046597C6B68187806
:10AF500013000122FEF7DEFE0028E0D0E4E76B4696
:10AF6000DA712B680122597C6B6818786B460733BD
:10AF7000FEF7D0FE0028DBD16B46DB796B74D7E798
:10AF800001242F746442D3E701246442D0E7C04611
:10AF900070200020F0B54F4646467023C0B405002F
:10AFA00083B0034069D06B469E1D01233370484C2B
:10AFB00001222368597D636818783300FEF7AAFEE2
:10AFC000002800D07EE04022337830709343237312
:10AFD0002A4266D03A2084463738814601383823E1
:10AFE000392201213B278046A80604D443463A0073
:10AFF000337049466346E80601D4130031702A07CE
:10B0000000D4337023680122997D63681878330077
:10B01000FEF780FE002855D108232A009A4320D04D
:10B020002323E35C002B1CD06B46D871A37C8022C9
:10B03000002B03D06A460223D37182222223E35CD1
:10B04000002B01D06B46DA7123680122D97D636839
:10B0500018786B460733FEF75DFE002801D12323E5
:10B06000E05400233220A5722375FDF725F9002056
:10B0700003B00CBC90469946F0BD00281ED16B462B
:10B080004027134C9E1D23683770597D6368012249
:10B0900018783300FEF73EFE002813D13378BB4307
:10B0A00023733E20042384463738814601383370A9
:10B0B0003D22383305213F27804695E76A46961D95
:10B0C000337074E700230120A3724042D0E7C046EA
:10B0D00070200020802370B5774C84B002AD2B70B7
:10B0E00023680122597D636818782B00FEF712FE51
:10B0F000061E00D0C2E06420FDF7DEF823682E7043
:10B10000597D6368012218782B00FEF703FE0028A2
:10B1100000D0B3E070232B7023680122D97E6368CE
:10B1200018782B00FEF7F6FD002800D0B5E0236864
:10B130000622597E636818782B00FEF78BFD0028E5
:10B1400000D09BE004216B7901269B00194002236B
:10B15000EA78520013406A780B433240134300D11F
:10B1600082E0D9B2012B03D0022900D098E000235D
:10B17000E37400232B7023680122D97E636818785A
:10B180002B00FEF7C7FD051E00D086E00122FF233D
:10B190005242A37223726372E372E2812274A37437
:10B1A0002332FE3BA35423732233E0546075207591
:10B1B0002000163A16300021FDF72AF82423E55422
:10B1C0000133E554A37AE584002B57D06B46DD1D8F
:10B1D00018232B70237A032B0FD02368012299792F
:10B1E000636818782B00FEF795FD002846D12B7870
:10B1F000DB082372A37A002B40D000232B70637AE4
:10B20000002B0FD023680122D979636818782B00AE
:10B21000FEF780FD002831D12B78DB086372A37A1A
:10B22000002B2BD005232B70E37A052B0BD0236842
:10B2300001229978636818782B00FEF76BFD0028CF
:10B240001CD12B78E372FA208000FFF787FD0028DD
:10B2500014D10020FFF736FE041E0FD10020FFF7A7
:10B2600099FE200004B070BD23680122D97863687C
:10B2700018782B00FEF7EEFC002802D0012464426F
:10B28000EFE70F222B78134010D0042B00D06EE78D
:10B290000A4806F0F5FAE6746BE703246442E0E737
:10B2A0000124074806F0ECFA6442DAE70124054875
:10B2B00006F0E6FA6442D4E770200020F02D020088
:10B2C000782D0200A02D0200F0B54F4646462423FB
:10B2D000C0B4284C83B0E35C070089469046002B3D
:10B2E0003BD0A37A002B38D0236801AE197B63686A
:10B2F000022218783300FEF7ADFC00282DD13578F6
:10B3000073782D021D43BD422AD3606843885B08D1
:10B310009D420CD923680078D97C01223300FEF7C6
:10B3200099FC002819D13378DB061DD460682368A6
:10B33000FAB2597B00784B46FEF78CFC00280CD102
:10B340003900280003F0A2FB4346013818700020A2
:10B3500003B00CBC90469946F0BD01204042F7E78F
:10B36000434618700138F3E7FFF70CFB0220404218
:10B37000EEE7C046702000202223024AD05400206D
:10B380007047C04670200020232370B5174C82B050
:10B39000E35C0500834224D000281DD18022822056
:10B3A000022600216B4607331970A17C002901D0C9
:10B3B00002001E702221615C002900D01A702268F0
:10B3C000D17D626810780122FEF7A4FC00280AD122
:10B3D0002323E55402B070BDB022B22032263021C2
:10B3E000E0E70020F6E701204042F3E7702000206C
:10B3F00070B50D0082B0161E20D0124CA37A002B1F
:10B400001CD0020A01AB1A70C0B2626858704018B2
:10B410005189884212DC21681078C97E0222FEF729
:10B4200079FC00280AD12368EAB2197E636818788B
:10B430003300FEF76FFC404202B070BD0120404275
:10B44000FAE7C04670200020F0B556465F464D46EC
:10B450004446F0B48BB003932523514E01910292E0
:10B46000F35C8246002B75D1002973D0002800D1EF
:10B4700094E00400102800DD75E0A3B29B46B37A87
:10B48000002B67D0002305AF70683B707B70438949
:10B490009C425FDC019B0025984638E033681078B9
:10B4A000D97E02223B00FEF735FC002852D13368DA
:10B4B0004A46197E7368187806ABFEF7CBFB002866
:10B4C00048D1220006A9404606F0C2F900284CD116
:10B4D0005D44ADB2AA454BD953465C1B102C00DD30
:10B4E0001024A3B29B46019B9846A8444346002BD8
:10B4F00030D0B37A002B2DD02B0A3B707068EBB2A2
:10B5000022047B70120CD3184289934222DC3368E8
:10B510000078D97E02223B00FEF7FCFB002819D1FF
:10B52000E3B2994633684A46197E736818784346F1
:10B53000FEF7F0FB00280DD1B37A002B0AD02B0ABE
:10B540003B707268EBB27B702404240C51891B1988
:10B550008B42A3DD012040420BB03CBC9046994693
:10B56000A246AB46F0BD102487E702204042F3E735
:10B57000029A130A3B7033687A70597F736802220B
:10B5800018783B00FEF7C6FB0028E3D125230122F3
:10B59000F2546B469B890020F384DDE705AFE8E7B2
:10B5A00070200020242330B55A4C83B0E35C8342E2
:10B5B00076D0002800D17AE02522A25C002A00D1B2
:10B5C0009EE0002B00D06EE0A27A002A00D19AE023
:10B5D0006A46D51D2B7023680122597C6368187850
:10B5E0002B00FEF797FB002801D12B786374A37C16
:10B5F000002B36D0236801221979636818782B0054
:10B60000FEF728FB00282CD1A37ADB0700D56FE0DA
:10B6100020222B7893432B702368012219796368C9
:10B6200018782B00FEF776FB00281AD10330FCF7C0
:10B6300043FE2223E35C3022002B01D080238032A2
:10B640002B702323E35C002B00D02A702368012297
:10B65000D97D636818782B00FEF75CFB002800D1C9
:10B66000A074E08CFFF77AFB6B46002206331A7059
:10B670006268232110780122FEF74CFB242301226B
:10B68000E254223B2B702368597C636818782B00A6
:10B69000FEF740FB002801D12B786374FFF772F9A5
:10B6A000002003B030BD6B46DD1D002392E7002B68
:10B6B00022D1A27A002A29D06A46D51D2B70236890
:10B6C0000122597C636818782B00FEF723FB0028C1
:10B6D00001D12B786374237C01222B7063682321B2
:10B6E00018782B00FEF716FB00222423E254D5E73E
:10B6F00020232A7813438EE76B46DD1D2870DEE792
:10B7000001204042CDE76B46DD1D70E76B46DD1D35
:10B71000E1E7C04670200020802210B5C823D20087
:10B7200002490348FFF790FE10BDC046882E020074
:10B73000F60B0000F0B5404C87B002AF050003AE39
:10B7400021000322380006F092F8211D0322300068
:10B7500006F08DF821000322083104A806F087F8CE
:10B76000210003220C3105A806F081F8032108000E
:10B770006A466C4628403B5C1370EA080A40BB5C92
:10B78000B25C6370AB090B40F95CF35CA170315C97
:10B7900001AC2170627003216A462848A370FFF74C
:10B7A00027FE002845D1220003212548FFF720FE6F
:10B7B00000283ED1032204A9684606F058F8032267
:10B7C00005A9200006F053F86B0708D56A46012347
:10B7D000694612781A430A70227813432370AB0625
:10B7E00008D56A460123694652781A434A7062783E
:10B7F00013436370EB0512D488206A460321C0000E
:10B80000FFF7F6FD002814D1220003210D48FFF7B1
:10B81000EFFD00280DD10C4B1D8107B0F0BD6A462D
:10B820000123694692781A438A70A2781343A37061
:10B83000E2E701204042F0E73C2E0200260400002F
:10B840002A040000310400005C23002010B51449D4
:10B8500086B004000C22103103A806F008F8C82CAA
:10B860001AD82100C82003F09BF9013880B201AA40
:10B87000030A507002210B481370FFF7B9FD00282E
:10B880000AD103AA0C210848FFF7B2FD002803D112
:10B89000064B9C8106B010BD01204042FAE7C0462D
:10B8A0003C2E020016020000C10A00005C230020AA
:10B8B000F0B5050083B043076BD0C823DB00994285
:10B8C00067D8080004F058F94D4903F087FC6B462F
:10B8D000DC1C071C2000FFF7DFF92378042B00D1C4
:10B8E0007DE033D9082B6AD0102B52D18A21381C25
:10B8F000C90503F03DFE03F0E3FA424986B2381C65
:10B9000003F036FE03F0DCFA80B201AC330A237098
:10B91000030A6670A370E070EB0729D4AB073CD430
:10B9200000206B0737D5EE20220002214000FFF7F0
:10B930005FFD00282DD16B462D309A1D0221FF306E
:10B94000FFF756FD431E9841404224E0022B20D1D0
:10B950008D21381CC90503F00BFE03F0B1FA2A490A
:10B9600086B2381C03F004FE03F0AAFA80B2CCE7DA
:10B97000EA20220002214000FFF73AFD002808D10A
:10B980006B4625309A1D0221FF30FFF731FD00285C
:10B99000C4D00120404203B0F0BDEC2022000221BF
:10B9A0004000FFF725FD0028F3D16B4629309A1D92
:10B9B0000221FF30FFF71CFD0028B1D0E9E78B2101
:10B9C000381CC90503F0D4FD03F07AFA0F4986B29A
:10B9D000381C03F0CDFD03F073FA80B295E78C219B
:10B9E000381CC90503F0C4FD03F06AFA084986B2A1
:10B9F000381C03F0BDFD03F063FA80B285E7C04652
:10BA0000000048430000C04400004046000040459C
:10BA10000000C045F0B54E4645465746E0B486B0F6
:10BA2000924B03AC06002200042168200393FFF729
:10BA3000DFFC4022A32332402370904600D10DE169
:10BA40001D3363700833A370063BE370C0277F008B
:10BA5000374000D1FDE0C423237108336371063BF6
:10BA6000A371A32322000A218148E3712372637228
:10BA7000FFF7BEFC0323334099464A462023002AA1
:10BA800000D1B833220001217A4823706D46FFF7B8
:10BA9000AFFC09227849B30600D4D8E01C31280055
:10BAA00005F0E5FE97202A000921C000FFF7A0FC61
:10BAB000002F09D0F30500D5D4E0704B039322008A
:10BAC00004216F48FFF794FCF30700D4B6E08B2005
:10BAD000F8232200012100012370FFF789FCFA21DD
:10BAE0000720FFF7E5FEA4203F232A0001214000A4
:10BAF0002B70FFF77DFC002350209A462A0001217D
:10BB0000FF302B70FFF774FC5346EF202B7014238B
:10BB10002A00022140006B70FFF76AFC5346ED20BB
:10BB20002B7064232A00022140006B70FFF760FC39
:10BB300053462B708E23AE206B706B33AB702A0094
:10BB4000693B04214000EB70FFF752FC5346AD20E7
:10BB50002B7008232A00022140006B70FFF748FC7D
:10BB60005346AC202B7002232A00022140006B7048
:10BB7000FFF73EFCB307DB0FD83322000121414819
:10BB80002370FFF735FC730752D53F4B00932A0013
:10BB900004213E48FFF72CFCFEF7F4FEF30641D5E6
:10BBA0003B4B00932A0004213A48FFF721FCFEF7A3
:10BBB000E9FE0823384C33436381FEF7E3FE434636
:10BBC000002B22D10A20434684460C30824610388E
:10BBD000A3731422042310211A258046002F04D0B9
:10BBE00043462A00A373514663461420304201D0D5
:10BBF0001300A1734A46002A00D0A373002006B0A8
:10BC00001CBC90469946A246F0BD102006238446EF
:10BC10000C3082461038A3731A22043316212025D3
:10BC20008046DBE70422A3212800FCF7F1FAB9E7FC
:10BC300004228B212800FCF7EBFAA8E78B20D823FD
:10BC40002200012100012370FFF7D2FB92E7283187
:10BC500025E7A32323716371A37102E76370A370C7
:10BC6000E370F3E60D4B039329E7C04602CAE309EC
:10BC7000A70A0000B60A00003C2E0200B080B49073
:10BC8000A20A00003D070000C0C2C4C6980A000016
:10BC9000202830389E0A00005C230020B28BB69B1F
:10BCA000F0B544465F4656464D460023F0B491B089
:10BCB0001A9C060023807C4B0F00987B914608A9B4
:10BCC0001B9AFFF701FB03B298462380181E74D11C
:10BCD0001422754B5B891A4200D075E00325AC46EF
:10BCE000013DA846013DA94600250C210022042063
:10BCF000AA4607910139069101390591013904914C
:10BD000001390391013993460291063201390191BB
:10BD1000009201395D062DD5524608ADAA5C12028B
:10BD200092462A004D46525D554615433D80454694
:10BD300008AA525D65461202904608AA525D454621
:10BD4000154308AA515C105C009A00029346079ABA
:10BD500008430092049A08219446039A7D809046F5
:10BD6000029AB8809146019A208892460143218028
:10BD700005980699C0277F003B421BD0554608AA6C
:10BD8000575D4D46525D45463F02174308AA37802E
:10BD9000575D6546525D3F02174308AA105C515C2F
:10BDA00000020143B180009A702193467780208879
:10BDB000014321809B0752D1002011B03CBC90462A
:10BDC0009946A246AB46F0BD089A11BA4A461160A0
:10BDD000099A091410BA4A4650600A9A8C4612BA57
:10BDE00092464A46554695604D460B9A514612BAC0
:10BDF000EA6065466D43AC460014091440431214D2
:10BE000049435243604440188018F1221206944678
:10BE100080226044920490423FD8802122884900C9
:10BE20000A4322801022934606320092063207927D
:10BE3000013A0692013A0592013A0492013A0392BC
:10BE4000013A0292013A0192033A9446013A90462D
:10BE5000013A9146013AEB39142092465AE708AB71
:10BE60009C465C4664446378E678DA070BD50E4A54
:10BE70001268002A07D007200100F308314018405B
:10BE80000131904763781B0796D5074B5B68002B01
:10BE900092D0B009984700208FE7FEF773FD434624
:10BEA00001202380404288E75C2300200023F0B576
:10BEB000C356002B36DD30220023202408212826FB
:10BEC00010259446382703228256002A18DD0621C1
:10BED00041560022002902DD134398B2F0BD00292B
:10BEE0003AD10721415640320029F5DC51D10821D1
:10BEF000415640320029EFDC59D1E0225200EBE7F5
:10BF0000002A27D1042282560B00002ADFDC3ED112
:10BF1000052282562B00002AD9DC3B00002AD6D00D
:10BF20006346D4E7002B0CD10123C356002B16DD4A
:10BF3000312201232124092129261125944639275C
:10BF4000C1E73422042324240C212C2614259446F2
:10BF50003C27B8E72300BAE780225200BCE7002B59
:10BF60000CD10223C356002B16DD322202232224D9
:10BF70000A212A26122594463A27A4E735220523CA
:10BF800025240D212D26152594463D279BE73300BA
:10BF90009DE7A02252009FE7002B0BD137220723F9
:10BFA00027240F212F26172594463F278BE70132A0
:10BFB000FF3291E73622062326240E212E2616254F
:10BFC00094463E277FE7C046F0B55F4656464D464D
:10BFD0004446F0B4764B91B004AA944601930E23E4
:10BFE000634400930AA900230CAA08A8FFF758FE8F
:10BFF00041B2002900D0D7E00C9803F075FDC221B2
:10C00000890503F0B5FA041C0D9803F06DFDC221FB
:10C01000890503F0ADFA80460E9803F065FDC22154
:10C02000890503F0A5FA81460F9803F05DFDC22152
:10C03000890503F09DFA211C051C201C03F098FAC9
:10C040004146071C404603F093FA4946824648465B
:10C0500003F08EFA291C0290281C03F089FA51463D
:10C06000061C381C03F098FB029903F095FB311C69
:10C07000039602F03DFF05F073FB04900591291C27
:10C08000484603F075FA41468346201C03F070FAD7
:10C09000011C584602F02CFF05F062FB02000B0069
:10C0A00003F0A8FD049A059B01F0AEFF0022414B6E
:10C0B00004F0F0FC05F0DCFA3F4B291C18804046E8
:10C0C00003F056FA49468346201C03F051FA011C3E
:10C0D000584603F061FB05F043FBC02300221B061A
:10C0E00004F0D8FC01F02EFF80268B4636065E4415
:10C0F0000022304B310004F0CDFC05F0B9FA2F4B93
:10C1000051461880381C02F0F3FE029903F044FBFC
:10C11000039903F041FB05F023FB06000F004046A6
:10C12000494603F025FA291C8046201C03F020FA1A
:10C13000011C404602F0DCFE05F012FB02000B0081
:10C1400003F058FD32003B0001F05EFF0022194B66
:10C1500004F0A0FC05F08CFA7022194B188004AB97
:10C16000DB891A420BD004AA118A164A118004AA4C
:10C17000518A154A118004AA918A144A11801B071A
:10C180000BD504AB1A8B124B1A8004AB5A8B114B94
:10C190001A8004AB9A8B104B1A8011B03CBC9046AD
:10C1A0009946A246AB46F0BD0C4805F069FBF4E7A2
:10C1B0001C260020005FC4408C270020A6270020FA
:10C1C00014260020382A0020D8280020802B0020A8
:10C1D000C82800200026002060260020803A0200A7
:10C1E000A223A022DB00D205D35801209B0604D451
:10C1F000024B1878431E9841C0B270471C2600209D
:10C2000070B5050082B000200E00FEF763FF01004C
:10C21000324805F035FB7820FEF7BCFE01003048BF
:10C2200005F02EFB7820FEF74DFE01002D4805F0AD
:10C2300027FB0020FFF7A0F80120FFF7A5F8002D4D
:10C240001FD16B46DC1D0122DD711A2123006820FD
:10C25000FDF760FD0100244805F012FBFA203100D3
:10C26000400102F09DFC01382070192123000122B9
:10C270006820FDF74FFD01001C4805F001FB02B0EE
:10C2800070BDFFF749FA0100194805F0F9FA19489D
:10C29000FFF70CFEFFF74EFA0100174805F0F0FA21
:10C2A0007220FF30FFF7B6FB0100144805F0E8FAF2
:10C2B0006420FFF7CBFA0100114805F0E1FA0120F4
:10C2C000FFF770F901000F4805F0DAFA0A20FEF7CF
:10C2D00009FD01000C4805F0D3FAD0E7C43A02008A
:10C2E000DC3A0200F43A02009C3B0200B43B02003C
:10C2F0000C3B02009C200020243B02003C3B02003F
:10C30000543B02006C3B0200843B020010B50B0062
:10C3100001000B4805F0B4FA8021A123A022FA20E5
:10C32000C900DB00D205D150C000FBF7C5FFBFF349
:10C330004F8F044A044BDA60BFF34F8FFEE7C046CD
:10C34000CC3B02000400FA0500ED00E080218023D0
:10C35000184A8902D1508022D221174B52028900FB
:10C360005A5040395A5001222F205A600138C04695
:10C37000C046C046C046C046C046C046C046C0468D
:10C38000C046C046C046F1D19A6000230B4A2F2018
:10C3900013600138C046C046C046C046C046C046CD
:10C3A000C046C046C046C046C046C046F1D1044A59
:10C3B0001370704700E100E0001001406C23002082
:10C3C0008C230020A021F0B5002347462C4A4900C9
:10C3D00080B45350043153500431535004315350FE
:10C3E0004C39535004315350264B1B68002B37D027
:10C3F0002549002652582549254F0C68141B002258
:10C400002402240A904602E0002D1AD02B001A685C
:10C41000A24216D8A41AB6181A7CDD69002AF3D0F5
:10C42000424699691A745A693B68002B1BD0100068
:10C4300098470028E8D000220021FFF767FF002D71
:10C44000E4D1144B14491A780B789A420ED0134A4F
:10C450009B009E5080218023114A49035B00D150EC
:10C4600004BC9046F0BD08009047CDE70132D3B23E
:10C47000022B01D00B70EAE700230B70E7E7C04600
:10C480000010014070230020040500006C230020F0
:10C490007423002080230020812300208423002097
:10C4A00000E100E0F0B55F4656464D464446F0B424
:10C4B000C54BC64A1B68C6498BB0059309781378EB
:10C4C000994200D157E10133DBB2022B00D10023A6
:10C4D0001370C04A9B009B58BB4A9A46059B534425
:10C4E0001B021B0A136001230193BB4B00241B6832
:10C4F0009B46BA4B5A461B78914619000393B84B9A
:10C5000088461B6847460493AF4B013F1B6807935F
:10C51000B44B1B78099300239C4606930893FBB207
:10C5200066469846FF2B32D04346D800049B9C4673
:10C53000130060440178457800961A00A9421FD084
:10C5400046684A00B446521886780131D200C9B212
:10C5500062448E4200D1EDE01678022E00D1C7E091
:10C56000032EEAD1002BE8D01C74DB69002BFBD131
:10C57000013345780093002399461A00A942DFD180
:10C580004746013FFBB2009E9846FF2BCCD1089B4B
:10C59000C8460292B446002B00D0F0E0069B002B68
:10C5A00002D0894B079A1A606346002B02D042469C
:10C5B000894B1A60019B002B00D02DE15B46029A4B
:10C5C00000259B1A5A1E9341DBB205937E4B002730
:10C5D0001B6802999C46804B1B689B46814B1B78CD
:10C5E000069300230193804B994601230093039BFC
:10C5F000013BDBB20393FF2B00D1F9E0049ADB008F
:10C6000092460E009A44002D28D06A68A9682C0032
:10C61000ED696346D31A1B021B0A4B4552D86A4682
:10C6200012785B1823606760A7602274E761002EB0
:10C6300058D031683000994205D3B9E01168994269
:10C6400000D3A3E01000C2695B1A002AF6D1E261B0
:10C6500032002360C4611600002DD6D153461A78EB
:10C660005B7831009342C2D05146496853008846F6
:10C6700051469B180132D2B20A708978DB004344DC
:10C68000914200D19DE0197832000129E3D15C6824
:10C69000227C9046414632000029DCD19A686260D3
:10C6A000D968A1601869E0605B69A361069B002BF3
:10C6B000AFD04346002263606346D31A1B021B0AB5
:10C6C0004B45ACD963469A1A1202120A8A4264D2C6
:10C6D0008B1A6A46127823606760A7602274E7614C
:10C6E000002EA6D122000123A34601931600B3E732
:10C6F0005668002B30D09E421ED0009A1F009446F0
:10C7000002E0964206D01700FA69002AF9D1624683
:10C71000009212E765460095BA420FD01568D269BB
:10C72000FA61002A16D013689C4665441560457866
:10C730004B4602E700210FE71A001F00DE69002EBA
:10C740000CD0012500951568D269B1463300FA6115
:10C75000002AE8D14578F0E60023EEE60125234BD8
:10C760009D600095069500250023079501359946A3
:10C7700008950995D2E700239A460193B5E66A46E3
:10C7800024215218174B12781A7007E7C91A116042
:10C79000E26123603200C4615DE76B461B7827606D
:10C7A0006760A7602374E761002E9BD00023316887
:10C7B000CB1A336022000123E661A34601931600E1
:10C7C0004AE7524615705EE76C2300208023002064
:10C7D0008123002084230020702300207823002060
:10C7E0007C23002082230020FEFF7F0000100140F8
:10C7F000019B002B00D09DE0029B994236D1059B06
:10C80000002B33D10023534A13700BB03CBC90462D
:10C810009946A246AB46F0BD4F4B00241868002550
:10C82000029B00210026574615E01A68BA4200D93B
:10C8300084E0D868BF1A89181E60DC69002807D018
:10C84000DD611D00059A986052181202120A5A60A2
:10C8500023002000019C002BE7D1002C01D03E4B8F
:10C8600018600023029301330593AFE6002900D13D
:10C870005DE00B6839489846394B3A4DC4583A4BFD
:10C880002E781B68E11A0902090A0331002E2DD007
:10C8900042468A4200D20A00A820D21812022F492A
:10C8A000130AC0002E4D0B504A591B1B121B1202BB
:10C8B000120A1B0203321B0A9A42A3D94B590B508E
:10C8C0002F200138C046C046C046C046C046C046BC
:10C8D000C046C046C046C046C046C046F1D18021D1
:10C8E0008023224A89025B00D1508BE78026D12722
:10C8F0007602BF00C651403FC651C02280271B4E62
:10C90000BF025200B7503760012606602F20013861
:10C91000C046C046C046C046C046C046C046C046E7
:10C92000C046C046C046C046F1D12E70B0E7FFF702
:10C930000DFD67E75A46084B1A605DE7BA46002CC2
:10C9400001D0054908605146521A1A60029301232A
:10C9500005933BE682230020702300200010014055
:10C96000040500008C2300206C23002000E100E07F
:10C97000F8B54F464646C0B40326350080460F0042
:10C980001400994615400720002D03D00CBC90469A
:10C990009946F8BD002A44D0FFF7D8FC4A46224BFE
:10C9A00080201A602200214B18321E70204B6260DA
:10C9B0001C607B00DB19DB00D218E260D318C022B8
:10C9C000636125706570A77025726572A772257402
:10C9D0006574A774C524FF21164B40031D60164BD8
:10C9E00052001D70154BA4001D70154B98501A591C
:10C9F0008A433F390A431A51A1221860404611491F
:10CA0000D2008850C42080001C580F4A2240C02405
:10CA1000240222431A500D4B0020CA580C4B1A60B6
:10CA2000B4E7034B1A60B1E7742300207823002099
:10CA30007C230020702300208023002081230020FD
:10CA400000E100E000100140FF00FFFF04050000CE
:10CA50006C23002010B50B4B1B68002B0BD0002A59
:10CA600007D0002805D0036808201C7C002C04D0C7
:10CA700010BD0720FCE70820FAE759745A6100202E
:10CA8000F6E7C0467C230020F0B5344B1C68002C30
:10CA900006D0002804D00723042903D81800F0BDCD
:10CAA0000823FBE74369002BFAD0437C012B44D0D9
:10CAB00000262B4B10255B68DB05DB0D25D16419A7
:10CAC0006378A5785F1CFFB2BD423AD02578BD429D
:10CAD00035D05D00ED186368ED009C466544042385
:10CAE000002DDBD0033B2B7068601E4B1E48C358E3
:10CAF000E960AB60802180236A611C4A5B004903C6
:10CB00002E616770D1500023C8E7103B5DB2002D45
:10CB100019DBAD08C035154FAD00ED5903273B407B
:10CB2000DB00DD40AB093B40DBB20025012BC6D06A
:10CB30000835032BC3D00835C1E70E00B9E704233D
:10CB4000ACE70027C2E70F25094FDBB2BC461D400A
:10CB5000083DAD08AD0065446D68DFE77C2300202B
:10CB600000ED00E0040500000010014000E100E0DD
:10CB700018ED00E010B52C4A0300116808200029C8
:10CB80002AD0002B28D05A69002A25D000221A74F6
:10CB9000264A08305268D205D20D1ED109184A78AB
:10CBA0008878541CE4B2A04231D00878A0422CD03E
:10CBB000500082184868D200844662440420002A4B
:10CBC0000AD00238107053604C70802380210020FE
:10CBD000174A49035B00D15010BD103A50B20028EB
:10CBE00017DB8008C030124C80000059032422401B
:10CBF000D200D04082092240D2B20020012ACDD0FA
:10CC00000830032ACAD00830C8E70420E4E700242B
:10CC1000CBE70F20074CD2B2A4461040083880085A
:10CC2000800060444068E1E77C23002000ED00E0E4
:10CC300000E100E018ED00E0074B1A6808235207F6
:10CC400001D418007047002804D0044B5B780360BF
:10CC50000023F6E70E23F4E75C2400209023002055
:10CC600071DF704772DF704779DF70477DDF704793
:10CC700065DF7047F0B55F4656464D464446F0B412
:10CC800085B09A460EAB80CB06001B8800919B4670
:10CC90003B8801930388002B63D00023994602ABA5
:10CCA000DD1C3B0000241700984603E03388013464
:10CCB000A3422CDD7368A1009C460422614403A8B2
:10CCC00004F0D5FD0022290003A8FFF7D1FF0028BA
:10CCD00029D12B78BB42E9D14B46002B2AD04346C1
:10CCE0001A88D3195B453EDC5244290003A8FFF79C
:10CCF000BFFF002817D143462A781B880134D31878
:10CD000042461380012399463388A342D2DC4B4626
:10CD10004746002B25D03B88019A013B9B1A9BB2CA
:10CD20000C20FF2B1AD905B03CBC90469946A24670
:10CD3000AB46F0BD43461B88DA1902325A4512DC75
:10CD40004246013369469BB2138052460978D1545A
:10CD500043461A88013292B21A80C5E71100524642
:10CD600053540020DFE70C20DDE7C046F0B55F46F6
:10CD700056464D4644460023F0B417881380436B53
:10CD800087B006000D001400002B00D19CE1022F9B
:10CD900000D891E11A7802230B7011212388013306
:10CDA0009BB22380E954238801339BB22380EA5449
:10CDB000238801339BB22380326B002A00D170E0BC
:10CDC00019001231B94200D976E11121E9542388C2
:10CDD000013901339BB22380E954238801339BB28C
:10CDE0002380D17BE954238801339BB22380917B3C
:10CDF000E954238801339BB22380517BE954238873
:10CE000001339BB22380117BE954238801339BB209
:10CE10002380D17AE954238801339BB22380917A0D
:10CE2000E954238801339BB22380517AE954238843
:10CE300001339BB22380117AE954238801339BB2DA
:10CE40002380D179E954238801339BB223809179DF
:10CE5000E954238801339BB223805179E954238814
:10CE600001339BB223801179E954238801339BB2AB
:10CE70002380D178E954238801339BB223809178B1
:10CE8000E954238801339BB223805178E9542388E5
:10CE900001339BB223801278EA54238801339BB27A
:10CEA00023802E22B25C002A00D00FE12D22B25C3A
:10CEB000002A00D02CE1B278002A00D055E1F278A7
:10CEC000002A14D0D91CB94200D9F5E00221E95456
:10CED0002388013901339BB22380E954238801332D
:10CEE0009BB22380EA54238801339BB2238072686B
:10CEF000002A15D0D91CB94200D9DDE002211278F0
:10CF0000E9542388083101339BB22380E9542388F4
:10CF100052B201339BB22380EA5423880133238029
:10CF20003389002B00D09BE1338A002B00D0B1E184
:10CF3000338B002B00D0C7E1336A002B4BD0228803
:10CF40000C20911D9346B94200D9B6E019880538E6
:10CF50008A46052900D8B0E0BB496A468C46D444CD
:10CF60006146D181D1898C46B84988468C4500D824
:10CF7000A3E059888C46052900D89EE0B249614457
:10CF8000D18189B2414500D897E0B1498A4504D0A2
:10CF90008C4502D0E24500D98FE005215A46A954BC
:10CFA00022880D31013292B22280A95422880132A6
:10CFB00092B222801988AA181170090A5170228829
:10CFC000023292B222805988AB181970090A59703E
:10CFD000238802332380736A9846002B30D09A88C6
:10CFE0002188131D5B180C20BB4266D8931CFE2BB6
:10CFF00063D803326A54FF22238801339BB2238013
:10D00000EA544246238801339BB223801288EB18EE
:10D010001A70120A5A704246238802339BB2238048
:10D020009288002A0CD0414689680538002944D0EE
:10D03000E81804F01CFC434622889B88D318238000
:10D040002C23F35C002B00D0B0E033780020002BC1
:10D0500033D032880720012A2FD02288901CB84272
:10D060002AD8012B04D1737802339B189F4223D313
:10D07000023FBA1A04AF93B22818390098463B8091
:10D08000FFF7F4FD002818D13378022B00D141E1DD
:10D09000012B00D1DEE043460821FE2B0CD822886C
:10D0A0005E1CAE542288013292B22280A95422889A
:10D0B00001329B18238000E00C2007B03CBC904656
:10D0C0009946A246AB46F0BD002375E6D91C0C205C
:10D0D000B942F2D80221E9542388103001339BB2BF
:10D0E0002380E854238801339BB22380022A00D195
:10D0F0000BE100D804E1032A00D109E1042A00D0A1
:10D10000FCE00322EA54238801339BB22380CDE65E
:10D1100009330C20BB42D0D804A8FFF7A1FD00289A
:10D12000CBD1082223880921EA5423881332013302
:10D130009BB22380EA5402AB9C462088153A01300A
:10D1400080B220806144281804F091FB238802AA51
:10D150000633127A9BB22380002A00D00122EA54BF
:10D16000238801339BB22380A5E604330C20BB4205
:10D17000A3D804A8FFF778FD00289ED103222388B6
:10D18000EA542388163201339BB22380EA54238861
:10D1900002AA01339BB212892380EB181A70120A7B
:10D1A0005A70238802339BB2238088E6B36A98467C
:10D1B000002B00D1A2E09B880233FE2B00D97BE735
:10D1C00000229146163292461632208893460CE091
:10D1D0004B46B26A5B0090464B449B0098444346E2
:10D1E0009B880233FE2B00D966E7524601332B544D
:10D1F000238801339BB22380EA54424623880133BB
:10D200009BB223801288EB181A70120A5A70434698
:10D210002088023080B220809A88002A0BD099683A
:10D2200000296BD0281804F022FB434620889B88F5
:10D23000C01880B220804B460133DBB299465B4672
:10D24000F35C4B45C4D800E77FF3FFFF7DF300009C
:10D25000FFFF00007378984500D31DE743461BE7A6
:10D2600008239846B044019700942B000222022123
:10D270004046FFF7FFFC002800D01EE7019700940E
:10D280002B00102206214046FFF7F4FC002800D0B6
:10D2900013E749E610239846B044019700942B0009
:10D2A000022203214046FFF7E5FC002800D004E7F6
:10D2B000019700942B00102207214046FFF7DAFC6B
:10D2C000002800D0F9E633E618239846B0440197C9
:10D2D00000942B00022214214046FFF7CBFC0028CB
:10D2E00000D0EAE6019700942B0010221521404659
:10D2F000FFF7C0FC002800D0DFE61DE60720DCE6D3
:10D30000012AFBD10022EA54FDE60122EA54FAE6A2
:10D31000E954F8E63B880921984500D3BDE6434629
:10D32000BAE6C04630B593B01F236A460C0093801E
:10D33000D380002822D0C3785B071CD501AA02A99C
:10D34000FFF714FD02AD002816D1002C19D0E378A8
:10D35000002B10D16B460AA99A1D2000FFF706FD8D
:10D36000002809D16B469B790AAA694628000979E9
:10D37000FFF778FC00E0072013B030BD9080002557
:10D38000E3E76B460022DC800023EEE773DF7047A3
:10D3900070B59F4E86B0072200213000FAF738FFA3
:10D3A0009C4C6378002B6ED09B4D2B78012B05D0C5
:10D3B000A278002A00D1EFE0022B0FD1974A126821
:10D3C000002A00D1FDE00121954B082019709047FB
:10D3D0002B78012B00D1F7E0022B5FD0227B002AB3
:10D3E00001D1032B7AD0227E002A02D1042B00D156
:10D3F00007E18A4A1268002A02D0033B012B77D941
:10D400000022884B1A70182200216846FAF700FFA4
:10D4100000236A46137013722A7801930393022A39
:10D4200000D18BE072D9032A00D194E0042A22D1E2
:10D430006B46A28B1A82228C5A827B4B1A79002A65
:10D4400000D1B6E02278002A00D1B6E0774A1278FF
:10D45000002A00D0B1E069460393042302327448E5
:10D460000A720021C370FFF75DFF002864D1062215
:10D47000704B1A702A78002A51D1684B1B68002B18
:10D4800056D1002058E0A378634D002BA0D02B7814
:10D49000022B93D0012BA1D102232B70A378002B58
:10D4A00017D07378002B00D0B0E0B378002B00D0F9
:10D4B000ACE0F378002B00D0A8E03379002B00D04B
:10D4C000A4E07379002B00D0A0E0B379002B00D04A
:10D4D0009CE003232B70237B002B61D104232B7052
:10D4E000237E002B00D18CE04C4B1A68002A87D099
:10D4F0002378002B84D04D4B1B78002B00D07FE786
:10D500000121484B0720197090477CE7012AB2D1CE
:10D5100069464B820B82474B01960A701A70684627
:10D52000FFF734FF002807D13C4B1B68002BA8D025
:10D53000404A10789847002006B070BD0123694624
:10D540000B706B46218901965982694663680B828C
:10D55000384B1A70E3E76B46A28A5A82228A1A82F3
:10D56000314B1A79002A1DD02278002A1DD02F4A6B
:10D570001278002A19D169460393042302322C48F9
:10D580000A720021C370FFF7CDFE0028D4D1052216
:10D59000284B1A702A786EE7022B00D01EE798E716
:10D5A000032326E71A7B002ADED10322214B1A70BF
:10D5B000B5E71A7B002A00D044E704221D4B1A70FD
:10D5C000ADE717490A7004E76278002A00D163E7E3
:10D5D0007278002A00D00CE7B278002A00D008E761
:10D5E000F278002A00D004E73279002A00D000E760
:10D5F0007279002A00D0FCE6B279002A00D14BE70C
:10D60000F7E600230B4A2B701370F9E60223F0E6CD
:10D61000D0240020D824002070250020A42400203D
:10D62000712500204F25002020250020CB2400203C
:10D630006024002084250020F8B504000E000E2090
:10D64000002C00D17BE0002A79D000203C490870F2
:10D650003C490B6006993C4B19603C490B0023CABE
:10D6600023C323CA23C323CA23C307220021384864
:10D67000FAF7CEFD374B384A384D1A60384A002148
:10D680009A6028003822FAF7C3FD237822002B7015
:10D69000A3781032AB70E378EB7063786B702B007B
:10D6A000103303CA03C32B00103A083303CA03C361
:10D6B0002B000832183303CA03C3636A002B11D04E
:10D6C000284B294F6B62616A9F600A881A8088889C
:10D6D0009880002806D000238A68D25CFA5401336F
:10D6E0008342F9D1A36A002B14D0204B204FAB62A8
:10D6F000A06A9F608188998002881A80002300298F
:10D7000005D08268D25CFA5401338B42F9D12C23C4
:10D71000E25CEA54236A002B06D0164B2B62226A85
:10D720005188598012881A806368002B03D0124BED
:10D730006B6063686B6031002800FFF7F3FDF8BD94
:10D7400070250020A4240020CC240020D824002010
:10D75000D024002020250020FC240020602400206C
:10D760005025002098240020AC240020782500209B
:10D7700030250020742500201C25002010B5002431
:10D780000B4B82B0187001A80194FFF755FA0828D6
:10D7900009D0002805D1019B002B05D00122054BA3
:10D7A0001A7002B010BD0194FFF7F2FDF9E7C04610
:10D7B00070250020A824002030B5038883B0112BE9
:10D7C0001ED0192B07D0102B01D003B030BD82889A
:10D7D0002D4B1A80F9E78479002CF6D12B4B1D785C
:10D7E000022D4ED038D9032D23D0042DEDD1284B56
:10D7F0001C70284B1B68002BE7D000209847E4E7FB
:10D800000024254B1C70204B82881B889A42DCD157
:10D8100001251E4B01A81D700194FFF70DFA082881
:10D8200024D0002827D1019B002B20D01B4B1D703A
:10D83000CBE7174A1570042201A81A700194FFF76C
:10D84000FBF9082812D0002815D1019B002B0ED01F
:10D850000122124B1A70B8E7012DB6D1022201A89D
:10D860001A700194FFF7E8F90828DAD10194FFF75C
:10D870008FFD0028A9D00A4B1B68002BA5D0984724
:10D88000A3E70322D8E7C046A62000207025002089
:10D8900084250020A4240020CB240020A8240020DC
:10D8A000CC24002075DF704776DF70477ADF704741
:10D8B0007BDF704710B5184B82B01888174B984221
:10D8C00014D0174A174C13780133DBB21370217B45
:10D8D00099420DD200231370237C002B12D163696F
:10D8E000002B03D0002201A80270984702B010BD9F
:10D8F0000D49FFF7D7FF0028F8D0A369002BF5D01A
:10D900009847F3E73B21FFF7CFFF0028E7D0A36953
:10D91000002BE4D09847E2E7D0250020FFFF00006D
:10D920009025002094250020D425002030B51B4BE5
:10D930001B4A5B88118883B099420FD852889A425B
:10D940000CD3184B5B69002B03D0012201A8027095
:10D950009847154C0023237003B030BD124C237838
:10D96000002B08D00F4B5B69002BF3D0002201A8DD
:10D9700002709847EEE70D4B0A4D1B78002B0BD039
:10D98000A96800220A48FFF77FF80028E2D0AB69B7
:10D99000002BDFD09847DDE76968F2E78825002093
:10D9A000D4250020942500208525002090250020E6
:10D9B000B0250020164902000B0070B532CA32C3F0
:10D9C00032CA32C312681A600022124B01681A7000
:10D9D000002916D0104C0832200003F048FF200028
:10D9E000FFF764FF00280BD101220C4B52421A8032
:10D9F00000220B4B00211A700A480B4AFFF72AF845
:10DA000070BD0548FFF754FF0028EDD0F8E7C04689
:10DA10009425002085250020D4250020D025002035
:10DA200090250020F43B0200B5D8010010B5038812
:10DA3000112B35D021D9122B17D0502B1CD1214CB2
:10DA4000C288E3899A4217D1C38B022B14D11E33AB
:10DA5000C35CDB070ED41C48FFF78CF800280BD002
:10DA6000A369002B08D0984706E0811D08221748BB
:10DA700003F0FDFEFFF75AFF10BD102BFCD1010093
:10DA80008288134B16311A801048082203F0EFFEEB
:10DA90000022104B1A700B4BDB89002BECD1E9E70D
:10DAA00001220B4B52421A8000220A4B06481A7080
:10DAB000FFF760F80028DFD0024B9B69002BDBD01A
:10DAC0009847D9E794250020B0250020882500201C
:10DAD000D025002090250020A0DF7047A2DF7047EE
