:020000021000EC
:1080000000400020A5DD0100EDDD0100EFDD0100F5
:108010000000000000000000000000000000000060
:10802000000000000000000000000000F1DD010081
:108030000000000000000000F3DD0100F5DD01009C
:10804000F7DD0100F7DD0100E1970100419C01002F
:10805000F7DD010000000000F7DD01004D9D01008B
:10806000F7DD010061940100A9930100F7DD010033
:10807000F7DD0100F7DD0100F7DD0100F7DD0100AC
:10808000F7DD010081C20100F7DD0100F7DD01002D
:1080900061C30100C5A0010071DD0100F7DD010031
:1080A000F7DD0100F7DD0100000000000000000026
:1080B00000000000000000000000000000000000C0
:1080C00010B5064C2378002B07D1054B002B02D0AE
:1080D000044800E000BF0123237010BDB42000203D
:1080E00000000000C43B0200084B10B5002B03D079
:1080F0000749084800E000BF07480368002B00D18B
:1081000010BD064B002BFBD09847F9E7000000009C
:10811000B8200020C43B0200B42000200000000072
:10812000164B002B00D1144B9D46402292029A1A06
:10813000924600218B460F461348144A121A00F04B
:1081400067F80F4B002B00D098470E4B002B00D048
:1081500098470020002104000D000D48002802D09F
:108160000C4800E000BF00F02DF82000290000F0CE
:10817000D1F900F011F8C0460000080000400020CE
:108180000000000000000000B4200020F82D0020B6
:108190000000000000000000084B10B50400002B98
:1081A00002D0002100E000BF054B1868836A002B55
:1081B00000D09847200000F033F8C04600000000CF
:1081C000C82902000E4B70B500251E000D4CE41AA4
:1081D000A410A54204D0AB00F35898470135F8E746
:1081E0000AF0E4FB084B00251E00084CE41AA4101A
:1081F000A54204D0AB00F35898470135F8E770BDAD
:10820000AC200020AC200020AC200020B0200020BA
:1082100003008218934202D019700133FAE77047C5
:10822000FEE7C0461D4B1B78012B00D070471C4B4E
:108230001B681B07FAD1F0221A4B1B68134018D198
:10824000194B1B6813421CD0154B1B681B07EDD143
:10825000F022144B1B681340402BE7D1124B1B68D4
:108260001342E3D1C12380220121DB00D205D1508A
:10827000DCE7102B01D0302BEAD10B4B1B681342EB
:10828000E6D10A4A0A4B1A6080220A4B12021A608F
:10829000024B1B78012BD7D0C8E7C046E00F00F097
:1082A000E40F00F0E80F00F0EC0F00F0DFFF07C074
:1082B00004050040186C004082B00190019B002B27
:1082C00014D0019B0A48013B01930138C046C046C7
:1082D000C046C046C046C046C046C046C046C0466E
:1082E000C046C046F1D1019B002BEAD102B07047D5
:1082F000E7030000F0B54E4657464546E0B48CB063
:1083000001F004F9534C544A20605448544906265D
:10831000855F544B91461B681288884609780A95F8
:108320000426855F9C4609950226855F4E4F089579
:108330000025405F4D4E07904D4882460025405F26
:1083400006900025785F05900025705F494D0490E8
:108350000023E85E039048480023C05E029047482F
:108360000023C05E63460190454800680090454880
:1083700009F0E4F92368444C1A0E22701A0C62705A
:10838000E3701A0A4B461B88A27023713F4B1B886F
:1083900063713F4B1B88A3713E4B1B88E3714346BF
:1083A0001B782372534600229B5E1A126272A372DC
:1083B0000022BB5E1A122373374BE27200229B5ECF
:1083C0001A126273A3730022B35E1A12E27323744B
:1083D0000022AB5E314D1A12A374314B627400223D
:1083E0009B5E286823751A122E4BE27400215A5E98
:1083F00011126175A27502215A5E1112E175227681
:1084000004215A5E11126176A27606229B5E21003B
:108410001A122377244BE2761B681A0E62771A0C25
:10842000A2771A0AE2772022A354013201F054FF06
:10843000002804D121222100286001F04DFF2B6883
:108440000933FF332B600CB01CBC90469946A24602
:10845000F0BDC0461026002070270020842D00208B
:10846000862700206C2C0020762700204C2C002032
:1084700062270020A028002064270020202600205A
:1084800054260020CC290200C42D0020722C00208C
:10849000702C0020642C002014260020D8200020FE
:1084A0008E2D00205C2C0020582C0020F0B5474673
:1084B0000023154E80B47F20336001F02DF9306821
:1084C000124B984219D8124F98463D00213521226F
:1084D000390002F025F8002809D03C00207801344A
:1084E00001F01AF9AC42F9D16420FFF7E5FE3068DB
:1084F0000930FF3030604045E9D97F2001F00CF9A8
:1085000004BC9046F0BDC046D4200020FFFF000010
:10851000902D0020F0B55F46444656464D46F0B4D7
:1085200000247A4B7A4A1C607A4B8BB01C605C60EA
:10853000794B1C605C60794B1C60794B1C6001239B
:108540001360784A1360784A136001F01DFA00F056
:10855000DFFE00F0F7FF01F00BFC01F0A9FB642146
:10856000012003F0ABFD01F0FBFC02F051F801F03B
:10857000B1FD6E4B6E4A1C709B466E4B1C806E4B61
:108580001C806E4B1C806E4B1C800023137000F00F
:10859000BDFF674B6B4F1B783860002B00D0A4E009
:1085A0009946694B05AC9846684B694E9A4679E006
:1085B0006849200001F092FA63786149009304222F
:1085C000A35E099A9C46039262880623E55E0A80B0
:1085D00062465A490823E05E0A8057496A460D8080
:1085E00054491278088059460A706A46A37A5A4953
:1085F00001939288E37A0A806A4602931289574966
:10860000237B0A8056490B80FFF774FE00F07EFF43
:108610005346039A1860534B801A18600123524A3C
:108620003060137000F072FF38605B461B78072BD8
:1086300057D000F07BFF002819D04B461421484644
:108640005D1C06F007FA00290AD1A023474ADB0582
:1086500099588022D205114255D1A121C9005A5002
:1086600001F068FBA94601F0A1FB00F065FF03F0F3
:1086700015FD002830D10A21484606F0EBF9002903
:1086800027D000F043FF534632681B68D31A1818EE
:1086900043461B683060C01A354B1860244B1B786A
:1086A000002B22D1434600221A60A122294B9200BE
:1086B0009B5A002B00D07BE72B4A137000F026FF5B
:1086C0003B68C01A2B4B9842AFD901235A4613700E
:1086D000AFE7FFF70FFED4E703F0D4FB00F054F848
:1086E000C9E7FFF707FEFFF7E1FE234809F026F888
:1086F0006420FFF7E1FDBFF34F8F204A204BDA6083
:10870000BFF34F8FFEE71F495A50A9E78C2700207F
:10871000182600207C2D0020982800201C260020F0
:10872000482C0020042600207C27002086270020DB
:10873000B42D0020642C0020702C0020722C00200E
:1087400070270020502C00206C2700208827002054
:108750000C260020A4280020B62D00202026002072
:108760006427002050260020D020002004050000AF
:10877000582C002080841E00442A02000400FA05C0
:1087800000ED00E00C050000F0B556465F464D4692
:108790004446F0B4C14B83B09A461B78022B1FD0DD
:1087A000012B00D110E1032B00D1BDE1042B00D13E
:1087B000A4E3052B00D111E2062B01D100F04EFD00
:1087C000002B00D0E9E1B64A0026D3809380538085
:1087D000138000220192B34A00230027904695E1BE
:1087E000B14B1B889A46B14B514600255D5F6B002B
:1087F0009B46AF4B594400229B5E9846C91A00D550
:1088000079E38023DB059B109942FCDB002B00D130
:1088100071E300201E18F71800228E4200DC32009F
:108820008C1A8E4200DC3800C20F10184210100063
:108830009B102100002BEDD110B208F0ADFE9D4A37
:108840009D4B08F085F800229C4B07F031F908F0A9
:108850006DFE00B2071C002801DA00F09BFC3FB25D
:10886000974B8F4C00229B5E20805B0099465346BD
:108870004A46991A4346C91801D500F031FC8023B5
:10888000DB059B109942FCDB002B01D100F028FC9A
:108890000020C218D51800268A4200DC16008E1B64
:1088A0008A4200DC2800C20F1018421010009B10F2
:1088B0003100002BEDD110B208F06EFE7D4A7E4BE8
:1088C00008F046F800227D4B07F0F2F808F02EFE83
:1088D00000B2061C002801DA00F059FC36B25346FB
:1088E0005A469D1A43466080ED1A01D500F0FCFB04
:1088F0008023DB059B109D42FCDB002B01D100F0A7
:10890000F3FB00201A18D1188C460021AA4200DC83
:108910001100691AAA4200DC6046C20F101842100A
:1089200010009B100D00002BECD110B208F034FEAB
:10893000604A614B08F00CF80022604B07F0B8F871
:1089400008F0F4FD00B2051C002801DA00F03FFC3D
:108950002BB20193514643464944A080C91800D523
:10896000C6E38023DB059B109942FCDB002B00D182
:10897000BEE30020C218D518A84600258A4200DCB4
:1089800015004D1B8A4200DC4046C20F10184210F1
:1089900010009B102900002BECD110B208F0FCFD58
:1089A000444A454B07F0D4FF0022444B07F080F8BF
:1089B00008F0BCFD00B2031C002800DA31E21BB253
:1089C000384AE0809046A1E009339946354B344C53
:1089D00098461BE041460A80321C002E4FDB414680
:1089E0004A802A1C002D50DB41468A801A1C002B2D
:1089F00051DBFA2043464000DA80FFF75DFC01239B
:108A00005B429C46E1444B46002B5FD00023E05E76
:108A100008F0C2FD2B4B2C4A07F09AFF08F086FDA8
:108A200007B227800223E05E08F0B6FD254B264AF8
:108A300007F08EFF08F07AFD06B266800423E05E40
:108A400008F0AAFD1F4B204A07F082FF08F06EFDD8
:108A500005B2A5800623E05E08F09EFD1A4A194B78
:108A600007F076FF08F062FD03B2E3803A1C002FA6
:108A7000B0DA002241460A80321C002EAFDA002212
:108A800041464A802A1C002DAEDA002241468A80E7
:108A90001A1C002BADDA0022ABE7C0468627002067
:108AA000842D00205C2C002070270020702C0020DA
:108AB000642C0020666666666666E63F00005E40DF
:108AC000722C0020CCCCEC3FCDCCCCCC53464A46CB
:108AD0001A7023881F1C1BB2002B00DA4FE3638837
:108AE0003FB21E1C1BB2002B00DA4AE3A38836B249
:108AF0001D1C1BB2002B00DA45E32BB20193E28868
:108B0000131C12B2002A00DA3FE31BB26946424648
:108B10008988178056809180D38003B03CBC9046F2
:108B20009946A246AB46F0BDBF4C23780133DBB279
:108B30005AB22370002A00DADDE2BC4ABC4B0021A5
:108B40005B5E11688C4663441360BA4ABA4B0021DD
:108B50005B5E11688C4663441360B84AB84B0021D1
:108B60005B5E11688C4663441360B64AB64B0021C5
:108B70005B5E11688C4663441360B44AB44B0021B9
:108B80005B5E11688C4663441360B24AB24B0021AD
:108B90005B5E11688C4663441360B04C23881F1CD5
:108BA0001BB2002B00DAE8E263883FB21E1C1BB246
:108BB000002B00DADFE2A38836B21D1C1BB2002BAB
:108BC00000DAD6E22BB20193E288131C12B2002A1B
:108BD00000DACCE2A24A1BB2904697E7A14B944937
:108BE0001A88A14B1B88D318934A12889B1A9F4A54
:108BF0009BB210889E4A1CB212886433821808887F
:108C00009BB2121A10B2C82B00D943E1030064339F
:108C100000DA3FE1642800DD3CE1964B964C1B688E
:108C20005B009846954B25681B889A466B001A0096
:108C30000193934B00215B5E9946130053441C0043
:108C40004B46E41A00D538E38E4B9C4200DD48E3E6
:108C500001339B109C42FCDB002B00D12DE3002252
:108C60000327D118C8180026A14200DC0E00A61B5D
:108C7000A14200DC0200D10FDC178A183C40E31847
:108C800051100A009B103400002BEAD108B208F002
:108C900083FC7D4A7D4B07F05BFE00227C4B06F097
:108CA00007FF08F043FC00B2071C002800DA86E248
:108CB0003FB2534642469A1A4B46684C2080D2181F
:108CC00000D5F7E26F4B9A4200DD07E301339B10BA
:108CD0009A42FCDB002B00D1ECE200260325F018C1
:108CE000C1188B460021904200DC0100511A9042CD
:108CF00000DC5E46F00FDA1786192A40D318701090
:108D000006009B100A00002BE9D100B208F044FCD9
:108D10005D4A5E4B07F01CFE00225D4B06F0C8FE6C
:108D200008F004FC00B2061C002800DA49E236B262
:108D30005346019A60809D1A4B46ED1A00D5BFE25A
:108D4000504B9D4200DDC6E201339B109D42FCDB8F
:108D5000002B00D1B4E20322002194465818C21817
:108D600093460022A84200DC0200AA1A0192A842FF
:108D700000DC59466246C80FDD1741181540EB1854
:108D8000481001009B10019DE8D100B208F004FCDE
:108D90003D4A3E4B07F0DCFD00223D4B06F088FECD
:108DA00008F0C4FB00B2051C002800DA8EE22BB2EA
:108DB0000193A08050464B464044C01800D502E2C3
:108DC000304B984200DD83E201339B109842FCDB7C
:108DD000002B00D1F7E1032100228B46D118CD18DA
:108DE000A8460025AC46814200DC8C466546451B02
:108DF000AC46814200DC42465D46D10FD8178A1846
:108E00002840C31851100A009B106046E6D108B2F2
:108E100008F0C2FB1C4A1D4B07F09AFD00221C4BB8
:108E2000C4E50023CBE5C046DC20002080270020DD
:108E30006227002048260020762700203C2C0020B6
:108E400014260020582600204C2C00200826002044
:108E5000A0280020402C00208E2D0020842D0020F2
:108E60005C2C00208C2D0020702C0020722700200C
:108E7000722C0020542600206C2C0020702700202B
:108E8000642C0020FFFFFF3F666666666666E63F6D
:108E900000006440CF4B00269E5FCF4B0021595EFF
:108EA000CE4B0A0000255D5FCD4B72430021595E19
:108EB00054436D1A7543CB4B424300201B5ECA4896
:108EC000611B0025405FC94C1B1A7343C848D31A65
:108ED000C84A21601360814200DB5EE12060C44922
:108EE0008B4200DA5EE1C4498B4200DCFCE1C34BFB
:108EF0001160984696E678277820B1E4C04BC149C6
:108F00001A88C14B1B88D318C04A12889B1A9BB27F
:108F10001AB20A80002164339BB28846C82B09D953
:108F2000BB4B00215B5E5A43B34B90469A4200DC38
:108F30003CE19846B74B1B889A46B74B54460025F0
:108F40005D5F6B009B4643465C44E41A00D5A7E195
:108F50008023DB059B109C42FCDB002B00D19FE1B2
:108F600000229F18F8180021A74200DC3900661A79
:108F7000A74200DC0200D10F8A1851100A009B1092
:108F80003400002BEDD108B208F006FBA34AA44B35
:108F900007F0DEFC0022A34B06F08AFD08F0C6FABB
:108FA00000B2071C002800DA07E13FB29E4B9F4C3D
:108FB00000229B5E20805B00994653464A469E1ADB
:108FC0004346F61800D572E18023DB059B109E42D4
:108FD000FCDB002B00D16AE10022D118CD18002063
:108FE000B14200DC0800301AB14200DC2A00D10F87
:108FF0008A1851100A009B100600002BEDD108B210
:1090000008F0CAFA854A864B07F0A2FC0022854B7D
:1090100006F04EFD08F08AFA00B2061C002800DABD
:10902000C9E036B253465A469D1A43466080ED1A4F
:1090300000D538E18023DB059B109D42FCDB002B33
:1090400000D130E100229918C81884460020A942B6
:1090500000DC0800281AA94200DC6246D10F8A18F9
:1090600051100A009B100500002BECD108B208F04B
:1090700093FA6A4A6A4B07F06BFC0022694B06F0D0
:1090800017FD08F053FA00B2051C002800DA1BE1B6
:109090002BB20193A080504643464844C01800D5E7
:1090A00091E08023DB059B109842FCDB002B00D174
:1090B00089E00022D118CD18A8460025AC4681428F
:1090C00000DC8C466546451BAC46814200DC4246CE
:1090D000D10F8A1851100A009B106046EAD196E61B
:1090E00078267820FFF7FBFB78237820019331E482
:1090F0007823782064E4802B00D04EE54C4808F0BB
:109100001DFB7F224B4B1B68D9171140CB184A49D6
:10911000DB110B80494B1B68D9171140CB1848490C
:10912000DB110B80474B1B68D9171140CB18464900
:10913000DB110B80454B1B68D9171140CB18284910
:10914000DB110B80424B1B68D9171140CB18264905
:10915000DB110B803F4B1B68D9170A40D318284AF4
:10916000DB111380002352462370137015E5002392
:1091700030E5002526E500261DE5002714E500273B
:10918000ADE40026B2E40025B7E40023BDE40026E8
:10919000FFF7A4FB0027FFF762FB1748814200DDC1
:1091A0009CE69CE62C4B116098463BE5104B9A429E
:1091B00000DABEE6BEE6002633E70027F5E6002724
:1091C00076E50026B3E5A023A020FFF7F9FB0025F4
:1091D000FFF7BEFB64270020202600204C2C002037
:1091E000B82D0020A0280020742700206C2C00201F
:1091F0000080FFFF54260020FF7F0000FEFF0000DC
:10920000322B0020B22D0020642C00208E2D002057
:10921000B62D002070270020702C00206666666640
:109220006666E63F00006440722C0020842D00201A
:10923000542A0200802700207227002048260020A0
:109240008C2D00203C2C0020842700205826002054
:1092500008260020402C00200000FFFF244F254C52
:109260000023F95E244B22689C461800234B666855
:109270005343624648437243214DC3189A182868E5
:10928000204B5843204B5E438319D31A1F4A9B132C
:10929000136022683B8006C42A682B606A607CE405
:1092A000A027A02082E6A023A0200193F2E6A0261A
:1092B000A020B7E6A026A0203AE5A027A020F8E449
:1092C000A023A020019374E50025E1E600256EE5CA
:1092D0008023DB057FE58023DB053CE58023DB0580
:1092E000FBE48023DB05BAE45B0098469AE4C046C1
:1092F000622700207C2D002057030000AE060000EE
:10930000982800207FAFFFFFDE1D00008C27002083
:10931000A222194B1949D20099501949194A8020A3
:1093200099501949043299501849194AC003995063
:10933000A023EB210322DB05C9005A5008315A5003
:1093400010315A5008315A50A121C900585080207C
:10935000400458508020400558508020C005585087
:109360000C495A5004315A5028395A5008395A5029
:109370000021094A9950704700600040031513000E
:10938000031713001405000003191300031D130035
:109390001C0500004C070000140700000122014BCF
:1093A0001A707047C02D0020A622274B52009958F2
:1093B000002931D00021995024490A683932FF32FE
:1093C0000A6001229A64224A1278002A24D1A92232
:1093D000D2009A58F423FF339A421DD81D4B042221
:1093E000995E1D4A914218DDFA22FA2092009A8075
:1093F0000622995E184AC00091421BDC0A1C002913
:109400001DDBFA2112B289005118DA80A8220E4B16
:10941000D2009850114A995070470A1C002910DB5D
:10942000FA2112B2890050189A800622995E0A4ADF
:109430009142E3DDFA21FA22C9009200E5E7002219
:10944000DFE70022ECE7C04600A00040BC2D002072
:10945000542C00205C2C0020E70300004405000091
:10946000A622254B5200995800292DD00021995051
:109470004C3AFF3A9A64214A1278002A24D1A92250
:10948000D2009A58F423FF339A421DD81C4B002275
:10949000995E1C4A914218DDFA22FA2092001A8045
:1094A0000222995E174AC00091421BDC0A1C002967
:1094B0001DDBFA2112B2890051185A80A8220E4BE6
:1094C000D2009850104A995070470A1C002910DBAE
:1094D000FA2112B2890050181A800222995E094AB4
:1094E0009142E3DDFA21FA22C9009200E5E7002269
:1094F000DFE70022ECE7C04600900040542C00203B
:109500005C2C0020E7030000440500000122054B0D
:109510009A64A922D2009858034BC0081B68C0184F
:109520007047C04600A00040BC2D0020014B1878B9
:109530007047C046C02D00200022014B1A707047B2
:10954000C02D0020F8B55F4656464D4644460023E0
:10955000504AF0B41360504AA2261370C1239B00F6
:109560009A4680231B039B46012153465846A82553
:109570004A4AF6009151D0504948E433ED00535126
:109580009C461350474B4848802713509946082360
:1095900050465C46BF00D3519846444BD160995128
:1095A0001C5060463E4C5851185148463E4C18518C
:1095B0004046D851D9601160C022520094468022A2
:1095C000D2009046196062464146394B043C99509E
:1095D000F8395A5891464846364A0240C02000049D
:1095E00002435A5042461A6062469F505A58944667
:1095F0006046314A0240C020000202435A501F60B8
:109600002E4A2F4B2F499A512F4A08365A502F492C
:10961000234899512E4E9A51A4222E4ED2009E508C
:109620002D4A2E4E9A51043699512D4910365A50D2
:10963000A6222C49D20099502B4A2C495A502C4929
:1096400099512C4E9A512C4A5A512C4A1A50195160
:10965000154900205A50FF21294A99500023294AD0
:10966000FA3903F0E3F8002803D00022002102F0C9
:10967000ABFD254A0121254803F04AF9002224497F
:10968000244803F05FF93CBC90469946A246AB469D
:10969000F8BDC046BC2D0020C02D002000A0004019
:1096A00044050000C40900004C0500000090004083
:1096B00000E100E0FFFF00FFFF00FFFF40910040DE
:1096C00000F0014014050000006000404C91004093
:1096D0001C05000044910040046000402405000087
:1096E0002C05000040A10040086000403405000047
:1096F0004CA100403C05000044A100400C6000402B
:1097000004050000E02000209D930100782A02005B
:1097100066060000A822002010B5802304240A4A0F
:10972000D4500A4B1A78002A08D000221A70084B2D
:10973000084AD0500422044B1A6010BD01000648AC
:1097400000F08EF9F6E7C04600E100E0642000205A
:109750001C0500000020004090270020F0B55F4667
:1097600056464D464446F0B483B00192002A24DDAB
:10977000802399467C3B9246984600230C008A44FD
:10978000124E134D04279B4609E05B46114A337085
:10979000114B0134D15043462B6054450DD04B46FC
:1097A0002178EF503378002BEFD10C4800F058F9B6
:1097B000434601342B605445F1D1019803B03CBCC1
:1097C00090469946A246AB46F0BDC04664200020B4
:1097D00000E100E0002000401C0500009027002070
:1097E000F0B54F464646C0B489B0FFF78FFE8423DC
:1097F000584D594C28605B00E258002A0DD00022D9
:10980000E250A323DB00E358544F9146DAB23B7891
:10981000002B30D1FF2A00D18EE08E234E4C5B000E
:10982000E258002A0AD000224D48E250183BC35AA1
:10983000002B00D07BE001224A4B1A709222464B4B
:1098400052009958002907D0002199509022D20047
:109850009958454807F072FFFFF758FE434B444ABA
:10986000186011682B68CB1A1818106009B00CBC6E
:1098700090469946F0BD3F498C466646591E0133D5
:109880004900DBB28A533B700E2BC6D13378728805
:10989000984603AB5A70B288F188120252185A8067
:1098A00032897189120252189A80B289F1891202A2
:1098B0005218DA80328A718A120252181A81B28AD8
:1098C00069469A72F28ADA72328B07901A734246AC
:1098D0001A7006AA41CA41C127480399049A059BF8
:1098E00000F0DCF84B46254A3B7013880421013315
:1098F00013808023224A1B4FD1503B78002B1ED06F
:109900004B46FF223B701F4BE250042280211C4B30
:109910001A605A503B78002B16D0002341463B700A
:109920000D4A184BD1500422154B1A6075E700F010
:10993000A5F8144BE05081E701333B706DE7FF2140
:10994000074800F08DF8E0E74146054800F088F848
:10995000E9E7C046442C002000200040CA22002035
:1099600090270020642000207C2A02002C2B00205D
:109970006C270020C42D0020A4280020C82200202D
:1099800000E100E01C05000010B5204800F052F88E
:109990001F4800F059F81F4800F04CF8A023E722B8
:1099A0000321DB05D2009950E82100220E20C900D6
:1099B0005A50194B194958501949023058501948F2
:1099C00019495850A0200421C0001950842040009B
:1099D0001A5014301A5001329A601A60C2221E388E
:1099E000FF3892009850A120043A80009850C0237C
:1099F0000E4A5B00D1507C3014580D4B2340C024DC
:109A0000240423431350116010BDC0465C2600207F
:109A1000A428002090270020002000400C05000012
:109A20001405000000E0D7012405000000E100E07B
:109A3000FFFF00FF80220023FF21520083520232E9
:109A40008152023283527047A02200231F219200CC
:109A50008352024A815202328352704782020000CE
:109A6000812210B5FF245200835A013323408352D0
:109A7000C1540232835A0133835210BD802110B584
:109A8000FF2402004900435AC05C01332340535273
:109A90000431535A013B535210BDC04684B030B517
:109AA00004911F2105920C4A0693835A04AC01339A
:109AB0000B4083529A00D3189B00C31826CC26C3B0
:109AC00006CC06C3A1229200835A0133835230BCD4
:109AD00008BC04B01847C04682020000A023F0B5BD
:109AE00004009B00CA5A9C4693009B189B00CB180D
:109AF000E0CBE0C460CB60C41F2301321A40634650
:109B0000CA52A12292008B5A013B8B52F0BDC04633
:109B1000F0B557464E4645468446E0B489469A46D7
:109B20000120002A3BD0B12300276146244E254D59
:109B3000254CDB002F702770F1504946234BF15024
:109B4000802189007750B06029780029FCD000215D
:109B50002970012A2ED080210125194889004550FD
:109B60000121174889460160802189008846FF3914
:109B7000A325FF39534600268C46ED0021780029A5
:109B8000FCD026704159013AD2B21970012A0BD08B
:109B900049460162002A01D00133EFE700201CBCD6
:109BA00090469946A246F0BD41466746013347506C
:109BB0000262E3E780210225014889004550CFE792
:109BC00000300040CB220020CC2200201C050000E9
:109BD000F0B5474680B407000120002A27D00025B1
:109BE000B126A846134CF6002570134DAF518027BF
:109BF0004646BF00EE51114EA951A86021780029B8
:109C0000FCD000210020013A2170D1B201310A4E6E
:109C10000A4D59181A7872512278002AFCD0013363
:109C200020708B42F6D101220020034B5A6104BC04
:109C30009046F0BDCB220020003000401C05000003
:109C4000F8B58423154A5B00D158002904D00021BF
:109C5000D1500122124B1A708E23104A5B00D1584A
:109C6000002904D00021D15001220E4B1A709225F8
:109C70000A4C6D006359002B0FD00B4EA759FFF70C
:109C800045FCB123DB000200E3583900074807F028
:109C900055FD0323A35100236351F8BD003000405C
:109CA000CC220020CB220020C4040000902A020015
:109CB000A023E2211A4ADB05C90010B55A50083921
:109CC0005A500421174B053AFF3A9950164A023967
:109CD00099500022CD200731FF315A5014315A508B
:109CE0001249C0045850A120C12180008900585059
:109CF0000539FF395A50A022FC39FF39D20099505A
:109D0000C023C0240A4A03315B00D1507C30135871
:109D100024061B021B0A23431350116010BDC046CA
:109D20000C060000003000400C0500002405000077
:109D300000E100E08022044BD2009A58002A01D1B1
:109D400001321A607047C046007000408022002136
:109D5000054B52009950A122D2009A58D3009B1A69
:109D6000024A13807047C04600700040302B00202C
:109D70000A4B0B490B4AC0209950A0210122C9006F
:109D80005A50FD39FF395A50074A000653581B02F2
:109D90001B0A034353508023136070470070004038
:109DA000041000000405000000E100E0F0B54746A3
:109DB00080B4604C82B02578012D32D0002D1CD0AB
:109DC000022D07D1FFF7A2FB5B4B1B68C01A5B4B50
:109DD000984250D832200138C046C046C046C046DE
:109DE000C046C046C046C046C046C046C046C04643
:109DF000F1D102B004BC9046F0BDB1227721504BA6
:109E0000D200995080227539920099504D4A4631BE
:109E1000995001229A602270FFF778FB464B186038
:109E2000D8E7FFF773FB444E3368C01A434B9842A0
:109E3000D0D9454F03223B0000217720FFF768FE71
:109E40003B7877211A047B7858201B021343BA7899
:109E500013433E4A1360B122394BD200995002227B
:109E60008A31FF315A50374958509D602270FFF7B0
:109E70004DFB3060AEE7344D03222B0000217720EC
:109E8000FFF746FE2B7800211A046B781B02134360
:109E9000AA782F4D13432F4A13606A89288912022A
:109EA0009B1A98461A00002304F03CFF4E06CB1183
:109EB0000021C2093243AE88300412184B4100928F
:109EC00001930021E8884246002304F02BFF0E0690
:109ED000020A32436E880B12F003002116001F00A5
:109EE000424636184F410023A889002104F01AFF8A
:109EF000FA23DB009C464902C00D0843164B604420
:109F00001860124B3200186800213B0004F00AFF71
:109F1000CD02420D4B152A4300980199121A8B412C
:109F200011005B04CA0B1A430C4B1A600023237008
:109F300050E7C046D2220020E82200200F27000070
:109F4000003000401C050000E4220020F02D00201D
:109F5000D4220020EC2D0020682700207827002044
:109F600070B5A024094E0A4D2B0002222100772053
:109F7000FFF7CEFD2B786A781B0202341343E4B25C
:109F800033800236B02CEFD170BDC046D422002001
:109F9000D022002076DF70477ADF70477CDF704781
:109FA0007FDF7047A9DF704760DF70472EDF7047A3
:109FB00032DF704733DF70474CDF70478021A022CB
:109FC00010B5044B4904D205D1500022002102F003
:109FD000FBF810BD0C050000F8B50E00151E08D0EA
:109FE0000024044F315D38000134FFF739FDAC42E5
:109FF000F8D3F8BD342B002010B5040003F074FC36
:10A0000021001F4803F0CCFC2388112B2BD01ED934
:10A01000132B0ED0522B08D11A4B00221888002186
:10A020000023FFF7BFFF00280CD1200003F022FB24
:10A0300010BD144B0022188885210023FFF7B0FFC4
:10A040000028F2D00022002102F0BEF8EDE7102B2C
:10A05000EBD18021A0220C4BD2054905D150A2881A
:10A06000084B1A80E1E78021A123A022DB00D20562
:10A070004905D1500122034B52421A80D5E7C04610
:10A08000342300206C2000200C05000010B503785C
:10A09000002B00D010BD8021A022084BC903D2059F
:10A0A000D150074B3B211888FFF774FF0028F1D0EF
:10A0B0000022002102F088F8ECE7C0460C05000001
:10A0C0006C2000200123024A11784B401370704726
:10A0D000542C0020F0B57248A9B0FFF7ABFC7148D2
:10A0E000FFF7A8FC002348226F49082003F010FE68
:10A0F000002800D0CEE01AAC082200212000FEF794
:10A1000087F801222378200093432370FFF74CFF48
:10A11000002800D0B9E0654803F020FE002803D0F5
:10A120000022002102F050F80022614B15201A7025
:10A13000FFF73EFF01211520FFF73CFF1520FFF739
:10A1400035FF02210320FFF737FF0F21012203AE65
:10A15000337820008B43134310220B40134333709A
:10A16000D023544A5449D358FF221340534A07F08E
:10A17000FFFA200007F01EFB210082B23000FFF73B
:10A180000DFF002800D07BE00CAD08220021280044
:10A19000FEF73EF806232B8006336B800023AB804E
:10A1A0009133FF332800EB80FFF7F6FE002803D041
:10A1B0000022002102F008F8002104222000FEF70E
:10A1C00027F83F4B21003F481A9303F019FC002861
:10A1D00003D00022002101F0F7FF382200212800DF
:10A1E000FEF716F8022300272B70382204330021D3
:10A1F0002000EB70AF70FEF70BF801232382324B87
:10A200002422002130006361FEF702F8012333733A
:10A21000402332003361210000970023280003F01F
:10A2200069F9002803D00022002101F0CDFF1C2293
:10A2300000212000FDF7ECFF244A00236260F02299
:10A240001203A26005221A93E38101332374204B89
:10A25000200063611F4B2273A36103F009FB0028F8
:10A2600003D00022002101F0AFFF032003F0E4F946
:10A27000002803D00022002101F0A6FF29B0F0BD84
:10A280000022002101F0A0FF7EE70022002101F062
:10A290009BFF40E70022002101F096FF2BE7C0461C
:10A2A000342B0020742C0020EC220020F99F0100A8
:10A2B000542C002000100010D42A0200C82A0200EA
:10A2C000D99F01003423002068200020CD0C00001D
:10A2D0008DA00100BD9F0100F0B5564644465F4683
:10A2E0004D4684460120F0B4874B884C92461C6052
:10A2F000874BA022DB7AD2059840864B8426D0502B
:10A30000002306227600A351834B87B0E2508422BB
:10A3100052009346A2597D4B002AF8D0A324E400B2
:10A320001A59A1260492A022AF27F600D205905117
:10A33000049E0136049603AE377067463F0CB8465C
:10A34000777067463F0AB946B7706746F7700029CD
:10A3500000D19EE057466D462F802F880197002F31
:10A3600000D196E06B4F5D46D051002292465A5183
:10A3700000940C005A4651469B46A246745C664DBA
:10A380005C519C58002CFCD084275C4600257F0043
:10A39000E551009D0131645905940429EED15146DF
:10A3A0004B1C5A4C9A460A785B4B2500E2503C0005
:10A3B00084222B59554E5200002BF9D00023B35064
:10A3C000A323DB00F358A0250593A123ED05DB00B3
:10A3D000E8504B46FF201B02000203406446FF206A
:10A3E00020401818FF26434636041B0433401B1830
:10A3F00001985446013880B20130844601208246DB
:10A4000044488C448146AF20C9438046CB18424E15
:10A410000093644545D00F200138C046C046C04671
:10A42000C046C046C046C046C046C046C046C046FC
:10A43000C046F1D15146364B4046DB7A99404B46F7
:10A44000E950314B1B68985198580028FCD00020E7
:10A4500083465F460930FF301F50A320C0001858C4
:10A4600005902078985198580028FCD00020834609
:10A470005F460930FF301F50A320C0001B58013435
:10A480000593A123DB00E950009B1919234B994246
:10A49000BFD9002007B03CBC90469946A246AB46C7
:10A4A000F0BD14200138C046C046C046C046C04674
:10A4B000C046C046C046C046C046C046C046F1D1B0
:10A4C0000120134BA022DB7A04219840114BD205C6
:10A4D000D0500D4B1A68104BD1500531FF315358F5
:10A4E000002BFCD0842300215B00D150A323DB0090
:10A4F000D358A0220593A123D205DB00D050059BA1
:10A50000012001330593C5E75C2300200040004093
:10A51000502300200C0500001C050000FEFF010078
:10A52000F0B544465F4656464D46F0B483B06C469F
:10A5300003232370030C6370030AE070A37092B2CC
:10A540000020002901D0002A06D103B03CBC90466F
:10A550009946A246AB46F0BD284B294CA027236064
:10A56000284CFF05E57AA4460124AC40264D7C51D9
:10A570008424640018511800244B00259A460023B7
:10A580009846A323DB000700A1469B466B46564630
:10A590005B5D83510359002BFCD04B464646FE5071
:10A5A0005B46FB5801350193042DEFD1174B8424F2
:10A5B000A32698460027013A95B201350F484D1958
:10A5C0006400F6004346C75003590C4A002BFBD0E9
:10A5D00084235B00D75093590B700131A942F1D10C
:10A5E0006346DA7A0123A0219340A122C905D20053
:10A5F0008B50019B012001330193A6E700400040EE
:10A600005C230020502300200C0500001C050000E6
:10A61000F0B55F4656464D464446F0B489B006ADA7
:10A62000062200212800FDF7F3FD40236B70353B27
:10A63000AB70023BEB7009332B71013B6B71784BB4
:10A640002900981D06229A4607F06FF8AB7803227E
:10A6500098464146A0230020C131FF31DB05890027
:10A66000CA50E97884468946C131FF318900CA5011
:10A67000297944468B46C131FF318900C8506F7932
:10A68000A12039004E46C131FF318900CA506549C9
:10A69000C0000C50644C0E515E46A04604340E516E
:10A6A00001263400BC401C506F78604C3F060F51AF
:10A6B0002F785F4D64464F518427543D7F00CC5125
:10A6C0004E51E025ED005A515A4D5A5180229201C7
:10A6D0001E501A505246584D2960D27A9640424632
:10A6E0009E505022554BCC51CA508422C8594D4BD4
:10A6F00052000028F9D0A321C9005958A020019187
:10A70000A121C005C90046500199012701310191DD
:10A71000454946500020494998505F505850842779
:10A72000995840487F000029F9D00023C351A32342
:10A73000DB00C35802938421C3593A4A4900002BD5
:10A74000F9D0A323DB00D358A0200293A123C00596
:10A75000DB00C650029B01330293334BC6500023EB
:10A7600006205350354BD050842753582D487F0036
:10A77000002BF9D0A323DB00C358A0220393A1230D
:10A78000D205DB00D650039B01330393264BD650F2
:10A7900000236022C351294BC250224B9846842388
:10A7A0005B009946C359002BF7D0A3234246DB0038
:10A7B000D358A0270493A123FF05DB00FE50049B80
:10A7C000642001330493FDF777FD43462B60534625
:10A7D0000121DB7A42469940134B4846F950002349
:10A7E000135006224046154BC25043464A469858DD
:10A7F0000028FCD0A3230B4ADB00D358A0220593EA
:10A80000A1230120DB00D205D150059B0133059324
:10A8100009B03CBC90469946A246AB46F0BDC04646
:10A8200050230020004000400C05000024050000DB
:10A8300054050000340700005C2300201C050000C4
:10A8400030B5554C83B0A37A002B00D197E06B460E
:10A85000DD1D00232B7023680122597C6368187862
:10A860002B00FFF7B5F9002800D088E0236801220B
:10A870005979636818782B00FFF7AAF9002800D0EF
:10A880007DE0236801221979636818782B00FFF7AF
:10A890009FF9002800D072E02423E35C002B36D01F
:10A8A0000C232B70236801221979636818782B0018
:10A8B000FFF78EF9002862D13230FDF7FDFCC0238E
:10A8C0002B70A37ADB0762D42368012219796368AD
:10A8D00018782B00FFF77CF9002850D1637C002BFF
:10A8E00058D12B7023680122597C636818782B009B
:10A8F000FFF76EF9002842D1236828705979636800
:10A90000012218782B00FFF763F9404235E0042359
:10A910002B70236801221979636818782B00FFF7E0
:10A9200057F900282BD1A27C4023002A2AD02B7073
:10A93000236801221979636818782B00FFF748F91A
:10A9400000281CD13230FDF7B7FC637C5A1E9341BE
:10A950002B7023680122597C636818782B00FFF75D
:10A9600037F900280BD1230022681033517962682F
:10A9700010780122FFF72CF9404203B030BD0120CE
:10A980004042FAE7A27AD207D1D52033CFE7E023BD
:10A990002B7099E70223A4E77020002070B5060011
:10A9A00082B0282800D9BBE02323694C01ADE35CC9
:10A9B00000282CD1002B18D02870A27C8023002ADC
:10A9C00002D07E3B2B7080332222A25C002A00D072
:10A9D0008AE023680122D97D636818782B00FFF78D
:10A9E000F7F8002801D12323E05400232B7007330C
:10A9F0006B7023680222597D636818782B00FFF77B
:10AA0000E7F8002800D08BE0207502B070BD012B64
:10AA100019D030232B70A27C8033002A02D07E3BD9
:10AA20002B7080332222A25C002A5BD12368012292
:10AA3000D97D636818782B00FFF7CAF8002802D187
:10AA400001222323E25420232B70012E6BD0052EEC
:10AA500059D9142E4AD903236B70A37A002B6FD0D7
:10AA600004236A46D370E37A042B69D02368012259
:10AA70009978636818786B460333FFF7A9F80028C4
:10AA800060D16B460722DB78E3726B789B0113433E
:10AA9000DBB26B7023680222597D636818782B0043
:10AAA000FFF796F800283BD108230122A3722073F8
:10AAB00022751C33E35C002B12D12374637C002BC2
:10AAC0000ED16B46DA702368597C636818786B4640
:10AAD0000333FFF77DF8002802D16B46DB786374FF
:10AAE000002092E72B70A1E72B7072E702236B70B6
:10AAF000A37A002B05D005236A46D370E37A052B91
:10AB0000B4D18723C5E701236B70A37A002B05D04E
:10AB100006236A46D370E37A062BA7D14723B8E70A
:10AB20000120404271E700236B70A37A002B05D00F
:10AB300006236A46D370E37A062B97D10723A8E74A
:10AB4000C723A6E76B789A0107231343DBB2A0E77C
:10AB50007020002010B5114A0100537A012B19D042
:10AB6000002B13D0022B0AD0032B0CD1102320244E
:10AB70000370D37C0020002B00D00C7010BD082384
:10AB800010240370F5E701204042F7E70223042474
:10AB90000370EEE7042308240370EAE77020002026
:10ABA00070B51C4C82B0A37A002B27D06B46DD1DFC
:10ABB000BB2816D8612817D902232B70E27A002609
:10ABC0009A420BD0236801229978636818782B0089
:10ABD000FEF7FEFF002811D12B78E372300002B09F
:10ABE00070BD01232B70E9E7292804D8132808D960
:10ABF00004232B70E2E703232B70DFE70126764264
:10AC0000ECE7092802D905232B70D7E706232B7020
:10AC1000D4E7C0467020002070B5584C82B0A37AAB
:10AC20000600002B00D196E02423E35C002B00D02B
:10AC300091E0227D002A30D0421E272A00D885E0EC
:10AC40002322A25C01AD002A18D02B70A37C8022A5
:10AC5000002B02D0022302322B702223E35C002B54
:10AC600000D071E023680122D97D636818782B0039
:10AC7000FEF7AEFF002801D12323E05400232B7000
:10AC800007336B7023680222597D636818782B00A4
:10AC9000FEF79EFF002800D12075F920032E31D841
:10ACA0006B46D870236801225978636818786B4620
:10ACB0000333FEF78DFF00284DD16B46FA20D9787B
:10ACC0008000013103F0CAFEA37A80B2E08140081F
:10ACD000002B14D001ADBB2821D9012301222B70F8
:10ACE000E37A93420BD0236801229978636818783D
:10ACF0002B00FEF76DFF002801D12B78E3720020B6
:10AD000002B070BDFA23311C9B009E420FD8FA207E
:10AD100089B2800003F0A2FE0138C0B2C0E761280A
:10AD20000ED829281AD9032303222B70D8E7FA203A
:10AD3000191C89B2800003F091FE0138C0B2AFE760
:10AD4000022302222B70CBE72A708BE7C0B2FFF7F9
:10AD500025FE0020D4E701204042D1E7132805D882
:10AD6000092807D9052305222B70B9E704230422FB
:10AD70002B70B5E7062306222B70B1E77020002068
:10AD8000F0B54746242380B4304D82B0EB5C0024FC
:10AD9000002B2BD1AC7A002C54D0013398430440C3
:10ADA0002F7C2C74041B621E944106006442002810
:10ADB00021D12A7D002A30D06A7C002A16D10732A0
:10ADC0006A4413702B689046597C6B68187813009E
:10ADD0000122FEF7FDFE002808D143461B786B7464
:10ADE000002E03D0FFF72CFD002827D1200002B051
:10ADF00004BC9046F0BD6A7C002AF3D107226A4465
:10AE000013702B689046597C6B68187813000122E8
:10AE1000FEF7DEFE0028E0D0E4E76B46DA712B682F
:10AE20000122597C6B6818786B460733FEF7D0FE19
:10AE30000028DBD16B46DB796B74D7E701242F74D4
:10AE40006442D3E701246442D0E7C046702000206A
:10AE5000F0B54F4646467023C0B4050083B00340AA
:10AE600069D06B469E1D01233370484C0122236834
:10AE7000597D636818783300FEF7AAFE002800D0D9
:10AE80007EE0402233783070934323732A4266D0A9
:10AE90003A20844637388146013838233922012147
:10AEA0003B278046A80604D443463A0033704946FF
:10AEB0006346E80601D4130031702A0700D43370CA
:10AEC00023680122997D636818783300FEF780FEBD
:10AED000002855D108232A009A4320D02323E35C7D
:10AEE000002B1CD06B46D871A37C8022002B03D092
:10AEF0006A460223D37182222223E35C002B01D015
:10AF00006B46DA7123680122D97D636818786B4635
:10AF10000733FEF75DFE002801D12323E054002310
:10AF20003220A5722375FDF7C7F9002003B00CBCD1
:10AF300090469946F0BD00281ED16B464027134C21
:10AF40009E1D23683770597D63680122187833008D
:10AF5000FEF73EFE002813D13378BB4323733E2017
:10AF60000423844637388146013833703D22383314
:10AF700005213F27804695E76A46961D337074E7A2
:10AF800000230120A3724042D0E7C0467020002079
:10AF9000802370B5774C84B002AD2B7023680122FA
:10AFA000597D636818782B00FEF712FE061E00D04C
:10AFB000C2E06420FDF780F923682E70597D636834
:10AFC000012218782B00FEF703FE002800D0B3E022
:10AFD00070232B7023680122D97E636818782B00B8
:10AFE000FEF7F6FD002800D0B5E023680622597E62
:10AFF000636818782B00FEF78BFD002800D09BE0DB
:10B0000004216B7901269B0019400223EA78520043
:10B0100013406A780B433240134300D182E0D9B227
:10B02000012B03D0022900D098E00023E374002311
:10B030002B7023680122D97E636818782B00FEF7F5
:10B04000C7FD051E00D086E00122FF235242A372F5
:10B0500023726372E372E2812274A3742332FE3B93
:10B06000A35423732233E054607520752000163AF0
:10B0700016300021FDF7CCF82423E5540133E554C4
:10B08000A37AE584002B57D06B46DD1D18232B7067
:10B09000237A032B0FD023680122997963681878EB
:10B0A0002B00FEF795FD002846D12B78DB08237294
:10B0B000A37A002B40D000232B70637A002B0FD093
:10B0C00023680122D979636818782B00FEF780FD88
:10B0D000002831D12B78DB086372A37A002B2BD0A8
:10B0E00005232B70E37A052B0BD023680122997876
:10B0F000636818782B00FEF76BFD00281CD12B78B5
:10B10000E372FA208000FFF787FD002814D10020A9
:10B11000FFF736FE041E0FD10020FFF799FE200036
:10B1200004B070BD23680122D978636818782B00B9
:10B13000FEF7EEFC002802D001246442EFE70F2264
:10B140002B78134010D0042B00D06EE70A4806F08D
:10B15000F5FAE6746BE703246442E0E7012407484C
:10B1600006F0ECFA6442DAE70124054806F0E6FA54
:10B170006442D4E7702000208C2B0200142B0200C4
:10B180003C2B0200F0B54F4646462423C0B4284C61
:10B1900083B0E35C070089469046002B3BD0A37A3E
:10B1A000002B38D0236801AE197B6368022218781F
:10B1B0003300FEF7ADFC00282DD1357873782D02D1
:10B1C0001D43BD422AD3606843885B089D420CD969
:10B1D00023680078D97C01223300FEF799FC00280F
:10B1E00019D13378DB061DD460682368FAB2597B25
:10B1F00000784B46FEF78CFC00280CD13900280063
:10B2000003F0A2FB434601381870002003B00CBCC9
:10B2100090469946F0BD01204042F7E7434618703A
:10B220000138F3E7FFF70CFB02204042EEE7C0468F
:10B23000702000202223024AD05400207047C046CC
:10B2400070200020232370B5174C82B0E35C05000A
:10B25000834224D000281DD1802282200226002192
:10B260006B4607331970A17C002901D002001E70C3
:10B270002221615C002900D01A702268D17D6268A9
:10B2800010780122FEF7A4FC00280AD12323E554FC
:10B2900002B070BDB022B22032263021E0E700209B
:10B2A000F6E701204042F3E77020002070B50D0062
:10B2B00082B0161E20D0124CA37A002B1CD0020A9A
:10B2C00001AB1A70C0B26268587040185189884248
:10B2D00012DC21681078C97E0222FEF779FC002872
:10B2E0000AD12368EAB2197E636818783300FEF742
:10B2F0006FFC404202B070BD01204042FAE7C046F8
:10B3000070200020F0B556465F464D464446F0B4E6
:10B310008BB003932523514E01910292F35C824638
:10B32000002B75D1002973D0002800D194E00400CF
:10B33000102800DD75E0A3B29B46B37A002B67D0DE
:10B34000002305AF70683B707B7043899C425FDCD3
:10B35000019B0025984638E033681078D97E022298
:10B360003B00FEF735FC002852D133684A46197E6F
:10B370007368187806ABFEF7CBFB002848D1220093
:10B3800006A9404606F0C2F900284CD15D44ADB292
:10B39000AA454BD953465C1B102C00DD1024A3B2E8
:10B3A0009B46019B9846A8444346002B30D0B37A75
:10B3B000002B2DD02B0A3B707068EBB222047B70FF
:10B3C000120CD3184289934222DC33680078D97E6C
:10B3D00002223B00FEF7FCFB002819D1E3B299469C
:10B3E00033684A46197E736818784346FEF7F0FBC7
:10B3F00000280DD1B37A002B0AD02B0A3B7072685B
:10B40000EBB27B702404240C51891B198B42A3DD01
:10B41000012040420BB03CBC90469946A246AB4648
:10B42000F0BD102487E702204042F3E7029A130A96
:10B430003B7033687A70597F7368022218783B003A
:10B44000FEF7C6FB0028E3D125230122F2546B4608
:10B450009B890020F384DDE705AFE8E7702000203A
:10B46000242330B55A4C83B0E35C834276D0002865
:10B4700000D17AE02522A25C002A00D19EE0002BB8
:10B4800000D06EE0A27A002A00D19AE06A46D51D6B
:10B490002B7023680122597C636818782B00FEF713
:10B4A00097FB002801D12B786374A37C002B36D046
:10B4B000236801221979636818782B00FEF728FBAE
:10B4C00000282CD1A37ADB0700D56FE020222B784F
:10B4D00093432B70236801221979636818782B0035
:10B4E000FEF776FB00281AD10330FCF7E5FE222395
:10B4F000E35C3022002B01D0802380322B70232389
:10B50000E35C002B00D02A7023680122D97D636898
:10B5100018782B00FEF75CFB002800D1A074E08CAB
:10B52000FFF77AFB6B46002206331A70626823210C
:10B5300010780122FEF74CFB24230122E254223B27
:10B540002B702368597C636818782B00FEF740FB4A
:10B55000002801D12B786374FFF772F9002003B043
:10B5600030BD6B46DD1D002392E7002B22D1A27A6D
:10B57000002A29D06A46D51D2B7023680122597CE8
:10B58000636818782B00FEF723FB002801D12B7885
:10B590006374237C01222B706368232118782B00AD
:10B5A000FEF716FB00222423E254D5E720232A7855
:10B5B00013438EE76B46DD1D2870DEE70120404215
:10B5C000CDE76B46DD1D70E76B46DD1DE1E7C0464C
:10B5D00070200020802210B5C823D2000249034801
:10B5E000FFF790FE10BDC046242C0200F60B0000B1
:10B5F000F0B5404C87B002AF050003AE2100032236
:10B60000380006F092F8211D0322300006F08DF874
:10B6100021000322083104A806F087F82100032244
:10B620000C3105A806F081F8032108006A466C4633
:10B6300028403B5C1370EA080A40BB5CB25C637054
:10B64000AB090B40F95CF35CA170315C01AC21707B
:10B65000627003216A462848A370FFF727FE00287E
:10B6600045D1220003212548FFF720FE00283ED1C6
:10B67000032204A9684606F058F8032205A9200011
:10B6800006F053F86B0708D56A460123694612781D
:10B690001A430A70227813432370AB0608D56A4612
:10B6A0000123694652781A434A70627813436370E3
:10B6B000EB0512D488206A460321C000FFF7F6FD8F
:10B6C000002814D1220003210D48FFF7EFFD0028C8
:10B6D0000DD10C4B1D8107B0F0BD6A4601236946B0
:10B6E00092781A438A70A2781343A370E2E701208C
:10B6F0004042F0E7D82B0200260400002A04000094
:10B70000310400006023002010B5144986B0040005
:10B710000C22103103A806F008F8C82C1AD8210012
:10B72000C82003F09BF9013880B201AA030A5070C7
:10B7300002210B481370FFF7B9FD00280AD103AAB4
:10B740000C210848FFF7B2FD002803D1064B9C816D
:10B7500006B010BD01204042FAE7C046D82B0200D7
:10B7600016020000C10A000060230020F0B50500A9
:10B7700083B043076BD0C823DB00994267D8080029
:10B7800004F058F94D4903F087FC6B46DC1C071C9C
:10B790002000FFF7DFF92378042B00D17DE033D9B7
:10B7A000082B6AD0102B52D18A21381CC90503F00E
:10B7B0003DFE03F0E3FA424986B2381C03F036FE40
:10B7C00003F0DCFA80B201AC330A2370030A66701E
:10B7D000A370E070EB0729D4AB073CD400206B07C3
:10B7E00037D5EE20220002214000FFF75FFD002840
:10B7F0002DD16B462D309A1D0221FF30FFF756FDEB
:10B80000431E9841404224E0022B20D18D21381C58
:10B81000C90503F00BFE03F0B1FA2A4986B2381CC1
:10B8200003F004FE03F0AAFA80B2CCE7EA2022007B
:10B8300002214000FFF73AFD002808D16B46253071
:10B840009A1D0221FF30FFF731FD0028C4D00120EE
:10B85000404203B0F0BDEC20220002214000FFF77F
:10B8600025FD0028F3D16B4629309A1D0221FF30B7
:10B87000FFF71CFD0028B1D0E9E78B21381CC90572
:10B8800003F0D4FD03F07AFA0F4986B2381C03F0B6
:10B89000CDFD03F073FA80B295E78C21381CC90501
:10B8A00003F0C4FD03F06AFA084986B2381C03F0BD
:10B8B000BDFD03F063FA80B285E7C046000048434F
:10B8C0000000C04400004046000040450000C04564
:10B8D000F0B54E4645465746E0B486B0924B03ACB1
:10B8E00006002200042168200393FFF7DFFC4022BA
:10B8F000A32332402370904600D10DE11D336370C5
:10B900000833A370063BE370C0277F00374000D1A7
:10B91000FDE0C423237108336371063BA371A323A5
:10B9200022000A218148E37123726372FFF7BEFC93
:10B930000323334099464A462023002A00D1B833D6
:10B94000220001217A4823706D46FFF7AFFC0922DF
:10B950007849B30600D4D8E01C31280005F0E5FE94
:10B9600097202A000921C000FFF7A0FC002F09D072
:10B97000F30500D5D4E0704B0393220004216F48F7
:10B98000FFF794FCF30700D4B6E08B20F8232200E5
:10B99000012100012370FFF789FCFA210720FFF73E
:10B9A000E5FEA4203F232A00012140002B70FFF771
:10B9B0007DFC002350209A462A000121FF302B7085
:10B9C000FFF774FC5346EF202B7014232A0002214A
:10B9D00040006B70FFF76AFC5346ED202B70642328
:10B9E0002A00022140006B70FFF760FC53462B7069
:10B9F0008E23AE206B706B33AB702A00693B042141
:10BA00004000EB70FFF752FC5346AD202B7008232B
:10BA10002A00022140006B70FFF748FC5346AC201F
:10BA20002B7002232A00022140006B70FFF73EFCBE
:10BA3000B307DB0FD8332200012141482370FFF701
:10BA400035FC730752D53F4B00932A0004213E4832
:10BA5000FFF72CFCFEF7F4FEF30641D53B4B0093B9
:10BA60002A0004213A48FFF721FCFEF7E9FE0823EB
:10BA7000384C33436381FEF7E3FE4346002B22D16B
:10BA80000A20434684460C3082461038A3731422A1
:10BA9000042310211A258046002F04D043462A0093
:10BAA000A373514663461420304201D01300A173A2
:10BAB0004A46002A00D0A373002006B01CBC904662
:10BAC0009946A246F0BD1020062384460C308246DB
:10BAD0001038A3731A220433162120258046DBE791
:10BAE0000422A3212800FCF793FBB9E704228B2151
:10BAF0002800FCF78DFBA8E78B20D823220001212A
:10BB000000012370FFF7D2FB92E7283125E7A3233A
:10BB100023716371A37102E76370A370E370F3E6AE
:10BB20000D4B039329E7C04602CAE309A70A0000A8
:10BB3000B60A0000D82B0200B080B490A20A000020
:10BB40003D070000C0C2C4C6980A00002028303853
:10BB50009E0A000060230020B28BB69BF0B54446DD
:10BB60005F4656464D460023F0B491B01A9C06003D
:10BB700023807C4B0F00987B914608A91B9AFFF706
:10BB800001FB03B298462380181E74D11422754B12
:10BB90005B891A4200D075E00325AC46013DA846FA
:10BBA000013DA94600250C2100220420AA46079148
:10BBB0000139069101390591013904910139039147
:10BBC00001399346029106320139019100920139FF
:10BBD0005D062DD5524608ADAA5C120292462A0097
:10BBE0004D46525D554615433D80454608AA525D77
:10BBF00065461202904608AA525D4546154308AABA
:10BC0000515C105C009A00029346079A0843009228
:10BC1000049A08219446039A7D809046029AB8803F
:10BC20009146019A20889246014321800598069901
:10BC3000C0277F003B421BD0554608AA575D4D46A2
:10BC4000525D45463F02174308AA3780575D654657
:10BC5000525D3F02174308AA105C515C0002014389
:10BC6000B180009A7021934677802088014321801B
:10BC70009B0752D1002011B03CBC90469946A24689
:10BC8000AB46F0BD089A11BA4A461160099A0914E8
:10BC900010BA4A4650600A9A8C4612BA92464A46F0
:10BCA000554695604D460B9A514612BAEA60654674
:10BCB0006D43AC46001409144043121449435243E7
:10BCC000604440188018F122120694468022604495
:10BCD000920490423FD88021228849000A43228062
:10BCE000102293460632009206320792013A0692DB
:10BCF000013A0592013A0492013A0392013A029202
:10BD0000013A0192033A9446013A9046013A91462B
:10BD1000013AEB39142092465AE708AB9C465C4640
:10BD200064446378E678DA070BD50E4A1268002A75
:10BD300007D007200100F308314018400131904737
:10BD400063781B0796D5074B5B68002B92D0B00930
:10BD5000984700208FE7FEF773FD434601202380BC
:10BD6000404288E7602300200023F0B5C356002B33
:10BD700036DD302200232024082128261025944671
:10BD8000382703228256002A18DD06214156002258
:10BD9000002902DD134398B2F0BD00293AD10721F2
:10BDA000415640320029F5DC51D10821415640323C
:10BDB0000029EFDC59D1E0225200EBE7002A27D11D
:10BDC000042282560B00002ADFDC3ED10522825677
:10BDD0002B00002AD9DC3B00002AD6D06346D4E7EA
:10BDE000002B0CD10123C356002B16DD3122012379
:10BDF000212409212926112594463927C1E7342217
:10BE0000042324240C212C26142594463C27B8E72F
:10BE10002300BAE780225200BCE7002B0CD102239A
:10BE2000C356002B16DD3222022322240A212A26A1
:10BE3000122594463A27A4E73522052325240D210F
:10BE40002D26152594463D279BE733009DE7A0222C
:10BE500052009FE7002B0BD13722072327240F2105
:10BE60002F26172594463F278BE70132FF3291E7B3
:10BE70003622062326240E212E26162594463E27FA
:10BE80007FE7C046F0B55F4656464D464446F0B49F
:10BE9000764B91B004AA944601930E236344009319
:10BEA0000AA900230CAA08A8FFF758FE41B20029EE
:10BEB00000D0D7E00C9803F075FDC221890503F08E
:10BEC000B5FA041C0D9803F06DFDC221890503F03D
:10BED000ADFA80460E9803F065FDC221890503F096
:10BEE000A5FA81460F9803F05DFDC221890503F094
:10BEF0009DFA211C051C201C03F098FA4146071CE2
:10BF0000404603F093FA49468246484603F08EFACB
:10BF1000291C0290281C03F089FA5146061C381C83
:10BF200003F098FB029903F095FB311C039602F095
:10BF30003DFF05F073FB04900591291C484603F072
:10BF400075FA41468346201C03F070FA011C5846DE
:10BF500002F02CFF05F062FB02000B0003F0A8FDCD
:10BF6000049A059B01F0AEFF0022414B04F0F0FC67
:10BF700005F0DCFA3F4B291C1880404603F056FAC6
:10BF800049468346201C03F051FA011C584603F031
:10BF900061FB05F043FBC02300221B0604F0D8FC24
:10BFA00001F02EFF80268B4636065E440022304B81
:10BFB000310004F0CDFC05F0B9FA2F4B5146188042
:10BFC000381C02F0F3FE029903F044FB039903F0DE
:10BFD00041FB05F023FB06000F004046494603F0F5
:10BFE00025FA291C8046201C03F020FA011C40463B
:10BFF00002F0DCFE05F012FB02000B0003F058FD1E
:10C0000032003B0001F05EFF0022194B04F0A0FC5F
:10C0100005F08CFA7022194B188004ABDB891A42A8
:10C020000BD004AA118A164A118004AA518A154A13
:10C03000118004AA918A144A11801B070BD504AB06
:10C040001A8B124B1A8004AB5A8B114B1A8004AB1B
:10C050009A8B104B1A8011B03CBC90469946A24670
:10C06000AB46F0BD0C4805F069FBF4E7162600204E
:10C07000005FC4406227002076270020142600209D
:10C080004C2C0020A02800208E2D00209628002077
:10C09000002600204C2600201C380200A223A022EB
:10C0A000DB00D205D35801209B0604D4024B18783C
:10C0B000431E9841C0B270471626002070B5050097
:10C0C00082B000200E00FEF763FF0100324805F049
:10C0D00035FB7820FEF7BCFE0100304805F02EFB52
:10C0E0007820FEF74DFE01002D4805F027FB0020CB
:10C0F000FFF7A0F80120FFF7A5F8002D1FD16B4630
:10C10000DC1D0122DD711A2123006820FDF760FD8E
:10C110000100244805F012FBFA203100400102F032
:10C120009DFC013820701921230001226820FDF7B1
:10C130004FFD01001C4805F001FB02B070BDFFF788
:10C1400049FA0100194805F0F9FA1948FFF70CFE01
:10C15000FFF74EFA0100174805F0F0FA7220FF30A1
:10C16000FFF7B6FB0100144805F0E8FA6420FFF77A
:10C17000CBFA0100114805F0E1FA0120FFF770F950
:10C1800001000F4805F0DAFA0A20FEF709FD010068
:10C190000C4805F0D3FAD0E7603802007838020086
:10C1A000903802003839020050390200A8380200E5
:10C1B0009C200020C0380200D8380200F03802006D
:10C1C000083902002039020010B50B0001000B48AD
:10C1D00005F0B4FA8021A123A022FA20C900DB00D7
:10C1E000D205D150C000FCF767F8BFF34F8F044A67
:10C1F000044BDA60BFF34F8FFEE7C0466839020098
:10C200000400FA0500ED00E080218023184A89022D
:10C21000D1508022D221174B520289005A50403906
:10C220005A5001222F205A600138C046C046C046ED
:10C23000C046C046C046C046C046C046C046C046CE
:10C24000C046F1D19A6000230B4A2F2013600138B9
:10C25000C046C046C046C046C046C046C046C046AE
:10C26000C046C046C046C046F1D1044A137070476C
:10C2700000E100E000100140702300209023002026
:10C28000A021F0B5002347462C4A490080B4535002
:10C290000431535004315350043153504C395350EE
:10C2A00004315350264B1B68002B37D025490026FC
:10C2B00052582549254F0C68141B00222402240AD9
:10C2C000904602E0002D1AD02B001A68A24216D820
:10C2D000A41AB6181A7CDD69002AF3D0424699697F
:10C2E0001A745A693B68002B1BD01000984700282D
:10C2F000E8D000220021FFF767FF002DE4D1144BA6
:10C3000014491A780B789A420ED0134A9B009E501B
:10C3100080218023114A49035B00D15004BC904620
:10C32000F0BD08009047CDE70132D3B2022B01D017
:10C330000B70EAE700230B70E7E7C04600100140EE
:10C3400074230020040500007023002078230020BF
:10C3500084230020852300208823002000E100E0C2
:10C36000F0B55F4656464D464446F0B4C54BC64A06
:10C370001B68C6498BB0059309781378994200D1A0
:10C3800057E10133DBB2022B00D100231370C04A06
:10C390009B009B58BB4A9A46059B53441B021B0AB1
:10C3A000136001230193BB4B00241B689B46BA4BCF
:10C3B0005A461B78914619000393B84B88461B6870
:10C3C00047460493AF4B013F1B680793B44B1B7860
:10C3D000099300239C4606930893FBB26646984651
:10C3E000FF2B32D04346D800049B9C461300604488
:10C3F0000178457800961A00A9421FD046684A0085
:10C40000B446521886780131D200C9B262448E42D5
:10C4100000D1EDE01678022E00D1C7E0032EEAD15C
:10C42000002BE8D01C74DB69002BFBD1013345786D
:10C430000093002399461A00A942DFD14746013FE5
:10C44000FBB2009E9846FF2BCCD1089BC8460292B7
:10C45000B446002B00D0F0E0069B002B02D0894BA5
:10C46000079A1A606346002B02D04246894B1A6035
:10C47000019B002B00D02DE15B46029A00259B1A00
:10C480005A1E9341DBB205937E4B00271B6802992D
:10C490009C46804B1B689B46814B1B780693002370
:10C4A0000193804B994601230093039B013BDBB230
:10C4B0000393FF2B00D1F9E0049ADB0092460E00B3
:10C4C0009A44002D28D06A68A9682C00ED6963465B
:10C4D000D31A1B021B0A4B4552D86A4612785B18C6
:10C4E00023606760A7602274E761002E58D031682E
:10C4F0003000994205D3B9E01168994200D3A3E016
:10C500001000C2695B1A002AF6D1E2613200236092
:10C51000C4611600002DD6D153461A785B783100DD
:10C520009342C2D0514649685300884651469B18F1
:10C530000132D2B20A708978DB004344914200D1C3
:10C540009DE0197832000129E3D15C68227C904695
:10C55000414632000029DCD19A686260D968A16046
:10C560001869E0605B69A361069B002BAFD043466E
:10C57000002263606346D31A1B021B0A4B45ACD9E9
:10C5800063469A1A1202120A8A4264D28B1A6A46C7
:10C59000127823606760A7602274E761002EA6D13D
:10C5A00022000123A34601931600B3E75668002B2F
:10C5B00030D09E421ED0009A1F00944602E0964260
:10C5C00006D01700FA69002AF9D16246009212E7F4
:10C5D00065460095BA420FD01568D269FA61002A03
:10C5E00016D013689C466544156045784B4602E7B3
:10C5F00000210FE71A001F00DE69002E0CD0012574
:10C6000000951568D269B1463300FA61002AE8D175
:10C610004578F0E60023EEE60125234B9D6000956A
:10C62000069500250023079501359946089509953B
:10C63000D2E700239A460193B5E66A4624215218B0
:10C64000174B12781A7007E7C91A1160E26123606C
:10C650003200C4615DE76B461B7827606760A760A6
:10C660002374E761002E9BD000233168CB1A33601E
:10C6700022000123E661A346019316004AE75246D1
:10C6800015705EE77023002084230020852300209E
:10C6900088230020742300207C2300208023002096
:10C6A00086230020FEFF7F0000100140019B002B2D
:10C6B00000D09DE0029B994236D1059B002B33D1DF
:10C6C0000023534A13700BB03CBC90469946A246D7
:10C6D000AB46F0BD4F4B002418680025029B00219B
:10C6E0000026574615E01A68BA4200D984E0D86897
:10C6F000BF1A89181E60DC69002807D0DD611D00A3
:10C70000059A986052181202120A5A6023002000FB
:10C71000019C002BE7D1002C01D03E4B1860002378
:10C72000029301330593AFE6002900D15DE00B6869
:10C7300039489846394B3A4DC4583A4B2E781B68C5
:10C74000E11A0902090A0331002E2DD042468A421D
:10C7500000D20A00A820D21812022F49130AC000E2
:10C760002E4D0B504A591B1B121B1202120A1B02A0
:10C7700003321B0A9A42A3D94B590B502F20013880
:10C78000C046C046C046C046C046C046C046C04679
:10C79000C046C046C046C046F1D180218023224A0F
:10C7A00089025B00D1508BE78026D1277602BF003B
:10C7B000C651403FC651C02280271B4EBF025200C7
:10C7C000B7503760012606602F200138C046C046AA
:10C7D000C046C046C046C046C046C046C046C04629
:10C7E000C046C046F1D12E70B0E7FFF70DFD67E7F8
:10C7F0005A46084B1A605DE7BA46002C01D005493D
:10C8000008605146521A1A600293012305933BE6D1
:10C81000862300207423002000100140040500003E
:10C82000902300207023002000E100E0F8B54F467F
:10C830004646C0B40326350080460F0014009946D2
:10C8400015400720002D03D00CBC90469946F8BD3A
:10C85000002A44D0FFF7D8FC4A46224B80201A60B9
:10C860002200214B18321E70204B62601C607B003E
:10C87000DB19DB00D218E260D318C0226361257097
:10C880006570A77025726572A77225746574A774A8
:10C89000C524FF21164B40031D60164B52001D702E
:10C8A000154BA4001D70154B98501A598A433F39F7
:10C8B0000A431A51A122186040461149D2008850FB
:10C8C000C42080001C580F4A2240C0242402224366
:10C8D0001A500D4B0020CA580C4B1A60B4E7034B9A
:10C8E0001A60B1E7782300207C23002080230020F9
:10C8F00074230020842300208523002000E100E031
:10C9000000100140FF00FFFF04050000702300201D
:10C9100010B50B4B1B68002B0BD0002A07D000284A
:10C9200005D0036808201C7C002C04D010BD072013
:10C93000FCE70820FAE759745A610020F6E7C04680
:10C9400080230020F0B5344B1C68002C06D0002852
:10C9500004D00723042903D81800F0BD0823FBE7FF
:10C960004369002BFAD0437C012B44D000262B4B8B
:10C9700010255B68DB05DB0D25D164196378A5788C
:10C980005F1CFFB2BD423AD02578BD4235D05D0074
:10C99000ED186368ED009C4665440423002DDBD050
:10C9A000033B2B7068601E4B1E48C358E960AB60A8
:10C9B000802180236A611C4A5B0049032E616770F5
:10C9C000D1500023C8E7103B5DB2002D19DBAD0844
:10C9D000C035154FAD00ED5903273B40DB00DD406E
:10C9E000AB093B40DBB20025012BC6D00835032B39
:10C9F000C3D00835C1E70E00B9E70423ACE7002730
:10CA0000C2E70F25094FDBB2BC461D40083DAD080B
:10CA1000AD0065446D68DFE78023002000ED00E095
:10CA2000040500000010014000E100E018ED00E006
:10CA300010B52C4A03001168082000292AD0002BC9
:10CA400028D05A69002A25D000221A74264A0830B4
:10CA50005268D205D20D1ED109184A788878541C24
:10CA6000E4B2A04231D00878A0422CD05000821805
:10CA70004868D200844662440420002A0AD0023862
:10CA8000107053604C70802380210020174A4903A6
:10CA90005B00D15010BD103A50B2002817DB80085F
:10CAA000C030124C8000005903242240D200D040F4
:10CAB00082092240D2B20020012ACDD00830032AB8
:10CAC000CAD00830C8E70420E4E70024CBE70F20F1
:10CAD000074CD2B2A4461040083880088000604459
:10CAE0004068E1E78023002000ED00E000E100E085
:10CAF00018ED00E0074B1A680823520701D418000C
:10CB00007047002804D0044B5B7803600023F6E7ED
:10CB10000E23F4E7602400209423002071DF704787
:10CB200072DF704779DF70477DDF704765DF7047E0
:10CB3000F0B55F4656464D464446F0B485B09A4639
:10CB40000EAB80CB06001B8800919B463B8801936F
:10CB50000388002B63D00023994602ABDD1C3B0009
:10CB600000241700984603E033880134A3422CDDEB
:10CB70007368A1009C460422614403A804F0D5FD1B
:10CB80000022290003A8FFF7D1FF002829D12B7824
:10CB9000BB42E9D14B46002B2AD043461A88D31911
:10CBA0005B453EDC5244290003A8FFF7BFFF002885
:10CBB00017D143462A781B880134D3184246138084
:10CBC000012399463388A342D2DC4B464746002BCB
:10CBD00025D03B88019A013B9B1A9BB20C20FF2B6E
:10CBE0001AD905B03CBC90469946A246AB46F0BD6A
:10CBF00043461B88DA1902325A4512DC4246013399
:10CC000069469BB2138052460978D15443461A882C
:10CC1000013292B21A80C5E71100524653540020E7
:10CC2000DFE70C20DDE7C046F0B55F4656464D46CF
:10CC300044460023F0B417881380436B87B0060086
:10CC40000D001400002B00D19CE1022F00D891E1CF
:10CC50001A7802230B701121238801339BB22380A1
:10CC6000E954238801339BB22380EA54238801339B
:10CC70009BB22380326B002A00D170E01900123180
:10CC8000B94200D976E11121E954238801390133F1
:10CC90009BB22380E954238801339BB22380D17B4C
:10CCA000E954238801339BB22380917BE954238884
:10CCB00001339BB22380517BE954238801339BB21B
:10CCC0002380117BE954238801339BB22380D17ADE
:10CCD000E954238801339BB22380917AE954238855
:10CCE00001339BB22380517AE954238801339BB2EC
:10CCF0002380117AE954238801339BB22380D179B0
:10CD0000E954238801339BB223809179E954238825
:10CD100001339BB223805179E954238801339BB2BC
:10CD200023801179E954238801339BB22380D17881
:10CD3000E954238801339BB223809178E9542388F6
:10CD400001339BB223805178E954238801339BB28D
:10CD500023801278EA54238801339BB223802E2249
:10CD6000B25C002A00D00FE12D22B25C002A00D074
:10CD70002CE1B278002A00D055E1F278002A14D0D4
:10CD8000D91CB94200D9F5E00221E95423880139C0
:10CD900001339BB22380E954238801339BB2238063
:10CDA000EA54238801339BB223807268002A15D08D
:10CDB000D91CB94200D9DDE002211278E954238858
:10CDC000083101339BB22380E954238852B20133E6
:10CDD0009BB22380EA542388013323803389002BBC
:10CDE00000D09BE1338A002B00D0B1E1338B002BC4
:10CDF00000D0C7E1336A002B4BD022880C20911D54
:10CE00009346B94200D9B6E0198805388A46052903
:10CE100000D8B0E0BB496A468C46D4446146D18113
:10CE2000D1898C46B84988468C4500D8A3E05988FA
:10CE30008C46052900D89EE0B2496144D18189B26F
:10CE4000414500D897E0B1498A4504D08C4502D0CD
:10CE5000E24500D98FE005215A46A95422880D31B8
:10CE6000013292B22280A9542288013292B22280E9
:10CE70001988AA181170090A51702288023292B2D8
:10CE800022805988AB181970090A59702388023317
:10CE90002380736A9846002B30D09A882188131D0E
:10CEA0005B180C20BB4266D8931CFE2B63D8033260
:10CEB0006A54FF22238801339BB22380EA544246FE
:10CEC000238801339BB223801288EB181A70120A50
:10CED0005A704246238802339BB223809288002AEC
:10CEE0000CD0414689680538002944D0E81804F080
:10CEF0001CFC434622889B88D31823802C23F35C98
:10CF0000002B00D0B0E033780020002B33D03288E3
:10CF10000720012A2FD02288901CB8422AD8012B42
:10CF200004D1737802339B189F4223D3023FBA1A6D
:10CF300004AF93B22818390098463B80FFF7F4FD00
:10CF4000002818D13378022B00D141E1012B00D108
:10CF5000DEE043460821FE2B0CD822885E1CAE542E
:10CF60002288013292B22280A954228801329B1871
:10CF7000238000E00C2007B03CBC90469946A246B6
:10CF8000AB46F0BD002375E6D91C0C20B942F2D89F
:10CF90000221E9542388103001339BB22380E854E6
:10CFA000238801339BB22380022A00D10BE100D8F1
:10CFB00004E1032A00D109E1042A00D0FCE00322A5
:10CFC000EA54238801339BB22380CDE609330C2039
:10CFD000BB42D0D804A8FFF7A1FD0028CBD108227E
:10CFE00023880921EA542388133201339BB223801A
:10CFF000EA5402AB9C462088153A013080B220806A
:10D000006144281804F091FB238802AA0633127A9F
:10D010009BB22380002A00D00122EA5423880133E6
:10D020009BB22380A5E604330C20BB42A3D804A8FE
:10D03000FFF778FD00289ED103222388EA54238835
:10D04000163201339BB22380EA54238802AA0133AB
:10D050009BB212892380EB181A70120A5A70238827
:10D0600002339BB2238088E6B36A9846002B00D136
:10D07000A2E09B880233FE2B00D97BE70022914679
:10D08000163292461632208893460CE04B46B26A1E
:10D090005B0090464B449B00984443469B88023378
:10D0A000FE2B00D966E7524601332B542388013307
:10D0B0009BB22380EA544246238801339BB22380EB
:10D0C0001288EB181A70120A5A70434620880230F0
:10D0D00080B220809A88002A0BD0996800296BD0F2
:10D0E000281804F022FB434620889B88C01880B291
:10D0F00020804B460133DBB299465B46F35C4B45DF
:10D10000C4D800E77FF3FFFF7DF30000FFFF0000BE
:10D110007378984500D31DE743461BE708239846DC
:10D12000B044019700942B00022202214046FFF7F1
:10D13000FFFC002800D01EE7019700942B0010226E
:10D1400006214046FFF7F4FC002800D013E749E62B
:10D1500010239846B044019700942B00022203212B
:10D160004046FFF7E5FC002800D004E70197009453
:10D170002B00102207214046FFF7DAFC002800D0E0
:10D18000F9E633E618239846B044019700942B0043
:10D19000022214214046FFF7CBFC002800D0EAE62B
:10D1A000019700942B00102215214046FFF7C0FC88
:10D1B000002800D0DFE61DE60720DCE6012AFBD1CF
:10D1C0000022EA54FDE60122EA54FAE6E954F8E6C0
:10D1D0003B880921984500D3BDE64346BAE6C046E0
:10D1E00030B593B01F236A460C009380D38000288B
:10D1F00022D0C3785B071CD501AA02A9FFF714FD52
:10D2000002AD002816D1002C19D0E378002B10D1E4
:10D210006B460AA99A1D2000FFF706FD002809D1D8
:10D220006B469B790AAA694628000979FFF778FCC2
:10D2300000E0072013B030BD90800025E3E76B4687
:10D240000022DC800023EEE773DF704770B59F4E4D
:10D2500086B0072200213000FAF7DAFF9C4C637891
:10D26000002B6ED09B4D2B78012B05D0A278002A85
:10D2700000D1EFE0022B0FD1974A1268002A00D1AB
:10D28000FDE00121954B0820197090472B78012B68
:10D2900000D1F7E0022B5FD0227B002A01D1032BC3
:10D2A0007AD0227E002A02D1042B00D107E18A4ADB
:10D2B0001268002A02D0033B012B77D90022884B49
:10D2C0001A70182200216846FAF7A2FF00236A4666
:10D2D000137013722A7801930393022A00D18BE012
:10D2E00072D9032A00D194E0042A22D16B46A28B82
:10D2F0001A82228C5A827B4B1A79002A00D1B6E01E
:10D300002278002A00D1B6E0774A1278002A00D0AD
:10D31000B1E0694603930423023274480A72002183
:10D32000C370FFF75DFF002864D10622704B1A70AE
:10D330002A78002A51D1684B1B68002B56D1002057
:10D3400058E0A378634D002BA0D02B78022B93D00C
:10D35000012BA1D102232B70A378002B17D0737857
:10D36000002B00D0B0E0B378002B00D0ACE0F37815
:10D37000002B00D0A8E03379002B00D0A4E0737913
:10D38000002B00D0A0E0B379002B00D09CE0032359
:10D390002B70237B002B61D104232B70237E002B69
:10D3A00000D18CE04C4B1A68002A87D02378002BE0
:10D3B00084D04D4B1B78002B00D07FE70121484BD8
:10D3C0000720197090477CE7012AB2D169464B8249
:10D3D0000B82474B01960A701A706846FFF734FFBC
:10D3E000002807D13C4B1B68002BA8D0404A10787E
:10D3F0009847002006B070BD012369460B706B464C
:10D40000218901965982694663680B82384B1A70EC
:10D41000E3E76B46A28A5A82228A1A82314B1A7932
:10D42000002A1DD02278002A1DD02F4A1278002A07
:10D4300019D169460393042302322C480A72002151
:10D44000C370FFF7CDFE0028D4D10522284B1A70F7
:10D450002A786EE7022B00D01EE798E7032326E721
:10D460001A7B002ADED10322214B1A70B5E71A7B02
:10D47000002A00D044E704221D4B1A70ADE717497B
:10D480000A7004E76278002A00D163E77278002A04
:10D4900000D00CE7B278002A00D008E7F278002A22
:10D4A00000D004E73279002A00D000E77279002A20
:10D4B00000D0FCE6B279002A00D14BE7F7E6002362
:10D4C0000B4A2B701370F9E60223F0E6D4240020F7
:10D4D000DC24002074250020A824002075250020CD
:10D4E0005325002024250020CF2400206424002080
:10D4F00088250020F8B504000E000E20002C00D175
:10D500007BE0002A79D000203C4908703C490B6040
:10D5100006993C4B19603C490B0023CA23C323CA1C
:10D5200023C323CA23C3072200213848FAF770FE19
:10D53000374B384A384D1A60384A00219A60280023
:10D540003822FAF765FE237822002B70A378103278
:10D55000AB70E378EB7063786B702B00103303CA09
:10D5600003C32B00103A083303CA03C32B0008324D
:10D57000183303CA03C3636A002B11D0284B294F09
:10D580006B62616A9F600A881A8088889880002888
:10D5900006D000238A68D25CFA5401338342F9D161
:10D5A000A36A002B14D0204B204FAB62A06A9F606F
:10D5B0008188998002881A800023002905D082681A
:10D5C000D25CFA5401338B42F9D12C23E25CEA5449
:10D5D000236A002B06D0164B2B62226A5188598091
:10D5E00012881A806368002B03D0124B6B6063684B
:10D5F0006B6031002800FFF7F3FDF8BD74250020B3
:10D60000A8240020D0240020DC240020D4240020E2
:10D61000242500200025002064240020542500201B
:10D620009C240020B02400207C25002034250020EC
:10D63000782500202025002010B500240B4B82B057
:10D64000187001A80194FFF755FA082809D000289E
:10D6500005D1019B002B05D00122054B1A7002B0A9
:10D6600010BD0194FFF7F2FDF9E7C04674250020D4
:10D67000AC24002030B5038883B0112B1ED0192BA9
:10D6800007D0102B01D003B030BD82882D4B1A80FB
:10D69000F9E78479002CF6D12B4B1D78022D4ED062
:10D6A00038D9032D23D0042DEDD1284B1C70284BE5
:10D6B0001B68002BE7D000209847E4E70024254BA7
:10D6C0001C70204B82881B889A42DCD101251E4B9E
:10D6D00001A81D700194FFF70DFA082824D0002836
:10D6E00027D1019B002B20D01B4B1D70CBE7174A85
:10D6F0001570042201A81A700194FFF7FBF908289D
:10D7000012D0002815D1019B002B0ED00122124B04
:10D710001A70B8E7012DB6D1022201A81A7001943F
:10D72000FFF7E8F90828DAD10194FFF78FFD002808
:10D73000A9D00A4B1B68002BA5D09847A3E703226A
:10D74000D8E7C046A62000207425002088250020A8
:10D75000A8240020CF240020AC240020D0240020C6
:10D7600075DF704776DF70477ADF70477BDF704781
:10D7700010B5184B82B01888174B984214D0174A2E
:10D78000174C13780133DBB21370217B99420DD211
:10D7900000231370237C002B12D16369002B03D06C
:10D7A000002201A80270984702B010BD0D49FFF792
:10D7B000D7FF0028F8D0A369002BF5D09847F3E7EE
:10D7C0003B21FFF7CFFF0028E7D0A369002BE4D06F
:10D7D0009847E2E7D4250020FFFF000094250020B1
:10D7E00098250020D825002030B51B4B1B4A5B88AC
:10D7F000118883B099420FD852889A420CD3184BA3
:10D800005B69002B03D0012201A802709847154CD8
:10D810000023237003B030BD124C2378002B08D0B6
:10D820000F4B5B69002BF3D0002201A802709847D0
:10D83000EEE70D4B0A4D1B78002B0BD0A968002298
:10D840000A48FFF77FF80028E2D0AB69002BDFD051
:10D850009847DDE76968F2E78C250020D82500208D
:10D86000982500208925002094250020B42500203B
:10D87000164902000B0070B532CA32C332CA32C335
:10D8800012681A600022124B01681A70002916D023
:10D89000104C0832200003F048FF2000FFF764FF1F
:10D8A00000280BD101220C4B52421A8000220B4B54
:10D8B00000211A700A480B4AFFF72AF870BD054884
:10D8C000FFF754FF0028EDD0F8E7C0469825002068
:10D8D00089250020D8250020D4250020942500206B
:10D8E0009039020071D7010010B50388112B35D093
:10D8F00021D9122B17D0502B1CD1214CC288E3897F
:10D900009A4217D1C38B022B14D11E33C35CDB07A1
:10D910000ED41C48FFF78CF800280BD0A369002B0D
:10D9200008D0984706E0811D0822174803F0FDFE45
:10D93000FFF75AFF10BD102BFCD101008288134B5A
:10D9400016311A801048082203F0EFFE0022104B17
:10D950001A700B4BDB89002BECD1E9E701220B4B52
:10D9600052421A8000220A4B06481A70FFF760F8EC
:10D970000028DFD0024B9B69002BDBD09847D9E70A
:10D9800098250020B42500208C250020D4250020D7
:10D9900094250020A0DF7047A2DF704763DF704747
:10D9A00010B5002808D0002906D00B88112B15D0FF
:10D9B000502B02D0102B0ED010BDCB88028A9A4279
:10D9C00010D082889A42F7D18369002BF4D0CA8B99
:10D9D00020319847F0E78B888382EDE701235B4293
:10D9E0008382E9E7CA8B022AEBD12023CA5C1F3B62
:10D9F000134002D001238375DEE78375DCE7C04660
:10DA0000F0B54D465F46444656461023F0B495B0F7
:10DA100004000D0010227B4904A899460E2703F04C
:10DA200084FE002C0ED0002D0CD001235B42A3827B
:10DA30002B682100A361002304A8A375FFF7AEFFA4
:10DA4000071E07D0380015B03CBC90469946A24648
:10DA5000AB46F0BD237802A98B700123A21C0120E4
:10DA60000B80FFF797FF071EECD1032200216846C9
:10DA7000FAF7CEFB6B460F221B78924693430122A6
:10DA800093465A461343524613401022904642464C
:10DA900013436A4613705378524693435A461343CE
:10DAA00052461340424613436A4653709378062207
:10DAB0009343043A13436A460DAD937000211C2230
:10DAC0002800FAF7A5FB42462B7801AE13432B70D2
:10DAD0006B466A466B612378002193730323300001
